{
	"src/Oracle.sol": {
		"Oracle": {
			"abi": [
				{
					"inputs": [],
					"name": "latestRoundData",
					"outputs": [
						{
							"internalType": "uint80",
							"name": "roundId",
							"type": "uint80"
						},
						{
							"internalType": "int256",
							"name": "answer",
							"type": "int256"
						},
						{
							"internalType": "uint256",
							"name": "startedAt",
							"type": "uint256"
						},
						{
							"internalType": "uint256",
							"name": "updatedAt",
							"type": "uint256"
						},
						{
							"internalType": "uint80",
							"name": "answeredInRound",
							"type": "uint80"
						}
					],
					"stateMutability": "pure",
					"type": "function"
				}
			],
			"devdoc": {
				"kind": "dev",
				"methods": {},
				"version": 1
			},
			"evm": {
				"assembly": "    /* \"src/Oracle.sol\":139:573  contract Oracle is IOracle {... */\n  mstore(0x40, 0x80)\n  callvalue\n  dup1\n  iszero\n  tag_1\n  jumpi\n  revert(0x00, 0x00)\ntag_1:\n  pop\n  dataSize(sub_0)\n  dup1\n  dataOffset(sub_0)\n  0x00\n  codecopy\n  0x00\n  return\nstop\n\nsub_0: assembly {\n        /* \"src/Oracle.sol\":139:573  contract Oracle is IOracle {... */\n      mstore(0x40, 0x80)\n      callvalue\n      dup1\n      iszero\n      tag_1\n      jumpi\n      revert(0x00, 0x00)\n    tag_1:\n      pop\n      jumpi(tag_2, lt(calldatasize, 0x04))\n      shr(0xe0, calldataload(0x00))\n      dup1\n      0xfeaf968c\n      eq\n      tag_3\n      jumpi\n    tag_2:\n      revert(0x00, 0x00)\n        /* \"src/Oracle.sol\":219:570  function latestRoundData() external pure returns (... */\n    tag_3:\n      tag_4\n      tag_5\n      jump\t// in\n    tag_4:\n      mload(0x40)\n      tag_6\n      swap6\n      swap5\n      swap4\n      swap3\n      swap2\n      swap1\n      tag_7\n      jump\t// in\n    tag_6:\n      mload(0x40)\n      dup1\n      swap2\n      sub\n      swap1\n      return\n    tag_5:\n        /* \"src/Oracle.sol\":279:293  uint80 roundId */\n      0x00\n        /* \"src/Oracle.sol\":304:317  int256 answer */\n      0x00\n        /* \"src/Oracle.sol\":328:345  uint256 startedAt */\n      0x00\n        /* \"src/Oracle.sol\":356:373  uint256 updatedAt */\n      0x00\n        /* \"src/Oracle.sol\":384:406  uint80 answeredInRound */\n      0x00\n        /* \"src/Oracle.sol\":537:538  0 */\n      0x00\n        /* \"src/Oracle.sol\":540:552  3934 * 10**8 */\n      0x5b98779e00\n        /* \"src/Oracle.sol\":554:555  0 */\n      0x00\n        /* \"src/Oracle.sol\":557:558  0 */\n      0x00\n        /* \"src/Oracle.sol\":560:561  0 */\n      0x00\n        /* \"src/Oracle.sol\":529:562  return (0, 3934 * 10**8, 0, 0, 0) */\n      swap5\n      pop\n      swap5\n      pop\n      swap5\n      pop\n      swap5\n      pop\n      swap5\n      pop\n        /* \"src/Oracle.sol\":219:570  function latestRoundData() external pure returns (... */\n      swap1\n      swap2\n      swap3\n      swap4\n      swap5\n      jump\t// out\n        /* \"#utility.yul\":7:112   */\n    tag_9:\n        /* \"#utility.yul\":43:50   */\n      0x00\n        /* \"#utility.yul\":83:105   */\n      0xffffffffffffffffffff\n        /* \"#utility.yul\":76:81   */\n      dup3\n        /* \"#utility.yul\":72:106   */\n      and\n        /* \"#utility.yul\":61:106   */\n      swap1\n      pop\n        /* \"#utility.yul\":7:112   */\n      swap2\n      swap1\n      pop\n      jump\t// out\n        /* \"#utility.yul\":118:233   */\n    tag_10:\n        /* \"#utility.yul\":203:226   */\n      tag_18\n        /* \"#utility.yul\":220:225   */\n      dup2\n        /* \"#utility.yul\":203:226   */\n      tag_9\n      jump\t// in\n    tag_18:\n        /* \"#utility.yul\":198:201   */\n      dup3\n        /* \"#utility.yul\":191:227   */\n      mstore\n        /* \"#utility.yul\":118:233   */\n      pop\n      pop\n      jump\t// out\n        /* \"#utility.yul\":239:315   */\n    tag_11:\n        /* \"#utility.yul\":275:282   */\n      0x00\n        /* \"#utility.yul\":304:309   */\n      dup2\n        /* \"#utility.yul\":293:309   */\n      swap1\n      pop\n        /* \"#utility.yul\":239:315   */\n      swap2\n      swap1\n      pop\n      jump\t// out\n        /* \"#utility.yul\":321:436   */\n    tag_12:\n        /* \"#utility.yul\":406:429   */\n      tag_21\n        /* \"#utility.yul\":423:428   */\n      dup2\n        /* \"#utility.yul\":406:429   */\n      tag_11\n      jump\t// in\n    tag_21:\n        /* \"#utility.yul\":401:404   */\n      dup3\n        /* \"#utility.yul\":394:430   */\n      mstore\n        /* \"#utility.yul\":321:436   */\n      pop\n      pop\n      jump\t// out\n        /* \"#utility.yul\":442:519   */\n    tag_13:\n        /* \"#utility.yul\":479:486   */\n      0x00\n        /* \"#utility.yul\":508:513   */\n      dup2\n        /* \"#utility.yul\":497:513   */\n      swap1\n      pop\n        /* \"#utility.yul\":442:519   */\n      swap2\n      swap1\n      pop\n      jump\t// out\n        /* \"#utility.yul\":525:643   */\n    tag_14:\n        /* \"#utility.yul\":612:636   */\n      tag_24\n        /* \"#utility.yul\":630:635   */\n      dup2\n        /* \"#utility.yul\":612:636   */\n      tag_13\n      jump\t// in\n    tag_24:\n        /* \"#utility.yul\":607:610   */\n      dup3\n        /* \"#utility.yul\":600:637   */\n      mstore\n        /* \"#utility.yul\":525:643   */\n      pop\n      pop\n      jump\t// out\n        /* \"#utility.yul\":649:1301   */\n    tag_7:\n        /* \"#utility.yul\":848:852   */\n      0x00\n        /* \"#utility.yul\":886:889   */\n      0xa0\n        /* \"#utility.yul\":875:884   */\n      dup3\n        /* \"#utility.yul\":871:890   */\n      add\n        /* \"#utility.yul\":863:890   */\n      swap1\n      pop\n        /* \"#utility.yul\":900:969   */\n      tag_26\n        /* \"#utility.yul\":966:967   */\n      0x00\n        /* \"#utility.yul\":955:964   */\n      dup4\n        /* \"#utility.yul\":951:968   */\n      add\n        /* \"#utility.yul\":942:948   */\n      dup9\n        /* \"#utility.yul\":900:969   */\n      tag_10\n      jump\t// in\n    tag_26:\n        /* \"#utility.yul\":979:1049   */\n      tag_27\n        /* \"#utility.yul\":1045:1047   */\n      0x20\n        /* \"#utility.yul\":1034:1043   */\n      dup4\n        /* \"#utility.yul\":1030:1048   */\n      add\n        /* \"#utility.yul\":1021:1027   */\n      dup8\n        /* \"#utility.yul\":979:1049   */\n      tag_12\n      jump\t// in\n    tag_27:\n        /* \"#utility.yul\":1059:1131   */\n      tag_28\n        /* \"#utility.yul\":1127:1129   */\n      0x40\n        /* \"#utility.yul\":1116:1125   */\n      dup4\n        /* \"#utility.yul\":1112:1130   */\n      add\n        /* \"#utility.yul\":1103:1109   */\n      dup7\n        /* \"#utility.yul\":1059:1131   */\n      tag_14\n      jump\t// in\n    tag_28:\n        /* \"#utility.yul\":1141:1213   */\n      tag_29\n        /* \"#utility.yul\":1209:1211   */\n      0x60\n        /* \"#utility.yul\":1198:1207   */\n      dup4\n        /* \"#utility.yul\":1194:1212   */\n      add\n        /* \"#utility.yul\":1185:1191   */\n      dup6\n        /* \"#utility.yul\":1141:1213   */\n      tag_14\n      jump\t// in\n    tag_29:\n        /* \"#utility.yul\":1223:1294   */\n      tag_30\n        /* \"#utility.yul\":1289:1292   */\n      0x80\n        /* \"#utility.yul\":1278:1287   */\n      dup4\n        /* \"#utility.yul\":1274:1293   */\n      add\n        /* \"#utility.yul\":1265:1271   */\n      dup5\n        /* \"#utility.yul\":1223:1294   */\n      tag_10\n      jump\t// in\n    tag_30:\n        /* \"#utility.yul\":649:1301   */\n      swap7\n      swap6\n      pop\n      pop\n      pop\n      pop\n      pop\n      pop\n      jump\t// out\n\n    auxdata: 0xa2646970667358221220dbad85aba9da6d8e3aa4a9c87d60faa08abafae9f862920e702c2b5b58101cb564736f6c634300081b0033\n}\n",
				"bytecode": {
					"linkReferences": {},
					"object": "6080604052348015600e575f5ffd5b506101338061001c5f395ff3fe6080604052348015600e575f5ffd5b50600436106026575f3560e01c8063feaf968c14602a575b5f5ffd5b60306048565b604051603f95949392919060b6565b60405180910390f35b5f5f5f5f5f5f645b98779e005f5f5f945094509450945094509091929394565b5f69ffffffffffffffffffff82169050919050565b6084816068565b82525050565b5f819050919050565b609a81608a565b82525050565b5f819050919050565b60b08160a0565b82525050565b5f60a08201905060c75f830188607d565b60d260208301876093565b60dd604083018660a9565b60e8606083018560a9565b60f36080830184607d565b969550505050505056fea2646970667358221220dbad85aba9da6d8e3aa4a9c87d60faa08abafae9f862920e702c2b5b58101cb564736f6c634300081b0033",
					"opcodes": "PUSH1 0x80 PUSH1 0x40 MSTORE CALLVALUE DUP1 ISZERO PUSH1 0xE JUMPI PUSH0 PUSH0 REVERT JUMPDEST POP PUSH2 0x133 DUP1 PUSH2 0x1C PUSH0 CODECOPY PUSH0 RETURN INVALID PUSH1 0x80 PUSH1 0x40 MSTORE CALLVALUE DUP1 ISZERO PUSH1 0xE JUMPI PUSH0 PUSH0 REVERT JUMPDEST POP PUSH1 0x4 CALLDATASIZE LT PUSH1 0x26 JUMPI PUSH0 CALLDATALOAD PUSH1 0xE0 SHR DUP1 PUSH4 0xFEAF968C EQ PUSH1 0x2A JUMPI JUMPDEST PUSH0 PUSH0 REVERT JUMPDEST PUSH1 0x30 PUSH1 0x48 JUMP JUMPDEST PUSH1 0x40 MLOAD PUSH1 0x3F SWAP6 SWAP5 SWAP4 SWAP3 SWAP2 SWAP1 PUSH1 0xB6 JUMP JUMPDEST PUSH1 0x40 MLOAD DUP1 SWAP2 SUB SWAP1 RETURN JUMPDEST PUSH0 PUSH0 PUSH0 PUSH0 PUSH0 PUSH0 PUSH5 0x5B98779E00 PUSH0 PUSH0 PUSH0 SWAP5 POP SWAP5 POP SWAP5 POP SWAP5 POP SWAP5 POP SWAP1 SWAP2 SWAP3 SWAP4 SWAP5 JUMP JUMPDEST PUSH0 PUSH10 0xFFFFFFFFFFFFFFFFFFFF DUP3 AND SWAP1 POP SWAP2 SWAP1 POP JUMP JUMPDEST PUSH1 0x84 DUP2 PUSH1 0x68 JUMP JUMPDEST DUP3 MSTORE POP POP JUMP JUMPDEST PUSH0 DUP2 SWAP1 POP SWAP2 SWAP1 POP JUMP JUMPDEST PUSH1 0x9A DUP2 PUSH1 0x8A JUMP JUMPDEST DUP3 MSTORE POP POP JUMP JUMPDEST PUSH0 DUP2 SWAP1 POP SWAP2 SWAP1 POP JUMP JUMPDEST PUSH1 0xB0 DUP2 PUSH1 0xA0 JUMP JUMPDEST DUP3 MSTORE POP POP JUMP JUMPDEST PUSH0 PUSH1 0xA0 DUP3 ADD SWAP1 POP PUSH1 0xC7 PUSH0 DUP4 ADD DUP9 PUSH1 0x7D JUMP JUMPDEST PUSH1 0xD2 PUSH1 0x20 DUP4 ADD DUP8 PUSH1 0x93 JUMP JUMPDEST PUSH1 0xDD PUSH1 0x40 DUP4 ADD DUP7 PUSH1 0xA9 JUMP JUMPDEST PUSH1 0xE8 PUSH1 0x60 DUP4 ADD DUP6 PUSH1 0xA9 JUMP JUMPDEST PUSH1 0xF3 PUSH1 0x80 DUP4 ADD DUP5 PUSH1 0x7D JUMP JUMPDEST SWAP7 SWAP6 POP POP POP POP POP POP JUMP INVALID LOG2 PUSH5 0x6970667358 0x22 SLT KECCAK256 0xDB 0xAD DUP6 0xAB 0xA9 0xDA PUSH14 0x8E3AA4A9C87D60FAA08ABAFAE9F8 PUSH3 0x920E70 0x2C 0x2B JUMPDEST PC LT SHR 0xB5 PUSH5 0x736F6C6343 STOP ADDMOD SHL STOP CALLER "
				},
				"gasEstimates": {
					"creation": {
						"codeDepositCost": "61400",
						"executionCost": "109",
						"totalCost": "61509"
					},
					"external": {
						"latestRoundData()": "infinite"
					}
				},
				"methodIdentifiers": {
					"latestRoundData()": "feaf968c"
				}
			},
			"storageLayout": {
				"storage": [],
				"types": null
			},
			"userdoc": {
				"kind": "user",
				"methods": {},
				"version": 1
			}
		}
	}
}