{
	"src/KipuBankV21.sol": {
		"KipuBank": {
			"abi": [
				{
					"inputs": [
						{
							"internalType": "address",
							"name": "_priceFeedAddress",
							"type": "address"
						},
						{
							"internalType": "address",
							"name": "_usdcTokenAddress",
							"type": "address"
						},
						{
							"internalType": "uint256",
							"name": "_bankCapUSD",
							"type": "uint256"
						}
					],
					"stateMutability": "nonpayable",
					"type": "constructor"
				},
				{
					"inputs": [],
					"name": "BankCapExceeded",
					"type": "error"
				},
				{
					"inputs": [],
					"name": "InsufficientBalance",
					"type": "error"
				},
				{
					"inputs": [],
					"name": "InvalidAmount",
					"type": "error"
				},
				{
					"inputs": [
						{
							"internalType": "address",
							"name": "owner",
							"type": "address"
						}
					],
					"name": "OwnableInvalidOwner",
					"type": "error"
				},
				{
					"inputs": [
						{
							"internalType": "address",
							"name": "account",
							"type": "address"
						}
					],
					"name": "OwnableUnauthorizedAccount",
					"type": "error"
				},
				{
					"inputs": [],
					"name": "ReentrantCall",
					"type": "error"
				},
				{
					"inputs": [
						{
							"internalType": "bytes",
							"name": "errorData",
							"type": "bytes"
						}
					],
					"name": "WithdrawalFailed",
					"type": "error"
				},
				{
					"inputs": [],
					"name": "WithdrawalLimitExceeded",
					"type": "error"
				},
				{
					"anonymous": false,
					"inputs": [
						{
							"indexed": true,
							"internalType": "address",
							"name": "user",
							"type": "address"
						},
						{
							"indexed": false,
							"internalType": "uint256",
							"name": "amount",
							"type": "uint256"
						}
					],
					"name": "DepositEth",
					"type": "event"
				},
				{
					"anonymous": false,
					"inputs": [
						{
							"indexed": true,
							"internalType": "address",
							"name": "user",
							"type": "address"
						},
						{
							"indexed": false,
							"internalType": "uint256",
							"name": "amount",
							"type": "uint256"
						}
					],
					"name": "DepositUSDC",
					"type": "event"
				},
				{
					"anonymous": false,
					"inputs": [
						{
							"indexed": true,
							"internalType": "address",
							"name": "previousOwner",
							"type": "address"
						},
						{
							"indexed": true,
							"internalType": "address",
							"name": "newOwner",
							"type": "address"
						}
					],
					"name": "OwnershipTransferred",
					"type": "event"
				},
				{
					"anonymous": false,
					"inputs": [
						{
							"indexed": true,
							"internalType": "address",
							"name": "user",
							"type": "address"
						},
						{
							"indexed": false,
							"internalType": "uint256",
							"name": "amount",
							"type": "uint256"
						}
					],
					"name": "WithdrawalEth",
					"type": "event"
				},
				{
					"anonymous": false,
					"inputs": [
						{
							"indexed": true,
							"internalType": "address",
							"name": "user",
							"type": "address"
						},
						{
							"indexed": false,
							"internalType": "uint256",
							"name": "amount",
							"type": "uint256"
						}
					],
					"name": "WithdrawalUSDC",
					"type": "event"
				},
				{
					"inputs": [],
					"name": "BANK_CAP_USD",
					"outputs": [
						{
							"internalType": "uint256",
							"name": "",
							"type": "uint256"
						}
					],
					"stateMutability": "view",
					"type": "function"
				},
				{
					"inputs": [],
					"name": "USDC_TOKEN",
					"outputs": [
						{
							"internalType": "contract IERC20",
							"name": "",
							"type": "address"
						}
					],
					"stateMutability": "view",
					"type": "function"
				},
				{
					"inputs": [],
					"name": "WITHDRAWAL_LIMIT",
					"outputs": [
						{
							"internalType": "uint256",
							"name": "",
							"type": "uint256"
						}
					],
					"stateMutability": "view",
					"type": "function"
				},
				{
					"inputs": [
						{
							"internalType": "address",
							"name": "",
							"type": "address"
						}
					],
					"name": "balances",
					"outputs": [
						{
							"internalType": "uint256",
							"name": "eth",
							"type": "uint256"
						},
						{
							"internalType": "uint256",
							"name": "usdc",
							"type": "uint256"
						}
					],
					"stateMutability": "view",
					"type": "function"
				},
				{
					"inputs": [],
					"name": "depositCount",
					"outputs": [
						{
							"internalType": "uint256",
							"name": "",
							"type": "uint256"
						}
					],
					"stateMutability": "view",
					"type": "function"
				},
				{
					"inputs": [],
					"name": "depositEth",
					"outputs": [],
					"stateMutability": "payable",
					"type": "function"
				},
				{
					"inputs": [
						{
							"internalType": "uint256",
							"name": "_amount",
							"type": "uint256"
						}
					],
					"name": "depositUSDC",
					"outputs": [],
					"stateMutability": "nonpayable",
					"type": "function"
				},
				{
					"inputs": [],
					"name": "getBalanceEth",
					"outputs": [
						{
							"internalType": "uint256",
							"name": "",
							"type": "uint256"
						}
					],
					"stateMutability": "view",
					"type": "function"
				},
				{
					"inputs": [],
					"name": "owner",
					"outputs": [
						{
							"internalType": "address",
							"name": "",
							"type": "address"
						}
					],
					"stateMutability": "view",
					"type": "function"
				},
				{
					"inputs": [],
					"name": "priceFeed",
					"outputs": [
						{
							"internalType": "contract AggregatorV3Interface",
							"name": "",
							"type": "address"
						}
					],
					"stateMutability": "view",
					"type": "function"
				},
				{
					"inputs": [],
					"name": "renounceOwnership",
					"outputs": [],
					"stateMutability": "nonpayable",
					"type": "function"
				},
				{
					"inputs": [],
					"name": "totalDeposited",
					"outputs": [
						{
							"internalType": "uint256",
							"name": "",
							"type": "uint256"
						}
					],
					"stateMutability": "view",
					"type": "function"
				},
				{
					"inputs": [
						{
							"internalType": "address",
							"name": "newOwner",
							"type": "address"
						}
					],
					"name": "transferOwnership",
					"outputs": [],
					"stateMutability": "nonpayable",
					"type": "function"
				},
				{
					"inputs": [],
					"name": "withdrawalCount",
					"outputs": [
						{
							"internalType": "uint256",
							"name": "",
							"type": "uint256"
						}
					],
					"stateMutability": "view",
					"type": "function"
				},
				{
					"inputs": [
						{
							"internalType": "uint256",
							"name": "_amount",
							"type": "uint256"
						}
					],
					"name": "withdrawalEth",
					"outputs": [],
					"stateMutability": "nonpayable",
					"type": "function"
				},
				{
					"inputs": [
						{
							"internalType": "uint256",
							"name": "_amount",
							"type": "uint256"
						}
					],
					"name": "withdrawalUSDC",
					"outputs": [],
					"stateMutability": "nonpayable",
					"type": "function"
				}
			],
			"devdoc": {
				"errors": {
					"OwnableInvalidOwner(address)": [
						{
							"details": "The owner is not a valid owner account. (eg. `address(0)`)"
						}
					],
					"OwnableUnauthorizedAccount(address)": [
						{
							"details": "The caller account is not authorized to perform an operation."
						}
					],
					"WithdrawalFailed(bytes)": [
						{
							"params": {
								"errorData": "The data returned by the failed call."
							}
						}
					]
				},
				"events": {
					"DepositEth(address,uint256)": {
						"params": {
							"amount": "The amount deposited in wei.",
							"user": "The address of the user who deposited."
						}
					},
					"DepositUSDC(address,uint256)": {
						"params": {
							"amount": "The amount deposited in USDC.",
							"user": "The address of the user who deposited."
						}
					},
					"WithdrawalEth(address,uint256)": {
						"params": {
							"amount": "The amount withdrawn in wei.",
							"user": "The address of the user who withdrew."
						}
					}
				},
				"kind": "dev",
				"methods": {
					"constructor": {
						"params": {
							"_bankCapUSD": "The total deposit cap for ETH, in whole USD (e.g., 10000 for $10,000).",
							"_priceFeedAddress": "The Chainlink ETH/USD price feed address.",
							"_usdcTokenAddress": "The address of the USDC token contract."
						}
					},
					"depositEth()": {
						"details": "Reverts if the amount is zero or if the deposit would exceed the global bank cap.Follows the checks-effects-interactions pattern."
					},
					"getBalanceEth()": {
						"returns": {
							"_0": "The balance in wei."
						}
					},
					"owner()": {
						"details": "Returns the address of the current owner."
					},
					"renounceOwnership()": {
						"details": "Leaves the contract without owner. It will not be possible to call `onlyOwner` functions. Can only be called by the current owner. NOTE: Renouncing ownership will leave the contract without an owner, thereby disabling any functionality that is only available to the owner."
					},
					"transferOwnership(address)": {
						"details": "Transfers ownership of the contract to a new account (`newOwner`). Can only be called by the current owner."
					},
					"withdrawalEth(uint256)": {
						"details": "Reverts if the amount is zero, exceeds the withdrawal limit, or if the user has insufficient balance.Follows the checks-effects-interactions pattern.",
						"params": {
							"_amount": "The amount to withdraw in wei."
						}
					}
				},
				"version": 1
			},
			"evm": {
				"assembly": "    /* \"src/KipuBankV21.sol\":572:10504  contract KipuBank is Ownable {... */\n  mstore(0x40, 0xe0)\n    /* \"src/KipuBankV21.sol\":5622:5987  constructor(... */\n  callvalue\n  dup1\n  iszero\n  tag_1\n  jumpi\n  revert(0x00, 0x00)\ntag_1:\n  pop\n  mload(0x40)\n  sub(codesize, bytecodeSize)\n  dup1\n  bytecodeSize\n  dup4\n  codecopy\n  dup2\n  dup2\n  add\n  0x40\n  mstore\n  dup2\n  add\n  swap1\n  tag_2\n  swap2\n  swap1\n  tag_3\n  jump\t// in\ntag_2:\n    /* \"src/KipuBankV21.sol\":5751:5761  msg.sender */\n  caller\n    /* \"@openzeppelin/contracts/access/Ownable.sol\":1297:1298  0 */\n  0x00\n    /* \"@openzeppelin/contracts/access/Ownable.sol\":1273:1299  initialOwner == address(0) */\n  0xffffffffffffffffffffffffffffffffffffffff\n  and\n    /* \"@openzeppelin/contracts/access/Ownable.sol\":1273:1285  initialOwner */\n  dup2\n    /* \"@openzeppelin/contracts/access/Ownable.sol\":1273:1299  initialOwner == address(0) */\n  0xffffffffffffffffffffffffffffffffffffffff\n  and\n  sub\n    /* \"@openzeppelin/contracts/access/Ownable.sol\":1269:1364  if (initialOwner == address(0)) {... */\n  tag_7\n  jumpi\n    /* \"@openzeppelin/contracts/access/Ownable.sol\":1350:1351  0 */\n  0x00\n    /* \"@openzeppelin/contracts/access/Ownable.sol\":1322:1353  OwnableInvalidOwner(address(0)) */\n  mload(0x40)\n  0x1e4fbdf700000000000000000000000000000000000000000000000000000000\n  dup2\n  mstore\n  0x04\n  add\n  tag_8\n  swap2\n  swap1\n  tag_9\n  jump\t// in\ntag_8:\n  mload(0x40)\n  dup1\n  swap2\n  sub\n  swap1\n  revert\n    /* \"@openzeppelin/contracts/access/Ownable.sol\":1269:1364  if (initialOwner == address(0)) {... */\ntag_7:\n    /* \"@openzeppelin/contracts/access/Ownable.sol\":1373:1405  _transferOwnership(initialOwner) */\n  tag_10\n    /* \"@openzeppelin/contracts/access/Ownable.sol\":1392:1404  initialOwner */\n  dup2\n    /* \"@openzeppelin/contracts/access/Ownable.sol\":1373:1391  _transferOwnership */\n  shl(0x20, tag_11)\n    /* \"@openzeppelin/contracts/access/Ownable.sol\":1373:1405  _transferOwnership(initialOwner) */\n  0x20\n  shr\n  jump\t// in\ntag_10:\n    /* \"@openzeppelin/contracts/access/Ownable.sol\":1225:1412  constructor(address initialOwner) {... */\n  pop\n    /* \"src/KipuBankV21.sol\":5808:5825  _priceFeedAddress */\n  dup3\n    /* \"src/KipuBankV21.sol\":5774:5783  priceFeed */\n  0x01\n  0x00\n    /* \"src/KipuBankV21.sol\":5774:5826  priceFeed = AggregatorV3Interface(_priceFeedAddress) */\n  0x0100\n  exp\n  dup2\n  sload\n  dup2\n  0xffffffffffffffffffffffffffffffffffffffff\n  mul\n  not\n  and\n  swap1\n  dup4\n  0xffffffffffffffffffffffffffffffffffffffff\n  and\n  mul\n  or\n  swap1\n  sstore\n  pop\n    /* \"src/KipuBankV21.sol\":5857:5874  _usdcTokenAddress */\n  dup2\n    /* \"src/KipuBankV21.sol\":5837:5875  USDC_TOKEN = IERC20(_usdcTokenAddress) */\n  0xffffffffffffffffffffffffffffffffffffffff\n  and\n  0xc0\n  dup2\n  0xffffffffffffffffffffffffffffffffffffffff\n  and\n  dup2\n  mstore\n  pop\n  pop\n    /* \"src/KipuBankV21.sol\":5973:5978  10**8 */\n  0x05f5e100\n    /* \"src/KipuBankV21.sol\":5958:5969  _bankCapUSD */\n  dup2\n    /* \"src/KipuBankV21.sol\":5958:5979  _bankCapUSD * (10**8) */\n  tag_13\n  swap2\n  swap1\n  tag_14\n  jump\t// in\ntag_13:\n    /* \"src/KipuBankV21.sol\":5943:5979  BANK_CAP_USD = _bankCapUSD * (10**8) */\n  0xa0\n  dup2\n  dup2\n  mstore\n  pop\n  pop\n    /* \"src/KipuBankV21.sol\":5622:5987  constructor(... */\n  pop\n  pop\n  pop\n    /* \"src/KipuBankV21.sol\":572:10504  contract KipuBank is Ownable {... */\n  jump(tag_15)\n    /* \"@openzeppelin/contracts/access/Ownable.sol\":2912:3099  function _transferOwnership(address newOwner) internal virtual {... */\ntag_11:\n    /* \"@openzeppelin/contracts/access/Ownable.sol\":2985:3001  address oldOwner */\n  0x00\n    /* \"@openzeppelin/contracts/access/Ownable.sol\":3004:3010  _owner */\n  0x00\n  0x00\n  swap1\n  sload\n  swap1\n  0x0100\n  exp\n  swap1\n  div\n  0xffffffffffffffffffffffffffffffffffffffff\n  and\n    /* \"@openzeppelin/contracts/access/Ownable.sol\":2985:3010  address oldOwner = _owner */\n  swap1\n  pop\n    /* \"@openzeppelin/contracts/access/Ownable.sol\":3029:3037  newOwner */\n  dup2\n    /* \"@openzeppelin/contracts/access/Ownable.sol\":3020:3026  _owner */\n  0x00\n  0x00\n    /* \"@openzeppelin/contracts/access/Ownable.sol\":3020:3037  _owner = newOwner */\n  0x0100\n  exp\n  dup2\n  sload\n  dup2\n  0xffffffffffffffffffffffffffffffffffffffff\n  mul\n  not\n  and\n  swap1\n  dup4\n  0xffffffffffffffffffffffffffffffffffffffff\n  and\n  mul\n  or\n  swap1\n  sstore\n  pop\n    /* \"@openzeppelin/contracts/access/Ownable.sol\":3083:3091  newOwner */\n  dup2\n    /* \"@openzeppelin/contracts/access/Ownable.sol\":3052:3092  OwnershipTransferred(oldOwner, newOwner) */\n  0xffffffffffffffffffffffffffffffffffffffff\n  and\n    /* \"@openzeppelin/contracts/access/Ownable.sol\":3073:3081  oldOwner */\n  dup2\n    /* \"@openzeppelin/contracts/access/Ownable.sol\":3052:3092  OwnershipTransferred(oldOwner, newOwner) */\n  0xffffffffffffffffffffffffffffffffffffffff\n  and\n  0x8be0079c531659141344cd1fd0a4f28419497f9722a3daafe3b4186f6b6457e0\n  mload(0x40)\n  mload(0x40)\n  dup1\n  swap2\n  sub\n  swap1\n  log3\n    /* \"@openzeppelin/contracts/access/Ownable.sol\":2975:3099  {... */\n  pop\n    /* \"@openzeppelin/contracts/access/Ownable.sol\":2912:3099  function _transferOwnership(address newOwner) internal virtual {... */\n  pop\n  jump\t// out\n    /* \"#utility.yul\":88:205   */\ntag_18:\n    /* \"#utility.yul\":197:198   */\n  0x00\n    /* \"#utility.yul\":194:195   */\n  0x00\n    /* \"#utility.yul\":187:199   */\n  revert\n    /* \"#utility.yul\":334:460   */\ntag_20:\n    /* \"#utility.yul\":371:378   */\n  0x00\n    /* \"#utility.yul\":411:453   */\n  0xffffffffffffffffffffffffffffffffffffffff\n    /* \"#utility.yul\":404:409   */\n  dup3\n    /* \"#utility.yul\":400:454   */\n  and\n    /* \"#utility.yul\":389:454   */\n  swap1\n  pop\n    /* \"#utility.yul\":334:460   */\n  swap2\n  swap1\n  pop\n  jump\t// out\n    /* \"#utility.yul\":466:562   */\ntag_21:\n    /* \"#utility.yul\":503:510   */\n  0x00\n    /* \"#utility.yul\":532:556   */\n  tag_35\n    /* \"#utility.yul\":550:555   */\n  dup3\n    /* \"#utility.yul\":532:556   */\n  tag_20\n  jump\t// in\ntag_35:\n    /* \"#utility.yul\":521:556   */\n  swap1\n  pop\n    /* \"#utility.yul\":466:562   */\n  swap2\n  swap1\n  pop\n  jump\t// out\n    /* \"#utility.yul\":568:690   */\ntag_22:\n    /* \"#utility.yul\":641:665   */\n  tag_37\n    /* \"#utility.yul\":659:664   */\n  dup2\n    /* \"#utility.yul\":641:665   */\n  tag_21\n  jump\t// in\ntag_37:\n    /* \"#utility.yul\":634:639   */\n  dup2\n    /* \"#utility.yul\":631:666   */\n  eq\n    /* \"#utility.yul\":621:684   */\n  tag_38\n  jumpi\n    /* \"#utility.yul\":680:681   */\n  0x00\n    /* \"#utility.yul\":677:678   */\n  0x00\n    /* \"#utility.yul\":670:682   */\n  revert\n    /* \"#utility.yul\":621:684   */\ntag_38:\n    /* \"#utility.yul\":568:690   */\n  pop\n  jump\t// out\n    /* \"#utility.yul\":696:839   */\ntag_23:\n    /* \"#utility.yul\":753:758   */\n  0x00\n    /* \"#utility.yul\":784:790   */\n  dup2\n    /* \"#utility.yul\":778:791   */\n  mload\n    /* \"#utility.yul\":769:791   */\n  swap1\n  pop\n    /* \"#utility.yul\":800:833   */\n  tag_40\n    /* \"#utility.yul\":827:832   */\n  dup2\n    /* \"#utility.yul\":800:833   */\n  tag_22\n  jump\t// in\ntag_40:\n    /* \"#utility.yul\":696:839   */\n  swap3\n  swap2\n  pop\n  pop\n  jump\t// out\n    /* \"#utility.yul\":845:922   */\ntag_24:\n    /* \"#utility.yul\":882:889   */\n  0x00\n    /* \"#utility.yul\":911:916   */\n  dup2\n    /* \"#utility.yul\":900:916   */\n  swap1\n  pop\n    /* \"#utility.yul\":845:922   */\n  swap2\n  swap1\n  pop\n  jump\t// out\n    /* \"#utility.yul\":928:1050   */\ntag_25:\n    /* \"#utility.yul\":1001:1025   */\n  tag_43\n    /* \"#utility.yul\":1019:1024   */\n  dup2\n    /* \"#utility.yul\":1001:1025   */\n  tag_24\n  jump\t// in\ntag_43:\n    /* \"#utility.yul\":994:999   */\n  dup2\n    /* \"#utility.yul\":991:1026   */\n  eq\n    /* \"#utility.yul\":981:1044   */\n  tag_44\n  jumpi\n    /* \"#utility.yul\":1040:1041   */\n  0x00\n    /* \"#utility.yul\":1037:1038   */\n  0x00\n    /* \"#utility.yul\":1030:1042   */\n  revert\n    /* \"#utility.yul\":981:1044   */\ntag_44:\n    /* \"#utility.yul\":928:1050   */\n  pop\n  jump\t// out\n    /* \"#utility.yul\":1056:1199   */\ntag_26:\n    /* \"#utility.yul\":1113:1118   */\n  0x00\n    /* \"#utility.yul\":1144:1150   */\n  dup2\n    /* \"#utility.yul\":1138:1151   */\n  mload\n    /* \"#utility.yul\":1129:1151   */\n  swap1\n  pop\n    /* \"#utility.yul\":1160:1193   */\n  tag_46\n    /* \"#utility.yul\":1187:1192   */\n  dup2\n    /* \"#utility.yul\":1160:1193   */\n  tag_25\n  jump\t// in\ntag_46:\n    /* \"#utility.yul\":1056:1199   */\n  swap3\n  swap2\n  pop\n  pop\n  jump\t// out\n    /* \"#utility.yul\":1205:1868   */\ntag_3:\n    /* \"#utility.yul\":1293:1299   */\n  0x00\n    /* \"#utility.yul\":1301:1307   */\n  0x00\n    /* \"#utility.yul\":1309:1315   */\n  0x00\n    /* \"#utility.yul\":1358:1360   */\n  0x60\n    /* \"#utility.yul\":1346:1355   */\n  dup5\n    /* \"#utility.yul\":1337:1344   */\n  dup7\n    /* \"#utility.yul\":1333:1356   */\n  sub\n    /* \"#utility.yul\":1329:1361   */\n  slt\n    /* \"#utility.yul\":1326:1445   */\n  iszero\n  tag_48\n  jumpi\n    /* \"#utility.yul\":1364:1443   */\n  tag_49\n  tag_18\n  jump\t// in\ntag_49:\n    /* \"#utility.yul\":1326:1445   */\ntag_48:\n    /* \"#utility.yul\":1484:1485   */\n  0x00\n    /* \"#utility.yul\":1509:1573   */\n  tag_50\n    /* \"#utility.yul\":1565:1572   */\n  dup7\n    /* \"#utility.yul\":1556:1562   */\n  dup3\n    /* \"#utility.yul\":1545:1554   */\n  dup8\n    /* \"#utility.yul\":1541:1563   */\n  add\n    /* \"#utility.yul\":1509:1573   */\n  tag_23\n  jump\t// in\ntag_50:\n    /* \"#utility.yul\":1499:1573   */\n  swap4\n  pop\n    /* \"#utility.yul\":1455:1583   */\n  pop\n    /* \"#utility.yul\":1622:1624   */\n  0x20\n    /* \"#utility.yul\":1648:1712   */\n  tag_51\n    /* \"#utility.yul\":1704:1711   */\n  dup7\n    /* \"#utility.yul\":1695:1701   */\n  dup3\n    /* \"#utility.yul\":1684:1693   */\n  dup8\n    /* \"#utility.yul\":1680:1702   */\n  add\n    /* \"#utility.yul\":1648:1712   */\n  tag_23\n  jump\t// in\ntag_51:\n    /* \"#utility.yul\":1638:1712   */\n  swap3\n  pop\n    /* \"#utility.yul\":1593:1722   */\n  pop\n    /* \"#utility.yul\":1761:1763   */\n  0x40\n    /* \"#utility.yul\":1787:1851   */\n  tag_52\n    /* \"#utility.yul\":1843:1850   */\n  dup7\n    /* \"#utility.yul\":1834:1840   */\n  dup3\n    /* \"#utility.yul\":1823:1832   */\n  dup8\n    /* \"#utility.yul\":1819:1841   */\n  add\n    /* \"#utility.yul\":1787:1851   */\n  tag_26\n  jump\t// in\ntag_52:\n    /* \"#utility.yul\":1777:1851   */\n  swap2\n  pop\n    /* \"#utility.yul\":1732:1861   */\n  pop\n    /* \"#utility.yul\":1205:1868   */\n  swap3\n  pop\n  swap3\n  pop\n  swap3\n  jump\t// out\n    /* \"#utility.yul\":1874:1992   */\ntag_27:\n    /* \"#utility.yul\":1961:1985   */\n  tag_54\n    /* \"#utility.yul\":1979:1984   */\n  dup2\n    /* \"#utility.yul\":1961:1985   */\n  tag_21\n  jump\t// in\ntag_54:\n    /* \"#utility.yul\":1956:1959   */\n  dup3\n    /* \"#utility.yul\":1949:1986   */\n  mstore\n    /* \"#utility.yul\":1874:1992   */\n  pop\n  pop\n  jump\t// out\n    /* \"#utility.yul\":1998:2220   */\ntag_9:\n    /* \"#utility.yul\":2091:2095   */\n  0x00\n    /* \"#utility.yul\":2129:2131   */\n  0x20\n    /* \"#utility.yul\":2118:2127   */\n  dup3\n    /* \"#utility.yul\":2114:2132   */\n  add\n    /* \"#utility.yul\":2106:2132   */\n  swap1\n  pop\n    /* \"#utility.yul\":2142:2213   */\n  tag_56\n    /* \"#utility.yul\":2210:2211   */\n  0x00\n    /* \"#utility.yul\":2199:2208   */\n  dup4\n    /* \"#utility.yul\":2195:2212   */\n  add\n    /* \"#utility.yul\":2186:2192   */\n  dup5\n    /* \"#utility.yul\":2142:2213   */\n  tag_27\n  jump\t// in\ntag_56:\n    /* \"#utility.yul\":1998:2220   */\n  swap3\n  swap2\n  pop\n  pop\n  jump\t// out\n    /* \"#utility.yul\":2226:2406   */\ntag_28:\n    /* \"#utility.yul\":2274:2351   */\n  0x4e487b7100000000000000000000000000000000000000000000000000000000\n    /* \"#utility.yul\":2271:2272   */\n  0x00\n    /* \"#utility.yul\":2264:2352   */\n  mstore\n    /* \"#utility.yul\":2371:2375   */\n  0x11\n    /* \"#utility.yul\":2368:2369   */\n  0x04\n    /* \"#utility.yul\":2361:2376   */\n  mstore\n    /* \"#utility.yul\":2395:2399   */\n  0x24\n    /* \"#utility.yul\":2392:2393   */\n  0x00\n    /* \"#utility.yul\":2385:2400   */\n  revert\n    /* \"#utility.yul\":2412:2822   */\ntag_14:\n    /* \"#utility.yul\":2452:2459   */\n  0x00\n    /* \"#utility.yul\":2475:2495   */\n  tag_59\n    /* \"#utility.yul\":2493:2494   */\n  dup3\n    /* \"#utility.yul\":2475:2495   */\n  tag_24\n  jump\t// in\ntag_59:\n    /* \"#utility.yul\":2470:2495   */\n  swap2\n  pop\n    /* \"#utility.yul\":2509:2529   */\n  tag_60\n    /* \"#utility.yul\":2527:2528   */\n  dup4\n    /* \"#utility.yul\":2509:2529   */\n  tag_24\n  jump\t// in\ntag_60:\n    /* \"#utility.yul\":2504:2529   */\n  swap3\n  pop\n    /* \"#utility.yul\":2564:2565   */\n  dup3\n    /* \"#utility.yul\":2561:2562   */\n  dup3\n    /* \"#utility.yul\":2557:2566   */\n  mul\n    /* \"#utility.yul\":2586:2616   */\n  tag_61\n    /* \"#utility.yul\":2604:2615   */\n  dup2\n    /* \"#utility.yul\":2586:2616   */\n  tag_24\n  jump\t// in\ntag_61:\n    /* \"#utility.yul\":2575:2616   */\n  swap2\n  pop\n    /* \"#utility.yul\":2765:2766   */\n  dup3\n    /* \"#utility.yul\":2756:2763   */\n  dup3\n    /* \"#utility.yul\":2752:2767   */\n  div\n    /* \"#utility.yul\":2749:2750   */\n  dup5\n    /* \"#utility.yul\":2746:2768   */\n  eq\n    /* \"#utility.yul\":2726:2727   */\n  dup4\n    /* \"#utility.yul\":2719:2728   */\n  iszero\n    /* \"#utility.yul\":2699:2782   */\n  or\n    /* \"#utility.yul\":2676:2815   */\n  tag_62\n  jumpi\n    /* \"#utility.yul\":2795:2813   */\n  tag_63\n  tag_28\n  jump\t// in\ntag_63:\n    /* \"#utility.yul\":2676:2815   */\ntag_62:\n    /* \"#utility.yul\":2460:2822   */\n  pop\n    /* \"#utility.yul\":2412:2822   */\n  swap3\n  swap2\n  pop\n  pop\n  jump\t// out\n    /* \"src/KipuBankV21.sol\":572:10504  contract KipuBank is Ownable {... */\ntag_15:\n  mload(0x80)\n  mload(0xa0)\n  mload(0xc0)\n  codecopy(0x00, dataOffset(sub_0), dataSize(sub_0))\n  0x00\n  assignImmutable(\"0xe13e22f4ea5bd10300dc6696bca2ca58b89132d8272e230e9104ae9f281888aa\")\n  0x00\n  assignImmutable(\"0xc5fad44e3727a4ce457d020cb0c6daf6b7d8f8d9551f2fa0111b8c9f86d3fe43\")\n  0x00\n  assignImmutable(\"0x49847a2314cecfe9e5127b41702adba4edb0260cff60a0a5f30c53ee5905efea\")\n  return(0x00, dataSize(sub_0))\nstop\n\nsub_0: assembly {\n        /* \"src/KipuBankV21.sol\":572:10504  contract KipuBank is Ownable {... */\n      mstore(0x40, 0x80)\n      jumpi(tag_1, lt(calldatasize, 0x04))\n      shr(0xe0, calldataload(0x00))\n      dup1\n      0x893b7e95\n      gt\n      tag_18\n      jumpi\n      dup1\n      0xf2fde38b\n      gt\n      tag_19\n      jumpi\n      dup1\n      0xf2fde38b\n      eq\n      tag_14\n      jumpi\n      dup1\n      0xf688bcfb\n      eq\n      tag_15\n      jumpi\n      dup1\n      0xfa569274\n      eq\n      tag_16\n      jumpi\n      dup1\n      0xff50abdc\n      eq\n      tag_17\n      jumpi\n      jump(tag_1)\n    tag_19:\n      dup1\n      0x893b7e95\n      eq\n      tag_10\n      jumpi\n      dup1\n      0x8da5cb5b\n      eq\n      tag_11\n      jumpi\n      dup1\n      0x9b900405\n      eq\n      tag_12\n      jumpi\n      dup1\n      0x9caf34c4\n      eq\n      tag_13\n      jumpi\n      jump(tag_1)\n    tag_18:\n      dup1\n      0x715018a6\n      gt\n      tag_20\n      jumpi\n      dup1\n      0x715018a6\n      eq\n      tag_6\n      jumpi\n      dup1\n      0x71706cbe\n      eq\n      tag_7\n      jumpi\n      dup1\n      0x741bef1a\n      eq\n      tag_8\n      jumpi\n      dup1\n      0x82ee0d1d\n      eq\n      tag_9\n      jumpi\n      jump(tag_1)\n    tag_20:\n      dup1\n      0x1edc8f03\n      eq\n      tag_2\n      jumpi\n      dup1\n      0x27e235e3\n      eq\n      tag_3\n      jumpi\n      dup1\n      0x2dfdf0b5\n      eq\n      tag_4\n      jumpi\n      dup1\n      0x439370b1\n      eq\n      tag_5\n      jumpi\n    tag_1:\n      revert(0x00, 0x00)\n        /* \"src/KipuBankV21.sol\":8117:8760  function withdrawalEth(uint256 _amount) external nonReentrant nonZeroAmount(_amount) {... */\n    tag_2:\n      callvalue\n      dup1\n      iszero\n      tag_21\n      jumpi\n      revert(0x00, 0x00)\n    tag_21:\n      pop\n      tag_22\n      0x04\n      dup1\n      calldatasize\n      sub\n      dup2\n      add\n      swap1\n      tag_23\n      swap2\n      swap1\n      tag_24\n      jump\t// in\n    tag_23:\n      tag_25\n      jump\t// in\n    tag_22:\n      stop\n        /* \"src/KipuBankV21.sol\":1993:2038  mapping (address => Balances) public balances */\n    tag_3:\n      callvalue\n      dup1\n      iszero\n      tag_26\n      jumpi\n      revert(0x00, 0x00)\n    tag_26:\n      pop\n      tag_27\n      0x04\n      dup1\n      calldatasize\n      sub\n      dup2\n      add\n      swap1\n      tag_28\n      swap2\n      swap1\n      tag_29\n      jump\t// in\n    tag_28:\n      tag_30\n      jump\t// in\n    tag_27:\n      mload(0x40)\n      tag_31\n      swap3\n      swap2\n      swap1\n      tag_32\n      jump\t// in\n    tag_31:\n      mload(0x40)\n      dup1\n      swap2\n      sub\n      swap1\n      return\n        /* \"src/KipuBankV21.sol\":1489:1516  uint256 public depositCount */\n    tag_4:\n      callvalue\n      dup1\n      iszero\n      tag_33\n      jumpi\n      revert(0x00, 0x00)\n    tag_33:\n      pop\n      tag_34\n      tag_35\n      jump\t// in\n    tag_34:\n      mload(0x40)\n      tag_36\n      swap2\n      swap1\n      tag_37\n      jump\t// in\n    tag_36:\n      mload(0x40)\n      dup1\n      swap2\n      sub\n      swap1\n      return\n        /* \"src/KipuBankV21.sol\":6545:7172  function depositEth() external payable nonZeroAmount(msg.value) {... */\n    tag_5:\n      tag_38\n      tag_39\n      jump\t// in\n    tag_38:\n      stop\n        /* \"@openzeppelin/contracts/access/Ownable.sol\":2293:2394  function renounceOwnership() public virtual onlyOwner {... */\n    tag_6:\n      callvalue\n      dup1\n      iszero\n      tag_40\n      jumpi\n      revert(0x00, 0x00)\n    tag_40:\n      pop\n      tag_41\n      tag_42\n      jump\t// in\n    tag_41:\n      stop\n        /* \"src/KipuBankV21.sol\":1592:1622  uint256 public withdrawalCount */\n    tag_7:\n      callvalue\n      dup1\n      iszero\n      tag_43\n      jumpi\n      revert(0x00, 0x00)\n    tag_43:\n      pop\n      tag_44\n      tag_45\n      jump\t// in\n    tag_44:\n      mload(0x40)\n      tag_46\n      swap2\n      swap1\n      tag_37\n      jump\t// in\n    tag_46:\n      mload(0x40)\n      dup1\n      swap2\n      sub\n      swap1\n      return\n        /* \"src/KipuBankV21.sol\":1187:1225  AggregatorV3Interface public priceFeed */\n    tag_8:\n      callvalue\n      dup1\n      iszero\n      tag_47\n      jumpi\n      revert(0x00, 0x00)\n    tag_47:\n      pop\n      tag_48\n      tag_49\n      jump\t// in\n    tag_48:\n      mload(0x40)\n      tag_50\n      swap2\n      swap1\n      tag_51\n      jump\t// in\n    tag_50:\n      mload(0x40)\n      dup1\n      swap2\n      sub\n      swap1\n      return\n        /* \"src/KipuBankV21.sol\":1032:1073  uint256 public immutable WITHDRAWAL_LIMIT */\n    tag_9:\n      callvalue\n      dup1\n      iszero\n      tag_52\n      jumpi\n      revert(0x00, 0x00)\n    tag_52:\n      pop\n      tag_53\n      tag_54\n      jump\t// in\n    tag_53:\n      mload(0x40)\n      tag_55\n      swap2\n      swap1\n      tag_37\n      jump\t// in\n    tag_55:\n      mload(0x40)\n      dup1\n      swap2\n      sub\n      swap1\n      return\n        /* \"src/KipuBankV21.sol\":1141:1178  uint256 public immutable BANK_CAP_USD */\n    tag_10:\n      callvalue\n      dup1\n      iszero\n      tag_56\n      jumpi\n      revert(0x00, 0x00)\n    tag_56:\n      pop\n      tag_57\n      tag_58\n      jump\t// in\n    tag_57:\n      mload(0x40)\n      tag_59\n      swap2\n      swap1\n      tag_37\n      jump\t// in\n    tag_59:\n      mload(0x40)\n      dup1\n      swap2\n      sub\n      swap1\n      return\n        /* \"@openzeppelin/contracts/access/Ownable.sol\":1638:1723  function owner() public view virtual returns (address) {... */\n    tag_11:\n      callvalue\n      dup1\n      iszero\n      tag_60\n      jumpi\n      revert(0x00, 0x00)\n    tag_60:\n      pop\n      tag_61\n      tag_62\n      jump\t// in\n    tag_61:\n      mload(0x40)\n      tag_63\n      swap2\n      swap1\n      tag_64\n      jump\t// in\n    tag_63:\n      mload(0x40)\n      dup1\n      swap2\n      sub\n      swap1\n      return\n        /* \"src/KipuBankV21.sol\":8772:9419  function withdrawalUSDC(uint256 _amount) external nonReentrant nonZeroAmount(_amount) {... */\n    tag_12:\n      callvalue\n      dup1\n      iszero\n      tag_65\n      jumpi\n      revert(0x00, 0x00)\n    tag_65:\n      pop\n      tag_66\n      0x04\n      dup1\n      calldatasize\n      sub\n      dup2\n      add\n      swap1\n      tag_67\n      swap2\n      swap1\n      tag_24\n      jump\t// in\n    tag_67:\n      tag_68\n      jump\t// in\n    tag_66:\n      stop\n        /* \"src/KipuBankV21.sol\":9535:9642  function getBalanceEth() external view returns (uint256) {... */\n    tag_13:\n      callvalue\n      dup1\n      iszero\n      tag_69\n      jumpi\n      revert(0x00, 0x00)\n    tag_69:\n      pop\n      tag_70\n      tag_71\n      jump\t// in\n    tag_70:\n      mload(0x40)\n      tag_72\n      swap2\n      swap1\n      tag_37\n      jump\t// in\n    tag_72:\n      mload(0x40)\n      dup1\n      swap2\n      sub\n      swap1\n      return\n        /* \"@openzeppelin/contracts/access/Ownable.sol\":2543:2758  function transferOwnership(address newOwner) public virtual onlyOwner {... */\n    tag_14:\n      callvalue\n      dup1\n      iszero\n      tag_73\n      jumpi\n      revert(0x00, 0x00)\n    tag_73:\n      pop\n      tag_74\n      0x04\n      dup1\n      calldatasize\n      sub\n      dup2\n      add\n      swap1\n      tag_75\n      swap2\n      swap1\n      tag_29\n      jump\t// in\n    tag_75:\n      tag_76\n      jump\t// in\n    tag_74:\n      stop\n        /* \"src/KipuBankV21.sol\":7180:7805  function depositUSDC(uint256 _amount) external nonZeroAmount(_amount) {... */\n    tag_15:\n      callvalue\n      dup1\n      iszero\n      tag_77\n      jumpi\n      revert(0x00, 0x00)\n    tag_77:\n      pop\n      tag_78\n      0x04\n      dup1\n      calldatasize\n      sub\n      dup2\n      add\n      swap1\n      tag_79\n      swap2\n      swap1\n      tag_24\n      jump\t// in\n    tag_79:\n      tag_80\n      jump\t// in\n    tag_78:\n      stop\n        /* \"src/KipuBankV21.sol\":1232:1266  IERC20 public immutable USDC_TOKEN */\n    tag_16:\n      callvalue\n      dup1\n      iszero\n      tag_81\n      jumpi\n      revert(0x00, 0x00)\n    tag_81:\n      pop\n      tag_82\n      tag_83\n      jump\t// in\n    tag_82:\n      mload(0x40)\n      tag_84\n      swap2\n      swap1\n      tag_85\n      jump\t// in\n    tag_84:\n      mload(0x40)\n      dup1\n      swap2\n      sub\n      swap1\n      return\n        /* \"src/KipuBankV21.sol\":1387:1416  uint256 public totalDeposited */\n    tag_17:\n      callvalue\n      dup1\n      iszero\n      tag_86\n      jumpi\n      revert(0x00, 0x00)\n    tag_86:\n      pop\n      tag_87\n      tag_88\n      jump\t// in\n    tag_87:\n      mload(0x40)\n      tag_89\n      swap2\n      swap1\n      tag_37\n      jump\t// in\n    tag_89:\n      mload(0x40)\n      dup1\n      swap2\n      sub\n      swap1\n      return\n        /* \"src/KipuBankV21.sol\":8117:8760  function withdrawalEth(uint256 _amount) external nonReentrant nonZeroAmount(_amount) {... */\n    tag_25:\n        /* \"src/KipuBankV21.sol\":4662:4668  locked */\n      0x05\n      0x00\n      swap1\n      sload\n      swap1\n      0x0100\n      exp\n      swap1\n      div\n      0xff\n      and\n        /* \"src/KipuBankV21.sol\":4658:4692  if (locked) revert ReentrantCall() */\n      iszero\n      tag_91\n      jumpi\n        /* \"src/KipuBankV21.sol\":4677:4692  ReentrantCall() */\n      mload(0x40)\n      0x37ed32e800000000000000000000000000000000000000000000000000000000\n      dup2\n      mstore\n      0x04\n      add\n      mload(0x40)\n      dup1\n      swap2\n      sub\n      swap1\n      revert\n        /* \"src/KipuBankV21.sol\":4658:4692  if (locked) revert ReentrantCall() */\n    tag_91:\n        /* \"src/KipuBankV21.sol\":4712:4716  true */\n      0x01\n        /* \"src/KipuBankV21.sol\":4703:4709  locked */\n      0x05\n      0x00\n        /* \"src/KipuBankV21.sol\":4703:4716  locked = true */\n      0x0100\n      exp\n      dup2\n      sload\n      dup2\n      0xff\n      mul\n      not\n      and\n      swap1\n      dup4\n      iszero\n      iszero\n      mul\n      or\n      swap1\n      sstore\n      pop\n        /* \"src/KipuBankV21.sol\":8193:8200  _amount */\n      dup1\n        /* \"src/KipuBankV21.sol\":4949:4950  0 */\n      0x00\n        /* \"src/KipuBankV21.sol\":4938:4945  _amount */\n      dup2\n        /* \"src/KipuBankV21.sol\":4938:4950  _amount == 0 */\n      sub\n        /* \"src/KipuBankV21.sol\":4934:4974  if (_amount == 0) revert InvalidAmount() */\n      tag_93\n      jumpi\n        /* \"src/KipuBankV21.sol\":4959:4974  InvalidAmount() */\n      mload(0x40)\n      0x2c5211c600000000000000000000000000000000000000000000000000000000\n      dup2\n      mstore\n      0x04\n      add\n      mload(0x40)\n      dup1\n      swap2\n      sub\n      swap1\n      revert\n        /* \"src/KipuBankV21.sol\":4934:4974  if (_amount == 0) revert InvalidAmount() */\n    tag_93:\n        /* \"src/KipuBankV21.sol\":8213:8232  uint256 userBalance */\n      0x00\n        /* \"src/KipuBankV21.sol\":8235:8243  balances */\n      0x06\n        /* \"src/KipuBankV21.sol\":8235:8255  balances[msg.sender] */\n      0x00\n        /* \"src/KipuBankV21.sol\":8244:8254  msg.sender */\n      caller\n        /* \"src/KipuBankV21.sol\":8235:8255  balances[msg.sender] */\n      0xffffffffffffffffffffffffffffffffffffffff\n      and\n      0xffffffffffffffffffffffffffffffffffffffff\n      and\n      dup2\n      mstore\n      0x20\n      add\n      swap1\n      dup2\n      mstore\n      0x20\n      add\n      0x00\n      keccak256\n        /* \"src/KipuBankV21.sol\":8235:8259  balances[msg.sender].eth */\n      0x00\n      add\n      sload\n        /* \"src/KipuBankV21.sol\":8213:8259  uint256 userBalance = balances[msg.sender].eth */\n      swap1\n      pop\n        /* \"src/KipuBankV21.sol\":8344:8360  WITHDRAWAL_LIMIT */\n      immutable(\"0x49847a2314cecfe9e5127b41702adba4edb0260cff60a0a5f30c53ee5905efea\")\n        /* \"src/KipuBankV21.sol\":8334:8341  _amount */\n      dup4\n        /* \"src/KipuBankV21.sol\":8334:8360  _amount > WITHDRAWAL_LIMIT */\n      gt\n        /* \"src/KipuBankV21.sol\":8330:8394  if (_amount > WITHDRAWAL_LIMIT) revert WithdrawalLimitExceeded() */\n      iszero\n      tag_95\n      jumpi\n        /* \"src/KipuBankV21.sol\":8369:8394  WithdrawalLimitExceeded() */\n      mload(0x40)\n      0x4e6a369600000000000000000000000000000000000000000000000000000000\n      dup2\n      mstore\n      0x04\n      add\n      mload(0x40)\n      dup1\n      swap2\n      sub\n      swap1\n      revert\n        /* \"src/KipuBankV21.sol\":8330:8394  if (_amount > WITHDRAWAL_LIMIT) revert WithdrawalLimitExceeded() */\n    tag_95:\n        /* \"src/KipuBankV21.sol\":8419:8430  userBalance */\n      dup1\n        /* \"src/KipuBankV21.sol\":8409:8416  _amount */\n      dup4\n        /* \"src/KipuBankV21.sol\":8409:8430  _amount > userBalance */\n      gt\n        /* \"src/KipuBankV21.sol\":8405:8460  if (_amount > userBalance) revert InsufficientBalance() */\n      iszero\n      tag_96\n      jumpi\n        /* \"src/KipuBankV21.sol\":8439:8460  InsufficientBalance() */\n      mload(0x40)\n      0xf4d678b800000000000000000000000000000000000000000000000000000000\n      dup2\n      mstore\n      0x04\n      add\n      mload(0x40)\n      dup1\n      swap2\n      sub\n      swap1\n      revert\n        /* \"src/KipuBankV21.sol\":8405:8460  if (_amount > userBalance) revert InsufficientBalance() */\n    tag_96:\n        /* \"src/KipuBankV21.sol\":8542:8549  _amount */\n      dup3\n        /* \"src/KipuBankV21.sol\":8528:8539  userBalance */\n      dup2\n        /* \"src/KipuBankV21.sol\":8528:8549  userBalance - _amount */\n      tag_97\n      swap2\n      swap1\n      tag_98\n      jump\t// in\n    tag_97:\n        /* \"src/KipuBankV21.sol\":8501:8509  balances */\n      0x06\n        /* \"src/KipuBankV21.sol\":8501:8521  balances[msg.sender] */\n      0x00\n        /* \"src/KipuBankV21.sol\":8510:8520  msg.sender */\n      caller\n        /* \"src/KipuBankV21.sol\":8501:8521  balances[msg.sender] */\n      0xffffffffffffffffffffffffffffffffffffffff\n      and\n      0xffffffffffffffffffffffffffffffffffffffff\n      and\n      dup2\n      mstore\n      0x20\n      add\n      swap1\n      dup2\n      mstore\n      0x20\n      add\n      0x00\n      keccak256\n        /* \"src/KipuBankV21.sol\":8501:8525  balances[msg.sender].eth */\n      0x00\n      add\n        /* \"src/KipuBankV21.sol\":8501:8549  balances[msg.sender].eth = userBalance - _amount */\n      dup2\n      swap1\n      sstore\n      pop\n        /* \"src/KipuBankV21.sol\":8578:8585  _amount */\n      dup3\n        /* \"src/KipuBankV21.sol\":8560:8574  totalDeposited */\n      0x02\n      0x00\n        /* \"src/KipuBankV21.sol\":8560:8585  totalDeposited -= _amount */\n      dup3\n      dup3\n      sload\n      tag_99\n      swap2\n      swap1\n      tag_98\n      jump\t// in\n    tag_99:\n      swap3\n      pop\n      pop\n      dup2\n      swap1\n      sstore\n      pop\n        /* \"src/KipuBankV21.sol\":8596:8611  withdrawalCount */\n      0x04\n      0x00\n        /* \"src/KipuBankV21.sol\":8596:8613  withdrawalCount++ */\n      dup2\n      sload\n      dup1\n      swap3\n      swap2\n      swap1\n      tag_100\n      swap1\n      tag_101\n      jump\t// in\n    tag_100:\n      swap2\n      swap1\n      pop\n      sstore\n      pop\n        /* \"src/KipuBankV21.sol\":8658:8700  _transferEth(payable(msg.sender), _amount) */\n      tag_102\n        /* \"src/KipuBankV21.sol\":8679:8689  msg.sender */\n      caller\n        /* \"src/KipuBankV21.sol\":8692:8699  _amount */\n      dup5\n        /* \"src/KipuBankV21.sol\":8658:8670  _transferEth */\n      tag_103\n        /* \"src/KipuBankV21.sol\":8658:8700  _transferEth(payable(msg.sender), _amount) */\n      jump\t// in\n    tag_102:\n        /* \"src/KipuBankV21.sol\":8732:8742  msg.sender */\n      caller\n        /* \"src/KipuBankV21.sol\":8718:8752  WithdrawalEth(msg.sender, _amount) */\n      0xffffffffffffffffffffffffffffffffffffffff\n      and\n      0x40953fd5db732b94d86820ccd999bd4ab6da08154a115387891e8957e585fa1d\n        /* \"src/KipuBankV21.sol\":8744:8751  _amount */\n      dup5\n        /* \"src/KipuBankV21.sol\":8718:8752  WithdrawalEth(msg.sender, _amount) */\n      mload(0x40)\n      tag_104\n      swap2\n      swap1\n      tag_37\n      jump\t// in\n    tag_104:\n      mload(0x40)\n      dup1\n      swap2\n      sub\n      swap1\n      log2\n        /* \"src/KipuBankV21.sol\":8202:8760  {... */\n      pop\n        /* \"src/KipuBankV21.sol\":4727:4728  _ */\n      pop\n        /* \"src/KipuBankV21.sol\":4748:4753  false */\n      0x00\n        /* \"src/KipuBankV21.sol\":4739:4745  locked */\n      0x05\n      0x00\n        /* \"src/KipuBankV21.sol\":4739:4753  locked = false */\n      0x0100\n      exp\n      dup2\n      sload\n      dup2\n      0xff\n      mul\n      not\n      and\n      swap1\n      dup4\n      iszero\n      iszero\n      mul\n      or\n      swap1\n      sstore\n      pop\n        /* \"src/KipuBankV21.sol\":8117:8760  function withdrawalEth(uint256 _amount) external nonReentrant nonZeroAmount(_amount) {... */\n      pop\n      jump\t// out\n        /* \"src/KipuBankV21.sol\":1993:2038  mapping (address => Balances) public balances */\n    tag_30:\n      mstore(0x20, 0x06)\n      dup1\n      0x00\n      mstore\n      keccak256(0x00, 0x40)\n      0x00\n      swap2\n      pop\n      swap1\n      pop\n      dup1\n      0x00\n      add\n      sload\n      swap1\n      dup1\n      0x01\n      add\n      sload\n      swap1\n      pop\n      dup3\n      jump\t// out\n        /* \"src/KipuBankV21.sol\":1489:1516  uint256 public depositCount */\n    tag_35:\n      sload(0x03)\n      dup2\n      jump\t// out\n        /* \"src/KipuBankV21.sol\":6545:7172  function depositEth() external payable nonZeroAmount(msg.value) {... */\n    tag_39:\n        /* \"src/KipuBankV21.sol\":6598:6607  msg.value */\n      callvalue\n        /* \"src/KipuBankV21.sol\":4949:4950  0 */\n      0x00\n        /* \"src/KipuBankV21.sol\":4938:4945  _amount */\n      dup2\n        /* \"src/KipuBankV21.sol\":4938:4950  _amount == 0 */\n      sub\n        /* \"src/KipuBankV21.sol\":4934:4974  if (_amount == 0) revert InvalidAmount() */\n      tag_106\n      jumpi\n        /* \"src/KipuBankV21.sol\":4959:4974  InvalidAmount() */\n      mload(0x40)\n      0x2c5211c600000000000000000000000000000000000000000000000000000000\n      dup2\n      mstore\n      0x04\n      add\n      mload(0x40)\n      dup1\n      swap2\n      sub\n      swap1\n      revert\n        /* \"src/KipuBankV21.sol\":4934:4974  if (_amount == 0) revert InvalidAmount() */\n    tag_106:\n        /* \"src/KipuBankV21.sol\":6761:6773  BANK_CAP_USD */\n      immutable(\"0xc5fad44e3727a4ce457d020cb0c6daf6b7d8f8d9551f2fa0111b8c9f86d3fe43\")\n        /* \"src/KipuBankV21.sol\":6749:6758  msg.value */\n      callvalue\n        /* \"src/KipuBankV21.sol\":6732:6746  totalDeposited */\n      sload(0x02)\n        /* \"src/KipuBankV21.sol\":6732:6758  totalDeposited + msg.value */\n      tag_108\n      swap2\n      swap1\n      tag_109\n      jump\t// in\n    tag_108:\n        /* \"src/KipuBankV21.sol\":6732:6773  totalDeposited + msg.value > BANK_CAP_USD */\n      gt\n        /* \"src/KipuBankV21.sol\":6728:6799  if (totalDeposited + msg.value > BANK_CAP_USD) revert BankCapExceeded() */\n      iszero\n      tag_110\n      jumpi\n        /* \"src/KipuBankV21.sol\":6782:6799  BankCapExceeded() */\n      mload(0x40)\n      0x448f3ca800000000000000000000000000000000000000000000000000000000\n      dup2\n      mstore\n      0x04\n      add\n      mload(0x40)\n      dup1\n      swap2\n      sub\n      swap1\n      revert\n        /* \"src/KipuBankV21.sol\":6728:6799  if (totalDeposited + msg.value > BANK_CAP_USD) revert BankCapExceeded() */\n    tag_110:\n        /* \"src/KipuBankV21.sol\":6961:6970  msg.value */\n      callvalue\n        /* \"src/KipuBankV21.sol\":6943:6957  totalDeposited */\n      0x02\n      0x00\n        /* \"src/KipuBankV21.sol\":6943:6970  totalDeposited += msg.value */\n      dup3\n      dup3\n      sload\n      add\n      swap3\n      pop\n      pop\n      dup2\n      swap1\n      sstore\n      pop\n        /* \"src/KipuBankV21.sol\":7020:7029  msg.value */\n      callvalue\n        /* \"src/KipuBankV21.sol\":6992:7000  balances */\n      0x06\n        /* \"src/KipuBankV21.sol\":6992:7012  balances[msg.sender] */\n      0x00\n        /* \"src/KipuBankV21.sol\":7001:7011  msg.sender */\n      caller\n        /* \"src/KipuBankV21.sol\":6992:7012  balances[msg.sender] */\n      0xffffffffffffffffffffffffffffffffffffffff\n      and\n      0xffffffffffffffffffffffffffffffffffffffff\n      and\n      dup2\n      mstore\n      0x20\n      add\n      swap1\n      dup2\n      mstore\n      0x20\n      add\n      0x00\n      keccak256\n        /* \"src/KipuBankV21.sol\":6992:7016  balances[msg.sender].eth */\n      0x00\n      add\n      0x00\n        /* \"src/KipuBankV21.sol\":6992:7029  balances[msg.sender].eth += msg.value */\n      dup3\n      dup3\n      sload\n      tag_111\n      swap2\n      swap1\n      tag_109\n      jump\t// in\n    tag_111:\n      swap3\n      pop\n      pop\n      dup2\n      swap1\n      sstore\n      pop\n        /* \"src/KipuBankV21.sol\":7040:7052  depositCount */\n      0x03\n      0x00\n        /* \"src/KipuBankV21.sol\":7040:7054  depositCount++ */\n      dup2\n      sload\n      dup1\n      swap3\n      swap2\n      swap1\n      tag_112\n      swap1\n      tag_101\n      jump\t// in\n    tag_112:\n      swap2\n      swap1\n      pop\n      sstore\n      pop\n        /* \"src/KipuBankV21.sol\":7142:7152  msg.sender */\n      caller\n        /* \"src/KipuBankV21.sol\":7131:7164  DepositEth(msg.sender, msg.value) */\n      0xffffffffffffffffffffffffffffffffffffffff\n      and\n      0x7034bb05cfe54b0d147fc0574ed166101e7f0313eb404e113974fbe2a998ca83\n        /* \"src/KipuBankV21.sol\":7154:7163  msg.value */\n      callvalue\n        /* \"src/KipuBankV21.sol\":7131:7164  DepositEth(msg.sender, msg.value) */\n      mload(0x40)\n      tag_113\n      swap2\n      swap1\n      tag_37\n      jump\t// in\n    tag_113:\n      mload(0x40)\n      dup1\n      swap2\n      sub\n      swap1\n      log2\n        /* \"src/KipuBankV21.sol\":6545:7172  function depositEth() external payable nonZeroAmount(msg.value) {... */\n      pop\n      jump\t// out\n        /* \"@openzeppelin/contracts/access/Ownable.sol\":2293:2394  function renounceOwnership() public virtual onlyOwner {... */\n    tag_42:\n        /* \"@openzeppelin/contracts/access/Ownable.sol\":1531:1544  _checkOwner() */\n      tag_115\n        /* \"@openzeppelin/contracts/access/Ownable.sol\":1531:1542  _checkOwner */\n      tag_116\n        /* \"@openzeppelin/contracts/access/Ownable.sol\":1531:1544  _checkOwner() */\n      jump\t// in\n    tag_115:\n        /* \"@openzeppelin/contracts/access/Ownable.sol\":2357:2387  _transferOwnership(address(0)) */\n      tag_118\n        /* \"@openzeppelin/contracts/access/Ownable.sol\":2384:2385  0 */\n      0x00\n        /* \"@openzeppelin/contracts/access/Ownable.sol\":2357:2375  _transferOwnership */\n      tag_119\n        /* \"@openzeppelin/contracts/access/Ownable.sol\":2357:2387  _transferOwnership(address(0)) */\n      jump\t// in\n    tag_118:\n        /* \"@openzeppelin/contracts/access/Ownable.sol\":2293:2394  function renounceOwnership() public virtual onlyOwner {... */\n      jump\t// out\n        /* \"src/KipuBankV21.sol\":1592:1622  uint256 public withdrawalCount */\n    tag_45:\n      sload(0x04)\n      dup2\n      jump\t// out\n        /* \"src/KipuBankV21.sol\":1187:1225  AggregatorV3Interface public priceFeed */\n    tag_49:\n      0x01\n      0x00\n      swap1\n      sload\n      swap1\n      0x0100\n      exp\n      swap1\n      div\n      0xffffffffffffffffffffffffffffffffffffffff\n      and\n      dup2\n      jump\t// out\n        /* \"src/KipuBankV21.sol\":1032:1073  uint256 public immutable WITHDRAWAL_LIMIT */\n    tag_54:\n      immutable(\"0x49847a2314cecfe9e5127b41702adba4edb0260cff60a0a5f30c53ee5905efea\")\n      dup2\n      jump\t// out\n        /* \"src/KipuBankV21.sol\":1141:1178  uint256 public immutable BANK_CAP_USD */\n    tag_58:\n      immutable(\"0xc5fad44e3727a4ce457d020cb0c6daf6b7d8f8d9551f2fa0111b8c9f86d3fe43\")\n      dup2\n      jump\t// out\n        /* \"@openzeppelin/contracts/access/Ownable.sol\":1638:1723  function owner() public view virtual returns (address) {... */\n    tag_62:\n        /* \"@openzeppelin/contracts/access/Ownable.sol\":1684:1691  address */\n      0x00\n        /* \"@openzeppelin/contracts/access/Ownable.sol\":1710:1716  _owner */\n      0x00\n      0x00\n      swap1\n      sload\n      swap1\n      0x0100\n      exp\n      swap1\n      div\n      0xffffffffffffffffffffffffffffffffffffffff\n      and\n        /* \"@openzeppelin/contracts/access/Ownable.sol\":1703:1716  return _owner */\n      swap1\n      pop\n        /* \"@openzeppelin/contracts/access/Ownable.sol\":1638:1723  function owner() public view virtual returns (address) {... */\n      swap1\n      jump\t// out\n        /* \"src/KipuBankV21.sol\":8772:9419  function withdrawalUSDC(uint256 _amount) external nonReentrant nonZeroAmount(_amount) {... */\n    tag_68:\n        /* \"src/KipuBankV21.sol\":4662:4668  locked */\n      0x05\n      0x00\n      swap1\n      sload\n      swap1\n      0x0100\n      exp\n      swap1\n      div\n      0xff\n      and\n        /* \"src/KipuBankV21.sol\":4658:4692  if (locked) revert ReentrantCall() */\n      iszero\n      tag_122\n      jumpi\n        /* \"src/KipuBankV21.sol\":4677:4692  ReentrantCall() */\n      mload(0x40)\n      0x37ed32e800000000000000000000000000000000000000000000000000000000\n      dup2\n      mstore\n      0x04\n      add\n      mload(0x40)\n      dup1\n      swap2\n      sub\n      swap1\n      revert\n        /* \"src/KipuBankV21.sol\":4658:4692  if (locked) revert ReentrantCall() */\n    tag_122:\n        /* \"src/KipuBankV21.sol\":4712:4716  true */\n      0x01\n        /* \"src/KipuBankV21.sol\":4703:4709  locked */\n      0x05\n      0x00\n        /* \"src/KipuBankV21.sol\":4703:4716  locked = true */\n      0x0100\n      exp\n      dup2\n      sload\n      dup2\n      0xff\n      mul\n      not\n      and\n      swap1\n      dup4\n      iszero\n      iszero\n      mul\n      or\n      swap1\n      sstore\n      pop\n        /* \"src/KipuBankV21.sol\":8849:8856  _amount */\n      dup1\n        /* \"src/KipuBankV21.sol\":4949:4950  0 */\n      0x00\n        /* \"src/KipuBankV21.sol\":4938:4945  _amount */\n      dup2\n        /* \"src/KipuBankV21.sol\":4938:4950  _amount == 0 */\n      sub\n        /* \"src/KipuBankV21.sol\":4934:4974  if (_amount == 0) revert InvalidAmount() */\n      tag_124\n      jumpi\n        /* \"src/KipuBankV21.sol\":4959:4974  InvalidAmount() */\n      mload(0x40)\n      0x2c5211c600000000000000000000000000000000000000000000000000000000\n      dup2\n      mstore\n      0x04\n      add\n      mload(0x40)\n      dup1\n      swap2\n      sub\n      swap1\n      revert\n        /* \"src/KipuBankV21.sol\":4934:4974  if (_amount == 0) revert InvalidAmount() */\n    tag_124:\n        /* \"src/KipuBankV21.sol\":8869:8888  uint256 userBalance */\n      0x00\n        /* \"src/KipuBankV21.sol\":8891:8899  balances */\n      0x06\n        /* \"src/KipuBankV21.sol\":8891:8911  balances[msg.sender] */\n      0x00\n        /* \"src/KipuBankV21.sol\":8900:8910  msg.sender */\n      caller\n        /* \"src/KipuBankV21.sol\":8891:8911  balances[msg.sender] */\n      0xffffffffffffffffffffffffffffffffffffffff\n      and\n      0xffffffffffffffffffffffffffffffffffffffff\n      and\n      dup2\n      mstore\n      0x20\n      add\n      swap1\n      dup2\n      mstore\n      0x20\n      add\n      0x00\n      keccak256\n        /* \"src/KipuBankV21.sol\":8891:8915  balances[msg.sender].eth */\n      0x00\n      add\n      sload\n        /* \"src/KipuBankV21.sol\":8869:8915  uint256 userBalance = balances[msg.sender].eth */\n      swap1\n      pop\n        /* \"src/KipuBankV21.sol\":9000:9016  WITHDRAWAL_LIMIT */\n      immutable(\"0x49847a2314cecfe9e5127b41702adba4edb0260cff60a0a5f30c53ee5905efea\")\n        /* \"src/KipuBankV21.sol\":8990:8997  _amount */\n      dup4\n        /* \"src/KipuBankV21.sol\":8990:9016  _amount > WITHDRAWAL_LIMIT */\n      gt\n        /* \"src/KipuBankV21.sol\":8986:9050  if (_amount > WITHDRAWAL_LIMIT) revert WithdrawalLimitExceeded() */\n      iszero\n      tag_126\n      jumpi\n        /* \"src/KipuBankV21.sol\":9025:9050  WithdrawalLimitExceeded() */\n      mload(0x40)\n      0x4e6a369600000000000000000000000000000000000000000000000000000000\n      dup2\n      mstore\n      0x04\n      add\n      mload(0x40)\n      dup1\n      swap2\n      sub\n      swap1\n      revert\n        /* \"src/KipuBankV21.sol\":8986:9050  if (_amount > WITHDRAWAL_LIMIT) revert WithdrawalLimitExceeded() */\n    tag_126:\n        /* \"src/KipuBankV21.sol\":9075:9086  userBalance */\n      dup1\n        /* \"src/KipuBankV21.sol\":9065:9072  _amount */\n      dup4\n        /* \"src/KipuBankV21.sol\":9065:9086  _amount > userBalance */\n      gt\n        /* \"src/KipuBankV21.sol\":9061:9116  if (_amount > userBalance) revert InsufficientBalance() */\n      iszero\n      tag_127\n      jumpi\n        /* \"src/KipuBankV21.sol\":9095:9116  InsufficientBalance() */\n      mload(0x40)\n      0xf4d678b800000000000000000000000000000000000000000000000000000000\n      dup2\n      mstore\n      0x04\n      add\n      mload(0x40)\n      dup1\n      swap2\n      sub\n      swap1\n      revert\n        /* \"src/KipuBankV21.sol\":9061:9116  if (_amount > userBalance) revert InsufficientBalance() */\n    tag_127:\n        /* \"src/KipuBankV21.sol\":9199:9206  _amount */\n      dup3\n        /* \"src/KipuBankV21.sol\":9185:9196  userBalance */\n      dup2\n        /* \"src/KipuBankV21.sol\":9185:9206  userBalance - _amount */\n      tag_128\n      swap2\n      swap1\n      tag_98\n      jump\t// in\n    tag_128:\n        /* \"src/KipuBankV21.sol\":9157:9165  balances */\n      0x06\n        /* \"src/KipuBankV21.sol\":9157:9177  balances[msg.sender] */\n      0x00\n        /* \"src/KipuBankV21.sol\":9166:9176  msg.sender */\n      caller\n        /* \"src/KipuBankV21.sol\":9157:9177  balances[msg.sender] */\n      0xffffffffffffffffffffffffffffffffffffffff\n      and\n      0xffffffffffffffffffffffffffffffffffffffff\n      and\n      dup2\n      mstore\n      0x20\n      add\n      swap1\n      dup2\n      mstore\n      0x20\n      add\n      0x00\n      keccak256\n        /* \"src/KipuBankV21.sol\":9157:9182  balances[msg.sender].usdc */\n      0x01\n      add\n        /* \"src/KipuBankV21.sol\":9157:9206  balances[msg.sender].usdc = userBalance - _amount */\n      dup2\n      swap1\n      sstore\n      pop\n        /* \"src/KipuBankV21.sol\":9235:9242  _amount */\n      dup3\n        /* \"src/KipuBankV21.sol\":9217:9231  totalDeposited */\n      0x02\n      0x00\n        /* \"src/KipuBankV21.sol\":9217:9242  totalDeposited -= _amount */\n      dup3\n      dup3\n      sload\n      tag_129\n      swap2\n      swap1\n      tag_98\n      jump\t// in\n    tag_129:\n      swap3\n      pop\n      pop\n      dup2\n      swap1\n      sstore\n      pop\n        /* \"src/KipuBankV21.sol\":9253:9268  withdrawalCount */\n      0x04\n      0x00\n        /* \"src/KipuBankV21.sol\":9253:9270  withdrawalCount++ */\n      dup2\n      sload\n      dup1\n      swap3\n      swap2\n      swap1\n      tag_130\n      swap1\n      tag_101\n      jump\t// in\n    tag_130:\n      swap2\n      swap1\n      pop\n      sstore\n      pop\n        /* \"src/KipuBankV21.sol\":9315:9358  _transferUSDC(payable(msg.sender), _amount) */\n      tag_131\n        /* \"src/KipuBankV21.sol\":9337:9347  msg.sender */\n      caller\n        /* \"src/KipuBankV21.sol\":9350:9357  _amount */\n      dup5\n        /* \"src/KipuBankV21.sol\":9315:9328  _transferUSDC */\n      tag_132\n        /* \"src/KipuBankV21.sol\":9315:9358  _transferUSDC(payable(msg.sender), _amount) */\n      jump\t// in\n    tag_131:\n        /* \"src/KipuBankV21.sol\":9391:9401  msg.sender */\n      caller\n        /* \"src/KipuBankV21.sol\":9376:9411  WithdrawalUSDC(msg.sender, _amount) */\n      0xffffffffffffffffffffffffffffffffffffffff\n      and\n      0x736dfcc39d27adad7de37e9a6f1e8252e0953ebf8f582d535672d33f8986738b\n        /* \"src/KipuBankV21.sol\":9403:9410  _amount */\n      dup5\n        /* \"src/KipuBankV21.sol\":9376:9411  WithdrawalUSDC(msg.sender, _amount) */\n      mload(0x40)\n      tag_133\n      swap2\n      swap1\n      tag_37\n      jump\t// in\n    tag_133:\n      mload(0x40)\n      dup1\n      swap2\n      sub\n      swap1\n      log2\n        /* \"src/KipuBankV21.sol\":8858:9419  {... */\n      pop\n        /* \"src/KipuBankV21.sol\":4727:4728  _ */\n      pop\n        /* \"src/KipuBankV21.sol\":4748:4753  false */\n      0x00\n        /* \"src/KipuBankV21.sol\":4739:4745  locked */\n      0x05\n      0x00\n        /* \"src/KipuBankV21.sol\":4739:4753  locked = false */\n      0x0100\n      exp\n      dup2\n      sload\n      dup2\n      0xff\n      mul\n      not\n      and\n      swap1\n      dup4\n      iszero\n      iszero\n      mul\n      or\n      swap1\n      sstore\n      pop\n        /* \"src/KipuBankV21.sol\":8772:9419  function withdrawalUSDC(uint256 _amount) external nonReentrant nonZeroAmount(_amount) {... */\n      pop\n      jump\t// out\n        /* \"src/KipuBankV21.sol\":9535:9642  function getBalanceEth() external view returns (uint256) {... */\n    tag_71:\n        /* \"src/KipuBankV21.sol\":9583:9590  uint256 */\n      0x00\n        /* \"src/KipuBankV21.sol\":9610:9618  balances */\n      0x06\n        /* \"src/KipuBankV21.sol\":9610:9630  balances[msg.sender] */\n      0x00\n        /* \"src/KipuBankV21.sol\":9619:9629  msg.sender */\n      caller\n        /* \"src/KipuBankV21.sol\":9610:9630  balances[msg.sender] */\n      0xffffffffffffffffffffffffffffffffffffffff\n      and\n      0xffffffffffffffffffffffffffffffffffffffff\n      and\n      dup2\n      mstore\n      0x20\n      add\n      swap1\n      dup2\n      mstore\n      0x20\n      add\n      0x00\n      keccak256\n        /* \"src/KipuBankV21.sol\":9610:9634  balances[msg.sender].eth */\n      0x00\n      add\n      sload\n        /* \"src/KipuBankV21.sol\":9603:9634  return balances[msg.sender].eth */\n      swap1\n      pop\n        /* \"src/KipuBankV21.sol\":9535:9642  function getBalanceEth() external view returns (uint256) {... */\n      swap1\n      jump\t// out\n        /* \"@openzeppelin/contracts/access/Ownable.sol\":2543:2758  function transferOwnership(address newOwner) public virtual onlyOwner {... */\n    tag_76:\n        /* \"@openzeppelin/contracts/access/Ownable.sol\":1531:1544  _checkOwner() */\n      tag_136\n        /* \"@openzeppelin/contracts/access/Ownable.sol\":1531:1542  _checkOwner */\n      tag_116\n        /* \"@openzeppelin/contracts/access/Ownable.sol\":1531:1544  _checkOwner() */\n      jump\t// in\n    tag_136:\n        /* \"@openzeppelin/contracts/access/Ownable.sol\":2647:2648  0 */\n      0x00\n        /* \"@openzeppelin/contracts/access/Ownable.sol\":2627:2649  newOwner == address(0) */\n      0xffffffffffffffffffffffffffffffffffffffff\n      and\n        /* \"@openzeppelin/contracts/access/Ownable.sol\":2627:2635  newOwner */\n      dup2\n        /* \"@openzeppelin/contracts/access/Ownable.sol\":2627:2649  newOwner == address(0) */\n      0xffffffffffffffffffffffffffffffffffffffff\n      and\n      sub\n        /* \"@openzeppelin/contracts/access/Ownable.sol\":2623:2714  if (newOwner == address(0)) {... */\n      tag_138\n      jumpi\n        /* \"@openzeppelin/contracts/access/Ownable.sol\":2700:2701  0 */\n      0x00\n        /* \"@openzeppelin/contracts/access/Ownable.sol\":2672:2703  OwnableInvalidOwner(address(0)) */\n      mload(0x40)\n      0x1e4fbdf700000000000000000000000000000000000000000000000000000000\n      dup2\n      mstore\n      0x04\n      add\n      tag_139\n      swap2\n      swap1\n      tag_64\n      jump\t// in\n    tag_139:\n      mload(0x40)\n      dup1\n      swap2\n      sub\n      swap1\n      revert\n        /* \"@openzeppelin/contracts/access/Ownable.sol\":2623:2714  if (newOwner == address(0)) {... */\n    tag_138:\n        /* \"@openzeppelin/contracts/access/Ownable.sol\":2723:2751  _transferOwnership(newOwner) */\n      tag_140\n        /* \"@openzeppelin/contracts/access/Ownable.sol\":2742:2750  newOwner */\n      dup2\n        /* \"@openzeppelin/contracts/access/Ownable.sol\":2723:2741  _transferOwnership */\n      tag_119\n        /* \"@openzeppelin/contracts/access/Ownable.sol\":2723:2751  _transferOwnership(newOwner) */\n      jump\t// in\n    tag_140:\n        /* \"@openzeppelin/contracts/access/Ownable.sol\":2543:2758  function transferOwnership(address newOwner) public virtual onlyOwner {... */\n      pop\n      jump\t// out\n        /* \"src/KipuBankV21.sol\":7180:7805  function depositUSDC(uint256 _amount) external nonZeroAmount(_amount) {... */\n    tag_80:\n        /* \"src/KipuBankV21.sol\":7241:7248  _amount */\n      dup1\n        /* \"src/KipuBankV21.sol\":4949:4950  0 */\n      0x00\n        /* \"src/KipuBankV21.sol\":4938:4945  _amount */\n      dup2\n        /* \"src/KipuBankV21.sol\":4938:4950  _amount == 0 */\n      sub\n        /* \"src/KipuBankV21.sol\":4934:4974  if (_amount == 0) revert InvalidAmount() */\n      tag_142\n      jumpi\n        /* \"src/KipuBankV21.sol\":4959:4974  InvalidAmount() */\n      mload(0x40)\n      0x2c5211c600000000000000000000000000000000000000000000000000000000\n      dup2\n      mstore\n      0x04\n      add\n      mload(0x40)\n      dup1\n      swap2\n      sub\n      swap1\n      revert\n        /* \"src/KipuBankV21.sol\":4934:4974  if (_amount == 0) revert InvalidAmount() */\n    tag_142:\n        /* \"src/KipuBankV21.sol\":7400:7412  BANK_CAP_USD */\n      immutable(\"0xc5fad44e3727a4ce457d020cb0c6daf6b7d8f8d9551f2fa0111b8c9f86d3fe43\")\n        /* \"src/KipuBankV21.sol\":7390:7397  _amount */\n      dup3\n        /* \"src/KipuBankV21.sol\":7373:7387  totalDeposited */\n      sload(0x02)\n        /* \"src/KipuBankV21.sol\":7373:7397  totalDeposited + _amount */\n      tag_144\n      swap2\n      swap1\n      tag_109\n      jump\t// in\n    tag_144:\n        /* \"src/KipuBankV21.sol\":7373:7412  totalDeposited + _amount > BANK_CAP_USD */\n      gt\n        /* \"src/KipuBankV21.sol\":7369:7438  if (totalDeposited + _amount > BANK_CAP_USD) revert BankCapExceeded() */\n      iszero\n      tag_145\n      jumpi\n        /* \"src/KipuBankV21.sol\":7421:7438  BankCapExceeded() */\n      mload(0x40)\n      0x448f3ca800000000000000000000000000000000000000000000000000000000\n      dup2\n      mstore\n      0x04\n      add\n      mload(0x40)\n      dup1\n      swap2\n      sub\n      swap1\n      revert\n        /* \"src/KipuBankV21.sol\":7369:7438  if (totalDeposited + _amount > BANK_CAP_USD) revert BankCapExceeded() */\n    tag_145:\n        /* \"src/KipuBankV21.sol\":7600:7607  _amount */\n      dup2\n        /* \"src/KipuBankV21.sol\":7582:7596  totalDeposited */\n      0x02\n      0x00\n        /* \"src/KipuBankV21.sol\":7582:7607  totalDeposited += _amount */\n      dup3\n      dup3\n      sload\n      add\n      swap3\n      pop\n      pop\n      dup2\n      swap1\n      sstore\n      pop\n        /* \"src/KipuBankV21.sol\":7658:7665  _amount */\n      dup2\n        /* \"src/KipuBankV21.sol\":7629:7637  balances */\n      0x06\n        /* \"src/KipuBankV21.sol\":7629:7649  balances[msg.sender] */\n      0x00\n        /* \"src/KipuBankV21.sol\":7638:7648  msg.sender */\n      caller\n        /* \"src/KipuBankV21.sol\":7629:7649  balances[msg.sender] */\n      0xffffffffffffffffffffffffffffffffffffffff\n      and\n      0xffffffffffffffffffffffffffffffffffffffff\n      and\n      dup2\n      mstore\n      0x20\n      add\n      swap1\n      dup2\n      mstore\n      0x20\n      add\n      0x00\n      keccak256\n        /* \"src/KipuBankV21.sol\":7629:7654  balances[msg.sender].usdc */\n      0x01\n      add\n      0x00\n        /* \"src/KipuBankV21.sol\":7629:7665  balances[msg.sender].usdc += _amount */\n      dup3\n      dup3\n      sload\n      tag_146\n      swap2\n      swap1\n      tag_109\n      jump\t// in\n    tag_146:\n      swap3\n      pop\n      pop\n      dup2\n      swap1\n      sstore\n      pop\n        /* \"src/KipuBankV21.sol\":7676:7688  depositCount */\n      0x03\n      0x00\n        /* \"src/KipuBankV21.sol\":7676:7690  depositCount++ */\n      dup2\n      sload\n      dup1\n      swap3\n      swap2\n      swap1\n      tag_147\n      swap1\n      tag_101\n      jump\t// in\n    tag_147:\n      swap2\n      swap1\n      pop\n      sstore\n      pop\n        /* \"src/KipuBankV21.sol\":7777:7787  msg.sender */\n      caller\n        /* \"src/KipuBankV21.sol\":7765:7797  DepositUSDC(msg.sender, _amount) */\n      0xffffffffffffffffffffffffffffffffffffffff\n      and\n      0xe7440f6772025dec9be06ba934e6ee5289b73533ee2136ba668f6cb6ea3f56a8\n        /* \"src/KipuBankV21.sol\":7789:7796  _amount */\n      dup4\n        /* \"src/KipuBankV21.sol\":7765:7797  DepositUSDC(msg.sender, _amount) */\n      mload(0x40)\n      tag_148\n      swap2\n      swap1\n      tag_37\n      jump\t// in\n    tag_148:\n      mload(0x40)\n      dup1\n      swap2\n      sub\n      swap1\n      log2\n        /* \"src/KipuBankV21.sol\":7180:7805  function depositUSDC(uint256 _amount) external nonZeroAmount(_amount) {... */\n      pop\n      pop\n      jump\t// out\n        /* \"src/KipuBankV21.sol\":1232:1266  IERC20 public immutable USDC_TOKEN */\n    tag_83:\n      immutable(\"0xe13e22f4ea5bd10300dc6696bca2ca58b89132d8272e230e9104ae9f281888aa\")\n      dup2\n      jump\t// out\n        /* \"src/KipuBankV21.sol\":1387:1416  uint256 public totalDeposited */\n    tag_88:\n      sload(0x02)\n      dup2\n      jump\t// out\n        /* \"src/KipuBankV21.sol\":10171:10412  function _transferEth(address payable _to, uint256 _amount) private {... */\n    tag_103:\n        /* \"src/KipuBankV21.sol\":10251:10263  bool success */\n      0x00\n        /* \"src/KipuBankV21.sol\":10265:10287  bytes memory errorData */\n      0x00\n        /* \"src/KipuBankV21.sol\":10291:10294  _to */\n      dup4\n        /* \"src/KipuBankV21.sol\":10291:10299  _to.call */\n      0xffffffffffffffffffffffffffffffffffffffff\n      and\n        /* \"src/KipuBankV21.sol\":10307:10314  _amount */\n      dup4\n        /* \"src/KipuBankV21.sol\":10291:10319  _to.call{value: _amount}(\"\") */\n      mload(0x40)\n      tag_150\n      swap1\n      tag_151\n      jump\t// in\n    tag_150:\n      0x00\n      mload(0x40)\n      dup1\n      dup4\n      sub\n      dup2\n      dup6\n      dup8\n      gas\n      call\n      swap3\n      pop\n      pop\n      pop\n      returndatasize\n      dup1\n      0x00\n      dup2\n      eq\n      tag_154\n      jumpi\n      mload(0x40)\n      swap2\n      pop\n      and(add(returndatasize, 0x3f), not(0x1f))\n      dup3\n      add\n      0x40\n      mstore\n      returndatasize\n      dup3\n      mstore\n      returndatasize\n      0x00\n      0x20\n      dup5\n      add\n      returndatacopy\n      jump(tag_153)\n    tag_154:\n      0x60\n      swap2\n      pop\n    tag_153:\n      pop\n        /* \"src/KipuBankV21.sol\":10250:10319  (bool success, bytes memory errorData) = _to.call{value: _amount}(\"\") */\n      swap2\n      pop\n      swap2\n      pop\n        /* \"src/KipuBankV21.sol\":10335:10342  success */\n      dup2\n        /* \"src/KipuBankV21.sol\":10330:10405  if (!success) {... */\n      tag_155\n      jumpi\n        /* \"src/KipuBankV21.sol\":10383:10392  errorData */\n      dup1\n        /* \"src/KipuBankV21.sol\":10366:10393  WithdrawalFailed(errorData) */\n      mload(0x40)\n      0x49ba945b00000000000000000000000000000000000000000000000000000000\n      dup2\n      mstore\n      0x04\n      add\n      tag_156\n      swap2\n      swap1\n      tag_157\n      jump\t// in\n    tag_156:\n      mload(0x40)\n      dup1\n      swap2\n      sub\n      swap1\n      revert\n        /* \"src/KipuBankV21.sol\":10330:10405  if (!success) {... */\n    tag_155:\n        /* \"src/KipuBankV21.sol\":10239:10412  {... */\n      pop\n      pop\n        /* \"src/KipuBankV21.sol\":10171:10412  function _transferEth(address payable _to, uint256 _amount) private {... */\n      pop\n      pop\n      jump\t// out\n        /* \"@openzeppelin/contracts/access/Ownable.sol\":1796:1958  function _checkOwner() internal view virtual {... */\n    tag_116:\n        /* \"@openzeppelin/contracts/access/Ownable.sol\":1866:1878  _msgSender() */\n      tag_159\n        /* \"@openzeppelin/contracts/access/Ownable.sol\":1866:1876  _msgSender */\n      tag_160\n        /* \"@openzeppelin/contracts/access/Ownable.sol\":1866:1878  _msgSender() */\n      jump\t// in\n    tag_159:\n        /* \"@openzeppelin/contracts/access/Ownable.sol\":1855:1878  owner() != _msgSender() */\n      0xffffffffffffffffffffffffffffffffffffffff\n      and\n        /* \"@openzeppelin/contracts/access/Ownable.sol\":1855:1862  owner() */\n      tag_161\n        /* \"@openzeppelin/contracts/access/Ownable.sol\":1855:1860  owner */\n      tag_62\n        /* \"@openzeppelin/contracts/access/Ownable.sol\":1855:1862  owner() */\n      jump\t// in\n    tag_161:\n        /* \"@openzeppelin/contracts/access/Ownable.sol\":1855:1878  owner() != _msgSender() */\n      0xffffffffffffffffffffffffffffffffffffffff\n      and\n      eq\n        /* \"@openzeppelin/contracts/access/Ownable.sol\":1851:1952  if (owner() != _msgSender()) {... */\n      tag_162\n      jumpi\n        /* \"@openzeppelin/contracts/access/Ownable.sol\":1928:1940  _msgSender() */\n      tag_163\n        /* \"@openzeppelin/contracts/access/Ownable.sol\":1928:1938  _msgSender */\n      tag_160\n        /* \"@openzeppelin/contracts/access/Ownable.sol\":1928:1940  _msgSender() */\n      jump\t// in\n    tag_163:\n        /* \"@openzeppelin/contracts/access/Ownable.sol\":1901:1941  OwnableUnauthorizedAccount(_msgSender()) */\n      mload(0x40)\n      0x118cdaa700000000000000000000000000000000000000000000000000000000\n      dup2\n      mstore\n      0x04\n      add\n      tag_164\n      swap2\n      swap1\n      tag_64\n      jump\t// in\n    tag_164:\n      mload(0x40)\n      dup1\n      swap2\n      sub\n      swap1\n      revert\n        /* \"@openzeppelin/contracts/access/Ownable.sol\":1851:1952  if (owner() != _msgSender()) {... */\n    tag_162:\n        /* \"@openzeppelin/contracts/access/Ownable.sol\":1796:1958  function _checkOwner() internal view virtual {... */\n      jump\t// out\n        /* \"@openzeppelin/contracts/access/Ownable.sol\":2912:3099  function _transferOwnership(address newOwner) internal virtual {... */\n    tag_119:\n        /* \"@openzeppelin/contracts/access/Ownable.sol\":2985:3001  address oldOwner */\n      0x00\n        /* \"@openzeppelin/contracts/access/Ownable.sol\":3004:3010  _owner */\n      0x00\n      0x00\n      swap1\n      sload\n      swap1\n      0x0100\n      exp\n      swap1\n      div\n      0xffffffffffffffffffffffffffffffffffffffff\n      and\n        /* \"@openzeppelin/contracts/access/Ownable.sol\":2985:3010  address oldOwner = _owner */\n      swap1\n      pop\n        /* \"@openzeppelin/contracts/access/Ownable.sol\":3029:3037  newOwner */\n      dup2\n        /* \"@openzeppelin/contracts/access/Ownable.sol\":3020:3026  _owner */\n      0x00\n      0x00\n        /* \"@openzeppelin/contracts/access/Ownable.sol\":3020:3037  _owner = newOwner */\n      0x0100\n      exp\n      dup2\n      sload\n      dup2\n      0xffffffffffffffffffffffffffffffffffffffff\n      mul\n      not\n      and\n      swap1\n      dup4\n      0xffffffffffffffffffffffffffffffffffffffff\n      and\n      mul\n      or\n      swap1\n      sstore\n      pop\n        /* \"@openzeppelin/contracts/access/Ownable.sol\":3083:3091  newOwner */\n      dup2\n        /* \"@openzeppelin/contracts/access/Ownable.sol\":3052:3092  OwnershipTransferred(oldOwner, newOwner) */\n      0xffffffffffffffffffffffffffffffffffffffff\n      and\n        /* \"@openzeppelin/contracts/access/Ownable.sol\":3073:3081  oldOwner */\n      dup2\n        /* \"@openzeppelin/contracts/access/Ownable.sol\":3052:3092  OwnershipTransferred(oldOwner, newOwner) */\n      0xffffffffffffffffffffffffffffffffffffffff\n      and\n      0x8be0079c531659141344cd1fd0a4f28419497f9722a3daafe3b4186f6b6457e0\n      mload(0x40)\n      mload(0x40)\n      dup1\n      swap2\n      sub\n      swap1\n      log3\n        /* \"@openzeppelin/contracts/access/Ownable.sol\":2975:3099  {... */\n      pop\n        /* \"@openzeppelin/contracts/access/Ownable.sol\":2912:3099  function _transferOwnership(address newOwner) internal virtual {... */\n      pop\n      jump\t// out\n        /* \"src/KipuBankV21.sol\":10420:10497  function _transferUSDC(address payable _to, uint256 _amount) private {... */\n    tag_132:\n      pop\n      pop\n      jump\t// out\n        /* \"@openzeppelin/contracts/utils/Context.sol\":656:752  function _msgSender() internal view virtual returns (address) {... */\n    tag_160:\n        /* \"@openzeppelin/contracts/utils/Context.sol\":709:716  address */\n      0x00\n        /* \"@openzeppelin/contracts/utils/Context.sol\":735:745  msg.sender */\n      caller\n        /* \"@openzeppelin/contracts/utils/Context.sol\":728:745  return msg.sender */\n      swap1\n      pop\n        /* \"@openzeppelin/contracts/utils/Context.sol\":656:752  function _msgSender() internal view virtual returns (address) {... */\n      swap1\n      jump\t// out\n        /* \"#utility.yul\":88:205   */\n    tag_169:\n        /* \"#utility.yul\":197:198   */\n      0x00\n        /* \"#utility.yul\":194:195   */\n      0x00\n        /* \"#utility.yul\":187:199   */\n      revert\n        /* \"#utility.yul\":334:411   */\n    tag_171:\n        /* \"#utility.yul\":371:378   */\n      0x00\n        /* \"#utility.yul\":400:405   */\n      dup2\n        /* \"#utility.yul\":389:405   */\n      swap1\n      pop\n        /* \"#utility.yul\":334:411   */\n      swap2\n      swap1\n      pop\n      jump\t// out\n        /* \"#utility.yul\":417:539   */\n    tag_172:\n        /* \"#utility.yul\":490:514   */\n      tag_202\n        /* \"#utility.yul\":508:513   */\n      dup2\n        /* \"#utility.yul\":490:514   */\n      tag_171\n      jump\t// in\n    tag_202:\n        /* \"#utility.yul\":483:488   */\n      dup2\n        /* \"#utility.yul\":480:515   */\n      eq\n        /* \"#utility.yul\":470:533   */\n      tag_203\n      jumpi\n        /* \"#utility.yul\":529:530   */\n      0x00\n        /* \"#utility.yul\":526:527   */\n      0x00\n        /* \"#utility.yul\":519:531   */\n      revert\n        /* \"#utility.yul\":470:533   */\n    tag_203:\n        /* \"#utility.yul\":417:539   */\n      pop\n      jump\t// out\n        /* \"#utility.yul\":545:684   */\n    tag_173:\n        /* \"#utility.yul\":591:596   */\n      0x00\n        /* \"#utility.yul\":629:635   */\n      dup2\n        /* \"#utility.yul\":616:636   */\n      calldataload\n        /* \"#utility.yul\":607:636   */\n      swap1\n      pop\n        /* \"#utility.yul\":645:678   */\n      tag_205\n        /* \"#utility.yul\":672:677   */\n      dup2\n        /* \"#utility.yul\":645:678   */\n      tag_172\n      jump\t// in\n    tag_205:\n        /* \"#utility.yul\":545:684   */\n      swap3\n      swap2\n      pop\n      pop\n      jump\t// out\n        /* \"#utility.yul\":690:1019   */\n    tag_24:\n        /* \"#utility.yul\":749:755   */\n      0x00\n        /* \"#utility.yul\":798:800   */\n      0x20\n        /* \"#utility.yul\":786:795   */\n      dup3\n        /* \"#utility.yul\":777:784   */\n      dup5\n        /* \"#utility.yul\":773:796   */\n      sub\n        /* \"#utility.yul\":769:801   */\n      slt\n        /* \"#utility.yul\":766:885   */\n      iszero\n      tag_207\n      jumpi\n        /* \"#utility.yul\":804:883   */\n      tag_208\n      tag_169\n      jump\t// in\n    tag_208:\n        /* \"#utility.yul\":766:885   */\n    tag_207:\n        /* \"#utility.yul\":924:925   */\n      0x00\n        /* \"#utility.yul\":949:1002   */\n      tag_209\n        /* \"#utility.yul\":994:1001   */\n      dup5\n        /* \"#utility.yul\":985:991   */\n      dup3\n        /* \"#utility.yul\":974:983   */\n      dup6\n        /* \"#utility.yul\":970:992   */\n      add\n        /* \"#utility.yul\":949:1002   */\n      tag_173\n      jump\t// in\n    tag_209:\n        /* \"#utility.yul\":939:1002   */\n      swap2\n      pop\n        /* \"#utility.yul\":895:1012   */\n      pop\n        /* \"#utility.yul\":690:1019   */\n      swap3\n      swap2\n      pop\n      pop\n      jump\t// out\n        /* \"#utility.yul\":1025:1151   */\n    tag_174:\n        /* \"#utility.yul\":1062:1069   */\n      0x00\n        /* \"#utility.yul\":1102:1144   */\n      0xffffffffffffffffffffffffffffffffffffffff\n        /* \"#utility.yul\":1095:1100   */\n      dup3\n        /* \"#utility.yul\":1091:1145   */\n      and\n        /* \"#utility.yul\":1080:1145   */\n      swap1\n      pop\n        /* \"#utility.yul\":1025:1151   */\n      swap2\n      swap1\n      pop\n      jump\t// out\n        /* \"#utility.yul\":1157:1253   */\n    tag_175:\n        /* \"#utility.yul\":1194:1201   */\n      0x00\n        /* \"#utility.yul\":1223:1247   */\n      tag_212\n        /* \"#utility.yul\":1241:1246   */\n      dup3\n        /* \"#utility.yul\":1223:1247   */\n      tag_174\n      jump\t// in\n    tag_212:\n        /* \"#utility.yul\":1212:1247   */\n      swap1\n      pop\n        /* \"#utility.yul\":1157:1253   */\n      swap2\n      swap1\n      pop\n      jump\t// out\n        /* \"#utility.yul\":1259:1381   */\n    tag_176:\n        /* \"#utility.yul\":1332:1356   */\n      tag_214\n        /* \"#utility.yul\":1350:1355   */\n      dup2\n        /* \"#utility.yul\":1332:1356   */\n      tag_175\n      jump\t// in\n    tag_214:\n        /* \"#utility.yul\":1325:1330   */\n      dup2\n        /* \"#utility.yul\":1322:1357   */\n      eq\n        /* \"#utility.yul\":1312:1375   */\n      tag_215\n      jumpi\n        /* \"#utility.yul\":1371:1372   */\n      0x00\n        /* \"#utility.yul\":1368:1369   */\n      0x00\n        /* \"#utility.yul\":1361:1373   */\n      revert\n        /* \"#utility.yul\":1312:1375   */\n    tag_215:\n        /* \"#utility.yul\":1259:1381   */\n      pop\n      jump\t// out\n        /* \"#utility.yul\":1387:1526   */\n    tag_177:\n        /* \"#utility.yul\":1433:1438   */\n      0x00\n        /* \"#utility.yul\":1471:1477   */\n      dup2\n        /* \"#utility.yul\":1458:1478   */\n      calldataload\n        /* \"#utility.yul\":1449:1478   */\n      swap1\n      pop\n        /* \"#utility.yul\":1487:1520   */\n      tag_217\n        /* \"#utility.yul\":1514:1519   */\n      dup2\n        /* \"#utility.yul\":1487:1520   */\n      tag_176\n      jump\t// in\n    tag_217:\n        /* \"#utility.yul\":1387:1526   */\n      swap3\n      swap2\n      pop\n      pop\n      jump\t// out\n        /* \"#utility.yul\":1532:1861   */\n    tag_29:\n        /* \"#utility.yul\":1591:1597   */\n      0x00\n        /* \"#utility.yul\":1640:1642   */\n      0x20\n        /* \"#utility.yul\":1628:1637   */\n      dup3\n        /* \"#utility.yul\":1619:1626   */\n      dup5\n        /* \"#utility.yul\":1615:1638   */\n      sub\n        /* \"#utility.yul\":1611:1643   */\n      slt\n        /* \"#utility.yul\":1608:1727   */\n      iszero\n      tag_219\n      jumpi\n        /* \"#utility.yul\":1646:1725   */\n      tag_220\n      tag_169\n      jump\t// in\n    tag_220:\n        /* \"#utility.yul\":1608:1727   */\n    tag_219:\n        /* \"#utility.yul\":1766:1767   */\n      0x00\n        /* \"#utility.yul\":1791:1844   */\n      tag_221\n        /* \"#utility.yul\":1836:1843   */\n      dup5\n        /* \"#utility.yul\":1827:1833   */\n      dup3\n        /* \"#utility.yul\":1816:1825   */\n      dup6\n        /* \"#utility.yul\":1812:1834   */\n      add\n        /* \"#utility.yul\":1791:1844   */\n      tag_177\n      jump\t// in\n    tag_221:\n        /* \"#utility.yul\":1781:1844   */\n      swap2\n      pop\n        /* \"#utility.yul\":1737:1854   */\n      pop\n        /* \"#utility.yul\":1532:1861   */\n      swap3\n      swap2\n      pop\n      pop\n      jump\t// out\n        /* \"#utility.yul\":1867:1985   */\n    tag_178:\n        /* \"#utility.yul\":1954:1978   */\n      tag_223\n        /* \"#utility.yul\":1972:1977   */\n      dup2\n        /* \"#utility.yul\":1954:1978   */\n      tag_171\n      jump\t// in\n    tag_223:\n        /* \"#utility.yul\":1949:1952   */\n      dup3\n        /* \"#utility.yul\":1942:1979   */\n      mstore\n        /* \"#utility.yul\":1867:1985   */\n      pop\n      pop\n      jump\t// out\n        /* \"#utility.yul\":1991:2323   */\n    tag_32:\n        /* \"#utility.yul\":2112:2116   */\n      0x00\n        /* \"#utility.yul\":2150:2152   */\n      0x40\n        /* \"#utility.yul\":2139:2148   */\n      dup3\n        /* \"#utility.yul\":2135:2153   */\n      add\n        /* \"#utility.yul\":2127:2153   */\n      swap1\n      pop\n        /* \"#utility.yul\":2163:2234   */\n      tag_225\n        /* \"#utility.yul\":2231:2232   */\n      0x00\n        /* \"#utility.yul\":2220:2229   */\n      dup4\n        /* \"#utility.yul\":2216:2233   */\n      add\n        /* \"#utility.yul\":2207:2213   */\n      dup6\n        /* \"#utility.yul\":2163:2234   */\n      tag_178\n      jump\t// in\n    tag_225:\n        /* \"#utility.yul\":2244:2316   */\n      tag_226\n        /* \"#utility.yul\":2312:2314   */\n      0x20\n        /* \"#utility.yul\":2301:2310   */\n      dup4\n        /* \"#utility.yul\":2297:2315   */\n      add\n        /* \"#utility.yul\":2288:2294   */\n      dup5\n        /* \"#utility.yul\":2244:2316   */\n      tag_178\n      jump\t// in\n    tag_226:\n        /* \"#utility.yul\":1991:2323   */\n      swap4\n      swap3\n      pop\n      pop\n      pop\n      jump\t// out\n        /* \"#utility.yul\":2329:2551   */\n    tag_37:\n        /* \"#utility.yul\":2422:2426   */\n      0x00\n        /* \"#utility.yul\":2460:2462   */\n      0x20\n        /* \"#utility.yul\":2449:2458   */\n      dup3\n        /* \"#utility.yul\":2445:2463   */\n      add\n        /* \"#utility.yul\":2437:2463   */\n      swap1\n      pop\n        /* \"#utility.yul\":2473:2544   */\n      tag_228\n        /* \"#utility.yul\":2541:2542   */\n      0x00\n        /* \"#utility.yul\":2530:2539   */\n      dup4\n        /* \"#utility.yul\":2526:2543   */\n      add\n        /* \"#utility.yul\":2517:2523   */\n      dup5\n        /* \"#utility.yul\":2473:2544   */\n      tag_178\n      jump\t// in\n    tag_228:\n        /* \"#utility.yul\":2329:2551   */\n      swap3\n      swap2\n      pop\n      pop\n      jump\t// out\n        /* \"#utility.yul\":2557:2617   */\n    tag_179:\n        /* \"#utility.yul\":2585:2588   */\n      0x00\n        /* \"#utility.yul\":2606:2611   */\n      dup2\n        /* \"#utility.yul\":2599:2611   */\n      swap1\n      pop\n        /* \"#utility.yul\":2557:2617   */\n      swap2\n      swap1\n      pop\n      jump\t// out\n        /* \"#utility.yul\":2623:2765   */\n    tag_180:\n        /* \"#utility.yul\":2673:2682   */\n      0x00\n        /* \"#utility.yul\":2706:2759   */\n      tag_231\n        /* \"#utility.yul\":2724:2758   */\n      tag_232\n        /* \"#utility.yul\":2733:2757   */\n      tag_233\n        /* \"#utility.yul\":2751:2756   */\n      dup5\n        /* \"#utility.yul\":2733:2757   */\n      tag_174\n      jump\t// in\n    tag_233:\n        /* \"#utility.yul\":2724:2758   */\n      tag_179\n      jump\t// in\n    tag_232:\n        /* \"#utility.yul\":2706:2759   */\n      tag_174\n      jump\t// in\n    tag_231:\n        /* \"#utility.yul\":2693:2759   */\n      swap1\n      pop\n        /* \"#utility.yul\":2623:2765   */\n      swap2\n      swap1\n      pop\n      jump\t// out\n        /* \"#utility.yul\":2771:2897   */\n    tag_181:\n        /* \"#utility.yul\":2821:2830   */\n      0x00\n        /* \"#utility.yul\":2854:2891   */\n      tag_235\n        /* \"#utility.yul\":2885:2890   */\n      dup3\n        /* \"#utility.yul\":2854:2891   */\n      tag_180\n      jump\t// in\n    tag_235:\n        /* \"#utility.yul\":2841:2891   */\n      swap1\n      pop\n        /* \"#utility.yul\":2771:2897   */\n      swap2\n      swap1\n      pop\n      jump\t// out\n        /* \"#utility.yul\":2903:3057   */\n    tag_182:\n        /* \"#utility.yul\":2981:2990   */\n      0x00\n        /* \"#utility.yul\":3014:3051   */\n      tag_237\n        /* \"#utility.yul\":3045:3050   */\n      dup3\n        /* \"#utility.yul\":3014:3051   */\n      tag_181\n      jump\t// in\n    tag_237:\n        /* \"#utility.yul\":3001:3051   */\n      swap1\n      pop\n        /* \"#utility.yul\":2903:3057   */\n      swap2\n      swap1\n      pop\n      jump\t// out\n        /* \"#utility.yul\":3063:3250   */\n    tag_183:\n        /* \"#utility.yul\":3178:3243   */\n      tag_239\n        /* \"#utility.yul\":3237:3242   */\n      dup2\n        /* \"#utility.yul\":3178:3243   */\n      tag_182\n      jump\t// in\n    tag_239:\n        /* \"#utility.yul\":3173:3176   */\n      dup3\n        /* \"#utility.yul\":3166:3244   */\n      mstore\n        /* \"#utility.yul\":3063:3250   */\n      pop\n      pop\n      jump\t// out\n        /* \"#utility.yul\":3256:3534   */\n    tag_51:\n        /* \"#utility.yul\":3377:3381   */\n      0x00\n        /* \"#utility.yul\":3415:3417   */\n      0x20\n        /* \"#utility.yul\":3404:3413   */\n      dup3\n        /* \"#utility.yul\":3400:3418   */\n      add\n        /* \"#utility.yul\":3392:3418   */\n      swap1\n      pop\n        /* \"#utility.yul\":3428:3527   */\n      tag_241\n        /* \"#utility.yul\":3524:3525   */\n      0x00\n        /* \"#utility.yul\":3513:3522   */\n      dup4\n        /* \"#utility.yul\":3509:3526   */\n      add\n        /* \"#utility.yul\":3500:3506   */\n      dup5\n        /* \"#utility.yul\":3428:3527   */\n      tag_183\n      jump\t// in\n    tag_241:\n        /* \"#utility.yul\":3256:3534   */\n      swap3\n      swap2\n      pop\n      pop\n      jump\t// out\n        /* \"#utility.yul\":3540:3658   */\n    tag_184:\n        /* \"#utility.yul\":3627:3651   */\n      tag_243\n        /* \"#utility.yul\":3645:3650   */\n      dup2\n        /* \"#utility.yul\":3627:3651   */\n      tag_175\n      jump\t// in\n    tag_243:\n        /* \"#utility.yul\":3622:3625   */\n      dup3\n        /* \"#utility.yul\":3615:3652   */\n      mstore\n        /* \"#utility.yul\":3540:3658   */\n      pop\n      pop\n      jump\t// out\n        /* \"#utility.yul\":3664:3886   */\n    tag_64:\n        /* \"#utility.yul\":3757:3761   */\n      0x00\n        /* \"#utility.yul\":3795:3797   */\n      0x20\n        /* \"#utility.yul\":3784:3793   */\n      dup3\n        /* \"#utility.yul\":3780:3798   */\n      add\n        /* \"#utility.yul\":3772:3798   */\n      swap1\n      pop\n        /* \"#utility.yul\":3808:3879   */\n      tag_245\n        /* \"#utility.yul\":3876:3877   */\n      0x00\n        /* \"#utility.yul\":3865:3874   */\n      dup4\n        /* \"#utility.yul\":3861:3878   */\n      add\n        /* \"#utility.yul\":3852:3858   */\n      dup5\n        /* \"#utility.yul\":3808:3879   */\n      tag_184\n      jump\t// in\n    tag_245:\n        /* \"#utility.yul\":3664:3886   */\n      swap3\n      swap2\n      pop\n      pop\n      jump\t// out\n        /* \"#utility.yul\":3892:4032   */\n    tag_185:\n        /* \"#utility.yul\":3956:3965   */\n      0x00\n        /* \"#utility.yul\":3989:4026   */\n      tag_247\n        /* \"#utility.yul\":4020:4025   */\n      dup3\n        /* \"#utility.yul\":3989:4026   */\n      tag_181\n      jump\t// in\n    tag_247:\n        /* \"#utility.yul\":3976:4026   */\n      swap1\n      pop\n        /* \"#utility.yul\":3892:4032   */\n      swap2\n      swap1\n      pop\n      jump\t// out\n        /* \"#utility.yul\":4038:4197   */\n    tag_186:\n        /* \"#utility.yul\":4139:4190   */\n      tag_249\n        /* \"#utility.yul\":4184:4189   */\n      dup2\n        /* \"#utility.yul\":4139:4190   */\n      tag_185\n      jump\t// in\n    tag_249:\n        /* \"#utility.yul\":4134:4137   */\n      dup3\n        /* \"#utility.yul\":4127:4191   */\n      mstore\n        /* \"#utility.yul\":4038:4197   */\n      pop\n      pop\n      jump\t// out\n        /* \"#utility.yul\":4203:4453   */\n    tag_85:\n        /* \"#utility.yul\":4310:4314   */\n      0x00\n        /* \"#utility.yul\":4348:4350   */\n      0x20\n        /* \"#utility.yul\":4337:4346   */\n      dup3\n        /* \"#utility.yul\":4333:4351   */\n      add\n        /* \"#utility.yul\":4325:4351   */\n      swap1\n      pop\n        /* \"#utility.yul\":4361:4446   */\n      tag_251\n        /* \"#utility.yul\":4443:4444   */\n      0x00\n        /* \"#utility.yul\":4432:4441   */\n      dup4\n        /* \"#utility.yul\":4428:4445   */\n      add\n        /* \"#utility.yul\":4419:4425   */\n      dup5\n        /* \"#utility.yul\":4361:4446   */\n      tag_186\n      jump\t// in\n    tag_251:\n        /* \"#utility.yul\":4203:4453   */\n      swap3\n      swap2\n      pop\n      pop\n      jump\t// out\n        /* \"#utility.yul\":4459:4639   */\n    tag_187:\n        /* \"#utility.yul\":4507:4584   */\n      0x4e487b7100000000000000000000000000000000000000000000000000000000\n        /* \"#utility.yul\":4504:4505   */\n      0x00\n        /* \"#utility.yul\":4497:4585   */\n      mstore\n        /* \"#utility.yul\":4604:4608   */\n      0x11\n        /* \"#utility.yul\":4601:4602   */\n      0x04\n        /* \"#utility.yul\":4594:4609   */\n      mstore\n        /* \"#utility.yul\":4628:4632   */\n      0x24\n        /* \"#utility.yul\":4625:4626   */\n      0x00\n        /* \"#utility.yul\":4618:4633   */\n      revert\n        /* \"#utility.yul\":4645:4839   */\n    tag_98:\n        /* \"#utility.yul\":4685:4689   */\n      0x00\n        /* \"#utility.yul\":4705:4725   */\n      tag_254\n        /* \"#utility.yul\":4723:4724   */\n      dup3\n        /* \"#utility.yul\":4705:4725   */\n      tag_171\n      jump\t// in\n    tag_254:\n        /* \"#utility.yul\":4700:4725   */\n      swap2\n      pop\n        /* \"#utility.yul\":4739:4759   */\n      tag_255\n        /* \"#utility.yul\":4757:4758   */\n      dup4\n        /* \"#utility.yul\":4739:4759   */\n      tag_171\n      jump\t// in\n    tag_255:\n        /* \"#utility.yul\":4734:4759   */\n      swap3\n      pop\n        /* \"#utility.yul\":4783:4784   */\n      dup3\n        /* \"#utility.yul\":4780:4781   */\n      dup3\n        /* \"#utility.yul\":4776:4785   */\n      sub\n        /* \"#utility.yul\":4768:4785   */\n      swap1\n      pop\n        /* \"#utility.yul\":4807:4808   */\n      dup2\n        /* \"#utility.yul\":4801:4805   */\n      dup2\n        /* \"#utility.yul\":4798:4809   */\n      gt\n        /* \"#utility.yul\":4795:4832   */\n      iszero\n      tag_256\n      jumpi\n        /* \"#utility.yul\":4812:4830   */\n      tag_257\n      tag_187\n      jump\t// in\n    tag_257:\n        /* \"#utility.yul\":4795:4832   */\n    tag_256:\n        /* \"#utility.yul\":4645:4839   */\n      swap3\n      swap2\n      pop\n      pop\n      jump\t// out\n        /* \"#utility.yul\":4845:5078   */\n    tag_101:\n        /* \"#utility.yul\":4884:4887   */\n      0x00\n        /* \"#utility.yul\":4907:4931   */\n      tag_259\n        /* \"#utility.yul\":4925:4930   */\n      dup3\n        /* \"#utility.yul\":4907:4931   */\n      tag_171\n      jump\t// in\n    tag_259:\n        /* \"#utility.yul\":4898:4931   */\n      swap2\n      pop\n        /* \"#utility.yul\":4953:5019   */\n      0xffffffffffffffffffffffffffffffffffffffffffffffffffffffffffffffff\n        /* \"#utility.yul\":4946:4951   */\n      dup3\n        /* \"#utility.yul\":4943:5020   */\n      sub\n        /* \"#utility.yul\":4940:5043   */\n      tag_260\n      jumpi\n        /* \"#utility.yul\":5023:5041   */\n      tag_261\n      tag_187\n      jump\t// in\n    tag_261:\n        /* \"#utility.yul\":4940:5043   */\n    tag_260:\n        /* \"#utility.yul\":5070:5071   */\n      0x01\n        /* \"#utility.yul\":5063:5068   */\n      dup3\n        /* \"#utility.yul\":5059:5072   */\n      add\n        /* \"#utility.yul\":5052:5072   */\n      swap1\n      pop\n        /* \"#utility.yul\":4845:5078   */\n      swap2\n      swap1\n      pop\n      jump\t// out\n        /* \"#utility.yul\":5084:5275   */\n    tag_109:\n        /* \"#utility.yul\":5124:5127   */\n      0x00\n        /* \"#utility.yul\":5143:5163   */\n      tag_263\n        /* \"#utility.yul\":5161:5162   */\n      dup3\n        /* \"#utility.yul\":5143:5163   */\n      tag_171\n      jump\t// in\n    tag_263:\n        /* \"#utility.yul\":5138:5163   */\n      swap2\n      pop\n        /* \"#utility.yul\":5177:5197   */\n      tag_264\n        /* \"#utility.yul\":5195:5196   */\n      dup4\n        /* \"#utility.yul\":5177:5197   */\n      tag_171\n      jump\t// in\n    tag_264:\n        /* \"#utility.yul\":5172:5197   */\n      swap3\n      pop\n        /* \"#utility.yul\":5220:5221   */\n      dup3\n        /* \"#utility.yul\":5217:5218   */\n      dup3\n        /* \"#utility.yul\":5213:5222   */\n      add\n        /* \"#utility.yul\":5206:5222   */\n      swap1\n      pop\n        /* \"#utility.yul\":5241:5244   */\n      dup1\n        /* \"#utility.yul\":5238:5239   */\n      dup3\n        /* \"#utility.yul\":5235:5245   */\n      gt\n        /* \"#utility.yul\":5232:5268   */\n      iszero\n      tag_265\n      jumpi\n        /* \"#utility.yul\":5248:5266   */\n      tag_266\n      tag_187\n      jump\t// in\n    tag_266:\n        /* \"#utility.yul\":5232:5268   */\n    tag_265:\n        /* \"#utility.yul\":5084:5275   */\n      swap3\n      swap2\n      pop\n      pop\n      jump\t// out\n        /* \"#utility.yul\":5281:5428   */\n    tag_188:\n        /* \"#utility.yul\":5382:5393   */\n      0x00\n        /* \"#utility.yul\":5419:5422   */\n      dup2\n        /* \"#utility.yul\":5404:5422   */\n      swap1\n      pop\n        /* \"#utility.yul\":5281:5428   */\n      swap3\n      swap2\n      pop\n      pop\n      jump\t// out\n        /* \"#utility.yul\":5434:5548   */\n    tag_189:\n      pop\n      jump\t// out\n        /* \"#utility.yul\":5554:5952   */\n    tag_190:\n        /* \"#utility.yul\":5713:5716   */\n      0x00\n        /* \"#utility.yul\":5734:5817   */\n      tag_270\n        /* \"#utility.yul\":5815:5816   */\n      0x00\n        /* \"#utility.yul\":5810:5813   */\n      dup4\n        /* \"#utility.yul\":5734:5817   */\n      tag_188\n      jump\t// in\n    tag_270:\n        /* \"#utility.yul\":5727:5817   */\n      swap2\n      pop\n        /* \"#utility.yul\":5826:5919   */\n      tag_271\n        /* \"#utility.yul\":5915:5918   */\n      dup3\n        /* \"#utility.yul\":5826:5919   */\n      tag_189\n      jump\t// in\n    tag_271:\n        /* \"#utility.yul\":5944:5945   */\n      0x00\n        /* \"#utility.yul\":5939:5942   */\n      dup3\n        /* \"#utility.yul\":5935:5946   */\n      add\n        /* \"#utility.yul\":5928:5946   */\n      swap1\n      pop\n        /* \"#utility.yul\":5554:5952   */\n      swap2\n      swap1\n      pop\n      jump\t// out\n        /* \"#utility.yul\":5958:6337   */\n    tag_151:\n        /* \"#utility.yul\":6142:6145   */\n      0x00\n        /* \"#utility.yul\":6164:6311   */\n      tag_273\n        /* \"#utility.yul\":6307:6310   */\n      dup3\n        /* \"#utility.yul\":6164:6311   */\n      tag_190\n      jump\t// in\n    tag_273:\n        /* \"#utility.yul\":6157:6311   */\n      swap2\n      pop\n        /* \"#utility.yul\":6328:6331   */\n      dup2\n        /* \"#utility.yul\":6321:6331   */\n      swap1\n      pop\n        /* \"#utility.yul\":5958:6337   */\n      swap2\n      swap1\n      pop\n      jump\t// out\n        /* \"#utility.yul\":6343:6441   */\n    tag_191:\n        /* \"#utility.yul\":6394:6400   */\n      0x00\n        /* \"#utility.yul\":6428:6433   */\n      dup2\n        /* \"#utility.yul\":6422:6434   */\n      mload\n        /* \"#utility.yul\":6412:6434   */\n      swap1\n      pop\n        /* \"#utility.yul\":6343:6441   */\n      swap2\n      swap1\n      pop\n      jump\t// out\n        /* \"#utility.yul\":6447:6615   */\n    tag_192:\n        /* \"#utility.yul\":6530:6541   */\n      0x00\n        /* \"#utility.yul\":6564:6570   */\n      dup3\n        /* \"#utility.yul\":6559:6562   */\n      dup3\n        /* \"#utility.yul\":6552:6571   */\n      mstore\n        /* \"#utility.yul\":6604:6608   */\n      0x20\n        /* \"#utility.yul\":6599:6602   */\n      dup3\n        /* \"#utility.yul\":6595:6609   */\n      add\n        /* \"#utility.yul\":6580:6609   */\n      swap1\n      pop\n        /* \"#utility.yul\":6447:6615   */\n      swap3\n      swap2\n      pop\n      pop\n      jump\t// out\n        /* \"#utility.yul\":6621:6760   */\n    tag_193:\n        /* \"#utility.yul\":6710:6716   */\n      dup3\n        /* \"#utility.yul\":6705:6708   */\n      dup2\n        /* \"#utility.yul\":6700:6703   */\n      dup4\n        /* \"#utility.yul\":6694:6717   */\n      mcopy\n        /* \"#utility.yul\":6751:6752   */\n      0x00\n        /* \"#utility.yul\":6742:6748   */\n      dup4\n        /* \"#utility.yul\":6737:6740   */\n      dup4\n        /* \"#utility.yul\":6733:6749   */\n      add\n        /* \"#utility.yul\":6726:6753   */\n      mstore\n        /* \"#utility.yul\":6621:6760   */\n      pop\n      pop\n      pop\n      jump\t// out\n        /* \"#utility.yul\":6766:6868   */\n    tag_194:\n        /* \"#utility.yul\":6807:6813   */\n      0x00\n        /* \"#utility.yul\":6858:6860   */\n      0x1f\n        /* \"#utility.yul\":6854:6861   */\n      not\n        /* \"#utility.yul\":6849:6851   */\n      0x1f\n        /* \"#utility.yul\":6842:6847   */\n      dup4\n        /* \"#utility.yul\":6838:6852   */\n      add\n        /* \"#utility.yul\":6834:6862   */\n      and\n        /* \"#utility.yul\":6824:6862   */\n      swap1\n      pop\n        /* \"#utility.yul\":6766:6868   */\n      swap2\n      swap1\n      pop\n      jump\t// out\n        /* \"#utility.yul\":6874:7247   */\n    tag_195:\n        /* \"#utility.yul\":6960:6963   */\n      0x00\n        /* \"#utility.yul\":6988:7026   */\n      tag_279\n        /* \"#utility.yul\":7020:7025   */\n      dup3\n        /* \"#utility.yul\":6988:7026   */\n      tag_191\n      jump\t// in\n    tag_279:\n        /* \"#utility.yul\":7042:7112   */\n      tag_280\n        /* \"#utility.yul\":7105:7111   */\n      dup2\n        /* \"#utility.yul\":7100:7103   */\n      dup6\n        /* \"#utility.yul\":7042:7112   */\n      tag_192\n      jump\t// in\n    tag_280:\n        /* \"#utility.yul\":7035:7112   */\n      swap4\n      pop\n        /* \"#utility.yul\":7121:7186   */\n      tag_281\n        /* \"#utility.yul\":7179:7185   */\n      dup2\n        /* \"#utility.yul\":7174:7177   */\n      dup6\n        /* \"#utility.yul\":7167:7171   */\n      0x20\n        /* \"#utility.yul\":7160:7165   */\n      dup7\n        /* \"#utility.yul\":7156:7172   */\n      add\n        /* \"#utility.yul\":7121:7186   */\n      tag_193\n      jump\t// in\n    tag_281:\n        /* \"#utility.yul\":7211:7240   */\n      tag_282\n        /* \"#utility.yul\":7233:7239   */\n      dup2\n        /* \"#utility.yul\":7211:7240   */\n      tag_194\n      jump\t// in\n    tag_282:\n        /* \"#utility.yul\":7206:7209   */\n      dup5\n        /* \"#utility.yul\":7202:7241   */\n      add\n        /* \"#utility.yul\":7195:7241   */\n      swap2\n      pop\n        /* \"#utility.yul\":6964:7247   */\n      pop\n        /* \"#utility.yul\":6874:7247   */\n      swap3\n      swap2\n      pop\n      pop\n      jump\t// out\n        /* \"#utility.yul\":7253:7562   */\n    tag_157:\n        /* \"#utility.yul\":7364:7368   */\n      0x00\n        /* \"#utility.yul\":7402:7404   */\n      0x20\n        /* \"#utility.yul\":7391:7400   */\n      dup3\n        /* \"#utility.yul\":7387:7405   */\n      add\n        /* \"#utility.yul\":7379:7405   */\n      swap1\n      pop\n        /* \"#utility.yul\":7451:7460   */\n      dup2\n        /* \"#utility.yul\":7445:7449   */\n      dup2\n        /* \"#utility.yul\":7441:7461   */\n      sub\n        /* \"#utility.yul\":7437:7438   */\n      0x00\n        /* \"#utility.yul\":7426:7435   */\n      dup4\n        /* \"#utility.yul\":7422:7439   */\n      add\n        /* \"#utility.yul\":7415:7462   */\n      mstore\n        /* \"#utility.yul\":7479:7555   */\n      tag_284\n        /* \"#utility.yul\":7550:7554   */\n      dup2\n        /* \"#utility.yul\":7541:7547   */\n      dup5\n        /* \"#utility.yul\":7479:7555   */\n      tag_195\n      jump\t// in\n    tag_284:\n        /* \"#utility.yul\":7471:7555   */\n      swap1\n      pop\n        /* \"#utility.yul\":7253:7562   */\n      swap3\n      swap2\n      pop\n      pop\n      jump\t// out\n\n    auxdata: 0xa2646970667358221220731dbcbbe2beb737d4bd6fa5a774cf308b2ad85d7fcdad02d6ef661285d0cdef64736f6c634300081b0033\n}\n",
				"bytecode": {
					"linkReferences": {},
					"object": "60e060405234801561000f575f5ffd5b5060405161168f38038061168f83398181016040528101906100319190610297565b335f73ffffffffffffffffffffffffffffffffffffffff168173ffffffffffffffffffffffffffffffffffffffff16036100a2575f6040517f1e4fbdf700000000000000000000000000000000000000000000000000000000815260040161009991906102f6565b60405180910390fd5b6100b18161014560201b60201c565b508260015f6101000a81548173ffffffffffffffffffffffffffffffffffffffff021916908373ffffffffffffffffffffffffffffffffffffffff1602179055508173ffffffffffffffffffffffffffffffffffffffff1660c08173ffffffffffffffffffffffffffffffffffffffff16815250506305f5e10081610136919061033c565b60a0818152505050505061037d565b5f5f5f9054906101000a900473ffffffffffffffffffffffffffffffffffffffff169050815f5f6101000a81548173ffffffffffffffffffffffffffffffffffffffff021916908373ffffffffffffffffffffffffffffffffffffffff1602179055508173ffffffffffffffffffffffffffffffffffffffff168173ffffffffffffffffffffffffffffffffffffffff167f8be0079c531659141344cd1fd0a4f28419497f9722a3daafe3b4186f6b6457e060405160405180910390a35050565b5f5ffd5b5f73ffffffffffffffffffffffffffffffffffffffff82169050919050565b5f6102338261020a565b9050919050565b61024381610229565b811461024d575f5ffd5b50565b5f8151905061025e8161023a565b92915050565b5f819050919050565b61027681610264565b8114610280575f5ffd5b50565b5f815190506102918161026d565b92915050565b5f5f5f606084860312156102ae576102ad610206565b5b5f6102bb86828701610250565b93505060206102cc86828701610250565b92505060406102dd86828701610283565b9150509250925092565b6102f081610229565b82525050565b5f6020820190506103095f8301846102e7565b92915050565b7f4e487b71000000000000000000000000000000000000000000000000000000005f52601160045260245ffd5b5f61034682610264565b915061035183610264565b925082820261035f81610264565b915082820484148315176103765761037561030f565b5b5092915050565b60805160a05160c0516112cc6103c35f395f610cb301525f8181610634015281816107c90152610b7e01525f818161044c015281816107a501526108f101526112cc5ff3fe6080604052600436106100f2575f3560e01c8063893b7e9511610089578063f2fde38b11610058578063f2fde38b146102c9578063f688bcfb146102f1578063fa56927414610319578063ff50abdc14610343576100f2565b8063893b7e95146102235780638da5cb5b1461024d5780639b900405146102775780639caf34c41461029f576100f2565b8063715018a6116100c5578063715018a61461018f57806371706cbe146101a5578063741bef1a146101cf57806382ee0d1d146101f9576100f2565b80631edc8f03146100f657806327e235e31461011e5780632dfdf0b51461015b578063439370b114610185575b5f5ffd5b348015610101575f5ffd5b5061011c60048036038101906101179190610f17565b61036d565b005b348015610129575f5ffd5b50610144600480360381019061013f9190610f9c565b6105d2565b604051610152929190610fd6565b60405180910390f35b348015610166575f5ffd5b5061016f6105f2565b60405161017c9190610ffd565b60405180910390f35b61018d6105f8565b005b34801561019a575f5ffd5b506101a3610765565b005b3480156101b0575f5ffd5b506101b9610778565b6040516101c69190610ffd565b60405180910390f35b3480156101da575f5ffd5b506101e361077e565b6040516101f09190611071565b60405180910390f35b348015610204575f5ffd5b5061020d6107a3565b60405161021a9190610ffd565b60405180910390f35b34801561022e575f5ffd5b506102376107c7565b6040516102449190610ffd565b60405180910390f35b348015610258575f5ffd5b506102616107eb565b60405161026e9190611099565b60405180910390f35b348015610282575f5ffd5b5061029d60048036038101906102989190610f17565b610812565b005b3480156102aa575f5ffd5b506102b3610a78565b6040516102c09190610ffd565b60405180910390f35b3480156102d4575f5ffd5b506102ef60048036038101906102ea9190610f9c565b610abe565b005b3480156102fc575f5ffd5b5061031760048036038101906103129190610f17565b610b42565b005b348015610324575f5ffd5b5061032d610cb1565b60405161033a91906110d2565b60405180910390f35b34801561034e575f5ffd5b50610357610cd5565b6040516103649190610ffd565b60405180910390f35b60055f9054906101000a900460ff16156103b3576040517f37ed32e800000000000000000000000000000000000000000000000000000000815260040160405180910390fd5b600160055f6101000a81548160ff021916908315150217905550805f8103610407576040517f2c5211c600000000000000000000000000000000000000000000000000000000815260040160405180910390fd5b5f60065f3373ffffffffffffffffffffffffffffffffffffffff1673ffffffffffffffffffffffffffffffffffffffff1681526020019081526020015f205f015490507f00000000000000000000000000000000000000000000000000000000000000008311156104a4576040517f4e6a369600000000000000000000000000000000000000000000000000000000815260040160405180910390fd5b808311156104de576040517ff4d678b800000000000000000000000000000000000000000000000000000000815260040160405180910390fd5b82816104ea9190611118565b60065f3373ffffffffffffffffffffffffffffffffffffffff1673ffffffffffffffffffffffffffffffffffffffff1681526020019081526020015f205f01819055508260025f82825461053e9190611118565b9250508190555060045f8154809291906105579061114b565b91905055506105663384610cdb565b3373ffffffffffffffffffffffffffffffffffffffff167f40953fd5db732b94d86820ccd999bd4ab6da08154a115387891e8957e585fa1d846040516105ac9190610ffd565b60405180910390a250505f60055f6101000a81548160ff02191690831515021790555050565b6006602052805f5260405f205f91509050805f0154908060010154905082565b60035481565b345f8103610632576040517f2c5211c600000000000000000000000000000000000000000000000000000000815260040160405180910390fd5b7f0000000000000000000000000000000000000000000000000000000000000000346002546106619190611192565b1115610699576040517f448f3ca800000000000000000000000000000000000000000000000000000000815260040160405180910390fd5b3460025f82825401925050819055503460065f3373ffffffffffffffffffffffffffffffffffffffff1673ffffffffffffffffffffffffffffffffffffffff1681526020019081526020015f205f015f8282546106f69190611192565b9250508190555060035f81548092919061070f9061114b565b91905055503373ffffffffffffffffffffffffffffffffffffffff167f7034bb05cfe54b0d147fc0574ed166101e7f0313eb404e113974fbe2a998ca833460405161075a9190610ffd565b60405180910390a250565b61076d610d8d565b6107765f610e14565b565b60045481565b60015f9054906101000a900473ffffffffffffffffffffffffffffffffffffffff1681565b7f000000000000000000000000000000000000000000000000000000000000000081565b7f000000000000000000000000000000000000000000000000000000000000000081565b5f5f5f9054906101000a900473ffffffffffffffffffffffffffffffffffffffff16905090565b60055f9054906101000a900460ff1615610858576040517f37ed32e800000000000000000000000000000000000000000000000000000000815260040160405180910390fd5b600160055f6101000a81548160ff021916908315150217905550805f81036108ac576040517f2c5211c600000000000000000000000000000000000000000000000000000000815260040160405180910390fd5b5f60065f3373ffffffffffffffffffffffffffffffffffffffff1673ffffffffffffffffffffffffffffffffffffffff1681526020019081526020015f205f015490507f0000000000000000000000000000000000000000000000000000000000000000831115610949576040517f4e6a369600000000000000000000000000000000000000000000000000000000815260040160405180910390fd5b80831115610983576040517ff4d678b800000000000000000000000000000000000000000000000000000000815260040160405180910390fd5b828161098f9190611118565b60065f3373ffffffffffffffffffffffffffffffffffffffff1673ffffffffffffffffffffffffffffffffffffffff1681526020019081526020015f20600101819055508260025f8282546109e49190611118565b9250508190555060045f8154809291906109fd9061114b565b9190505550610a0c3384610ed5565b3373ffffffffffffffffffffffffffffffffffffffff167f736dfcc39d27adad7de37e9a6f1e8252e0953ebf8f582d535672d33f8986738b84604051610a529190610ffd565b60405180910390a250505f60055f6101000a81548160ff02191690831515021790555050565b5f60065f3373ffffffffffffffffffffffffffffffffffffffff1673ffffffffffffffffffffffffffffffffffffffff1681526020019081526020015f205f0154905090565b610ac6610d8d565b5f73ffffffffffffffffffffffffffffffffffffffff168173ffffffffffffffffffffffffffffffffffffffff1603610b36575f6040517f1e4fbdf7000000000000000000000000000000000000000000000000000000008152600401610b2d9190611099565b60405180910390fd5b610b3f81610e14565b50565b805f8103610b7c576040517f2c5211c600000000000000000000000000000000000000000000000000000000815260040160405180910390fd5b7f000000000000000000000000000000000000000000000000000000000000000082600254610bab9190611192565b1115610be3576040517f448f3ca800000000000000000000000000000000000000000000000000000000815260040160405180910390fd5b8160025f82825401925050819055508160065f3373ffffffffffffffffffffffffffffffffffffffff1673ffffffffffffffffffffffffffffffffffffffff1681526020019081526020015f206001015f828254610c419190611192565b9250508190555060035f815480929190610c5a9061114b565b91905055503373ffffffffffffffffffffffffffffffffffffffff167fe7440f6772025dec9be06ba934e6ee5289b73533ee2136ba668f6cb6ea3f56a883604051610ca59190610ffd565b60405180910390a25050565b7f000000000000000000000000000000000000000000000000000000000000000081565b60025481565b5f5f8373ffffffffffffffffffffffffffffffffffffffff1683604051610d01906111f2565b5f6040518083038185875af1925050503d805f8114610d3b576040519150601f19603f3d011682016040523d82523d5f602084013e610d40565b606091505b509150915081610d8757806040517f49ba945b000000000000000000000000000000000000000000000000000000008152600401610d7e9190611276565b60405180910390fd5b50505050565b610d95610ed9565b73ffffffffffffffffffffffffffffffffffffffff16610db36107eb565b73ffffffffffffffffffffffffffffffffffffffff1614610e1257610dd6610ed9565b6040517f118cdaa7000000000000000000000000000000000000000000000000000000008152600401610e099190611099565b60405180910390fd5b565b5f5f5f9054906101000a900473ffffffffffffffffffffffffffffffffffffffff169050815f5f6101000a81548173ffffffffffffffffffffffffffffffffffffffff021916908373ffffffffffffffffffffffffffffffffffffffff1602179055508173ffffffffffffffffffffffffffffffffffffffff168173ffffffffffffffffffffffffffffffffffffffff167f8be0079c531659141344cd1fd0a4f28419497f9722a3daafe3b4186f6b6457e060405160405180910390a35050565b5050565b5f33905090565b5f5ffd5b5f819050919050565b610ef681610ee4565b8114610f00575f5ffd5b50565b5f81359050610f1181610eed565b92915050565b5f60208284031215610f2c57610f2b610ee0565b5b5f610f3984828501610f03565b91505092915050565b5f73ffffffffffffffffffffffffffffffffffffffff82169050919050565b5f610f6b82610f42565b9050919050565b610f7b81610f61565b8114610f85575f5ffd5b50565b5f81359050610f9681610f72565b92915050565b5f60208284031215610fb157610fb0610ee0565b5b5f610fbe84828501610f88565b91505092915050565b610fd081610ee4565b82525050565b5f604082019050610fe95f830185610fc7565b610ff66020830184610fc7565b9392505050565b5f6020820190506110105f830184610fc7565b92915050565b5f819050919050565b5f61103961103461102f84610f42565b611016565b610f42565b9050919050565b5f61104a8261101f565b9050919050565b5f61105b82611040565b9050919050565b61106b81611051565b82525050565b5f6020820190506110845f830184611062565b92915050565b61109381610f61565b82525050565b5f6020820190506110ac5f83018461108a565b92915050565b5f6110bc82611040565b9050919050565b6110cc816110b2565b82525050565b5f6020820190506110e55f8301846110c3565b92915050565b7f4e487b71000000000000000000000000000000000000000000000000000000005f52601160045260245ffd5b5f61112282610ee4565b915061112d83610ee4565b9250828203905081811115611145576111446110eb565b5b92915050565b5f61115582610ee4565b91507fffffffffffffffffffffffffffffffffffffffffffffffffffffffffffffffff8203611187576111866110eb565b5b600182019050919050565b5f61119c82610ee4565b91506111a783610ee4565b92508282019050808211156111bf576111be6110eb565b5b92915050565b5f81905092915050565b50565b5f6111dd5f836111c5565b91506111e8826111cf565b5f82019050919050565b5f6111fc826111d2565b9150819050919050565b5f81519050919050565b5f82825260208201905092915050565b8281835e5f83830152505050565b5f601f19601f8301169050919050565b5f61124882611206565b6112528185611210565b9350611262818560208601611220565b61126b8161122e565b840191505092915050565b5f6020820190508181035f83015261128e818461123e565b90509291505056fea2646970667358221220731dbcbbe2beb737d4bd6fa5a774cf308b2ad85d7fcdad02d6ef661285d0cdef64736f6c634300081b0033",
					"opcodes": "PUSH1 0xE0 PUSH1 0x40 MSTORE CALLVALUE DUP1 ISZERO PUSH2 0xF JUMPI PUSH0 PUSH0 REVERT JUMPDEST POP PUSH1 0x40 MLOAD PUSH2 0x168F CODESIZE SUB DUP1 PUSH2 0x168F DUP4 CODECOPY DUP2 DUP2 ADD PUSH1 0x40 MSTORE DUP2 ADD SWAP1 PUSH2 0x31 SWAP2 SWAP1 PUSH2 0x297 JUMP JUMPDEST CALLER PUSH0 PUSH20 0xFFFFFFFFFFFFFFFFFFFFFFFFFFFFFFFFFFFFFFFF AND DUP2 PUSH20 0xFFFFFFFFFFFFFFFFFFFFFFFFFFFFFFFFFFFFFFFF AND SUB PUSH2 0xA2 JUMPI PUSH0 PUSH1 0x40 MLOAD PUSH32 0x1E4FBDF700000000000000000000000000000000000000000000000000000000 DUP2 MSTORE PUSH1 0x4 ADD PUSH2 0x99 SWAP2 SWAP1 PUSH2 0x2F6 JUMP JUMPDEST PUSH1 0x40 MLOAD DUP1 SWAP2 SUB SWAP1 REVERT JUMPDEST PUSH2 0xB1 DUP2 PUSH2 0x145 PUSH1 0x20 SHL PUSH1 0x20 SHR JUMP JUMPDEST POP DUP3 PUSH1 0x1 PUSH0 PUSH2 0x100 EXP DUP2 SLOAD DUP2 PUSH20 0xFFFFFFFFFFFFFFFFFFFFFFFFFFFFFFFFFFFFFFFF MUL NOT AND SWAP1 DUP4 PUSH20 0xFFFFFFFFFFFFFFFFFFFFFFFFFFFFFFFFFFFFFFFF AND MUL OR SWAP1 SSTORE POP DUP2 PUSH20 0xFFFFFFFFFFFFFFFFFFFFFFFFFFFFFFFFFFFFFFFF AND PUSH1 0xC0 DUP2 PUSH20 0xFFFFFFFFFFFFFFFFFFFFFFFFFFFFFFFFFFFFFFFF AND DUP2 MSTORE POP POP PUSH4 0x5F5E100 DUP2 PUSH2 0x136 SWAP2 SWAP1 PUSH2 0x33C JUMP JUMPDEST PUSH1 0xA0 DUP2 DUP2 MSTORE POP POP POP POP POP PUSH2 0x37D JUMP JUMPDEST PUSH0 PUSH0 PUSH0 SWAP1 SLOAD SWAP1 PUSH2 0x100 EXP SWAP1 DIV PUSH20 0xFFFFFFFFFFFFFFFFFFFFFFFFFFFFFFFFFFFFFFFF AND SWAP1 POP DUP2 PUSH0 PUSH0 PUSH2 0x100 EXP DUP2 SLOAD DUP2 PUSH20 0xFFFFFFFFFFFFFFFFFFFFFFFFFFFFFFFFFFFFFFFF MUL NOT AND SWAP1 DUP4 PUSH20 0xFFFFFFFFFFFFFFFFFFFFFFFFFFFFFFFFFFFFFFFF AND MUL OR SWAP1 SSTORE POP DUP2 PUSH20 0xFFFFFFFFFFFFFFFFFFFFFFFFFFFFFFFFFFFFFFFF AND DUP2 PUSH20 0xFFFFFFFFFFFFFFFFFFFFFFFFFFFFFFFFFFFFFFFF AND PUSH32 0x8BE0079C531659141344CD1FD0A4F28419497F9722A3DAAFE3B4186F6B6457E0 PUSH1 0x40 MLOAD PUSH1 0x40 MLOAD DUP1 SWAP2 SUB SWAP1 LOG3 POP POP JUMP JUMPDEST PUSH0 PUSH0 REVERT JUMPDEST PUSH0 PUSH20 0xFFFFFFFFFFFFFFFFFFFFFFFFFFFFFFFFFFFFFFFF DUP3 AND SWAP1 POP SWAP2 SWAP1 POP JUMP JUMPDEST PUSH0 PUSH2 0x233 DUP3 PUSH2 0x20A JUMP JUMPDEST SWAP1 POP SWAP2 SWAP1 POP JUMP JUMPDEST PUSH2 0x243 DUP2 PUSH2 0x229 JUMP JUMPDEST DUP2 EQ PUSH2 0x24D JUMPI PUSH0 PUSH0 REVERT JUMPDEST POP JUMP JUMPDEST PUSH0 DUP2 MLOAD SWAP1 POP PUSH2 0x25E DUP2 PUSH2 0x23A JUMP JUMPDEST SWAP3 SWAP2 POP POP JUMP JUMPDEST PUSH0 DUP2 SWAP1 POP SWAP2 SWAP1 POP JUMP JUMPDEST PUSH2 0x276 DUP2 PUSH2 0x264 JUMP JUMPDEST DUP2 EQ PUSH2 0x280 JUMPI PUSH0 PUSH0 REVERT JUMPDEST POP JUMP JUMPDEST PUSH0 DUP2 MLOAD SWAP1 POP PUSH2 0x291 DUP2 PUSH2 0x26D JUMP JUMPDEST SWAP3 SWAP2 POP POP JUMP JUMPDEST PUSH0 PUSH0 PUSH0 PUSH1 0x60 DUP5 DUP7 SUB SLT ISZERO PUSH2 0x2AE JUMPI PUSH2 0x2AD PUSH2 0x206 JUMP JUMPDEST JUMPDEST PUSH0 PUSH2 0x2BB DUP7 DUP3 DUP8 ADD PUSH2 0x250 JUMP JUMPDEST SWAP4 POP POP PUSH1 0x20 PUSH2 0x2CC DUP7 DUP3 DUP8 ADD PUSH2 0x250 JUMP JUMPDEST SWAP3 POP POP PUSH1 0x40 PUSH2 0x2DD DUP7 DUP3 DUP8 ADD PUSH2 0x283 JUMP JUMPDEST SWAP2 POP POP SWAP3 POP SWAP3 POP SWAP3 JUMP JUMPDEST PUSH2 0x2F0 DUP2 PUSH2 0x229 JUMP JUMPDEST DUP3 MSTORE POP POP JUMP JUMPDEST PUSH0 PUSH1 0x20 DUP3 ADD SWAP1 POP PUSH2 0x309 PUSH0 DUP4 ADD DUP5 PUSH2 0x2E7 JUMP JUMPDEST SWAP3 SWAP2 POP POP JUMP JUMPDEST PUSH32 0x4E487B7100000000000000000000000000000000000000000000000000000000 PUSH0 MSTORE PUSH1 0x11 PUSH1 0x4 MSTORE PUSH1 0x24 PUSH0 REVERT JUMPDEST PUSH0 PUSH2 0x346 DUP3 PUSH2 0x264 JUMP JUMPDEST SWAP2 POP PUSH2 0x351 DUP4 PUSH2 0x264 JUMP JUMPDEST SWAP3 POP DUP3 DUP3 MUL PUSH2 0x35F DUP2 PUSH2 0x264 JUMP JUMPDEST SWAP2 POP DUP3 DUP3 DIV DUP5 EQ DUP4 ISZERO OR PUSH2 0x376 JUMPI PUSH2 0x375 PUSH2 0x30F JUMP JUMPDEST JUMPDEST POP SWAP3 SWAP2 POP POP JUMP JUMPDEST PUSH1 0x80 MLOAD PUSH1 0xA0 MLOAD PUSH1 0xC0 MLOAD PUSH2 0x12CC PUSH2 0x3C3 PUSH0 CODECOPY PUSH0 PUSH2 0xCB3 ADD MSTORE PUSH0 DUP2 DUP2 PUSH2 0x634 ADD MSTORE DUP2 DUP2 PUSH2 0x7C9 ADD MSTORE PUSH2 0xB7E ADD MSTORE PUSH0 DUP2 DUP2 PUSH2 0x44C ADD MSTORE DUP2 DUP2 PUSH2 0x7A5 ADD MSTORE PUSH2 0x8F1 ADD MSTORE PUSH2 0x12CC PUSH0 RETURN INVALID PUSH1 0x80 PUSH1 0x40 MSTORE PUSH1 0x4 CALLDATASIZE LT PUSH2 0xF2 JUMPI PUSH0 CALLDATALOAD PUSH1 0xE0 SHR DUP1 PUSH4 0x893B7E95 GT PUSH2 0x89 JUMPI DUP1 PUSH4 0xF2FDE38B GT PUSH2 0x58 JUMPI DUP1 PUSH4 0xF2FDE38B EQ PUSH2 0x2C9 JUMPI DUP1 PUSH4 0xF688BCFB EQ PUSH2 0x2F1 JUMPI DUP1 PUSH4 0xFA569274 EQ PUSH2 0x319 JUMPI DUP1 PUSH4 0xFF50ABDC EQ PUSH2 0x343 JUMPI PUSH2 0xF2 JUMP JUMPDEST DUP1 PUSH4 0x893B7E95 EQ PUSH2 0x223 JUMPI DUP1 PUSH4 0x8DA5CB5B EQ PUSH2 0x24D JUMPI DUP1 PUSH4 0x9B900405 EQ PUSH2 0x277 JUMPI DUP1 PUSH4 0x9CAF34C4 EQ PUSH2 0x29F JUMPI PUSH2 0xF2 JUMP JUMPDEST DUP1 PUSH4 0x715018A6 GT PUSH2 0xC5 JUMPI DUP1 PUSH4 0x715018A6 EQ PUSH2 0x18F JUMPI DUP1 PUSH4 0x71706CBE EQ PUSH2 0x1A5 JUMPI DUP1 PUSH4 0x741BEF1A EQ PUSH2 0x1CF JUMPI DUP1 PUSH4 0x82EE0D1D EQ PUSH2 0x1F9 JUMPI PUSH2 0xF2 JUMP JUMPDEST DUP1 PUSH4 0x1EDC8F03 EQ PUSH2 0xF6 JUMPI DUP1 PUSH4 0x27E235E3 EQ PUSH2 0x11E JUMPI DUP1 PUSH4 0x2DFDF0B5 EQ PUSH2 0x15B JUMPI DUP1 PUSH4 0x439370B1 EQ PUSH2 0x185 JUMPI JUMPDEST PUSH0 PUSH0 REVERT JUMPDEST CALLVALUE DUP1 ISZERO PUSH2 0x101 JUMPI PUSH0 PUSH0 REVERT JUMPDEST POP PUSH2 0x11C PUSH1 0x4 DUP1 CALLDATASIZE SUB DUP2 ADD SWAP1 PUSH2 0x117 SWAP2 SWAP1 PUSH2 0xF17 JUMP JUMPDEST PUSH2 0x36D JUMP JUMPDEST STOP JUMPDEST CALLVALUE DUP1 ISZERO PUSH2 0x129 JUMPI PUSH0 PUSH0 REVERT JUMPDEST POP PUSH2 0x144 PUSH1 0x4 DUP1 CALLDATASIZE SUB DUP2 ADD SWAP1 PUSH2 0x13F SWAP2 SWAP1 PUSH2 0xF9C JUMP JUMPDEST PUSH2 0x5D2 JUMP JUMPDEST PUSH1 0x40 MLOAD PUSH2 0x152 SWAP3 SWAP2 SWAP1 PUSH2 0xFD6 JUMP JUMPDEST PUSH1 0x40 MLOAD DUP1 SWAP2 SUB SWAP1 RETURN JUMPDEST CALLVALUE DUP1 ISZERO PUSH2 0x166 JUMPI PUSH0 PUSH0 REVERT JUMPDEST POP PUSH2 0x16F PUSH2 0x5F2 JUMP JUMPDEST PUSH1 0x40 MLOAD PUSH2 0x17C SWAP2 SWAP1 PUSH2 0xFFD JUMP JUMPDEST PUSH1 0x40 MLOAD DUP1 SWAP2 SUB SWAP1 RETURN JUMPDEST PUSH2 0x18D PUSH2 0x5F8 JUMP JUMPDEST STOP JUMPDEST CALLVALUE DUP1 ISZERO PUSH2 0x19A JUMPI PUSH0 PUSH0 REVERT JUMPDEST POP PUSH2 0x1A3 PUSH2 0x765 JUMP JUMPDEST STOP JUMPDEST CALLVALUE DUP1 ISZERO PUSH2 0x1B0 JUMPI PUSH0 PUSH0 REVERT JUMPDEST POP PUSH2 0x1B9 PUSH2 0x778 JUMP JUMPDEST PUSH1 0x40 MLOAD PUSH2 0x1C6 SWAP2 SWAP1 PUSH2 0xFFD JUMP JUMPDEST PUSH1 0x40 MLOAD DUP1 SWAP2 SUB SWAP1 RETURN JUMPDEST CALLVALUE DUP1 ISZERO PUSH2 0x1DA JUMPI PUSH0 PUSH0 REVERT JUMPDEST POP PUSH2 0x1E3 PUSH2 0x77E JUMP JUMPDEST PUSH1 0x40 MLOAD PUSH2 0x1F0 SWAP2 SWAP1 PUSH2 0x1071 JUMP JUMPDEST PUSH1 0x40 MLOAD DUP1 SWAP2 SUB SWAP1 RETURN JUMPDEST CALLVALUE DUP1 ISZERO PUSH2 0x204 JUMPI PUSH0 PUSH0 REVERT JUMPDEST POP PUSH2 0x20D PUSH2 0x7A3 JUMP JUMPDEST PUSH1 0x40 MLOAD PUSH2 0x21A SWAP2 SWAP1 PUSH2 0xFFD JUMP JUMPDEST PUSH1 0x40 MLOAD DUP1 SWAP2 SUB SWAP1 RETURN JUMPDEST CALLVALUE DUP1 ISZERO PUSH2 0x22E JUMPI PUSH0 PUSH0 REVERT JUMPDEST POP PUSH2 0x237 PUSH2 0x7C7 JUMP JUMPDEST PUSH1 0x40 MLOAD PUSH2 0x244 SWAP2 SWAP1 PUSH2 0xFFD JUMP JUMPDEST PUSH1 0x40 MLOAD DUP1 SWAP2 SUB SWAP1 RETURN JUMPDEST CALLVALUE DUP1 ISZERO PUSH2 0x258 JUMPI PUSH0 PUSH0 REVERT JUMPDEST POP PUSH2 0x261 PUSH2 0x7EB JUMP JUMPDEST PUSH1 0x40 MLOAD PUSH2 0x26E SWAP2 SWAP1 PUSH2 0x1099 JUMP JUMPDEST PUSH1 0x40 MLOAD DUP1 SWAP2 SUB SWAP1 RETURN JUMPDEST CALLVALUE DUP1 ISZERO PUSH2 0x282 JUMPI PUSH0 PUSH0 REVERT JUMPDEST POP PUSH2 0x29D PUSH1 0x4 DUP1 CALLDATASIZE SUB DUP2 ADD SWAP1 PUSH2 0x298 SWAP2 SWAP1 PUSH2 0xF17 JUMP JUMPDEST PUSH2 0x812 JUMP JUMPDEST STOP JUMPDEST CALLVALUE DUP1 ISZERO PUSH2 0x2AA JUMPI PUSH0 PUSH0 REVERT JUMPDEST POP PUSH2 0x2B3 PUSH2 0xA78 JUMP JUMPDEST PUSH1 0x40 MLOAD PUSH2 0x2C0 SWAP2 SWAP1 PUSH2 0xFFD JUMP JUMPDEST PUSH1 0x40 MLOAD DUP1 SWAP2 SUB SWAP1 RETURN JUMPDEST CALLVALUE DUP1 ISZERO PUSH2 0x2D4 JUMPI PUSH0 PUSH0 REVERT JUMPDEST POP PUSH2 0x2EF PUSH1 0x4 DUP1 CALLDATASIZE SUB DUP2 ADD SWAP1 PUSH2 0x2EA SWAP2 SWAP1 PUSH2 0xF9C JUMP JUMPDEST PUSH2 0xABE JUMP JUMPDEST STOP JUMPDEST CALLVALUE DUP1 ISZERO PUSH2 0x2FC JUMPI PUSH0 PUSH0 REVERT JUMPDEST POP PUSH2 0x317 PUSH1 0x4 DUP1 CALLDATASIZE SUB DUP2 ADD SWAP1 PUSH2 0x312 SWAP2 SWAP1 PUSH2 0xF17 JUMP JUMPDEST PUSH2 0xB42 JUMP JUMPDEST STOP JUMPDEST CALLVALUE DUP1 ISZERO PUSH2 0x324 JUMPI PUSH0 PUSH0 REVERT JUMPDEST POP PUSH2 0x32D PUSH2 0xCB1 JUMP JUMPDEST PUSH1 0x40 MLOAD PUSH2 0x33A SWAP2 SWAP1 PUSH2 0x10D2 JUMP JUMPDEST PUSH1 0x40 MLOAD DUP1 SWAP2 SUB SWAP1 RETURN JUMPDEST CALLVALUE DUP1 ISZERO PUSH2 0x34E JUMPI PUSH0 PUSH0 REVERT JUMPDEST POP PUSH2 0x357 PUSH2 0xCD5 JUMP JUMPDEST PUSH1 0x40 MLOAD PUSH2 0x364 SWAP2 SWAP1 PUSH2 0xFFD JUMP JUMPDEST PUSH1 0x40 MLOAD DUP1 SWAP2 SUB SWAP1 RETURN JUMPDEST PUSH1 0x5 PUSH0 SWAP1 SLOAD SWAP1 PUSH2 0x100 EXP SWAP1 DIV PUSH1 0xFF AND ISZERO PUSH2 0x3B3 JUMPI PUSH1 0x40 MLOAD PUSH32 0x37ED32E800000000000000000000000000000000000000000000000000000000 DUP2 MSTORE PUSH1 0x4 ADD PUSH1 0x40 MLOAD DUP1 SWAP2 SUB SWAP1 REVERT JUMPDEST PUSH1 0x1 PUSH1 0x5 PUSH0 PUSH2 0x100 EXP DUP2 SLOAD DUP2 PUSH1 0xFF MUL NOT AND SWAP1 DUP4 ISZERO ISZERO MUL OR SWAP1 SSTORE POP DUP1 PUSH0 DUP2 SUB PUSH2 0x407 JUMPI PUSH1 0x40 MLOAD PUSH32 0x2C5211C600000000000000000000000000000000000000000000000000000000 DUP2 MSTORE PUSH1 0x4 ADD PUSH1 0x40 MLOAD DUP1 SWAP2 SUB SWAP1 REVERT JUMPDEST PUSH0 PUSH1 0x6 PUSH0 CALLER PUSH20 0xFFFFFFFFFFFFFFFFFFFFFFFFFFFFFFFFFFFFFFFF AND PUSH20 0xFFFFFFFFFFFFFFFFFFFFFFFFFFFFFFFFFFFFFFFF AND DUP2 MSTORE PUSH1 0x20 ADD SWAP1 DUP2 MSTORE PUSH1 0x20 ADD PUSH0 KECCAK256 PUSH0 ADD SLOAD SWAP1 POP PUSH32 0x0 DUP4 GT ISZERO PUSH2 0x4A4 JUMPI PUSH1 0x40 MLOAD PUSH32 0x4E6A369600000000000000000000000000000000000000000000000000000000 DUP2 MSTORE PUSH1 0x4 ADD PUSH1 0x40 MLOAD DUP1 SWAP2 SUB SWAP1 REVERT JUMPDEST DUP1 DUP4 GT ISZERO PUSH2 0x4DE JUMPI PUSH1 0x40 MLOAD PUSH32 0xF4D678B800000000000000000000000000000000000000000000000000000000 DUP2 MSTORE PUSH1 0x4 ADD PUSH1 0x40 MLOAD DUP1 SWAP2 SUB SWAP1 REVERT JUMPDEST DUP3 DUP2 PUSH2 0x4EA SWAP2 SWAP1 PUSH2 0x1118 JUMP JUMPDEST PUSH1 0x6 PUSH0 CALLER PUSH20 0xFFFFFFFFFFFFFFFFFFFFFFFFFFFFFFFFFFFFFFFF AND PUSH20 0xFFFFFFFFFFFFFFFFFFFFFFFFFFFFFFFFFFFFFFFF AND DUP2 MSTORE PUSH1 0x20 ADD SWAP1 DUP2 MSTORE PUSH1 0x20 ADD PUSH0 KECCAK256 PUSH0 ADD DUP2 SWAP1 SSTORE POP DUP3 PUSH1 0x2 PUSH0 DUP3 DUP3 SLOAD PUSH2 0x53E SWAP2 SWAP1 PUSH2 0x1118 JUMP JUMPDEST SWAP3 POP POP DUP2 SWAP1 SSTORE POP PUSH1 0x4 PUSH0 DUP2 SLOAD DUP1 SWAP3 SWAP2 SWAP1 PUSH2 0x557 SWAP1 PUSH2 0x114B JUMP JUMPDEST SWAP2 SWAP1 POP SSTORE POP PUSH2 0x566 CALLER DUP5 PUSH2 0xCDB JUMP JUMPDEST CALLER PUSH20 0xFFFFFFFFFFFFFFFFFFFFFFFFFFFFFFFFFFFFFFFF AND PUSH32 0x40953FD5DB732B94D86820CCD999BD4AB6DA08154A115387891E8957E585FA1D DUP5 PUSH1 0x40 MLOAD PUSH2 0x5AC SWAP2 SWAP1 PUSH2 0xFFD JUMP JUMPDEST PUSH1 0x40 MLOAD DUP1 SWAP2 SUB SWAP1 LOG2 POP POP PUSH0 PUSH1 0x5 PUSH0 PUSH2 0x100 EXP DUP2 SLOAD DUP2 PUSH1 0xFF MUL NOT AND SWAP1 DUP4 ISZERO ISZERO MUL OR SWAP1 SSTORE POP POP JUMP JUMPDEST PUSH1 0x6 PUSH1 0x20 MSTORE DUP1 PUSH0 MSTORE PUSH1 0x40 PUSH0 KECCAK256 PUSH0 SWAP2 POP SWAP1 POP DUP1 PUSH0 ADD SLOAD SWAP1 DUP1 PUSH1 0x1 ADD SLOAD SWAP1 POP DUP3 JUMP JUMPDEST PUSH1 0x3 SLOAD DUP2 JUMP JUMPDEST CALLVALUE PUSH0 DUP2 SUB PUSH2 0x632 JUMPI PUSH1 0x40 MLOAD PUSH32 0x2C5211C600000000000000000000000000000000000000000000000000000000 DUP2 MSTORE PUSH1 0x4 ADD PUSH1 0x40 MLOAD DUP1 SWAP2 SUB SWAP1 REVERT JUMPDEST PUSH32 0x0 CALLVALUE PUSH1 0x2 SLOAD PUSH2 0x661 SWAP2 SWAP1 PUSH2 0x1192 JUMP JUMPDEST GT ISZERO PUSH2 0x699 JUMPI PUSH1 0x40 MLOAD PUSH32 0x448F3CA800000000000000000000000000000000000000000000000000000000 DUP2 MSTORE PUSH1 0x4 ADD PUSH1 0x40 MLOAD DUP1 SWAP2 SUB SWAP1 REVERT JUMPDEST CALLVALUE PUSH1 0x2 PUSH0 DUP3 DUP3 SLOAD ADD SWAP3 POP POP DUP2 SWAP1 SSTORE POP CALLVALUE PUSH1 0x6 PUSH0 CALLER PUSH20 0xFFFFFFFFFFFFFFFFFFFFFFFFFFFFFFFFFFFFFFFF AND PUSH20 0xFFFFFFFFFFFFFFFFFFFFFFFFFFFFFFFFFFFFFFFF AND DUP2 MSTORE PUSH1 0x20 ADD SWAP1 DUP2 MSTORE PUSH1 0x20 ADD PUSH0 KECCAK256 PUSH0 ADD PUSH0 DUP3 DUP3 SLOAD PUSH2 0x6F6 SWAP2 SWAP1 PUSH2 0x1192 JUMP JUMPDEST SWAP3 POP POP DUP2 SWAP1 SSTORE POP PUSH1 0x3 PUSH0 DUP2 SLOAD DUP1 SWAP3 SWAP2 SWAP1 PUSH2 0x70F SWAP1 PUSH2 0x114B JUMP JUMPDEST SWAP2 SWAP1 POP SSTORE POP CALLER PUSH20 0xFFFFFFFFFFFFFFFFFFFFFFFFFFFFFFFFFFFFFFFF AND PUSH32 0x7034BB05CFE54B0D147FC0574ED166101E7F0313EB404E113974FBE2A998CA83 CALLVALUE PUSH1 0x40 MLOAD PUSH2 0x75A SWAP2 SWAP1 PUSH2 0xFFD JUMP JUMPDEST PUSH1 0x40 MLOAD DUP1 SWAP2 SUB SWAP1 LOG2 POP JUMP JUMPDEST PUSH2 0x76D PUSH2 0xD8D JUMP JUMPDEST PUSH2 0x776 PUSH0 PUSH2 0xE14 JUMP JUMPDEST JUMP JUMPDEST PUSH1 0x4 SLOAD DUP2 JUMP JUMPDEST PUSH1 0x1 PUSH0 SWAP1 SLOAD SWAP1 PUSH2 0x100 EXP SWAP1 DIV PUSH20 0xFFFFFFFFFFFFFFFFFFFFFFFFFFFFFFFFFFFFFFFF AND DUP2 JUMP JUMPDEST PUSH32 0x0 DUP2 JUMP JUMPDEST PUSH32 0x0 DUP2 JUMP JUMPDEST PUSH0 PUSH0 PUSH0 SWAP1 SLOAD SWAP1 PUSH2 0x100 EXP SWAP1 DIV PUSH20 0xFFFFFFFFFFFFFFFFFFFFFFFFFFFFFFFFFFFFFFFF AND SWAP1 POP SWAP1 JUMP JUMPDEST PUSH1 0x5 PUSH0 SWAP1 SLOAD SWAP1 PUSH2 0x100 EXP SWAP1 DIV PUSH1 0xFF AND ISZERO PUSH2 0x858 JUMPI PUSH1 0x40 MLOAD PUSH32 0x37ED32E800000000000000000000000000000000000000000000000000000000 DUP2 MSTORE PUSH1 0x4 ADD PUSH1 0x40 MLOAD DUP1 SWAP2 SUB SWAP1 REVERT JUMPDEST PUSH1 0x1 PUSH1 0x5 PUSH0 PUSH2 0x100 EXP DUP2 SLOAD DUP2 PUSH1 0xFF MUL NOT AND SWAP1 DUP4 ISZERO ISZERO MUL OR SWAP1 SSTORE POP DUP1 PUSH0 DUP2 SUB PUSH2 0x8AC JUMPI PUSH1 0x40 MLOAD PUSH32 0x2C5211C600000000000000000000000000000000000000000000000000000000 DUP2 MSTORE PUSH1 0x4 ADD PUSH1 0x40 MLOAD DUP1 SWAP2 SUB SWAP1 REVERT JUMPDEST PUSH0 PUSH1 0x6 PUSH0 CALLER PUSH20 0xFFFFFFFFFFFFFFFFFFFFFFFFFFFFFFFFFFFFFFFF AND PUSH20 0xFFFFFFFFFFFFFFFFFFFFFFFFFFFFFFFFFFFFFFFF AND DUP2 MSTORE PUSH1 0x20 ADD SWAP1 DUP2 MSTORE PUSH1 0x20 ADD PUSH0 KECCAK256 PUSH0 ADD SLOAD SWAP1 POP PUSH32 0x0 DUP4 GT ISZERO PUSH2 0x949 JUMPI PUSH1 0x40 MLOAD PUSH32 0x4E6A369600000000000000000000000000000000000000000000000000000000 DUP2 MSTORE PUSH1 0x4 ADD PUSH1 0x40 MLOAD DUP1 SWAP2 SUB SWAP1 REVERT JUMPDEST DUP1 DUP4 GT ISZERO PUSH2 0x983 JUMPI PUSH1 0x40 MLOAD PUSH32 0xF4D678B800000000000000000000000000000000000000000000000000000000 DUP2 MSTORE PUSH1 0x4 ADD PUSH1 0x40 MLOAD DUP1 SWAP2 SUB SWAP1 REVERT JUMPDEST DUP3 DUP2 PUSH2 0x98F SWAP2 SWAP1 PUSH2 0x1118 JUMP JUMPDEST PUSH1 0x6 PUSH0 CALLER PUSH20 0xFFFFFFFFFFFFFFFFFFFFFFFFFFFFFFFFFFFFFFFF AND PUSH20 0xFFFFFFFFFFFFFFFFFFFFFFFFFFFFFFFFFFFFFFFF AND DUP2 MSTORE PUSH1 0x20 ADD SWAP1 DUP2 MSTORE PUSH1 0x20 ADD PUSH0 KECCAK256 PUSH1 0x1 ADD DUP2 SWAP1 SSTORE POP DUP3 PUSH1 0x2 PUSH0 DUP3 DUP3 SLOAD PUSH2 0x9E4 SWAP2 SWAP1 PUSH2 0x1118 JUMP JUMPDEST SWAP3 POP POP DUP2 SWAP1 SSTORE POP PUSH1 0x4 PUSH0 DUP2 SLOAD DUP1 SWAP3 SWAP2 SWAP1 PUSH2 0x9FD SWAP1 PUSH2 0x114B JUMP JUMPDEST SWAP2 SWAP1 POP SSTORE POP PUSH2 0xA0C CALLER DUP5 PUSH2 0xED5 JUMP JUMPDEST CALLER PUSH20 0xFFFFFFFFFFFFFFFFFFFFFFFFFFFFFFFFFFFFFFFF AND PUSH32 0x736DFCC39D27ADAD7DE37E9A6F1E8252E0953EBF8F582D535672D33F8986738B DUP5 PUSH1 0x40 MLOAD PUSH2 0xA52 SWAP2 SWAP1 PUSH2 0xFFD JUMP JUMPDEST PUSH1 0x40 MLOAD DUP1 SWAP2 SUB SWAP1 LOG2 POP POP PUSH0 PUSH1 0x5 PUSH0 PUSH2 0x100 EXP DUP2 SLOAD DUP2 PUSH1 0xFF MUL NOT AND SWAP1 DUP4 ISZERO ISZERO MUL OR SWAP1 SSTORE POP POP JUMP JUMPDEST PUSH0 PUSH1 0x6 PUSH0 CALLER PUSH20 0xFFFFFFFFFFFFFFFFFFFFFFFFFFFFFFFFFFFFFFFF AND PUSH20 0xFFFFFFFFFFFFFFFFFFFFFFFFFFFFFFFFFFFFFFFF AND DUP2 MSTORE PUSH1 0x20 ADD SWAP1 DUP2 MSTORE PUSH1 0x20 ADD PUSH0 KECCAK256 PUSH0 ADD SLOAD SWAP1 POP SWAP1 JUMP JUMPDEST PUSH2 0xAC6 PUSH2 0xD8D JUMP JUMPDEST PUSH0 PUSH20 0xFFFFFFFFFFFFFFFFFFFFFFFFFFFFFFFFFFFFFFFF AND DUP2 PUSH20 0xFFFFFFFFFFFFFFFFFFFFFFFFFFFFFFFFFFFFFFFF AND SUB PUSH2 0xB36 JUMPI PUSH0 PUSH1 0x40 MLOAD PUSH32 0x1E4FBDF700000000000000000000000000000000000000000000000000000000 DUP2 MSTORE PUSH1 0x4 ADD PUSH2 0xB2D SWAP2 SWAP1 PUSH2 0x1099 JUMP JUMPDEST PUSH1 0x40 MLOAD DUP1 SWAP2 SUB SWAP1 REVERT JUMPDEST PUSH2 0xB3F DUP2 PUSH2 0xE14 JUMP JUMPDEST POP JUMP JUMPDEST DUP1 PUSH0 DUP2 SUB PUSH2 0xB7C JUMPI PUSH1 0x40 MLOAD PUSH32 0x2C5211C600000000000000000000000000000000000000000000000000000000 DUP2 MSTORE PUSH1 0x4 ADD PUSH1 0x40 MLOAD DUP1 SWAP2 SUB SWAP1 REVERT JUMPDEST PUSH32 0x0 DUP3 PUSH1 0x2 SLOAD PUSH2 0xBAB SWAP2 SWAP1 PUSH2 0x1192 JUMP JUMPDEST GT ISZERO PUSH2 0xBE3 JUMPI PUSH1 0x40 MLOAD PUSH32 0x448F3CA800000000000000000000000000000000000000000000000000000000 DUP2 MSTORE PUSH1 0x4 ADD PUSH1 0x40 MLOAD DUP1 SWAP2 SUB SWAP1 REVERT JUMPDEST DUP2 PUSH1 0x2 PUSH0 DUP3 DUP3 SLOAD ADD SWAP3 POP POP DUP2 SWAP1 SSTORE POP DUP2 PUSH1 0x6 PUSH0 CALLER PUSH20 0xFFFFFFFFFFFFFFFFFFFFFFFFFFFFFFFFFFFFFFFF AND PUSH20 0xFFFFFFFFFFFFFFFFFFFFFFFFFFFFFFFFFFFFFFFF AND DUP2 MSTORE PUSH1 0x20 ADD SWAP1 DUP2 MSTORE PUSH1 0x20 ADD PUSH0 KECCAK256 PUSH1 0x1 ADD PUSH0 DUP3 DUP3 SLOAD PUSH2 0xC41 SWAP2 SWAP1 PUSH2 0x1192 JUMP JUMPDEST SWAP3 POP POP DUP2 SWAP1 SSTORE POP PUSH1 0x3 PUSH0 DUP2 SLOAD DUP1 SWAP3 SWAP2 SWAP1 PUSH2 0xC5A SWAP1 PUSH2 0x114B JUMP JUMPDEST SWAP2 SWAP1 POP SSTORE POP CALLER PUSH20 0xFFFFFFFFFFFFFFFFFFFFFFFFFFFFFFFFFFFFFFFF AND PUSH32 0xE7440F6772025DEC9BE06BA934E6EE5289B73533EE2136BA668F6CB6EA3F56A8 DUP4 PUSH1 0x40 MLOAD PUSH2 0xCA5 SWAP2 SWAP1 PUSH2 0xFFD JUMP JUMPDEST PUSH1 0x40 MLOAD DUP1 SWAP2 SUB SWAP1 LOG2 POP POP JUMP JUMPDEST PUSH32 0x0 DUP2 JUMP JUMPDEST PUSH1 0x2 SLOAD DUP2 JUMP JUMPDEST PUSH0 PUSH0 DUP4 PUSH20 0xFFFFFFFFFFFFFFFFFFFFFFFFFFFFFFFFFFFFFFFF AND DUP4 PUSH1 0x40 MLOAD PUSH2 0xD01 SWAP1 PUSH2 0x11F2 JUMP JUMPDEST PUSH0 PUSH1 0x40 MLOAD DUP1 DUP4 SUB DUP2 DUP6 DUP8 GAS CALL SWAP3 POP POP POP RETURNDATASIZE DUP1 PUSH0 DUP2 EQ PUSH2 0xD3B JUMPI PUSH1 0x40 MLOAD SWAP2 POP PUSH1 0x1F NOT PUSH1 0x3F RETURNDATASIZE ADD AND DUP3 ADD PUSH1 0x40 MSTORE RETURNDATASIZE DUP3 MSTORE RETURNDATASIZE PUSH0 PUSH1 0x20 DUP5 ADD RETURNDATACOPY PUSH2 0xD40 JUMP JUMPDEST PUSH1 0x60 SWAP2 POP JUMPDEST POP SWAP2 POP SWAP2 POP DUP2 PUSH2 0xD87 JUMPI DUP1 PUSH1 0x40 MLOAD PUSH32 0x49BA945B00000000000000000000000000000000000000000000000000000000 DUP2 MSTORE PUSH1 0x4 ADD PUSH2 0xD7E SWAP2 SWAP1 PUSH2 0x1276 JUMP JUMPDEST PUSH1 0x40 MLOAD DUP1 SWAP2 SUB SWAP1 REVERT JUMPDEST POP POP POP POP JUMP JUMPDEST PUSH2 0xD95 PUSH2 0xED9 JUMP JUMPDEST PUSH20 0xFFFFFFFFFFFFFFFFFFFFFFFFFFFFFFFFFFFFFFFF AND PUSH2 0xDB3 PUSH2 0x7EB JUMP JUMPDEST PUSH20 0xFFFFFFFFFFFFFFFFFFFFFFFFFFFFFFFFFFFFFFFF AND EQ PUSH2 0xE12 JUMPI PUSH2 0xDD6 PUSH2 0xED9 JUMP JUMPDEST PUSH1 0x40 MLOAD PUSH32 0x118CDAA700000000000000000000000000000000000000000000000000000000 DUP2 MSTORE PUSH1 0x4 ADD PUSH2 0xE09 SWAP2 SWAP1 PUSH2 0x1099 JUMP JUMPDEST PUSH1 0x40 MLOAD DUP1 SWAP2 SUB SWAP1 REVERT JUMPDEST JUMP JUMPDEST PUSH0 PUSH0 PUSH0 SWAP1 SLOAD SWAP1 PUSH2 0x100 EXP SWAP1 DIV PUSH20 0xFFFFFFFFFFFFFFFFFFFFFFFFFFFFFFFFFFFFFFFF AND SWAP1 POP DUP2 PUSH0 PUSH0 PUSH2 0x100 EXP DUP2 SLOAD DUP2 PUSH20 0xFFFFFFFFFFFFFFFFFFFFFFFFFFFFFFFFFFFFFFFF MUL NOT AND SWAP1 DUP4 PUSH20 0xFFFFFFFFFFFFFFFFFFFFFFFFFFFFFFFFFFFFFFFF AND MUL OR SWAP1 SSTORE POP DUP2 PUSH20 0xFFFFFFFFFFFFFFFFFFFFFFFFFFFFFFFFFFFFFFFF AND DUP2 PUSH20 0xFFFFFFFFFFFFFFFFFFFFFFFFFFFFFFFFFFFFFFFF AND PUSH32 0x8BE0079C531659141344CD1FD0A4F28419497F9722A3DAAFE3B4186F6B6457E0 PUSH1 0x40 MLOAD PUSH1 0x40 MLOAD DUP1 SWAP2 SUB SWAP1 LOG3 POP POP JUMP JUMPDEST POP POP JUMP JUMPDEST PUSH0 CALLER SWAP1 POP SWAP1 JUMP JUMPDEST PUSH0 PUSH0 REVERT JUMPDEST PUSH0 DUP2 SWAP1 POP SWAP2 SWAP1 POP JUMP JUMPDEST PUSH2 0xEF6 DUP2 PUSH2 0xEE4 JUMP JUMPDEST DUP2 EQ PUSH2 0xF00 JUMPI PUSH0 PUSH0 REVERT JUMPDEST POP JUMP JUMPDEST PUSH0 DUP2 CALLDATALOAD SWAP1 POP PUSH2 0xF11 DUP2 PUSH2 0xEED JUMP JUMPDEST SWAP3 SWAP2 POP POP JUMP JUMPDEST PUSH0 PUSH1 0x20 DUP3 DUP5 SUB SLT ISZERO PUSH2 0xF2C JUMPI PUSH2 0xF2B PUSH2 0xEE0 JUMP JUMPDEST JUMPDEST PUSH0 PUSH2 0xF39 DUP5 DUP3 DUP6 ADD PUSH2 0xF03 JUMP JUMPDEST SWAP2 POP POP SWAP3 SWAP2 POP POP JUMP JUMPDEST PUSH0 PUSH20 0xFFFFFFFFFFFFFFFFFFFFFFFFFFFFFFFFFFFFFFFF DUP3 AND SWAP1 POP SWAP2 SWAP1 POP JUMP JUMPDEST PUSH0 PUSH2 0xF6B DUP3 PUSH2 0xF42 JUMP JUMPDEST SWAP1 POP SWAP2 SWAP1 POP JUMP JUMPDEST PUSH2 0xF7B DUP2 PUSH2 0xF61 JUMP JUMPDEST DUP2 EQ PUSH2 0xF85 JUMPI PUSH0 PUSH0 REVERT JUMPDEST POP JUMP JUMPDEST PUSH0 DUP2 CALLDATALOAD SWAP1 POP PUSH2 0xF96 DUP2 PUSH2 0xF72 JUMP JUMPDEST SWAP3 SWAP2 POP POP JUMP JUMPDEST PUSH0 PUSH1 0x20 DUP3 DUP5 SUB SLT ISZERO PUSH2 0xFB1 JUMPI PUSH2 0xFB0 PUSH2 0xEE0 JUMP JUMPDEST JUMPDEST PUSH0 PUSH2 0xFBE DUP5 DUP3 DUP6 ADD PUSH2 0xF88 JUMP JUMPDEST SWAP2 POP POP SWAP3 SWAP2 POP POP JUMP JUMPDEST PUSH2 0xFD0 DUP2 PUSH2 0xEE4 JUMP JUMPDEST DUP3 MSTORE POP POP JUMP JUMPDEST PUSH0 PUSH1 0x40 DUP3 ADD SWAP1 POP PUSH2 0xFE9 PUSH0 DUP4 ADD DUP6 PUSH2 0xFC7 JUMP JUMPDEST PUSH2 0xFF6 PUSH1 0x20 DUP4 ADD DUP5 PUSH2 0xFC7 JUMP JUMPDEST SWAP4 SWAP3 POP POP POP JUMP JUMPDEST PUSH0 PUSH1 0x20 DUP3 ADD SWAP1 POP PUSH2 0x1010 PUSH0 DUP4 ADD DUP5 PUSH2 0xFC7 JUMP JUMPDEST SWAP3 SWAP2 POP POP JUMP JUMPDEST PUSH0 DUP2 SWAP1 POP SWAP2 SWAP1 POP JUMP JUMPDEST PUSH0 PUSH2 0x1039 PUSH2 0x1034 PUSH2 0x102F DUP5 PUSH2 0xF42 JUMP JUMPDEST PUSH2 0x1016 JUMP JUMPDEST PUSH2 0xF42 JUMP JUMPDEST SWAP1 POP SWAP2 SWAP1 POP JUMP JUMPDEST PUSH0 PUSH2 0x104A DUP3 PUSH2 0x101F JUMP JUMPDEST SWAP1 POP SWAP2 SWAP1 POP JUMP JUMPDEST PUSH0 PUSH2 0x105B DUP3 PUSH2 0x1040 JUMP JUMPDEST SWAP1 POP SWAP2 SWAP1 POP JUMP JUMPDEST PUSH2 0x106B DUP2 PUSH2 0x1051 JUMP JUMPDEST DUP3 MSTORE POP POP JUMP JUMPDEST PUSH0 PUSH1 0x20 DUP3 ADD SWAP1 POP PUSH2 0x1084 PUSH0 DUP4 ADD DUP5 PUSH2 0x1062 JUMP JUMPDEST SWAP3 SWAP2 POP POP JUMP JUMPDEST PUSH2 0x1093 DUP2 PUSH2 0xF61 JUMP JUMPDEST DUP3 MSTORE POP POP JUMP JUMPDEST PUSH0 PUSH1 0x20 DUP3 ADD SWAP1 POP PUSH2 0x10AC PUSH0 DUP4 ADD DUP5 PUSH2 0x108A JUMP JUMPDEST SWAP3 SWAP2 POP POP JUMP JUMPDEST PUSH0 PUSH2 0x10BC DUP3 PUSH2 0x1040 JUMP JUMPDEST SWAP1 POP SWAP2 SWAP1 POP JUMP JUMPDEST PUSH2 0x10CC DUP2 PUSH2 0x10B2 JUMP JUMPDEST DUP3 MSTORE POP POP JUMP JUMPDEST PUSH0 PUSH1 0x20 DUP3 ADD SWAP1 POP PUSH2 0x10E5 PUSH0 DUP4 ADD DUP5 PUSH2 0x10C3 JUMP JUMPDEST SWAP3 SWAP2 POP POP JUMP JUMPDEST PUSH32 0x4E487B7100000000000000000000000000000000000000000000000000000000 PUSH0 MSTORE PUSH1 0x11 PUSH1 0x4 MSTORE PUSH1 0x24 PUSH0 REVERT JUMPDEST PUSH0 PUSH2 0x1122 DUP3 PUSH2 0xEE4 JUMP JUMPDEST SWAP2 POP PUSH2 0x112D DUP4 PUSH2 0xEE4 JUMP JUMPDEST SWAP3 POP DUP3 DUP3 SUB SWAP1 POP DUP2 DUP2 GT ISZERO PUSH2 0x1145 JUMPI PUSH2 0x1144 PUSH2 0x10EB JUMP JUMPDEST JUMPDEST SWAP3 SWAP2 POP POP JUMP JUMPDEST PUSH0 PUSH2 0x1155 DUP3 PUSH2 0xEE4 JUMP JUMPDEST SWAP2 POP PUSH32 0xFFFFFFFFFFFFFFFFFFFFFFFFFFFFFFFFFFFFFFFFFFFFFFFFFFFFFFFFFFFFFFFF DUP3 SUB PUSH2 0x1187 JUMPI PUSH2 0x1186 PUSH2 0x10EB JUMP JUMPDEST JUMPDEST PUSH1 0x1 DUP3 ADD SWAP1 POP SWAP2 SWAP1 POP JUMP JUMPDEST PUSH0 PUSH2 0x119C DUP3 PUSH2 0xEE4 JUMP JUMPDEST SWAP2 POP PUSH2 0x11A7 DUP4 PUSH2 0xEE4 JUMP JUMPDEST SWAP3 POP DUP3 DUP3 ADD SWAP1 POP DUP1 DUP3 GT ISZERO PUSH2 0x11BF JUMPI PUSH2 0x11BE PUSH2 0x10EB JUMP JUMPDEST JUMPDEST SWAP3 SWAP2 POP POP JUMP JUMPDEST PUSH0 DUP2 SWAP1 POP SWAP3 SWAP2 POP POP JUMP JUMPDEST POP JUMP JUMPDEST PUSH0 PUSH2 0x11DD PUSH0 DUP4 PUSH2 0x11C5 JUMP JUMPDEST SWAP2 POP PUSH2 0x11E8 DUP3 PUSH2 0x11CF JUMP JUMPDEST PUSH0 DUP3 ADD SWAP1 POP SWAP2 SWAP1 POP JUMP JUMPDEST PUSH0 PUSH2 0x11FC DUP3 PUSH2 0x11D2 JUMP JUMPDEST SWAP2 POP DUP2 SWAP1 POP SWAP2 SWAP1 POP JUMP JUMPDEST PUSH0 DUP2 MLOAD SWAP1 POP SWAP2 SWAP1 POP JUMP JUMPDEST PUSH0 DUP3 DUP3 MSTORE PUSH1 0x20 DUP3 ADD SWAP1 POP SWAP3 SWAP2 POP POP JUMP JUMPDEST DUP3 DUP2 DUP4 MCOPY PUSH0 DUP4 DUP4 ADD MSTORE POP POP POP JUMP JUMPDEST PUSH0 PUSH1 0x1F NOT PUSH1 0x1F DUP4 ADD AND SWAP1 POP SWAP2 SWAP1 POP JUMP JUMPDEST PUSH0 PUSH2 0x1248 DUP3 PUSH2 0x1206 JUMP JUMPDEST PUSH2 0x1252 DUP2 DUP6 PUSH2 0x1210 JUMP JUMPDEST SWAP4 POP PUSH2 0x1262 DUP2 DUP6 PUSH1 0x20 DUP7 ADD PUSH2 0x1220 JUMP JUMPDEST PUSH2 0x126B DUP2 PUSH2 0x122E JUMP JUMPDEST DUP5 ADD SWAP2 POP POP SWAP3 SWAP2 POP POP JUMP JUMPDEST PUSH0 PUSH1 0x20 DUP3 ADD SWAP1 POP DUP2 DUP2 SUB PUSH0 DUP4 ADD MSTORE PUSH2 0x128E DUP2 DUP5 PUSH2 0x123E JUMP JUMPDEST SWAP1 POP SWAP3 SWAP2 POP POP JUMP INVALID LOG2 PUSH5 0x6970667358 0x22 SLT KECCAK256 PUSH20 0x1DBCBBE2BEB737D4BD6FA5A774CF308B2AD85D7F 0xCD 0xAD MUL 0xD6 0xEF PUSH7 0x1285D0CDEF6473 PUSH16 0x6C634300081B00330000000000000000 "
				},
				"gasEstimates": {
					"creation": {
						"codeDepositCost": "962400",
						"executionCost": "infinite",
						"totalCost": "infinite"
					},
					"external": {
						"BANK_CAP_USD()": "infinite",
						"USDC_TOKEN()": "infinite",
						"WITHDRAWAL_LIMIT()": "infinite",
						"balances(address)": "infinite",
						"depositCount()": "2493",
						"depositEth()": "infinite",
						"depositUSDC(uint256)": "infinite",
						"getBalanceEth()": "2613",
						"owner()": "2559",
						"priceFeed()": "infinite",
						"renounceOwnership()": "infinite",
						"totalDeposited()": "2513",
						"transferOwnership(address)": "infinite",
						"withdrawalCount()": "2470",
						"withdrawalEth(uint256)": "infinite",
						"withdrawalUSDC(uint256)": "infinite"
					},
					"internal": {
						"_transferEth(address payable,uint256)": "infinite",
						"_transferUSDC(address payable,uint256)": "13"
					}
				},
				"methodIdentifiers": {
					"BANK_CAP_USD()": "893b7e95",
					"USDC_TOKEN()": "fa569274",
					"WITHDRAWAL_LIMIT()": "82ee0d1d",
					"balances(address)": "27e235e3",
					"depositCount()": "2dfdf0b5",
					"depositEth()": "439370b1",
					"depositUSDC(uint256)": "f688bcfb",
					"getBalanceEth()": "9caf34c4",
					"owner()": "8da5cb5b",
					"priceFeed()": "741bef1a",
					"renounceOwnership()": "715018a6",
					"totalDeposited()": "ff50abdc",
					"transferOwnership(address)": "f2fde38b",
					"withdrawalCount()": "71706cbe",
					"withdrawalEth(uint256)": "1edc8f03",
					"withdrawalUSDC(uint256)": "9b900405"
				}
			},
			"storageLayout": {
				"storage": [
					{
						"astId": 54,
						"contract": "src/KipuBankV21.sol:KipuBank",
						"label": "_owner",
						"offset": 0,
						"slot": "0",
						"type": "t_address"
					},
					{
						"astId": 884,
						"contract": "src/KipuBankV21.sol:KipuBank",
						"label": "priceFeed",
						"offset": 0,
						"slot": "1",
						"type": "t_contract(AggregatorV3Interface)45"
					},
					{
						"astId": 890,
						"contract": "src/KipuBankV21.sol:KipuBank",
						"label": "totalDeposited",
						"offset": 0,
						"slot": "2",
						"type": "t_uint256"
					},
					{
						"astId": 893,
						"contract": "src/KipuBankV21.sol:KipuBank",
						"label": "depositCount",
						"offset": 0,
						"slot": "3",
						"type": "t_uint256"
					},
					{
						"astId": 896,
						"contract": "src/KipuBankV21.sol:KipuBank",
						"label": "withdrawalCount",
						"offset": 0,
						"slot": "4",
						"type": "t_uint256"
					},
					{
						"astId": 899,
						"contract": "src/KipuBankV21.sol:KipuBank",
						"label": "locked",
						"offset": 0,
						"slot": "5",
						"type": "t_bool"
					},
					{
						"astId": 910,
						"contract": "src/KipuBankV21.sol:KipuBank",
						"label": "balances",
						"offset": 0,
						"slot": "6",
						"type": "t_mapping(t_address,t_struct(Balances)904_storage)"
					}
				],
				"types": {
					"t_address": {
						"encoding": "inplace",
						"label": "address",
						"numberOfBytes": "20"
					},
					"t_bool": {
						"encoding": "inplace",
						"label": "bool",
						"numberOfBytes": "1"
					},
					"t_contract(AggregatorV3Interface)45": {
						"encoding": "inplace",
						"label": "contract AggregatorV3Interface",
						"numberOfBytes": "20"
					},
					"t_mapping(t_address,t_struct(Balances)904_storage)": {
						"encoding": "mapping",
						"key": "t_address",
						"label": "mapping(address => struct KipuBank.Balances)",
						"numberOfBytes": "32",
						"value": "t_struct(Balances)904_storage"
					},
					"t_struct(Balances)904_storage": {
						"encoding": "inplace",
						"label": "struct KipuBank.Balances",
						"members": [
							{
								"astId": 901,
								"contract": "src/KipuBankV21.sol:KipuBank",
								"label": "eth",
								"offset": 0,
								"slot": "0",
								"type": "t_uint256"
							},
							{
								"astId": 903,
								"contract": "src/KipuBankV21.sol:KipuBank",
								"label": "usdc",
								"offset": 0,
								"slot": "1",
								"type": "t_uint256"
							}
						],
						"numberOfBytes": "64"
					},
					"t_uint256": {
						"encoding": "inplace",
						"label": "uint256",
						"numberOfBytes": "32"
					}
				}
			},
			"userdoc": {
				"errors": {
					"BankCapExceeded()": [
						{
							"notice": "Error thrown when the total deposits would exceed the bank's global cap."
						}
					],
					"InsufficientBalance()": [
						{
							"notice": "Error thrown when a user tries to withdraw more than their balance."
						}
					],
					"InvalidAmount()": [
						{
							"notice": "Error thrown when the provided amount is invalid (e.g., 0)."
						}
					],
					"ReentrantCall()": [
						{
							"notice": "Error for reentrancy guard, thrown when a reentrant call is detected."
						}
					],
					"WithdrawalFailed(bytes)": [
						{
							"notice": "Error thrown when a withdrawal transfer fails."
						}
					],
					"WithdrawalLimitExceeded()": [
						{
							"notice": "Error thrown when a withdrawal amount exceeds the per-transaction limit."
						}
					]
				},
				"events": {
					"DepositEth(address,uint256)": {
						"notice": "Emitted when a user deposits ETH."
					},
					"DepositUSDC(address,uint256)": {
						"notice": "Emitted when a user deposits USDC."
					},
					"WithdrawalEth(address,uint256)": {
						"notice": "Emitted when a user withdraws ETH."
					}
				},
				"kind": "user",
				"methods": {
					"BANK_CAP_USD()": {
						"notice": "The global deposit cap for the entire bank."
					},
					"WITHDRAWAL_LIMIT()": {
						"notice": "The per-transaction withdrawal limit."
					},
					"balances(address)": {
						"notice": "Mapping from address to user balance."
					},
					"constructor": {
						"notice": "Initializes the contract."
					},
					"depositCount()": {
						"notice": "A counter for the total number of deposits made."
					},
					"depositEth()": {
						"notice": "Deposits ETH into the user's balance."
					},
					"getBalanceEth()": {
						"notice": "Gets the balance of the message sender."
					},
					"totalDeposited()": {
						"notice": "The total amount of ETH currently deposited in the contract."
					},
					"withdrawalCount()": {
						"notice": "A counter for the total number of withdrawals made."
					},
					"withdrawalEth(uint256)": {
						"notice": "Withdraws ETH from the user's balance."
					}
				},
				"version": 1
			}
		}
	}
}