{
	"src/KipuBankV2.sol": {
		"KipuBankV2": {
			"abi": [
				{
					"inputs": [
						{
							"internalType": "address",
							"name": "_priceFeedAddress",
							"type": "address"
						},
						{
							"internalType": "address",
							"name": "_usdcTokenAddress",
							"type": "address"
						},
						{
							"internalType": "uint256",
							"name": "_bankCapUSD",
							"type": "uint256"
						}
					],
					"stateMutability": "nonpayable",
					"type": "constructor"
				},
				{
					"inputs": [],
					"name": "BankCapExceeded",
					"type": "error"
				},
				{
					"inputs": [],
					"name": "InsufficientBalance",
					"type": "error"
				},
				{
					"inputs": [],
					"name": "InvalidAddress",
					"type": "error"
				},
				{
					"inputs": [],
					"name": "InvalidAmount",
					"type": "error"
				},
				{
					"inputs": [
						{
							"internalType": "address",
							"name": "owner",
							"type": "address"
						}
					],
					"name": "OwnableInvalidOwner",
					"type": "error"
				},
				{
					"inputs": [
						{
							"internalType": "address",
							"name": "account",
							"type": "address"
						}
					],
					"name": "OwnableUnauthorizedAccount",
					"type": "error"
				},
				{
					"inputs": [],
					"name": "ReentrantCall",
					"type": "error"
				},
				{
					"inputs": [
						{
							"internalType": "bytes",
							"name": "errorData",
							"type": "bytes"
						}
					],
					"name": "WithdrawalFailed",
					"type": "error"
				},
				{
					"anonymous": false,
					"inputs": [
						{
							"indexed": true,
							"internalType": "address",
							"name": "user",
							"type": "address"
						},
						{
							"indexed": true,
							"internalType": "string",
							"name": "usdcOrEth",
							"type": "string"
						},
						{
							"indexed": false,
							"internalType": "uint256",
							"name": "amount",
							"type": "uint256"
						}
					],
					"name": "Deposit",
					"type": "event"
				},
				{
					"anonymous": false,
					"inputs": [
						{
							"indexed": true,
							"internalType": "address",
							"name": "previousOwner",
							"type": "address"
						},
						{
							"indexed": true,
							"internalType": "address",
							"name": "newOwner",
							"type": "address"
						}
					],
					"name": "OwnershipTransferred",
					"type": "event"
				},
				{
					"anonymous": false,
					"inputs": [
						{
							"indexed": true,
							"internalType": "address",
							"name": "user",
							"type": "address"
						},
						{
							"indexed": true,
							"internalType": "string",
							"name": "usdcOrEth",
							"type": "string"
						},
						{
							"indexed": false,
							"internalType": "uint256",
							"name": "amount",
							"type": "uint256"
						}
					],
					"name": "Withdrawal",
					"type": "event"
				},
				{
					"inputs": [],
					"name": "BANK_CAP_USD",
					"outputs": [
						{
							"internalType": "uint256",
							"name": "",
							"type": "uint256"
						}
					],
					"stateMutability": "view",
					"type": "function"
				},
				{
					"inputs": [],
					"name": "USDC",
					"outputs": [
						{
							"internalType": "contract IERC20",
							"name": "",
							"type": "address"
						}
					],
					"stateMutability": "view",
					"type": "function"
				},
				{
					"inputs": [
						{
							"internalType": "address",
							"name": "",
							"type": "address"
						}
					],
					"name": "balances",
					"outputs": [
						{
							"internalType": "uint256",
							"name": "eth",
							"type": "uint256"
						},
						{
							"internalType": "uint256",
							"name": "usdc",
							"type": "uint256"
						}
					],
					"stateMutability": "view",
					"type": "function"
				},
				{
					"inputs": [],
					"name": "depositEth",
					"outputs": [],
					"stateMutability": "payable",
					"type": "function"
				},
				{
					"inputs": [
						{
							"internalType": "uint256",
							"name": "_amount",
							"type": "uint256"
						}
					],
					"name": "depositUSDC",
					"outputs": [],
					"stateMutability": "nonpayable",
					"type": "function"
				},
				{
					"inputs": [
						{
							"internalType": "address",
							"name": "_user",
							"type": "address"
						}
					],
					"name": "getBalances",
					"outputs": [
						{
							"components": [
								{
									"internalType": "uint256",
									"name": "eth",
									"type": "uint256"
								},
								{
									"internalType": "uint256",
									"name": "usdc",
									"type": "uint256"
								}
							],
							"internalType": "struct KipuBankV2.Balances",
							"name": "",
							"type": "tuple"
						}
					],
					"stateMutability": "view",
					"type": "function"
				},
				{
					"inputs": [
						{
							"internalType": "uint256",
							"name": "_ethAmount",
							"type": "uint256"
						}
					],
					"name": "getEthValueInUSD",
					"outputs": [
						{
							"internalType": "uint256",
							"name": "",
							"type": "uint256"
						}
					],
					"stateMutability": "view",
					"type": "function"
				},
				{
					"inputs": [],
					"name": "owner",
					"outputs": [
						{
							"internalType": "address",
							"name": "",
							"type": "address"
						}
					],
					"stateMutability": "view",
					"type": "function"
				},
				{
					"inputs": [],
					"name": "priceFeed",
					"outputs": [
						{
							"internalType": "contract AggregatorV3Interface",
							"name": "",
							"type": "address"
						}
					],
					"stateMutability": "view",
					"type": "function"
				},
				{
					"inputs": [],
					"name": "renounceOwnership",
					"outputs": [],
					"stateMutability": "nonpayable",
					"type": "function"
				},
				{
					"inputs": [],
					"name": "totalEthDeposited",
					"outputs": [
						{
							"internalType": "uint256",
							"name": "",
							"type": "uint256"
						}
					],
					"stateMutability": "view",
					"type": "function"
				},
				{
					"inputs": [
						{
							"internalType": "address",
							"name": "newOwner",
							"type": "address"
						}
					],
					"name": "transferOwnership",
					"outputs": [],
					"stateMutability": "nonpayable",
					"type": "function"
				},
				{
					"inputs": [
						{
							"internalType": "uint256",
							"name": "_amount",
							"type": "uint256"
						}
					],
					"name": "withdrawalEth",
					"outputs": [],
					"stateMutability": "nonpayable",
					"type": "function"
				},
				{
					"inputs": [
						{
							"internalType": "uint256",
							"name": "_amount",
							"type": "uint256"
						}
					],
					"name": "withdrawalUSDC",
					"outputs": [],
					"stateMutability": "nonpayable",
					"type": "function"
				}
			],
			"devdoc": {
				"author": "Michel Massaad",
				"details": "Implements transaction limits, a global deposit cap, custom errors, and follows security best practices.",
				"errors": {
					"OwnableInvalidOwner(address)": [
						{
							"details": "The owner is not a valid owner account. (eg. `address(0)`)"
						}
					],
					"OwnableUnauthorizedAccount(address)": [
						{
							"details": "The caller account is not authorized to perform an operation."
						}
					],
					"WithdrawalFailed(bytes)": [
						{
							"params": {
								"errorData": "The data returned by the failed call."
							}
						}
					]
				},
				"kind": "dev",
				"methods": {
					"constructor": {
						"params": {
							"_bankCapUSD": "The total deposit cap for ETH, in whole USD (e.g., 10000 for $10,000).",
							"_priceFeedAddress": "The Chainlink ETH/USD price feed address.",
							"_usdcTokenAddress": "The address of the USDC token contract."
						}
					},
					"depositEth()": {
						"details": "Reverts if the amount is zero or if the deposit would exceed the global bank cap.Follows the checks-effects-interactions pattern."
					},
					"getBalances(address)": {
						"params": {
							"_user": "The address of the user."
						},
						"returns": {
							"_0": "The user's balances of ETH and USDC."
						}
					},
					"getEthValueInUSD(uint256)": {
						"params": {
							"_ethAmount": "The amount of ETH in wei (1e18)."
						},
						"returns": {
							"_0": "The value in USD, adjusted to 8 decimals."
						}
					},
					"owner()": {
						"details": "Returns the address of the current owner."
					},
					"renounceOwnership()": {
						"details": "Leaves the contract without owner. It will not be possible to call `onlyOwner` functions. Can only be called by the current owner. NOTE: Renouncing ownership will leave the contract without an owner, thereby disabling any functionality that is only available to the owner."
					},
					"transferOwnership(address)": {
						"details": "Transfers ownership of the contract to a new account (`newOwner`). Can only be called by the current owner."
					},
					"withdrawalEth(uint256)": {
						"details": "Reverts if the amount is zero, exceeds the withdrawal limit, or if the user has insufficient balance.Follows the checks-effects-interactions pattern.",
						"params": {
							"_amount": "The amount to withdraw in wei."
						}
					}
				},
				"title": "KipuBank",
				"version": 1
			},
			"evm": {
				"assembly": "    /* \"src/KipuBankV2.sol\":600:11029  contract KipuBankV2 is Ownable {... */\n  mstore(0x40, 0xc0)\n    /* \"src/KipuBankV2.sol\":4848:6085  constructor(... */\n  callvalue\n  dup1\n  iszero\n  tag_1\n  jumpi\n  revert(0x00, 0x00)\ntag_1:\n  pop\n  mload(0x40)\n  sub(codesize, bytecodeSize)\n  dup1\n  bytecodeSize\n  dup4\n  codecopy\n  dup2\n  dup2\n  add\n  0x40\n  mstore\n  dup2\n  add\n  swap1\n  tag_2\n  swap2\n  swap1\n  tag_3\n  jump\t// in\ntag_2:\n    /* \"src/KipuBankV2.sol\":5164:5174  msg.sender */\n  caller\n    /* \"@openzeppelin/contracts/access/Ownable.sol\":1297:1298  0 */\n  0x00\n    /* \"@openzeppelin/contracts/access/Ownable.sol\":1273:1299  initialOwner == address(0) */\n  0xffffffffffffffffffffffffffffffffffffffff\n  and\n    /* \"@openzeppelin/contracts/access/Ownable.sol\":1273:1285  initialOwner */\n  dup2\n    /* \"@openzeppelin/contracts/access/Ownable.sol\":1273:1299  initialOwner == address(0) */\n  0xffffffffffffffffffffffffffffffffffffffff\n  and\n  sub\n    /* \"@openzeppelin/contracts/access/Ownable.sol\":1269:1364  if (initialOwner == address(0)) {... */\n  tag_7\n  jumpi\n    /* \"@openzeppelin/contracts/access/Ownable.sol\":1350:1351  0 */\n  0x00\n    /* \"@openzeppelin/contracts/access/Ownable.sol\":1322:1353  OwnableInvalidOwner(address(0)) */\n  mload(0x40)\n  0x1e4fbdf700000000000000000000000000000000000000000000000000000000\n  dup2\n  mstore\n  0x04\n  add\n  tag_8\n  swap2\n  swap1\n  tag_9\n  jump\t// in\ntag_8:\n  mload(0x40)\n  dup1\n  swap2\n  sub\n  swap1\n  revert\n    /* \"@openzeppelin/contracts/access/Ownable.sol\":1269:1364  if (initialOwner == address(0)) {... */\ntag_7:\n    /* \"@openzeppelin/contracts/access/Ownable.sol\":1373:1405  _transferOwnership(initialOwner) */\n  tag_10\n    /* \"@openzeppelin/contracts/access/Ownable.sol\":1392:1404  initialOwner */\n  dup2\n    /* \"@openzeppelin/contracts/access/Ownable.sol\":1373:1391  _transferOwnership */\n  shl(0x20, tag_11)\n    /* \"@openzeppelin/contracts/access/Ownable.sol\":1373:1405  _transferOwnership(initialOwner) */\n  0x20\n  shr\n  jump\t// in\ntag_10:\n    /* \"@openzeppelin/contracts/access/Ownable.sol\":1225:1412  constructor(address initialOwner) {... */\n  pop\n    /* \"src/KipuBankV2.sol\":5353:5354  0 */\n  0x00\n    /* \"src/KipuBankV2.sol\":5324:5355  _priceFeedAddress == address(0) */\n  0xffffffffffffffffffffffffffffffffffffffff\n  and\n    /* \"src/KipuBankV2.sol\":5324:5341  _priceFeedAddress */\n  dup4\n    /* \"src/KipuBankV2.sol\":5324:5355  _priceFeedAddress == address(0) */\n  0xffffffffffffffffffffffffffffffffffffffff\n  and\n  eq\n    /* \"src/KipuBankV2.sol\":5324:5390  _priceFeedAddress == address(0) || _usdcTokenAddress == address(0) */\n  dup1\n  tag_13\n  jumpi\n  pop\n    /* \"src/KipuBankV2.sol\":5388:5389  0 */\n  0x00\n    /* \"src/KipuBankV2.sol\":5359:5390  _usdcTokenAddress == address(0) */\n  0xffffffffffffffffffffffffffffffffffffffff\n  and\n    /* \"src/KipuBankV2.sol\":5359:5376  _usdcTokenAddress */\n  dup3\n    /* \"src/KipuBankV2.sol\":5359:5390  _usdcTokenAddress == address(0) */\n  0xffffffffffffffffffffffffffffffffffffffff\n  and\n  eq\n    /* \"src/KipuBankV2.sol\":5324:5390  _priceFeedAddress == address(0) || _usdcTokenAddress == address(0) */\ntag_13:\n    /* \"src/KipuBankV2.sol\":5320:5442  if (_priceFeedAddress == address(0) || _usdcTokenAddress == address(0)) {... */\n  iszero\n  tag_14\n  jumpi\n    /* \"src/KipuBankV2.sol\":5414:5430  InvalidAddress() */\n  mload(0x40)\n  0xe6c4247b00000000000000000000000000000000000000000000000000000000\n  dup2\n  mstore\n  0x04\n  add\n  mload(0x40)\n  dup1\n  swap2\n  sub\n  swap1\n  revert\n    /* \"src/KipuBankV2.sol\":5320:5442  if (_priceFeedAddress == address(0) || _usdcTokenAddress == address(0)) {... */\ntag_14:\n    /* \"src/KipuBankV2.sol\":5650:5667  _priceFeedAddress */\n  dup3\n    /* \"src/KipuBankV2.sol\":5616:5625  priceFeed */\n  0x01\n  0x00\n    /* \"src/KipuBankV2.sol\":5616:5668  priceFeed = AggregatorV3Interface(_priceFeedAddress) */\n  0x0100\n  exp\n  dup2\n  sload\n  dup2\n  0xffffffffffffffffffffffffffffffffffffffff\n  mul\n  not\n  and\n  swap1\n  dup4\n  0xffffffffffffffffffffffffffffffffffffffff\n  and\n  mul\n  or\n  swap1\n  sstore\n  pop\n    /* \"src/KipuBankV2.sol\":5840:5857  _usdcTokenAddress */\n  dup2\n    /* \"src/KipuBankV2.sol\":5826:5858  USDC = IERC20(_usdcTokenAddress) */\n  0xffffffffffffffffffffffffffffffffffffffff\n  and\n  0xa0\n  dup2\n  0xffffffffffffffffffffffffffffffffffffffff\n  and\n  dup2\n  mstore\n  pop\n  pop\n    /* \"src/KipuBankV2.sol\":6071:6076  10**8 */\n  0x05f5e100\n    /* \"src/KipuBankV2.sol\":6056:6067  _bankCapUSD */\n  dup2\n    /* \"src/KipuBankV2.sol\":6056:6077  _bankCapUSD * (10**8) */\n  tag_15\n  swap2\n  swap1\n  tag_16\n  jump\t// in\ntag_15:\n    /* \"src/KipuBankV2.sol\":6041:6077  BANK_CAP_USD = _bankCapUSD * (10**8) */\n  0x80\n  dup2\n  dup2\n  mstore\n  pop\n  pop\n    /* \"src/KipuBankV2.sol\":4848:6085  constructor(... */\n  pop\n  pop\n  pop\n    /* \"src/KipuBankV2.sol\":600:11029  contract KipuBankV2 is Ownable {... */\n  jump(tag_17)\n    /* \"@openzeppelin/contracts/access/Ownable.sol\":2912:3099  function _transferOwnership(address newOwner) internal virtual {... */\ntag_11:\n    /* \"@openzeppelin/contracts/access/Ownable.sol\":2985:3001  address oldOwner */\n  0x00\n    /* \"@openzeppelin/contracts/access/Ownable.sol\":3004:3010  _owner */\n  0x00\n  0x00\n  swap1\n  sload\n  swap1\n  0x0100\n  exp\n  swap1\n  div\n  0xffffffffffffffffffffffffffffffffffffffff\n  and\n    /* \"@openzeppelin/contracts/access/Ownable.sol\":2985:3010  address oldOwner = _owner */\n  swap1\n  pop\n    /* \"@openzeppelin/contracts/access/Ownable.sol\":3029:3037  newOwner */\n  dup2\n    /* \"@openzeppelin/contracts/access/Ownable.sol\":3020:3026  _owner */\n  0x00\n  0x00\n    /* \"@openzeppelin/contracts/access/Ownable.sol\":3020:3037  _owner = newOwner */\n  0x0100\n  exp\n  dup2\n  sload\n  dup2\n  0xffffffffffffffffffffffffffffffffffffffff\n  mul\n  not\n  and\n  swap1\n  dup4\n  0xffffffffffffffffffffffffffffffffffffffff\n  and\n  mul\n  or\n  swap1\n  sstore\n  pop\n    /* \"@openzeppelin/contracts/access/Ownable.sol\":3083:3091  newOwner */\n  dup2\n    /* \"@openzeppelin/contracts/access/Ownable.sol\":3052:3092  OwnershipTransferred(oldOwner, newOwner) */\n  0xffffffffffffffffffffffffffffffffffffffff\n  and\n    /* \"@openzeppelin/contracts/access/Ownable.sol\":3073:3081  oldOwner */\n  dup2\n    /* \"@openzeppelin/contracts/access/Ownable.sol\":3052:3092  OwnershipTransferred(oldOwner, newOwner) */\n  0xffffffffffffffffffffffffffffffffffffffff\n  and\n  0x8be0079c531659141344cd1fd0a4f28419497f9722a3daafe3b4186f6b6457e0\n  mload(0x40)\n  mload(0x40)\n  dup1\n  swap2\n  sub\n  swap1\n  log3\n    /* \"@openzeppelin/contracts/access/Ownable.sol\":2975:3099  {... */\n  pop\n    /* \"@openzeppelin/contracts/access/Ownable.sol\":2912:3099  function _transferOwnership(address newOwner) internal virtual {... */\n  pop\n  jump\t// out\n    /* \"#utility.yul\":88:205   */\ntag_20:\n    /* \"#utility.yul\":197:198   */\n  0x00\n    /* \"#utility.yul\":194:195   */\n  0x00\n    /* \"#utility.yul\":187:199   */\n  revert\n    /* \"#utility.yul\":334:460   */\ntag_22:\n    /* \"#utility.yul\":371:378   */\n  0x00\n    /* \"#utility.yul\":411:453   */\n  0xffffffffffffffffffffffffffffffffffffffff\n    /* \"#utility.yul\":404:409   */\n  dup3\n    /* \"#utility.yul\":400:454   */\n  and\n    /* \"#utility.yul\":389:454   */\n  swap1\n  pop\n    /* \"#utility.yul\":334:460   */\n  swap2\n  swap1\n  pop\n  jump\t// out\n    /* \"#utility.yul\":466:562   */\ntag_23:\n    /* \"#utility.yul\":503:510   */\n  0x00\n    /* \"#utility.yul\":532:556   */\n  tag_37\n    /* \"#utility.yul\":550:555   */\n  dup3\n    /* \"#utility.yul\":532:556   */\n  tag_22\n  jump\t// in\ntag_37:\n    /* \"#utility.yul\":521:556   */\n  swap1\n  pop\n    /* \"#utility.yul\":466:562   */\n  swap2\n  swap1\n  pop\n  jump\t// out\n    /* \"#utility.yul\":568:690   */\ntag_24:\n    /* \"#utility.yul\":641:665   */\n  tag_39\n    /* \"#utility.yul\":659:664   */\n  dup2\n    /* \"#utility.yul\":641:665   */\n  tag_23\n  jump\t// in\ntag_39:\n    /* \"#utility.yul\":634:639   */\n  dup2\n    /* \"#utility.yul\":631:666   */\n  eq\n    /* \"#utility.yul\":621:684   */\n  tag_40\n  jumpi\n    /* \"#utility.yul\":680:681   */\n  0x00\n    /* \"#utility.yul\":677:678   */\n  0x00\n    /* \"#utility.yul\":670:682   */\n  revert\n    /* \"#utility.yul\":621:684   */\ntag_40:\n    /* \"#utility.yul\":568:690   */\n  pop\n  jump\t// out\n    /* \"#utility.yul\":696:839   */\ntag_25:\n    /* \"#utility.yul\":753:758   */\n  0x00\n    /* \"#utility.yul\":784:790   */\n  dup2\n    /* \"#utility.yul\":778:791   */\n  mload\n    /* \"#utility.yul\":769:791   */\n  swap1\n  pop\n    /* \"#utility.yul\":800:833   */\n  tag_42\n    /* \"#utility.yul\":827:832   */\n  dup2\n    /* \"#utility.yul\":800:833   */\n  tag_24\n  jump\t// in\ntag_42:\n    /* \"#utility.yul\":696:839   */\n  swap3\n  swap2\n  pop\n  pop\n  jump\t// out\n    /* \"#utility.yul\":845:922   */\ntag_26:\n    /* \"#utility.yul\":882:889   */\n  0x00\n    /* \"#utility.yul\":911:916   */\n  dup2\n    /* \"#utility.yul\":900:916   */\n  swap1\n  pop\n    /* \"#utility.yul\":845:922   */\n  swap2\n  swap1\n  pop\n  jump\t// out\n    /* \"#utility.yul\":928:1050   */\ntag_27:\n    /* \"#utility.yul\":1001:1025   */\n  tag_45\n    /* \"#utility.yul\":1019:1024   */\n  dup2\n    /* \"#utility.yul\":1001:1025   */\n  tag_26\n  jump\t// in\ntag_45:\n    /* \"#utility.yul\":994:999   */\n  dup2\n    /* \"#utility.yul\":991:1026   */\n  eq\n    /* \"#utility.yul\":981:1044   */\n  tag_46\n  jumpi\n    /* \"#utility.yul\":1040:1041   */\n  0x00\n    /* \"#utility.yul\":1037:1038   */\n  0x00\n    /* \"#utility.yul\":1030:1042   */\n  revert\n    /* \"#utility.yul\":981:1044   */\ntag_46:\n    /* \"#utility.yul\":928:1050   */\n  pop\n  jump\t// out\n    /* \"#utility.yul\":1056:1199   */\ntag_28:\n    /* \"#utility.yul\":1113:1118   */\n  0x00\n    /* \"#utility.yul\":1144:1150   */\n  dup2\n    /* \"#utility.yul\":1138:1151   */\n  mload\n    /* \"#utility.yul\":1129:1151   */\n  swap1\n  pop\n    /* \"#utility.yul\":1160:1193   */\n  tag_48\n    /* \"#utility.yul\":1187:1192   */\n  dup2\n    /* \"#utility.yul\":1160:1193   */\n  tag_27\n  jump\t// in\ntag_48:\n    /* \"#utility.yul\":1056:1199   */\n  swap3\n  swap2\n  pop\n  pop\n  jump\t// out\n    /* \"#utility.yul\":1205:1868   */\ntag_3:\n    /* \"#utility.yul\":1293:1299   */\n  0x00\n    /* \"#utility.yul\":1301:1307   */\n  0x00\n    /* \"#utility.yul\":1309:1315   */\n  0x00\n    /* \"#utility.yul\":1358:1360   */\n  0x60\n    /* \"#utility.yul\":1346:1355   */\n  dup5\n    /* \"#utility.yul\":1337:1344   */\n  dup7\n    /* \"#utility.yul\":1333:1356   */\n  sub\n    /* \"#utility.yul\":1329:1361   */\n  slt\n    /* \"#utility.yul\":1326:1445   */\n  iszero\n  tag_50\n  jumpi\n    /* \"#utility.yul\":1364:1443   */\n  tag_51\n  tag_20\n  jump\t// in\ntag_51:\n    /* \"#utility.yul\":1326:1445   */\ntag_50:\n    /* \"#utility.yul\":1484:1485   */\n  0x00\n    /* \"#utility.yul\":1509:1573   */\n  tag_52\n    /* \"#utility.yul\":1565:1572   */\n  dup7\n    /* \"#utility.yul\":1556:1562   */\n  dup3\n    /* \"#utility.yul\":1545:1554   */\n  dup8\n    /* \"#utility.yul\":1541:1563   */\n  add\n    /* \"#utility.yul\":1509:1573   */\n  tag_25\n  jump\t// in\ntag_52:\n    /* \"#utility.yul\":1499:1573   */\n  swap4\n  pop\n    /* \"#utility.yul\":1455:1583   */\n  pop\n    /* \"#utility.yul\":1622:1624   */\n  0x20\n    /* \"#utility.yul\":1648:1712   */\n  tag_53\n    /* \"#utility.yul\":1704:1711   */\n  dup7\n    /* \"#utility.yul\":1695:1701   */\n  dup3\n    /* \"#utility.yul\":1684:1693   */\n  dup8\n    /* \"#utility.yul\":1680:1702   */\n  add\n    /* \"#utility.yul\":1648:1712   */\n  tag_25\n  jump\t// in\ntag_53:\n    /* \"#utility.yul\":1638:1712   */\n  swap3\n  pop\n    /* \"#utility.yul\":1593:1722   */\n  pop\n    /* \"#utility.yul\":1761:1763   */\n  0x40\n    /* \"#utility.yul\":1787:1851   */\n  tag_54\n    /* \"#utility.yul\":1843:1850   */\n  dup7\n    /* \"#utility.yul\":1834:1840   */\n  dup3\n    /* \"#utility.yul\":1823:1832   */\n  dup8\n    /* \"#utility.yul\":1819:1841   */\n  add\n    /* \"#utility.yul\":1787:1851   */\n  tag_28\n  jump\t// in\ntag_54:\n    /* \"#utility.yul\":1777:1851   */\n  swap2\n  pop\n    /* \"#utility.yul\":1732:1861   */\n  pop\n    /* \"#utility.yul\":1205:1868   */\n  swap3\n  pop\n  swap3\n  pop\n  swap3\n  jump\t// out\n    /* \"#utility.yul\":1874:1992   */\ntag_29:\n    /* \"#utility.yul\":1961:1985   */\n  tag_56\n    /* \"#utility.yul\":1979:1984   */\n  dup2\n    /* \"#utility.yul\":1961:1985   */\n  tag_23\n  jump\t// in\ntag_56:\n    /* \"#utility.yul\":1956:1959   */\n  dup3\n    /* \"#utility.yul\":1949:1986   */\n  mstore\n    /* \"#utility.yul\":1874:1992   */\n  pop\n  pop\n  jump\t// out\n    /* \"#utility.yul\":1998:2220   */\ntag_9:\n    /* \"#utility.yul\":2091:2095   */\n  0x00\n    /* \"#utility.yul\":2129:2131   */\n  0x20\n    /* \"#utility.yul\":2118:2127   */\n  dup3\n    /* \"#utility.yul\":2114:2132   */\n  add\n    /* \"#utility.yul\":2106:2132   */\n  swap1\n  pop\n    /* \"#utility.yul\":2142:2213   */\n  tag_58\n    /* \"#utility.yul\":2210:2211   */\n  0x00\n    /* \"#utility.yul\":2199:2208   */\n  dup4\n    /* \"#utility.yul\":2195:2212   */\n  add\n    /* \"#utility.yul\":2186:2192   */\n  dup5\n    /* \"#utility.yul\":2142:2213   */\n  tag_29\n  jump\t// in\ntag_58:\n    /* \"#utility.yul\":1998:2220   */\n  swap3\n  swap2\n  pop\n  pop\n  jump\t// out\n    /* \"#utility.yul\":2226:2406   */\ntag_30:\n    /* \"#utility.yul\":2274:2351   */\n  0x4e487b7100000000000000000000000000000000000000000000000000000000\n    /* \"#utility.yul\":2271:2272   */\n  0x00\n    /* \"#utility.yul\":2264:2352   */\n  mstore\n    /* \"#utility.yul\":2371:2375   */\n  0x11\n    /* \"#utility.yul\":2368:2369   */\n  0x04\n    /* \"#utility.yul\":2361:2376   */\n  mstore\n    /* \"#utility.yul\":2395:2399   */\n  0x24\n    /* \"#utility.yul\":2392:2393   */\n  0x00\n    /* \"#utility.yul\":2385:2400   */\n  revert\n    /* \"#utility.yul\":2412:2822   */\ntag_16:\n    /* \"#utility.yul\":2452:2459   */\n  0x00\n    /* \"#utility.yul\":2475:2495   */\n  tag_61\n    /* \"#utility.yul\":2493:2494   */\n  dup3\n    /* \"#utility.yul\":2475:2495   */\n  tag_26\n  jump\t// in\ntag_61:\n    /* \"#utility.yul\":2470:2495   */\n  swap2\n  pop\n    /* \"#utility.yul\":2509:2529   */\n  tag_62\n    /* \"#utility.yul\":2527:2528   */\n  dup4\n    /* \"#utility.yul\":2509:2529   */\n  tag_26\n  jump\t// in\ntag_62:\n    /* \"#utility.yul\":2504:2529   */\n  swap3\n  pop\n    /* \"#utility.yul\":2564:2565   */\n  dup3\n    /* \"#utility.yul\":2561:2562   */\n  dup3\n    /* \"#utility.yul\":2557:2566   */\n  mul\n    /* \"#utility.yul\":2586:2616   */\n  tag_63\n    /* \"#utility.yul\":2604:2615   */\n  dup2\n    /* \"#utility.yul\":2586:2616   */\n  tag_26\n  jump\t// in\ntag_63:\n    /* \"#utility.yul\":2575:2616   */\n  swap2\n  pop\n    /* \"#utility.yul\":2765:2766   */\n  dup3\n    /* \"#utility.yul\":2756:2763   */\n  dup3\n    /* \"#utility.yul\":2752:2767   */\n  div\n    /* \"#utility.yul\":2749:2750   */\n  dup5\n    /* \"#utility.yul\":2746:2768   */\n  eq\n    /* \"#utility.yul\":2726:2727   */\n  dup4\n    /* \"#utility.yul\":2719:2728   */\n  iszero\n    /* \"#utility.yul\":2699:2782   */\n  or\n    /* \"#utility.yul\":2676:2815   */\n  tag_64\n  jumpi\n    /* \"#utility.yul\":2795:2813   */\n  tag_65\n  tag_30\n  jump\t// in\ntag_65:\n    /* \"#utility.yul\":2676:2815   */\ntag_64:\n    /* \"#utility.yul\":2460:2822   */\n  pop\n    /* \"#utility.yul\":2412:2822   */\n  swap3\n  swap2\n  pop\n  pop\n  jump\t// out\n    /* \"src/KipuBankV2.sol\":600:11029  contract KipuBankV2 is Ownable {... */\ntag_17:\n  mload(0x80)\n  mload(0xa0)\n  codecopy(0x00, dataOffset(sub_0), dataSize(sub_0))\n  0x00\n  assignImmutable(\"0x7a54ea38c6e84582f8d39074db7876849c2b4a6a0d270a38f071e30cc74a8c79\")\n  0x00\n  assignImmutable(\"0xe76c7ee1d73589725b75d3ca20e963b98e9bae2cd15496ea9ee5b3513a66f6de\")\n  return(0x00, dataSize(sub_0))\nstop\n\nsub_0: assembly {\n        /* \"src/KipuBankV2.sol\":600:11029  contract KipuBankV2 is Ownable {... */\n      mstore(0x40, 0x80)\n      jumpi(tag_1, lt(calldatasize, 0x04))\n      shr(0xe0, calldataload(0x00))\n      dup1\n      0x89a30271\n      gt\n      tag_16\n      jumpi\n      dup1\n      0xc84aae17\n      gt\n      tag_17\n      jumpi\n      dup1\n      0xc84aae17\n      eq\n      tag_12\n      jumpi\n      dup1\n      0xeae6754a\n      eq\n      tag_13\n      jumpi\n      dup1\n      0xf2fde38b\n      eq\n      tag_14\n      jumpi\n      dup1\n      0xf688bcfb\n      eq\n      tag_15\n      jumpi\n      jump(tag_1)\n    tag_17:\n      dup1\n      0x89a30271\n      eq\n      tag_9\n      jumpi\n      dup1\n      0x8da5cb5b\n      eq\n      tag_10\n      jumpi\n      dup1\n      0x9b900405\n      eq\n      tag_11\n      jumpi\n      jump(tag_1)\n    tag_16:\n      dup1\n      0x6a7bec4f\n      gt\n      tag_18\n      jumpi\n      dup1\n      0x6a7bec4f\n      eq\n      tag_5\n      jumpi\n      dup1\n      0x715018a6\n      eq\n      tag_6\n      jumpi\n      dup1\n      0x741bef1a\n      eq\n      tag_7\n      jumpi\n      dup1\n      0x893b7e95\n      eq\n      tag_8\n      jumpi\n      jump(tag_1)\n    tag_18:\n      dup1\n      0x1edc8f03\n      eq\n      tag_2\n      jumpi\n      dup1\n      0x27e235e3\n      eq\n      tag_3\n      jumpi\n      dup1\n      0x439370b1\n      eq\n      tag_4\n      jumpi\n    tag_1:\n      revert(0x00, 0x00)\n        /* \"src/KipuBankV2.sol\":8231:8777  function withdrawalEth(uint256 _amount) external nonReentrant nonZeroAmount(_amount) {... */\n    tag_2:\n      callvalue\n      dup1\n      iszero\n      tag_19\n      jumpi\n      revert(0x00, 0x00)\n    tag_19:\n      pop\n      tag_20\n      0x04\n      dup1\n      calldatasize\n      sub\n      dup2\n      add\n      swap1\n      tag_21\n      swap2\n      swap1\n      tag_22\n      jump\t// in\n    tag_21:\n      tag_23\n      jump\t// in\n    tag_20:\n      stop\n        /* \"src/KipuBankV2.sol\":1817:1862  mapping (address => Balances) public balances */\n    tag_3:\n      callvalue\n      dup1\n      iszero\n      tag_24\n      jumpi\n      revert(0x00, 0x00)\n    tag_24:\n      pop\n      tag_25\n      0x04\n      dup1\n      calldatasize\n      sub\n      dup2\n      add\n      swap1\n      tag_26\n      swap2\n      swap1\n      tag_27\n      jump\t// in\n    tag_26:\n      tag_28\n      jump\t// in\n    tag_25:\n      mload(0x40)\n      tag_29\n      swap3\n      swap2\n      swap1\n      tag_30\n      jump\t// in\n    tag_29:\n      mload(0x40)\n      dup1\n      swap2\n      sub\n      swap1\n      return\n        /* \"src/KipuBankV2.sol\":6643:7512  function depositEth() external payable nonZeroAmount(msg.value) {... */\n    tag_4:\n      tag_31\n      tag_32\n      jump\t// in\n    tag_31:\n      stop\n        /* \"src/KipuBankV2.sol\":9816:10254  function getEthValueInUSD(uint256 _ethAmount) public view returns (uint256) {... */\n    tag_5:\n      callvalue\n      dup1\n      iszero\n      tag_33\n      jumpi\n      revert(0x00, 0x00)\n    tag_33:\n      pop\n      tag_34\n      0x04\n      dup1\n      calldatasize\n      sub\n      dup2\n      add\n      swap1\n      tag_35\n      swap2\n      swap1\n      tag_22\n      jump\t// in\n    tag_35:\n      tag_36\n      jump\t// in\n    tag_34:\n      mload(0x40)\n      tag_37\n      swap2\n      swap1\n      tag_38\n      jump\t// in\n    tag_37:\n      mload(0x40)\n      dup1\n      swap2\n      sub\n      swap1\n      return\n        /* \"@openzeppelin/contracts/access/Ownable.sol\":2293:2394  function renounceOwnership() public virtual onlyOwner {... */\n    tag_6:\n      callvalue\n      dup1\n      iszero\n      tag_39\n      jumpi\n      revert(0x00, 0x00)\n    tag_39:\n      pop\n      tag_40\n      tag_41\n      jump\t// in\n    tag_40:\n      stop\n        /* \"src/KipuBankV2.sol\":1220:1258  AggregatorV3Interface public priceFeed */\n    tag_7:\n      callvalue\n      dup1\n      iszero\n      tag_42\n      jumpi\n      revert(0x00, 0x00)\n    tag_42:\n      pop\n      tag_43\n      tag_44\n      jump\t// in\n    tag_43:\n      mload(0x40)\n      tag_45\n      swap2\n      swap1\n      tag_46\n      jump\t// in\n    tag_45:\n      mload(0x40)\n      dup1\n      swap2\n      sub\n      swap1\n      return\n        /* \"src/KipuBankV2.sol\":1174:1211  uint256 public immutable BANK_CAP_USD */\n    tag_8:\n      callvalue\n      dup1\n      iszero\n      tag_47\n      jumpi\n      revert(0x00, 0x00)\n    tag_47:\n      pop\n      tag_48\n      tag_49\n      jump\t// in\n    tag_48:\n      mload(0x40)\n      tag_50\n      swap2\n      swap1\n      tag_38\n      jump\t// in\n    tag_50:\n      mload(0x40)\n      dup1\n      swap2\n      sub\n      swap1\n      return\n        /* \"src/KipuBankV2.sol\":1265:1293  IERC20 public immutable USDC */\n    tag_9:\n      callvalue\n      dup1\n      iszero\n      tag_51\n      jumpi\n      revert(0x00, 0x00)\n    tag_51:\n      pop\n      tag_52\n      tag_53\n      jump\t// in\n    tag_52:\n      mload(0x40)\n      tag_54\n      swap2\n      swap1\n      tag_55\n      jump\t// in\n    tag_54:\n      mload(0x40)\n      dup1\n      swap2\n      sub\n      swap1\n      return\n        /* \"@openzeppelin/contracts/access/Ownable.sol\":1638:1723  function owner() public view virtual returns (address) {... */\n    tag_10:\n      callvalue\n      dup1\n      iszero\n      tag_56\n      jumpi\n      revert(0x00, 0x00)\n    tag_56:\n      pop\n      tag_57\n      tag_58\n      jump\t// in\n    tag_57:\n      mload(0x40)\n      tag_59\n      swap2\n      swap1\n      tag_60\n      jump\t// in\n    tag_59:\n      mload(0x40)\n      dup1\n      swap2\n      sub\n      swap1\n      return\n        /* \"src/KipuBankV2.sol\":8789:9290  function withdrawalUSDC(uint256 _amount) external nonReentrant nonZeroAmount(_amount) {... */\n    tag_11:\n      callvalue\n      dup1\n      iszero\n      tag_61\n      jumpi\n      revert(0x00, 0x00)\n    tag_61:\n      pop\n      tag_62\n      0x04\n      dup1\n      calldatasize\n      sub\n      dup2\n      add\n      swap1\n      tag_63\n      swap2\n      swap1\n      tag_22\n      jump\t// in\n    tag_63:\n      tag_64\n      jump\t// in\n    tag_62:\n      stop\n        /* \"src/KipuBankV2.sol\":9473:9590  function getBalances(address _user) external view returns (Balances memory) {... */\n    tag_12:\n      callvalue\n      dup1\n      iszero\n      tag_65\n      jumpi\n      revert(0x00, 0x00)\n    tag_65:\n      pop\n      tag_66\n      0x04\n      dup1\n      calldatasize\n      sub\n      dup2\n      add\n      swap1\n      tag_67\n      swap2\n      swap1\n      tag_27\n      jump\t// in\n    tag_67:\n      tag_68\n      jump\t// in\n    tag_66:\n      mload(0x40)\n      tag_69\n      swap2\n      swap1\n      tag_70\n      jump\t// in\n    tag_69:\n      mload(0x40)\n      dup1\n      swap2\n      sub\n      swap1\n      return\n        /* \"src/KipuBankV2.sol\":1414:1446  uint256 public totalEthDeposited */\n    tag_13:\n      callvalue\n      dup1\n      iszero\n      tag_71\n      jumpi\n      revert(0x00, 0x00)\n    tag_71:\n      pop\n      tag_72\n      tag_73\n      jump\t// in\n    tag_72:\n      mload(0x40)\n      tag_74\n      swap2\n      swap1\n      tag_38\n      jump\t// in\n    tag_74:\n      mload(0x40)\n      dup1\n      swap2\n      sub\n      swap1\n      return\n        /* \"@openzeppelin/contracts/access/Ownable.sol\":2543:2758  function transferOwnership(address newOwner) public virtual onlyOwner {... */\n    tag_14:\n      callvalue\n      dup1\n      iszero\n      tag_75\n      jumpi\n      revert(0x00, 0x00)\n    tag_75:\n      pop\n      tag_76\n      0x04\n      dup1\n      calldatasize\n      sub\n      dup2\n      add\n      swap1\n      tag_77\n      swap2\n      swap1\n      tag_27\n      jump\t// in\n    tag_77:\n      tag_78\n      jump\t// in\n    tag_76:\n      stop\n        /* \"src/KipuBankV2.sol\":7520:7919  function depositUSDC(uint256 _amount) external nonZeroAmount(_amount) {... */\n    tag_15:\n      callvalue\n      dup1\n      iszero\n      tag_79\n      jumpi\n      revert(0x00, 0x00)\n    tag_79:\n      pop\n      tag_80\n      0x04\n      dup1\n      calldatasize\n      sub\n      dup2\n      add\n      swap1\n      tag_81\n      swap2\n      swap1\n      tag_22\n      jump\t// in\n    tag_81:\n      tag_82\n      jump\t// in\n    tag_80:\n      stop\n        /* \"src/KipuBankV2.sol\":8231:8777  function withdrawalEth(uint256 _amount) external nonReentrant nonZeroAmount(_amount) {... */\n    tag_23:\n        /* \"src/KipuBankV2.sol\":3888:3894  locked */\n      0x03\n      0x00\n      swap1\n      sload\n      swap1\n      0x0100\n      exp\n      swap1\n      div\n      0xff\n      and\n        /* \"src/KipuBankV2.sol\":3884:3918  if (locked) revert ReentrantCall() */\n      iszero\n      tag_84\n      jumpi\n        /* \"src/KipuBankV2.sol\":3903:3918  ReentrantCall() */\n      mload(0x40)\n      0x37ed32e800000000000000000000000000000000000000000000000000000000\n      dup2\n      mstore\n      0x04\n      add\n      mload(0x40)\n      dup1\n      swap2\n      sub\n      swap1\n      revert\n        /* \"src/KipuBankV2.sol\":3884:3918  if (locked) revert ReentrantCall() */\n    tag_84:\n        /* \"src/KipuBankV2.sol\":3938:3942  true */\n      0x01\n        /* \"src/KipuBankV2.sol\":3929:3935  locked */\n      0x03\n      0x00\n        /* \"src/KipuBankV2.sol\":3929:3942  locked = true */\n      0x0100\n      exp\n      dup2\n      sload\n      dup2\n      0xff\n      mul\n      not\n      and\n      swap1\n      dup4\n      iszero\n      iszero\n      mul\n      or\n      swap1\n      sstore\n      pop\n        /* \"src/KipuBankV2.sol\":8307:8314  _amount */\n      dup1\n        /* \"src/KipuBankV2.sol\":4175:4176  0 */\n      0x00\n        /* \"src/KipuBankV2.sol\":4164:4171  _amount */\n      dup2\n        /* \"src/KipuBankV2.sol\":4164:4176  _amount == 0 */\n      sub\n        /* \"src/KipuBankV2.sol\":4160:4200  if (_amount == 0) revert InvalidAmount() */\n      tag_86\n      jumpi\n        /* \"src/KipuBankV2.sol\":4185:4200  InvalidAmount() */\n      mload(0x40)\n      0x2c5211c600000000000000000000000000000000000000000000000000000000\n      dup2\n      mstore\n      0x04\n      add\n      mload(0x40)\n      dup1\n      swap2\n      sub\n      swap1\n      revert\n        /* \"src/KipuBankV2.sol\":4160:4200  if (_amount == 0) revert InvalidAmount() */\n    tag_86:\n        /* \"src/KipuBankV2.sol\":8356:8375  uint256 userBalance */\n      0x00\n        /* \"src/KipuBankV2.sol\":8378:8386  balances */\n      0x04\n        /* \"src/KipuBankV2.sol\":8378:8398  balances[msg.sender] */\n      0x00\n        /* \"src/KipuBankV2.sol\":8387:8397  msg.sender */\n      caller\n        /* \"src/KipuBankV2.sol\":8378:8398  balances[msg.sender] */\n      0xffffffffffffffffffffffffffffffffffffffff\n      and\n      0xffffffffffffffffffffffffffffffffffffffff\n      and\n      dup2\n      mstore\n      0x20\n      add\n      swap1\n      dup2\n      mstore\n      0x20\n      add\n      0x00\n      keccak256\n        /* \"src/KipuBankV2.sol\":8378:8402  balances[msg.sender].eth */\n      0x00\n      add\n      sload\n        /* \"src/KipuBankV2.sol\":8356:8402  uint256 userBalance = balances[msg.sender].eth */\n      swap1\n      pop\n        /* \"src/KipuBankV2.sol\":8458:8469  userBalance */\n      dup1\n        /* \"src/KipuBankV2.sol\":8448:8455  _amount */\n      dup4\n        /* \"src/KipuBankV2.sol\":8448:8469  _amount > userBalance */\n      gt\n        /* \"src/KipuBankV2.sol\":8444:8499  if (_amount > userBalance) revert InsufficientBalance() */\n      iszero\n      tag_88\n      jumpi\n        /* \"src/KipuBankV2.sol\":8478:8499  InsufficientBalance() */\n      mload(0x40)\n      0xf4d678b800000000000000000000000000000000000000000000000000000000\n      dup2\n      mstore\n      0x04\n      add\n      mload(0x40)\n      dup1\n      swap2\n      sub\n      swap1\n      revert\n        /* \"src/KipuBankV2.sol\":8444:8499  if (_amount > userBalance) revert InsufficientBalance() */\n    tag_88:\n        /* \"src/KipuBankV2.sol\":8581:8588  _amount */\n      dup3\n        /* \"src/KipuBankV2.sol\":8567:8578  userBalance */\n      dup2\n        /* \"src/KipuBankV2.sol\":8567:8588  userBalance - _amount */\n      tag_89\n      swap2\n      swap1\n      tag_90\n      jump\t// in\n    tag_89:\n        /* \"src/KipuBankV2.sol\":8540:8548  balances */\n      0x04\n        /* \"src/KipuBankV2.sol\":8540:8560  balances[msg.sender] */\n      0x00\n        /* \"src/KipuBankV2.sol\":8549:8559  msg.sender */\n      caller\n        /* \"src/KipuBankV2.sol\":8540:8560  balances[msg.sender] */\n      0xffffffffffffffffffffffffffffffffffffffff\n      and\n      0xffffffffffffffffffffffffffffffffffffffff\n      and\n      dup2\n      mstore\n      0x20\n      add\n      swap1\n      dup2\n      mstore\n      0x20\n      add\n      0x00\n      keccak256\n        /* \"src/KipuBankV2.sol\":8540:8564  balances[msg.sender].eth */\n      0x00\n      add\n        /* \"src/KipuBankV2.sol\":8540:8588  balances[msg.sender].eth = userBalance - _amount */\n      dup2\n      swap1\n      sstore\n      pop\n        /* \"src/KipuBankV2.sol\":8620:8627  _amount */\n      dup3\n        /* \"src/KipuBankV2.sol\":8599:8616  totalEthDeposited */\n      0x02\n      0x00\n        /* \"src/KipuBankV2.sol\":8599:8627  totalEthDeposited -= _amount */\n      dup3\n      dup3\n      sload\n      tag_91\n      swap2\n      swap1\n      tag_90\n      jump\t// in\n    tag_91:\n      swap3\n      pop\n      pop\n      dup2\n      swap1\n      sstore\n      pop\n        /* \"src/KipuBankV2.sol\":8672:8714  _transferEth(payable(msg.sender), _amount) */\n      tag_92\n        /* \"src/KipuBankV2.sol\":8693:8703  msg.sender */\n      caller\n        /* \"src/KipuBankV2.sol\":8706:8713  _amount */\n      dup5\n        /* \"src/KipuBankV2.sol\":8672:8684  _transferEth */\n      tag_93\n        /* \"src/KipuBankV2.sol\":8672:8714  _transferEth(payable(msg.sender), _amount) */\n      jump\t// in\n    tag_92:\n        /* \"src/KipuBankV2.sol\":8732:8769  Withdrawal(msg.sender,\"ETH\", _amount) */\n      mload(0x40)\n      tag_94\n      swap1\n      tag_95\n      jump\t// in\n    tag_94:\n      mload(0x40)\n      dup1\n      swap2\n      sub\n      swap1\n      keccak256\n        /* \"src/KipuBankV2.sol\":8743:8753  msg.sender */\n      caller\n        /* \"src/KipuBankV2.sol\":8732:8769  Withdrawal(msg.sender,\"ETH\", _amount) */\n      0xffffffffffffffffffffffffffffffffffffffff\n      and\n      0x323cefffcafc4dae937c4a852e3866ecde9e8c1d723e1187230b982201040fb6\n        /* \"src/KipuBankV2.sol\":8761:8768  _amount */\n      dup6\n        /* \"src/KipuBankV2.sol\":8732:8769  Withdrawal(msg.sender,\"ETH\", _amount) */\n      mload(0x40)\n      tag_96\n      swap2\n      swap1\n      tag_38\n      jump\t// in\n    tag_96:\n      mload(0x40)\n      dup1\n      swap2\n      sub\n      swap1\n      log3\n        /* \"src/KipuBankV2.sol\":8316:8777  {... */\n      pop\n        /* \"src/KipuBankV2.sol\":3953:3954  _ */\n      pop\n        /* \"src/KipuBankV2.sol\":3974:3979  false */\n      0x00\n        /* \"src/KipuBankV2.sol\":3965:3971  locked */\n      0x03\n      0x00\n        /* \"src/KipuBankV2.sol\":3965:3979  locked = false */\n      0x0100\n      exp\n      dup2\n      sload\n      dup2\n      0xff\n      mul\n      not\n      and\n      swap1\n      dup4\n      iszero\n      iszero\n      mul\n      or\n      swap1\n      sstore\n      pop\n        /* \"src/KipuBankV2.sol\":8231:8777  function withdrawalEth(uint256 _amount) external nonReentrant nonZeroAmount(_amount) {... */\n      pop\n      jump\t// out\n        /* \"src/KipuBankV2.sol\":1817:1862  mapping (address => Balances) public balances */\n    tag_28:\n      mstore(0x20, 0x04)\n      dup1\n      0x00\n      mstore\n      keccak256(0x00, 0x40)\n      0x00\n      swap2\n      pop\n      swap1\n      pop\n      dup1\n      0x00\n      add\n      sload\n      swap1\n      dup1\n      0x01\n      add\n      sload\n      swap1\n      pop\n      dup3\n      jump\t// out\n        /* \"src/KipuBankV2.sol\":6643:7512  function depositEth() external payable nonZeroAmount(msg.value) {... */\n    tag_32:\n        /* \"src/KipuBankV2.sol\":6696:6705  msg.value */\n      callvalue\n        /* \"src/KipuBankV2.sol\":4175:4176  0 */\n      0x00\n        /* \"src/KipuBankV2.sol\":4164:4171  _amount */\n      dup2\n        /* \"src/KipuBankV2.sol\":4164:4176  _amount == 0 */\n      sub\n        /* \"src/KipuBankV2.sol\":4160:4200  if (_amount == 0) revert InvalidAmount() */\n      tag_98\n      jumpi\n        /* \"src/KipuBankV2.sol\":4185:4200  InvalidAmount() */\n      mload(0x40)\n      0x2c5211c600000000000000000000000000000000000000000000000000000000\n      dup2\n      mstore\n      0x04\n      add\n      mload(0x40)\n      dup1\n      swap2\n      sub\n      swap1\n      revert\n        /* \"src/KipuBankV2.sol\":4160:4200  if (_amount == 0) revert InvalidAmount() */\n    tag_98:\n        /* \"src/KipuBankV2.sol\":6910:6940  uint256 futureTotalEthValueUSD */\n      0x00\n        /* \"src/KipuBankV2.sol\":6943:6990  getEthValueInUSD(totalEthDeposited + msg.value) */\n      tag_100\n        /* \"src/KipuBankV2.sol\":6980:6989  msg.value */\n      callvalue\n        /* \"src/KipuBankV2.sol\":6960:6977  totalEthDeposited */\n      sload(0x02)\n        /* \"src/KipuBankV2.sol\":6960:6989  totalEthDeposited + msg.value */\n      tag_101\n      swap2\n      swap1\n      tag_102\n      jump\t// in\n    tag_101:\n        /* \"src/KipuBankV2.sol\":6943:6959  getEthValueInUSD */\n      tag_36\n        /* \"src/KipuBankV2.sol\":6943:6990  getEthValueInUSD(totalEthDeposited + msg.value) */\n      jump\t// in\n    tag_100:\n        /* \"src/KipuBankV2.sol\":6910:6990  uint256 futureTotalEthValueUSD = getEthValueInUSD(totalEthDeposited + msg.value) */\n      swap1\n      pop\n        /* \"src/KipuBankV2.sol\":7096:7108  BANK_CAP_USD */\n      immutable(\"0xe76c7ee1d73589725b75d3ca20e963b98e9bae2cd15496ea9ee5b3513a66f6de\")\n        /* \"src/KipuBankV2.sol\":7071:7093  futureTotalEthValueUSD */\n      dup2\n        /* \"src/KipuBankV2.sol\":7071:7108  futureTotalEthValueUSD > BANK_CAP_USD */\n      gt\n        /* \"src/KipuBankV2.sol\":7067:7161  if (futureTotalEthValueUSD > BANK_CAP_USD) {... */\n      iszero\n      tag_103\n      jumpi\n        /* \"src/KipuBankV2.sol\":7132:7149  BankCapExceeded() */\n      mload(0x40)\n      0x448f3ca800000000000000000000000000000000000000000000000000000000\n      dup2\n      mstore\n      0x04\n      add\n      mload(0x40)\n      dup1\n      swap2\n      sub\n      swap1\n      revert\n        /* \"src/KipuBankV2.sol\":7067:7161  if (futureTotalEthValueUSD > BANK_CAP_USD) {... */\n    tag_103:\n        /* \"src/KipuBankV2.sol\":7323:7332  msg.value */\n      callvalue\n        /* \"src/KipuBankV2.sol\":7302:7319  totalEthDeposited */\n      0x02\n      0x00\n        /* \"src/KipuBankV2.sol\":7302:7332  totalEthDeposited += msg.value */\n      dup3\n      dup3\n      sload\n      add\n      swap3\n      pop\n      pop\n      dup2\n      swap1\n      sstore\n      pop\n        /* \"src/KipuBankV2.sol\":7382:7391  msg.value */\n      callvalue\n        /* \"src/KipuBankV2.sol\":7354:7362  balances */\n      0x04\n        /* \"src/KipuBankV2.sol\":7354:7374  balances[msg.sender] */\n      0x00\n        /* \"src/KipuBankV2.sol\":7363:7373  msg.sender */\n      caller\n        /* \"src/KipuBankV2.sol\":7354:7374  balances[msg.sender] */\n      0xffffffffffffffffffffffffffffffffffffffff\n      and\n      0xffffffffffffffffffffffffffffffffffffffff\n      and\n      dup2\n      mstore\n      0x20\n      add\n      swap1\n      dup2\n      mstore\n      0x20\n      add\n      0x00\n      keccak256\n        /* \"src/KipuBankV2.sol\":7354:7378  balances[msg.sender].eth */\n      0x00\n      add\n      0x00\n        /* \"src/KipuBankV2.sol\":7354:7391  balances[msg.sender].eth += msg.value */\n      dup3\n      dup3\n      sload\n      tag_104\n      swap2\n      swap1\n      tag_102\n      jump\t// in\n    tag_104:\n      swap3\n      pop\n      pop\n      dup2\n      swap1\n      sstore\n      pop\n        /* \"src/KipuBankV2.sol\":7468:7504  Deposit(msg.sender,\"ETH\", msg.value) */\n      mload(0x40)\n      tag_105\n      swap1\n      tag_95\n      jump\t// in\n    tag_105:\n      mload(0x40)\n      dup1\n      swap2\n      sub\n      swap1\n      keccak256\n        /* \"src/KipuBankV2.sol\":7476:7486  msg.sender */\n      caller\n        /* \"src/KipuBankV2.sol\":7468:7504  Deposit(msg.sender,\"ETH\", msg.value) */\n      0xffffffffffffffffffffffffffffffffffffffff\n      and\n      0x2d4b597935f3cd67fb2eebf1db4debc934cee5c7baa7153f980fdbeb2e74084e\n        /* \"src/KipuBankV2.sol\":7494:7503  msg.value */\n      callvalue\n        /* \"src/KipuBankV2.sol\":7468:7504  Deposit(msg.sender,\"ETH\", msg.value) */\n      mload(0x40)\n      tag_106\n      swap2\n      swap1\n      tag_38\n      jump\t// in\n    tag_106:\n      mload(0x40)\n      dup1\n      swap2\n      sub\n      swap1\n      log3\n        /* \"src/KipuBankV2.sol\":6707:7512  {... */\n      pop\n        /* \"src/KipuBankV2.sol\":6643:7512  function depositEth() external payable nonZeroAmount(msg.value) {... */\n      pop\n      jump\t// out\n        /* \"src/KipuBankV2.sol\":9816:10254  function getEthValueInUSD(uint256 _ethAmount) public view returns (uint256) {... */\n    tag_36:\n        /* \"src/KipuBankV2.sol\":9883:9890  uint256 */\n      0x00\n        /* \"src/KipuBankV2.sol\":9906:9918  int256 price */\n      0x00\n        /* \"src/KipuBankV2.sol\":9928:9937  priceFeed */\n      0x01\n      0x00\n      swap1\n      sload\n      swap1\n      0x0100\n      exp\n      swap1\n      div\n      0xffffffffffffffffffffffffffffffffffffffff\n      and\n        /* \"src/KipuBankV2.sol\":9928:9953  priceFeed.latestRoundData */\n      0xffffffffffffffffffffffffffffffffffffffff\n      and\n      0xfeaf968c\n        /* \"src/KipuBankV2.sol\":9928:9955  priceFeed.latestRoundData() */\n      mload(0x40)\n      dup2\n      0xffffffff\n      and\n      0xe0\n      shl\n      dup2\n      mstore\n      0x04\n      add\n      0xa0\n      mload(0x40)\n      dup1\n      dup4\n      sub\n      dup2\n      dup7\n      gas\n      staticcall\n      iszero\n      dup1\n      iszero\n      tag_109\n      jumpi\n      returndatacopy(0x00, 0x00, returndatasize)\n      revert(0x00, returndatasize)\n    tag_109:\n      pop\n      pop\n      pop\n      pop\n      mload(0x40)\n      returndatasize\n      not(0x1f)\n      0x1f\n      dup3\n      add\n      and\n      dup3\n      add\n      dup1\n      0x40\n      mstore\n      pop\n      dup2\n      add\n      swap1\n      tag_110\n      swap2\n      swap1\n      tag_111\n      jump\t// in\n    tag_110:\n        /* \"src/KipuBankV2.sol\":9903:9955  (, int256 price, , , ) = priceFeed.latestRoundData() */\n      pop\n      pop\n      pop\n      swap2\n      pop\n      pop\n        /* \"src/KipuBankV2.sol\":10240:10246  10**18 */\n      0x0de0b6b3a7640000\n        /* \"src/KipuBankV2.sol\":10226:10236  _ethAmount */\n      dup4\n        /* \"src/KipuBankV2.sol\":10217:10222  price */\n      dup3\n        /* \"src/KipuBankV2.sol\":10209:10236  uint256(price) * _ethAmount */\n      tag_112\n      swap2\n      swap1\n      tag_113\n      jump\t// in\n    tag_112:\n        /* \"src/KipuBankV2.sol\":10208:10246  (uint256(price) * _ethAmount) / 10**18 */\n      tag_114\n      swap2\n      swap1\n      tag_115\n      jump\t// in\n    tag_114:\n        /* \"src/KipuBankV2.sol\":10201:10246  return (uint256(price) * _ethAmount) / 10**18 */\n      swap2\n      pop\n      pop\n        /* \"src/KipuBankV2.sol\":9816:10254  function getEthValueInUSD(uint256 _ethAmount) public view returns (uint256) {... */\n      swap2\n      swap1\n      pop\n      jump\t// out\n        /* \"@openzeppelin/contracts/access/Ownable.sol\":2293:2394  function renounceOwnership() public virtual onlyOwner {... */\n    tag_41:\n        /* \"@openzeppelin/contracts/access/Ownable.sol\":1531:1544  _checkOwner() */\n      tag_117\n        /* \"@openzeppelin/contracts/access/Ownable.sol\":1531:1542  _checkOwner */\n      tag_118\n        /* \"@openzeppelin/contracts/access/Ownable.sol\":1531:1544  _checkOwner() */\n      jump\t// in\n    tag_117:\n        /* \"@openzeppelin/contracts/access/Ownable.sol\":2357:2387  _transferOwnership(address(0)) */\n      tag_120\n        /* \"@openzeppelin/contracts/access/Ownable.sol\":2384:2385  0 */\n      0x00\n        /* \"@openzeppelin/contracts/access/Ownable.sol\":2357:2375  _transferOwnership */\n      tag_121\n        /* \"@openzeppelin/contracts/access/Ownable.sol\":2357:2387  _transferOwnership(address(0)) */\n      jump\t// in\n    tag_120:\n        /* \"@openzeppelin/contracts/access/Ownable.sol\":2293:2394  function renounceOwnership() public virtual onlyOwner {... */\n      jump\t// out\n        /* \"src/KipuBankV2.sol\":1220:1258  AggregatorV3Interface public priceFeed */\n    tag_44:\n      0x01\n      0x00\n      swap1\n      sload\n      swap1\n      0x0100\n      exp\n      swap1\n      div\n      0xffffffffffffffffffffffffffffffffffffffff\n      and\n      dup2\n      jump\t// out\n        /* \"src/KipuBankV2.sol\":1174:1211  uint256 public immutable BANK_CAP_USD */\n    tag_49:\n      immutable(\"0xe76c7ee1d73589725b75d3ca20e963b98e9bae2cd15496ea9ee5b3513a66f6de\")\n      dup2\n      jump\t// out\n        /* \"src/KipuBankV2.sol\":1265:1293  IERC20 public immutable USDC */\n    tag_53:\n      immutable(\"0x7a54ea38c6e84582f8d39074db7876849c2b4a6a0d270a38f071e30cc74a8c79\")\n      dup2\n      jump\t// out\n        /* \"@openzeppelin/contracts/access/Ownable.sol\":1638:1723  function owner() public view virtual returns (address) {... */\n    tag_58:\n        /* \"@openzeppelin/contracts/access/Ownable.sol\":1684:1691  address */\n      0x00\n        /* \"@openzeppelin/contracts/access/Ownable.sol\":1710:1716  _owner */\n      0x00\n      0x00\n      swap1\n      sload\n      swap1\n      0x0100\n      exp\n      swap1\n      div\n      0xffffffffffffffffffffffffffffffffffffffff\n      and\n        /* \"@openzeppelin/contracts/access/Ownable.sol\":1703:1716  return _owner */\n      swap1\n      pop\n        /* \"@openzeppelin/contracts/access/Ownable.sol\":1638:1723  function owner() public view virtual returns (address) {... */\n      swap1\n      jump\t// out\n        /* \"src/KipuBankV2.sol\":8789:9290  function withdrawalUSDC(uint256 _amount) external nonReentrant nonZeroAmount(_amount) {... */\n    tag_64:\n        /* \"src/KipuBankV2.sol\":3888:3894  locked */\n      0x03\n      0x00\n      swap1\n      sload\n      swap1\n      0x0100\n      exp\n      swap1\n      div\n      0xff\n      and\n        /* \"src/KipuBankV2.sol\":3884:3918  if (locked) revert ReentrantCall() */\n      iszero\n      tag_124\n      jumpi\n        /* \"src/KipuBankV2.sol\":3903:3918  ReentrantCall() */\n      mload(0x40)\n      0x37ed32e800000000000000000000000000000000000000000000000000000000\n      dup2\n      mstore\n      0x04\n      add\n      mload(0x40)\n      dup1\n      swap2\n      sub\n      swap1\n      revert\n        /* \"src/KipuBankV2.sol\":3884:3918  if (locked) revert ReentrantCall() */\n    tag_124:\n        /* \"src/KipuBankV2.sol\":3938:3942  true */\n      0x01\n        /* \"src/KipuBankV2.sol\":3929:3935  locked */\n      0x03\n      0x00\n        /* \"src/KipuBankV2.sol\":3929:3942  locked = true */\n      0x0100\n      exp\n      dup2\n      sload\n      dup2\n      0xff\n      mul\n      not\n      and\n      swap1\n      dup4\n      iszero\n      iszero\n      mul\n      or\n      swap1\n      sstore\n      pop\n        /* \"src/KipuBankV2.sol\":8866:8873  _amount */\n      dup1\n        /* \"src/KipuBankV2.sol\":4175:4176  0 */\n      0x00\n        /* \"src/KipuBankV2.sol\":4164:4171  _amount */\n      dup2\n        /* \"src/KipuBankV2.sol\":4164:4176  _amount == 0 */\n      sub\n        /* \"src/KipuBankV2.sol\":4160:4200  if (_amount == 0) revert InvalidAmount() */\n      tag_126\n      jumpi\n        /* \"src/KipuBankV2.sol\":4185:4200  InvalidAmount() */\n      mload(0x40)\n      0x2c5211c600000000000000000000000000000000000000000000000000000000\n      dup2\n      mstore\n      0x04\n      add\n      mload(0x40)\n      dup1\n      swap2\n      sub\n      swap1\n      revert\n        /* \"src/KipuBankV2.sol\":4160:4200  if (_amount == 0) revert InvalidAmount() */\n    tag_126:\n        /* \"src/KipuBankV2.sol\":8886:8905  uint256 userBalance */\n      0x00\n        /* \"src/KipuBankV2.sol\":8908:8916  balances */\n      0x04\n        /* \"src/KipuBankV2.sol\":8908:8928  balances[msg.sender] */\n      0x00\n        /* \"src/KipuBankV2.sol\":8917:8927  msg.sender */\n      caller\n        /* \"src/KipuBankV2.sol\":8908:8928  balances[msg.sender] */\n      0xffffffffffffffffffffffffffffffffffffffff\n      and\n      0xffffffffffffffffffffffffffffffffffffffff\n      and\n      dup2\n      mstore\n      0x20\n      add\n      swap1\n      dup2\n      mstore\n      0x20\n      add\n      0x00\n      keccak256\n        /* \"src/KipuBankV2.sol\":8908:8933  balances[msg.sender].usdc */\n      0x01\n      add\n      sload\n        /* \"src/KipuBankV2.sol\":8886:8933  uint256 userBalance = balances[msg.sender].usdc */\n      swap1\n      pop\n        /* \"src/KipuBankV2.sol\":9018:9029  userBalance */\n      dup1\n        /* \"src/KipuBankV2.sol\":9008:9015  _amount */\n      dup4\n        /* \"src/KipuBankV2.sol\":9008:9029  _amount > userBalance */\n      gt\n        /* \"src/KipuBankV2.sol\":9004:9059  if (_amount > userBalance) revert InsufficientBalance() */\n      iszero\n      tag_128\n      jumpi\n        /* \"src/KipuBankV2.sol\":9038:9059  InsufficientBalance() */\n      mload(0x40)\n      0xf4d678b800000000000000000000000000000000000000000000000000000000\n      dup2\n      mstore\n      0x04\n      add\n      mload(0x40)\n      dup1\n      swap2\n      sub\n      swap1\n      revert\n        /* \"src/KipuBankV2.sol\":9004:9059  if (_amount > userBalance) revert InsufficientBalance() */\n    tag_128:\n        /* \"src/KipuBankV2.sol\":9142:9149  _amount */\n      dup3\n        /* \"src/KipuBankV2.sol\":9128:9139  userBalance */\n      dup2\n        /* \"src/KipuBankV2.sol\":9128:9149  userBalance - _amount */\n      tag_129\n      swap2\n      swap1\n      tag_90\n      jump\t// in\n    tag_129:\n        /* \"src/KipuBankV2.sol\":9100:9108  balances */\n      0x04\n        /* \"src/KipuBankV2.sol\":9100:9120  balances[msg.sender] */\n      0x00\n        /* \"src/KipuBankV2.sol\":9109:9119  msg.sender */\n      caller\n        /* \"src/KipuBankV2.sol\":9100:9120  balances[msg.sender] */\n      0xffffffffffffffffffffffffffffffffffffffff\n      and\n      0xffffffffffffffffffffffffffffffffffffffff\n      and\n      dup2\n      mstore\n      0x20\n      add\n      swap1\n      dup2\n      mstore\n      0x20\n      add\n      0x00\n      keccak256\n        /* \"src/KipuBankV2.sol\":9100:9125  balances[msg.sender].usdc */\n      0x01\n      add\n        /* \"src/KipuBankV2.sol\":9100:9149  balances[msg.sender].usdc = userBalance - _amount */\n      dup2\n      swap1\n      sstore\n      pop\n        /* \"src/KipuBankV2.sol\":9160:9164  USDC */\n      immutable(\"0x7a54ea38c6e84582f8d39074db7876849c2b4a6a0d270a38f071e30cc74a8c79\")\n        /* \"src/KipuBankV2.sol\":9160:9173  USDC.transfer */\n      0xffffffffffffffffffffffffffffffffffffffff\n      and\n      0xa9059cbb\n        /* \"src/KipuBankV2.sol\":9174:9184  msg.sender */\n      caller\n        /* \"src/KipuBankV2.sol\":9186:9193  _amount */\n      dup6\n        /* \"src/KipuBankV2.sol\":9160:9194  USDC.transfer(msg.sender, _amount) */\n      mload(0x40)\n      dup4\n      0xffffffff\n      and\n      0xe0\n      shl\n      dup2\n      mstore\n      0x04\n      add\n      tag_130\n      swap3\n      swap2\n      swap1\n      tag_131\n      jump\t// in\n    tag_130:\n      0x20\n      mload(0x40)\n      dup1\n      dup4\n      sub\n      dup2\n      0x00\n      dup8\n      gas\n      call\n      iszero\n      dup1\n      iszero\n      tag_133\n      jumpi\n      returndatacopy(0x00, 0x00, returndatasize)\n      revert(0x00, returndatasize)\n    tag_133:\n      pop\n      pop\n      pop\n      pop\n      mload(0x40)\n      returndatasize\n      not(0x1f)\n      0x1f\n      dup3\n      add\n      and\n      dup3\n      add\n      dup1\n      0x40\n      mstore\n      pop\n      dup2\n      add\n      swap1\n      tag_134\n      swap2\n      swap1\n      tag_135\n      jump\t// in\n    tag_134:\n      pop\n        /* \"src/KipuBankV2.sol\":9244:9282  Withdrawal(msg.sender,\"USDC\", _amount) */\n      mload(0x40)\n      tag_136\n      swap1\n      tag_137\n      jump\t// in\n    tag_136:\n      mload(0x40)\n      dup1\n      swap2\n      sub\n      swap1\n      keccak256\n        /* \"src/KipuBankV2.sol\":9255:9265  msg.sender */\n      caller\n        /* \"src/KipuBankV2.sol\":9244:9282  Withdrawal(msg.sender,\"USDC\", _amount) */\n      0xffffffffffffffffffffffffffffffffffffffff\n      and\n      0x323cefffcafc4dae937c4a852e3866ecde9e8c1d723e1187230b982201040fb6\n        /* \"src/KipuBankV2.sol\":9274:9281  _amount */\n      dup6\n        /* \"src/KipuBankV2.sol\":9244:9282  Withdrawal(msg.sender,\"USDC\", _amount) */\n      mload(0x40)\n      tag_138\n      swap2\n      swap1\n      tag_38\n      jump\t// in\n    tag_138:\n      mload(0x40)\n      dup1\n      swap2\n      sub\n      swap1\n      log3\n        /* \"src/KipuBankV2.sol\":8875:9290  {... */\n      pop\n        /* \"src/KipuBankV2.sol\":3953:3954  _ */\n      pop\n        /* \"src/KipuBankV2.sol\":3974:3979  false */\n      0x00\n        /* \"src/KipuBankV2.sol\":3965:3971  locked */\n      0x03\n      0x00\n        /* \"src/KipuBankV2.sol\":3965:3979  locked = false */\n      0x0100\n      exp\n      dup2\n      sload\n      dup2\n      0xff\n      mul\n      not\n      and\n      swap1\n      dup4\n      iszero\n      iszero\n      mul\n      or\n      swap1\n      sstore\n      pop\n        /* \"src/KipuBankV2.sol\":8789:9290  function withdrawalUSDC(uint256 _amount) external nonReentrant nonZeroAmount(_amount) {... */\n      pop\n      jump\t// out\n        /* \"src/KipuBankV2.sol\":9473:9590  function getBalances(address _user) external view returns (Balances memory) {... */\n    tag_68:\n        /* \"src/KipuBankV2.sol\":9532:9547  Balances memory */\n      tag_139\n      tag_140\n      jump\t// in\n    tag_139:\n        /* \"src/KipuBankV2.sol\":9567:9575  balances */\n      0x04\n        /* \"src/KipuBankV2.sol\":9567:9582  balances[_user] */\n      0x00\n        /* \"src/KipuBankV2.sol\":9576:9581  _user */\n      dup4\n        /* \"src/KipuBankV2.sol\":9567:9582  balances[_user] */\n      0xffffffffffffffffffffffffffffffffffffffff\n      and\n      0xffffffffffffffffffffffffffffffffffffffff\n      and\n      dup2\n      mstore\n      0x20\n      add\n      swap1\n      dup2\n      mstore\n      0x20\n      add\n      0x00\n      keccak256\n        /* \"src/KipuBankV2.sol\":9560:9582  return balances[_user] */\n      mload(0x40)\n      dup1\n      0x40\n      add\n      0x40\n      mstore\n      swap1\n      dup2\n      0x00\n      dup3\n      add\n      sload\n      dup2\n      mstore\n      0x20\n      add\n      0x01\n      dup3\n      add\n      sload\n      dup2\n      mstore\n      pop\n      pop\n      swap1\n      pop\n        /* \"src/KipuBankV2.sol\":9473:9590  function getBalances(address _user) external view returns (Balances memory) {... */\n      swap2\n      swap1\n      pop\n      jump\t// out\n        /* \"src/KipuBankV2.sol\":1414:1446  uint256 public totalEthDeposited */\n    tag_73:\n      sload(0x02)\n      dup2\n      jump\t// out\n        /* \"@openzeppelin/contracts/access/Ownable.sol\":2543:2758  function transferOwnership(address newOwner) public virtual onlyOwner {... */\n    tag_78:\n        /* \"@openzeppelin/contracts/access/Ownable.sol\":1531:1544  _checkOwner() */\n      tag_143\n        /* \"@openzeppelin/contracts/access/Ownable.sol\":1531:1542  _checkOwner */\n      tag_118\n        /* \"@openzeppelin/contracts/access/Ownable.sol\":1531:1544  _checkOwner() */\n      jump\t// in\n    tag_143:\n        /* \"@openzeppelin/contracts/access/Ownable.sol\":2647:2648  0 */\n      0x00\n        /* \"@openzeppelin/contracts/access/Ownable.sol\":2627:2649  newOwner == address(0) */\n      0xffffffffffffffffffffffffffffffffffffffff\n      and\n        /* \"@openzeppelin/contracts/access/Ownable.sol\":2627:2635  newOwner */\n      dup2\n        /* \"@openzeppelin/contracts/access/Ownable.sol\":2627:2649  newOwner == address(0) */\n      0xffffffffffffffffffffffffffffffffffffffff\n      and\n      sub\n        /* \"@openzeppelin/contracts/access/Ownable.sol\":2623:2714  if (newOwner == address(0)) {... */\n      tag_145\n      jumpi\n        /* \"@openzeppelin/contracts/access/Ownable.sol\":2700:2701  0 */\n      0x00\n        /* \"@openzeppelin/contracts/access/Ownable.sol\":2672:2703  OwnableInvalidOwner(address(0)) */\n      mload(0x40)\n      0x1e4fbdf700000000000000000000000000000000000000000000000000000000\n      dup2\n      mstore\n      0x04\n      add\n      tag_146\n      swap2\n      swap1\n      tag_60\n      jump\t// in\n    tag_146:\n      mload(0x40)\n      dup1\n      swap2\n      sub\n      swap1\n      revert\n        /* \"@openzeppelin/contracts/access/Ownable.sol\":2623:2714  if (newOwner == address(0)) {... */\n    tag_145:\n        /* \"@openzeppelin/contracts/access/Ownable.sol\":2723:2751  _transferOwnership(newOwner) */\n      tag_147\n        /* \"@openzeppelin/contracts/access/Ownable.sol\":2742:2750  newOwner */\n      dup2\n        /* \"@openzeppelin/contracts/access/Ownable.sol\":2723:2741  _transferOwnership */\n      tag_121\n        /* \"@openzeppelin/contracts/access/Ownable.sol\":2723:2751  _transferOwnership(newOwner) */\n      jump\t// in\n    tag_147:\n        /* \"@openzeppelin/contracts/access/Ownable.sol\":2543:2758  function transferOwnership(address newOwner) public virtual onlyOwner {... */\n      pop\n      jump\t// out\n        /* \"src/KipuBankV2.sol\":7520:7919  function depositUSDC(uint256 _amount) external nonZeroAmount(_amount) {... */\n    tag_82:\n        /* \"src/KipuBankV2.sol\":7581:7588  _amount */\n      dup1\n        /* \"src/KipuBankV2.sol\":4175:4176  0 */\n      0x00\n        /* \"src/KipuBankV2.sol\":4164:4171  _amount */\n      dup2\n        /* \"src/KipuBankV2.sol\":4164:4176  _amount == 0 */\n      sub\n        /* \"src/KipuBankV2.sol\":4160:4200  if (_amount == 0) revert InvalidAmount() */\n      tag_149\n      jumpi\n        /* \"src/KipuBankV2.sol\":4185:4200  InvalidAmount() */\n      mload(0x40)\n      0x2c5211c600000000000000000000000000000000000000000000000000000000\n      dup2\n      mstore\n      0x04\n      add\n      mload(0x40)\n      dup1\n      swap2\n      sub\n      swap1\n      revert\n        /* \"src/KipuBankV2.sol\":4160:4200  if (_amount == 0) revert InvalidAmount() */\n    tag_149:\n        /* \"src/KipuBankV2.sol\":7658:7665  _amount */\n      dup2\n        /* \"src/KipuBankV2.sol\":7629:7637  balances */\n      0x04\n        /* \"src/KipuBankV2.sol\":7629:7649  balances[msg.sender] */\n      0x00\n        /* \"src/KipuBankV2.sol\":7638:7648  msg.sender */\n      caller\n        /* \"src/KipuBankV2.sol\":7629:7649  balances[msg.sender] */\n      0xffffffffffffffffffffffffffffffffffffffff\n      and\n      0xffffffffffffffffffffffffffffffffffffffff\n      and\n      dup2\n      mstore\n      0x20\n      add\n      swap1\n      dup2\n      mstore\n      0x20\n      add\n      0x00\n      keccak256\n        /* \"src/KipuBankV2.sol\":7629:7654  balances[msg.sender].usdc */\n      0x01\n      add\n      0x00\n        /* \"src/KipuBankV2.sol\":7629:7665  balances[msg.sender].usdc += _amount */\n      dup3\n      dup3\n      sload\n      tag_151\n      swap2\n      swap1\n      tag_102\n      jump\t// in\n    tag_151:\n      swap3\n      pop\n      pop\n      dup2\n      swap1\n      sstore\n      pop\n        /* \"src/KipuBankV2.sol\":7748:7752  USDC */\n      immutable(\"0x7a54ea38c6e84582f8d39074db7876849c2b4a6a0d270a38f071e30cc74a8c79\")\n        /* \"src/KipuBankV2.sol\":7748:7765  USDC.transferFrom */\n      0xffffffffffffffffffffffffffffffffffffffff\n      and\n      0x23b872dd\n        /* \"src/KipuBankV2.sol\":7766:7776  msg.sender */\n      caller\n        /* \"src/KipuBankV2.sol\":7786:7790  this */\n      address\n        /* \"src/KipuBankV2.sol\":7793:7800  _amount */\n      dup6\n        /* \"src/KipuBankV2.sol\":7748:7801  USDC.transferFrom(msg.sender, address(this), _amount) */\n      mload(0x40)\n      dup5\n      0xffffffff\n      and\n      0xe0\n      shl\n      dup2\n      mstore\n      0x04\n      add\n      tag_152\n      swap4\n      swap3\n      swap2\n      swap1\n      tag_153\n      jump\t// in\n    tag_152:\n      0x20\n      mload(0x40)\n      dup1\n      dup4\n      sub\n      dup2\n      0x00\n      dup8\n      gas\n      call\n      iszero\n      dup1\n      iszero\n      tag_155\n      jumpi\n      returndatacopy(0x00, 0x00, returndatasize)\n      revert(0x00, returndatasize)\n    tag_155:\n      pop\n      pop\n      pop\n      pop\n      mload(0x40)\n      returndatasize\n      not(0x1f)\n      0x1f\n      dup3\n      add\n      and\n      dup3\n      add\n      dup1\n      0x40\n      mstore\n      pop\n      dup2\n      add\n      swap1\n      tag_156\n      swap2\n      swap1\n      tag_135\n      jump\t// in\n    tag_156:\n      pop\n        /* \"src/KipuBankV2.sol\":7876:7911  Deposit(msg.sender,\"USDC\", _amount) */\n      mload(0x40)\n      tag_157\n      swap1\n      tag_137\n      jump\t// in\n    tag_157:\n      mload(0x40)\n      dup1\n      swap2\n      sub\n      swap1\n      keccak256\n        /* \"src/KipuBankV2.sol\":7884:7894  msg.sender */\n      caller\n        /* \"src/KipuBankV2.sol\":7876:7911  Deposit(msg.sender,\"USDC\", _amount) */\n      0xffffffffffffffffffffffffffffffffffffffff\n      and\n      0x2d4b597935f3cd67fb2eebf1db4debc934cee5c7baa7153f980fdbeb2e74084e\n        /* \"src/KipuBankV2.sol\":7903:7910  _amount */\n      dup5\n        /* \"src/KipuBankV2.sol\":7876:7911  Deposit(msg.sender,\"USDC\", _amount) */\n      mload(0x40)\n      tag_158\n      swap2\n      swap1\n      tag_38\n      jump\t// in\n    tag_158:\n      mload(0x40)\n      dup1\n      swap2\n      sub\n      swap1\n      log3\n        /* \"src/KipuBankV2.sol\":7520:7919  function depositUSDC(uint256 _amount) external nonZeroAmount(_amount) {... */\n      pop\n      pop\n      jump\t// out\n        /* \"src/KipuBankV2.sol\":10783:11024  function _transferEth(address payable _to, uint256 _amount) private {... */\n    tag_93:\n        /* \"src/KipuBankV2.sol\":10863:10875  bool success */\n      0x00\n        /* \"src/KipuBankV2.sol\":10877:10899  bytes memory errorData */\n      0x00\n        /* \"src/KipuBankV2.sol\":10903:10906  _to */\n      dup4\n        /* \"src/KipuBankV2.sol\":10903:10911  _to.call */\n      0xffffffffffffffffffffffffffffffffffffffff\n      and\n        /* \"src/KipuBankV2.sol\":10919:10926  _amount */\n      dup4\n        /* \"src/KipuBankV2.sol\":10903:10931  _to.call{value: _amount}(\"\") */\n      mload(0x40)\n      tag_160\n      swap1\n      tag_161\n      jump\t// in\n    tag_160:\n      0x00\n      mload(0x40)\n      dup1\n      dup4\n      sub\n      dup2\n      dup6\n      dup8\n      gas\n      call\n      swap3\n      pop\n      pop\n      pop\n      returndatasize\n      dup1\n      0x00\n      dup2\n      eq\n      tag_164\n      jumpi\n      mload(0x40)\n      swap2\n      pop\n      and(add(returndatasize, 0x3f), not(0x1f))\n      dup3\n      add\n      0x40\n      mstore\n      returndatasize\n      dup3\n      mstore\n      returndatasize\n      0x00\n      0x20\n      dup5\n      add\n      returndatacopy\n      jump(tag_163)\n    tag_164:\n      0x60\n      swap2\n      pop\n    tag_163:\n      pop\n        /* \"src/KipuBankV2.sol\":10862:10931  (bool success, bytes memory errorData) = _to.call{value: _amount}(\"\") */\n      swap2\n      pop\n      swap2\n      pop\n        /* \"src/KipuBankV2.sol\":10947:10954  success */\n      dup2\n        /* \"src/KipuBankV2.sol\":10942:11017  if (!success) {... */\n      tag_165\n      jumpi\n        /* \"src/KipuBankV2.sol\":10995:11004  errorData */\n      dup1\n        /* \"src/KipuBankV2.sol\":10978:11005  WithdrawalFailed(errorData) */\n      mload(0x40)\n      0x49ba945b00000000000000000000000000000000000000000000000000000000\n      dup2\n      mstore\n      0x04\n      add\n      tag_166\n      swap2\n      swap1\n      tag_167\n      jump\t// in\n    tag_166:\n      mload(0x40)\n      dup1\n      swap2\n      sub\n      swap1\n      revert\n        /* \"src/KipuBankV2.sol\":10942:11017  if (!success) {... */\n    tag_165:\n        /* \"src/KipuBankV2.sol\":10851:11024  {... */\n      pop\n      pop\n        /* \"src/KipuBankV2.sol\":10783:11024  function _transferEth(address payable _to, uint256 _amount) private {... */\n      pop\n      pop\n      jump\t// out\n        /* \"@openzeppelin/contracts/access/Ownable.sol\":1796:1958  function _checkOwner() internal view virtual {... */\n    tag_118:\n        /* \"@openzeppelin/contracts/access/Ownable.sol\":1866:1878  _msgSender() */\n      tag_169\n        /* \"@openzeppelin/contracts/access/Ownable.sol\":1866:1876  _msgSender */\n      tag_170\n        /* \"@openzeppelin/contracts/access/Ownable.sol\":1866:1878  _msgSender() */\n      jump\t// in\n    tag_169:\n        /* \"@openzeppelin/contracts/access/Ownable.sol\":1855:1878  owner() != _msgSender() */\n      0xffffffffffffffffffffffffffffffffffffffff\n      and\n        /* \"@openzeppelin/contracts/access/Ownable.sol\":1855:1862  owner() */\n      tag_171\n        /* \"@openzeppelin/contracts/access/Ownable.sol\":1855:1860  owner */\n      tag_58\n        /* \"@openzeppelin/contracts/access/Ownable.sol\":1855:1862  owner() */\n      jump\t// in\n    tag_171:\n        /* \"@openzeppelin/contracts/access/Ownable.sol\":1855:1878  owner() != _msgSender() */\n      0xffffffffffffffffffffffffffffffffffffffff\n      and\n      eq\n        /* \"@openzeppelin/contracts/access/Ownable.sol\":1851:1952  if (owner() != _msgSender()) {... */\n      tag_172\n      jumpi\n        /* \"@openzeppelin/contracts/access/Ownable.sol\":1928:1940  _msgSender() */\n      tag_173\n        /* \"@openzeppelin/contracts/access/Ownable.sol\":1928:1938  _msgSender */\n      tag_170\n        /* \"@openzeppelin/contracts/access/Ownable.sol\":1928:1940  _msgSender() */\n      jump\t// in\n    tag_173:\n        /* \"@openzeppelin/contracts/access/Ownable.sol\":1901:1941  OwnableUnauthorizedAccount(_msgSender()) */\n      mload(0x40)\n      0x118cdaa700000000000000000000000000000000000000000000000000000000\n      dup2\n      mstore\n      0x04\n      add\n      tag_174\n      swap2\n      swap1\n      tag_60\n      jump\t// in\n    tag_174:\n      mload(0x40)\n      dup1\n      swap2\n      sub\n      swap1\n      revert\n        /* \"@openzeppelin/contracts/access/Ownable.sol\":1851:1952  if (owner() != _msgSender()) {... */\n    tag_172:\n        /* \"@openzeppelin/contracts/access/Ownable.sol\":1796:1958  function _checkOwner() internal view virtual {... */\n      jump\t// out\n        /* \"@openzeppelin/contracts/access/Ownable.sol\":2912:3099  function _transferOwnership(address newOwner) internal virtual {... */\n    tag_121:\n        /* \"@openzeppelin/contracts/access/Ownable.sol\":2985:3001  address oldOwner */\n      0x00\n        /* \"@openzeppelin/contracts/access/Ownable.sol\":3004:3010  _owner */\n      0x00\n      0x00\n      swap1\n      sload\n      swap1\n      0x0100\n      exp\n      swap1\n      div\n      0xffffffffffffffffffffffffffffffffffffffff\n      and\n        /* \"@openzeppelin/contracts/access/Ownable.sol\":2985:3010  address oldOwner = _owner */\n      swap1\n      pop\n        /* \"@openzeppelin/contracts/access/Ownable.sol\":3029:3037  newOwner */\n      dup2\n        /* \"@openzeppelin/contracts/access/Ownable.sol\":3020:3026  _owner */\n      0x00\n      0x00\n        /* \"@openzeppelin/contracts/access/Ownable.sol\":3020:3037  _owner = newOwner */\n      0x0100\n      exp\n      dup2\n      sload\n      dup2\n      0xffffffffffffffffffffffffffffffffffffffff\n      mul\n      not\n      and\n      swap1\n      dup4\n      0xffffffffffffffffffffffffffffffffffffffff\n      and\n      mul\n      or\n      swap1\n      sstore\n      pop\n        /* \"@openzeppelin/contracts/access/Ownable.sol\":3083:3091  newOwner */\n      dup2\n        /* \"@openzeppelin/contracts/access/Ownable.sol\":3052:3092  OwnershipTransferred(oldOwner, newOwner) */\n      0xffffffffffffffffffffffffffffffffffffffff\n      and\n        /* \"@openzeppelin/contracts/access/Ownable.sol\":3073:3081  oldOwner */\n      dup2\n        /* \"@openzeppelin/contracts/access/Ownable.sol\":3052:3092  OwnershipTransferred(oldOwner, newOwner) */\n      0xffffffffffffffffffffffffffffffffffffffff\n      and\n      0x8be0079c531659141344cd1fd0a4f28419497f9722a3daafe3b4186f6b6457e0\n      mload(0x40)\n      mload(0x40)\n      dup1\n      swap2\n      sub\n      swap1\n      log3\n        /* \"@openzeppelin/contracts/access/Ownable.sol\":2975:3099  {... */\n      pop\n        /* \"@openzeppelin/contracts/access/Ownable.sol\":2912:3099  function _transferOwnership(address newOwner) internal virtual {... */\n      pop\n      jump\t// out\n        /* \"@openzeppelin/contracts/utils/Context.sol\":656:752  function _msgSender() internal view virtual returns (address) {... */\n    tag_170:\n        /* \"@openzeppelin/contracts/utils/Context.sol\":709:716  address */\n      0x00\n        /* \"@openzeppelin/contracts/utils/Context.sol\":735:745  msg.sender */\n      caller\n        /* \"@openzeppelin/contracts/utils/Context.sol\":728:745  return msg.sender */\n      swap1\n      pop\n        /* \"@openzeppelin/contracts/utils/Context.sol\":656:752  function _msgSender() internal view virtual returns (address) {... */\n      swap1\n      jump\t// out\n    tag_140:\n      mload(0x40)\n      dup1\n      0x40\n      add\n      0x40\n      mstore\n      dup1\n      0x00\n      dup2\n      mstore\n      0x20\n      add\n      0x00\n      dup2\n      mstore\n      pop\n      swap1\n      jump\t// out\n        /* \"#utility.yul\":88:205   */\n    tag_178:\n        /* \"#utility.yul\":197:198   */\n      0x00\n        /* \"#utility.yul\":194:195   */\n      0x00\n        /* \"#utility.yul\":187:199   */\n      revert\n        /* \"#utility.yul\":334:411   */\n    tag_180:\n        /* \"#utility.yul\":371:378   */\n      0x00\n        /* \"#utility.yul\":400:405   */\n      dup2\n        /* \"#utility.yul\":389:405   */\n      swap1\n      pop\n        /* \"#utility.yul\":334:411   */\n      swap2\n      swap1\n      pop\n      jump\t// out\n        /* \"#utility.yul\":417:539   */\n    tag_181:\n        /* \"#utility.yul\":490:514   */\n      tag_229\n        /* \"#utility.yul\":508:513   */\n      dup2\n        /* \"#utility.yul\":490:514   */\n      tag_180\n      jump\t// in\n    tag_229:\n        /* \"#utility.yul\":483:488   */\n      dup2\n        /* \"#utility.yul\":480:515   */\n      eq\n        /* \"#utility.yul\":470:533   */\n      tag_230\n      jumpi\n        /* \"#utility.yul\":529:530   */\n      0x00\n        /* \"#utility.yul\":526:527   */\n      0x00\n        /* \"#utility.yul\":519:531   */\n      revert\n        /* \"#utility.yul\":470:533   */\n    tag_230:\n        /* \"#utility.yul\":417:539   */\n      pop\n      jump\t// out\n        /* \"#utility.yul\":545:684   */\n    tag_182:\n        /* \"#utility.yul\":591:596   */\n      0x00\n        /* \"#utility.yul\":629:635   */\n      dup2\n        /* \"#utility.yul\":616:636   */\n      calldataload\n        /* \"#utility.yul\":607:636   */\n      swap1\n      pop\n        /* \"#utility.yul\":645:678   */\n      tag_232\n        /* \"#utility.yul\":672:677   */\n      dup2\n        /* \"#utility.yul\":645:678   */\n      tag_181\n      jump\t// in\n    tag_232:\n        /* \"#utility.yul\":545:684   */\n      swap3\n      swap2\n      pop\n      pop\n      jump\t// out\n        /* \"#utility.yul\":690:1019   */\n    tag_22:\n        /* \"#utility.yul\":749:755   */\n      0x00\n        /* \"#utility.yul\":798:800   */\n      0x20\n        /* \"#utility.yul\":786:795   */\n      dup3\n        /* \"#utility.yul\":777:784   */\n      dup5\n        /* \"#utility.yul\":773:796   */\n      sub\n        /* \"#utility.yul\":769:801   */\n      slt\n        /* \"#utility.yul\":766:885   */\n      iszero\n      tag_234\n      jumpi\n        /* \"#utility.yul\":804:883   */\n      tag_235\n      tag_178\n      jump\t// in\n    tag_235:\n        /* \"#utility.yul\":766:885   */\n    tag_234:\n        /* \"#utility.yul\":924:925   */\n      0x00\n        /* \"#utility.yul\":949:1002   */\n      tag_236\n        /* \"#utility.yul\":994:1001   */\n      dup5\n        /* \"#utility.yul\":985:991   */\n      dup3\n        /* \"#utility.yul\":974:983   */\n      dup6\n        /* \"#utility.yul\":970:992   */\n      add\n        /* \"#utility.yul\":949:1002   */\n      tag_182\n      jump\t// in\n    tag_236:\n        /* \"#utility.yul\":939:1002   */\n      swap2\n      pop\n        /* \"#utility.yul\":895:1012   */\n      pop\n        /* \"#utility.yul\":690:1019   */\n      swap3\n      swap2\n      pop\n      pop\n      jump\t// out\n        /* \"#utility.yul\":1025:1151   */\n    tag_183:\n        /* \"#utility.yul\":1062:1069   */\n      0x00\n        /* \"#utility.yul\":1102:1144   */\n      0xffffffffffffffffffffffffffffffffffffffff\n        /* \"#utility.yul\":1095:1100   */\n      dup3\n        /* \"#utility.yul\":1091:1145   */\n      and\n        /* \"#utility.yul\":1080:1145   */\n      swap1\n      pop\n        /* \"#utility.yul\":1025:1151   */\n      swap2\n      swap1\n      pop\n      jump\t// out\n        /* \"#utility.yul\":1157:1253   */\n    tag_184:\n        /* \"#utility.yul\":1194:1201   */\n      0x00\n        /* \"#utility.yul\":1223:1247   */\n      tag_239\n        /* \"#utility.yul\":1241:1246   */\n      dup3\n        /* \"#utility.yul\":1223:1247   */\n      tag_183\n      jump\t// in\n    tag_239:\n        /* \"#utility.yul\":1212:1247   */\n      swap1\n      pop\n        /* \"#utility.yul\":1157:1253   */\n      swap2\n      swap1\n      pop\n      jump\t// out\n        /* \"#utility.yul\":1259:1381   */\n    tag_185:\n        /* \"#utility.yul\":1332:1356   */\n      tag_241\n        /* \"#utility.yul\":1350:1355   */\n      dup2\n        /* \"#utility.yul\":1332:1356   */\n      tag_184\n      jump\t// in\n    tag_241:\n        /* \"#utility.yul\":1325:1330   */\n      dup2\n        /* \"#utility.yul\":1322:1357   */\n      eq\n        /* \"#utility.yul\":1312:1375   */\n      tag_242\n      jumpi\n        /* \"#utility.yul\":1371:1372   */\n      0x00\n        /* \"#utility.yul\":1368:1369   */\n      0x00\n        /* \"#utility.yul\":1361:1373   */\n      revert\n        /* \"#utility.yul\":1312:1375   */\n    tag_242:\n        /* \"#utility.yul\":1259:1381   */\n      pop\n      jump\t// out\n        /* \"#utility.yul\":1387:1526   */\n    tag_186:\n        /* \"#utility.yul\":1433:1438   */\n      0x00\n        /* \"#utility.yul\":1471:1477   */\n      dup2\n        /* \"#utility.yul\":1458:1478   */\n      calldataload\n        /* \"#utility.yul\":1449:1478   */\n      swap1\n      pop\n        /* \"#utility.yul\":1487:1520   */\n      tag_244\n        /* \"#utility.yul\":1514:1519   */\n      dup2\n        /* \"#utility.yul\":1487:1520   */\n      tag_185\n      jump\t// in\n    tag_244:\n        /* \"#utility.yul\":1387:1526   */\n      swap3\n      swap2\n      pop\n      pop\n      jump\t// out\n        /* \"#utility.yul\":1532:1861   */\n    tag_27:\n        /* \"#utility.yul\":1591:1597   */\n      0x00\n        /* \"#utility.yul\":1640:1642   */\n      0x20\n        /* \"#utility.yul\":1628:1637   */\n      dup3\n        /* \"#utility.yul\":1619:1626   */\n      dup5\n        /* \"#utility.yul\":1615:1638   */\n      sub\n        /* \"#utility.yul\":1611:1643   */\n      slt\n        /* \"#utility.yul\":1608:1727   */\n      iszero\n      tag_246\n      jumpi\n        /* \"#utility.yul\":1646:1725   */\n      tag_247\n      tag_178\n      jump\t// in\n    tag_247:\n        /* \"#utility.yul\":1608:1727   */\n    tag_246:\n        /* \"#utility.yul\":1766:1767   */\n      0x00\n        /* \"#utility.yul\":1791:1844   */\n      tag_248\n        /* \"#utility.yul\":1836:1843   */\n      dup5\n        /* \"#utility.yul\":1827:1833   */\n      dup3\n        /* \"#utility.yul\":1816:1825   */\n      dup6\n        /* \"#utility.yul\":1812:1834   */\n      add\n        /* \"#utility.yul\":1791:1844   */\n      tag_186\n      jump\t// in\n    tag_248:\n        /* \"#utility.yul\":1781:1844   */\n      swap2\n      pop\n        /* \"#utility.yul\":1737:1854   */\n      pop\n        /* \"#utility.yul\":1532:1861   */\n      swap3\n      swap2\n      pop\n      pop\n      jump\t// out\n        /* \"#utility.yul\":1867:1985   */\n    tag_187:\n        /* \"#utility.yul\":1954:1978   */\n      tag_250\n        /* \"#utility.yul\":1972:1977   */\n      dup2\n        /* \"#utility.yul\":1954:1978   */\n      tag_180\n      jump\t// in\n    tag_250:\n        /* \"#utility.yul\":1949:1952   */\n      dup3\n        /* \"#utility.yul\":1942:1979   */\n      mstore\n        /* \"#utility.yul\":1867:1985   */\n      pop\n      pop\n      jump\t// out\n        /* \"#utility.yul\":1991:2323   */\n    tag_30:\n        /* \"#utility.yul\":2112:2116   */\n      0x00\n        /* \"#utility.yul\":2150:2152   */\n      0x40\n        /* \"#utility.yul\":2139:2148   */\n      dup3\n        /* \"#utility.yul\":2135:2153   */\n      add\n        /* \"#utility.yul\":2127:2153   */\n      swap1\n      pop\n        /* \"#utility.yul\":2163:2234   */\n      tag_252\n        /* \"#utility.yul\":2231:2232   */\n      0x00\n        /* \"#utility.yul\":2220:2229   */\n      dup4\n        /* \"#utility.yul\":2216:2233   */\n      add\n        /* \"#utility.yul\":2207:2213   */\n      dup6\n        /* \"#utility.yul\":2163:2234   */\n      tag_187\n      jump\t// in\n    tag_252:\n        /* \"#utility.yul\":2244:2316   */\n      tag_253\n        /* \"#utility.yul\":2312:2314   */\n      0x20\n        /* \"#utility.yul\":2301:2310   */\n      dup4\n        /* \"#utility.yul\":2297:2315   */\n      add\n        /* \"#utility.yul\":2288:2294   */\n      dup5\n        /* \"#utility.yul\":2244:2316   */\n      tag_187\n      jump\t// in\n    tag_253:\n        /* \"#utility.yul\":1991:2323   */\n      swap4\n      swap3\n      pop\n      pop\n      pop\n      jump\t// out\n        /* \"#utility.yul\":2329:2551   */\n    tag_38:\n        /* \"#utility.yul\":2422:2426   */\n      0x00\n        /* \"#utility.yul\":2460:2462   */\n      0x20\n        /* \"#utility.yul\":2449:2458   */\n      dup3\n        /* \"#utility.yul\":2445:2463   */\n      add\n        /* \"#utility.yul\":2437:2463   */\n      swap1\n      pop\n        /* \"#utility.yul\":2473:2544   */\n      tag_255\n        /* \"#utility.yul\":2541:2542   */\n      0x00\n        /* \"#utility.yul\":2530:2539   */\n      dup4\n        /* \"#utility.yul\":2526:2543   */\n      add\n        /* \"#utility.yul\":2517:2523   */\n      dup5\n        /* \"#utility.yul\":2473:2544   */\n      tag_187\n      jump\t// in\n    tag_255:\n        /* \"#utility.yul\":2329:2551   */\n      swap3\n      swap2\n      pop\n      pop\n      jump\t// out\n        /* \"#utility.yul\":2557:2617   */\n    tag_188:\n        /* \"#utility.yul\":2585:2588   */\n      0x00\n        /* \"#utility.yul\":2606:2611   */\n      dup2\n        /* \"#utility.yul\":2599:2611   */\n      swap1\n      pop\n        /* \"#utility.yul\":2557:2617   */\n      swap2\n      swap1\n      pop\n      jump\t// out\n        /* \"#utility.yul\":2623:2765   */\n    tag_189:\n        /* \"#utility.yul\":2673:2682   */\n      0x00\n        /* \"#utility.yul\":2706:2759   */\n      tag_258\n        /* \"#utility.yul\":2724:2758   */\n      tag_259\n        /* \"#utility.yul\":2733:2757   */\n      tag_260\n        /* \"#utility.yul\":2751:2756   */\n      dup5\n        /* \"#utility.yul\":2733:2757   */\n      tag_183\n      jump\t// in\n    tag_260:\n        /* \"#utility.yul\":2724:2758   */\n      tag_188\n      jump\t// in\n    tag_259:\n        /* \"#utility.yul\":2706:2759   */\n      tag_183\n      jump\t// in\n    tag_258:\n        /* \"#utility.yul\":2693:2759   */\n      swap1\n      pop\n        /* \"#utility.yul\":2623:2765   */\n      swap2\n      swap1\n      pop\n      jump\t// out\n        /* \"#utility.yul\":2771:2897   */\n    tag_190:\n        /* \"#utility.yul\":2821:2830   */\n      0x00\n        /* \"#utility.yul\":2854:2891   */\n      tag_262\n        /* \"#utility.yul\":2885:2890   */\n      dup3\n        /* \"#utility.yul\":2854:2891   */\n      tag_189\n      jump\t// in\n    tag_262:\n        /* \"#utility.yul\":2841:2891   */\n      swap1\n      pop\n        /* \"#utility.yul\":2771:2897   */\n      swap2\n      swap1\n      pop\n      jump\t// out\n        /* \"#utility.yul\":2903:3057   */\n    tag_191:\n        /* \"#utility.yul\":2981:2990   */\n      0x00\n        /* \"#utility.yul\":3014:3051   */\n      tag_264\n        /* \"#utility.yul\":3045:3050   */\n      dup3\n        /* \"#utility.yul\":3014:3051   */\n      tag_190\n      jump\t// in\n    tag_264:\n        /* \"#utility.yul\":3001:3051   */\n      swap1\n      pop\n        /* \"#utility.yul\":2903:3057   */\n      swap2\n      swap1\n      pop\n      jump\t// out\n        /* \"#utility.yul\":3063:3250   */\n    tag_192:\n        /* \"#utility.yul\":3178:3243   */\n      tag_266\n        /* \"#utility.yul\":3237:3242   */\n      dup2\n        /* \"#utility.yul\":3178:3243   */\n      tag_191\n      jump\t// in\n    tag_266:\n        /* \"#utility.yul\":3173:3176   */\n      dup3\n        /* \"#utility.yul\":3166:3244   */\n      mstore\n        /* \"#utility.yul\":3063:3250   */\n      pop\n      pop\n      jump\t// out\n        /* \"#utility.yul\":3256:3534   */\n    tag_46:\n        /* \"#utility.yul\":3377:3381   */\n      0x00\n        /* \"#utility.yul\":3415:3417   */\n      0x20\n        /* \"#utility.yul\":3404:3413   */\n      dup3\n        /* \"#utility.yul\":3400:3418   */\n      add\n        /* \"#utility.yul\":3392:3418   */\n      swap1\n      pop\n        /* \"#utility.yul\":3428:3527   */\n      tag_268\n        /* \"#utility.yul\":3524:3525   */\n      0x00\n        /* \"#utility.yul\":3513:3522   */\n      dup4\n        /* \"#utility.yul\":3509:3526   */\n      add\n        /* \"#utility.yul\":3500:3506   */\n      dup5\n        /* \"#utility.yul\":3428:3527   */\n      tag_192\n      jump\t// in\n    tag_268:\n        /* \"#utility.yul\":3256:3534   */\n      swap3\n      swap2\n      pop\n      pop\n      jump\t// out\n        /* \"#utility.yul\":3540:3680   */\n    tag_193:\n        /* \"#utility.yul\":3604:3613   */\n      0x00\n        /* \"#utility.yul\":3637:3674   */\n      tag_270\n        /* \"#utility.yul\":3668:3673   */\n      dup3\n        /* \"#utility.yul\":3637:3674   */\n      tag_190\n      jump\t// in\n    tag_270:\n        /* \"#utility.yul\":3624:3674   */\n      swap1\n      pop\n        /* \"#utility.yul\":3540:3680   */\n      swap2\n      swap1\n      pop\n      jump\t// out\n        /* \"#utility.yul\":3686:3845   */\n    tag_194:\n        /* \"#utility.yul\":3787:3838   */\n      tag_272\n        /* \"#utility.yul\":3832:3837   */\n      dup2\n        /* \"#utility.yul\":3787:3838   */\n      tag_193\n      jump\t// in\n    tag_272:\n        /* \"#utility.yul\":3782:3785   */\n      dup3\n        /* \"#utility.yul\":3775:3839   */\n      mstore\n        /* \"#utility.yul\":3686:3845   */\n      pop\n      pop\n      jump\t// out\n        /* \"#utility.yul\":3851:4101   */\n    tag_55:\n        /* \"#utility.yul\":3958:3962   */\n      0x00\n        /* \"#utility.yul\":3996:3998   */\n      0x20\n        /* \"#utility.yul\":3985:3994   */\n      dup3\n        /* \"#utility.yul\":3981:3999   */\n      add\n        /* \"#utility.yul\":3973:3999   */\n      swap1\n      pop\n        /* \"#utility.yul\":4009:4094   */\n      tag_274\n        /* \"#utility.yul\":4091:4092   */\n      0x00\n        /* \"#utility.yul\":4080:4089   */\n      dup4\n        /* \"#utility.yul\":4076:4093   */\n      add\n        /* \"#utility.yul\":4067:4073   */\n      dup5\n        /* \"#utility.yul\":4009:4094   */\n      tag_194\n      jump\t// in\n    tag_274:\n        /* \"#utility.yul\":3851:4101   */\n      swap3\n      swap2\n      pop\n      pop\n      jump\t// out\n        /* \"#utility.yul\":4107:4225   */\n    tag_195:\n        /* \"#utility.yul\":4194:4218   */\n      tag_276\n        /* \"#utility.yul\":4212:4217   */\n      dup2\n        /* \"#utility.yul\":4194:4218   */\n      tag_184\n      jump\t// in\n    tag_276:\n        /* \"#utility.yul\":4189:4192   */\n      dup3\n        /* \"#utility.yul\":4182:4219   */\n      mstore\n        /* \"#utility.yul\":4107:4225   */\n      pop\n      pop\n      jump\t// out\n        /* \"#utility.yul\":4231:4453   */\n    tag_60:\n        /* \"#utility.yul\":4324:4328   */\n      0x00\n        /* \"#utility.yul\":4362:4364   */\n      0x20\n        /* \"#utility.yul\":4351:4360   */\n      dup3\n        /* \"#utility.yul\":4347:4365   */\n      add\n        /* \"#utility.yul\":4339:4365   */\n      swap1\n      pop\n        /* \"#utility.yul\":4375:4446   */\n      tag_278\n        /* \"#utility.yul\":4443:4444   */\n      0x00\n        /* \"#utility.yul\":4432:4441   */\n      dup4\n        /* \"#utility.yul\":4428:4445   */\n      add\n        /* \"#utility.yul\":4419:4425   */\n      dup5\n        /* \"#utility.yul\":4375:4446   */\n      tag_195\n      jump\t// in\n    tag_278:\n        /* \"#utility.yul\":4231:4453   */\n      swap3\n      swap2\n      pop\n      pop\n      jump\t// out\n        /* \"#utility.yul\":4459:4567   */\n    tag_196:\n        /* \"#utility.yul\":4536:4560   */\n      tag_280\n        /* \"#utility.yul\":4554:4559   */\n      dup2\n        /* \"#utility.yul\":4536:4560   */\n      tag_180\n      jump\t// in\n    tag_280:\n        /* \"#utility.yul\":4531:4534   */\n      dup3\n        /* \"#utility.yul\":4524:4561   */\n      mstore\n        /* \"#utility.yul\":4459:4567   */\n      pop\n      pop\n      jump\t// out\n        /* \"#utility.yul\":4637:5143   */\n    tag_197:\n        /* \"#utility.yul\":4784:4788   */\n      0x40\n        /* \"#utility.yul\":4779:4782   */\n      dup3\n        /* \"#utility.yul\":4775:4789   */\n      add\n        /* \"#utility.yul\":4870:4874   */\n      0x00\n        /* \"#utility.yul\":4863:4868   */\n      dup3\n        /* \"#utility.yul\":4859:4875   */\n      add\n        /* \"#utility.yul\":4853:4876   */\n      mload\n        /* \"#utility.yul\":4889:4952   */\n      tag_282\n        /* \"#utility.yul\":4946:4950   */\n      0x00\n        /* \"#utility.yul\":4941:4944   */\n      dup6\n        /* \"#utility.yul\":4937:4951   */\n      add\n        /* \"#utility.yul\":4923:4935   */\n      dup3\n        /* \"#utility.yul\":4889:4952   */\n      tag_196\n      jump\t// in\n    tag_282:\n        /* \"#utility.yul\":4799:4962   */\n      pop\n        /* \"#utility.yul\":5044:5048   */\n      0x20\n        /* \"#utility.yul\":5037:5042   */\n      dup3\n        /* \"#utility.yul\":5033:5049   */\n      add\n        /* \"#utility.yul\":5027:5050   */\n      mload\n        /* \"#utility.yul\":5063:5126   */\n      tag_283\n        /* \"#utility.yul\":5120:5124   */\n      0x20\n        /* \"#utility.yul\":5115:5118   */\n      dup6\n        /* \"#utility.yul\":5111:5125   */\n      add\n        /* \"#utility.yul\":5097:5109   */\n      dup3\n        /* \"#utility.yul\":5063:5126   */\n      tag_196\n      jump\t// in\n    tag_283:\n        /* \"#utility.yul\":4972:5136   */\n      pop\n        /* \"#utility.yul\":4753:5143   */\n      pop\n        /* \"#utility.yul\":4637:5143   */\n      pop\n      pop\n      jump\t// out\n        /* \"#utility.yul\":5149:5471   */\n    tag_70:\n        /* \"#utility.yul\":5292:5296   */\n      0x00\n        /* \"#utility.yul\":5330:5332   */\n      0x40\n        /* \"#utility.yul\":5319:5328   */\n      dup3\n        /* \"#utility.yul\":5315:5333   */\n      add\n        /* \"#utility.yul\":5307:5333   */\n      swap1\n      pop\n        /* \"#utility.yul\":5343:5464   */\n      tag_285\n        /* \"#utility.yul\":5461:5462   */\n      0x00\n        /* \"#utility.yul\":5450:5459   */\n      dup4\n        /* \"#utility.yul\":5446:5463   */\n      add\n        /* \"#utility.yul\":5437:5443   */\n      dup5\n        /* \"#utility.yul\":5343:5464   */\n      tag_197\n      jump\t// in\n    tag_285:\n        /* \"#utility.yul\":5149:5471   */\n      swap3\n      swap2\n      pop\n      pop\n      jump\t// out\n        /* \"#utility.yul\":5477:5657   */\n    tag_198:\n        /* \"#utility.yul\":5525:5602   */\n      0x4e487b7100000000000000000000000000000000000000000000000000000000\n        /* \"#utility.yul\":5522:5523   */\n      0x00\n        /* \"#utility.yul\":5515:5603   */\n      mstore\n        /* \"#utility.yul\":5622:5626   */\n      0x11\n        /* \"#utility.yul\":5619:5620   */\n      0x04\n        /* \"#utility.yul\":5612:5627   */\n      mstore\n        /* \"#utility.yul\":5646:5650   */\n      0x24\n        /* \"#utility.yul\":5643:5644   */\n      0x00\n        /* \"#utility.yul\":5636:5651   */\n      revert\n        /* \"#utility.yul\":5663:5857   */\n    tag_90:\n        /* \"#utility.yul\":5703:5707   */\n      0x00\n        /* \"#utility.yul\":5723:5743   */\n      tag_288\n        /* \"#utility.yul\":5741:5742   */\n      dup3\n        /* \"#utility.yul\":5723:5743   */\n      tag_180\n      jump\t// in\n    tag_288:\n        /* \"#utility.yul\":5718:5743   */\n      swap2\n      pop\n        /* \"#utility.yul\":5757:5777   */\n      tag_289\n        /* \"#utility.yul\":5775:5776   */\n      dup4\n        /* \"#utility.yul\":5757:5777   */\n      tag_180\n      jump\t// in\n    tag_289:\n        /* \"#utility.yul\":5752:5777   */\n      swap3\n      pop\n        /* \"#utility.yul\":5801:5802   */\n      dup3\n        /* \"#utility.yul\":5798:5799   */\n      dup3\n        /* \"#utility.yul\":5794:5803   */\n      sub\n        /* \"#utility.yul\":5786:5803   */\n      swap1\n      pop\n        /* \"#utility.yul\":5825:5826   */\n      dup2\n        /* \"#utility.yul\":5819:5823   */\n      dup2\n        /* \"#utility.yul\":5816:5827   */\n      gt\n        /* \"#utility.yul\":5813:5850   */\n      iszero\n      tag_290\n      jumpi\n        /* \"#utility.yul\":5830:5848   */\n      tag_291\n      tag_198\n      jump\t// in\n    tag_291:\n        /* \"#utility.yul\":5813:5850   */\n    tag_290:\n        /* \"#utility.yul\":5663:5857   */\n      swap3\n      swap2\n      pop\n      pop\n      jump\t// out\n        /* \"#utility.yul\":5863:6011   */\n    tag_199:\n        /* \"#utility.yul\":5965:5976   */\n      0x00\n        /* \"#utility.yul\":6002:6005   */\n      dup2\n        /* \"#utility.yul\":5987:6005   */\n      swap1\n      pop\n        /* \"#utility.yul\":5863:6011   */\n      swap3\n      swap2\n      pop\n      pop\n      jump\t// out\n        /* \"#utility.yul\":6017:6170   */\n    tag_200:\n        /* \"#utility.yul\":6157:6162   */\n      0x4554480000000000000000000000000000000000000000000000000000000000\n        /* \"#utility.yul\":6153:6154   */\n      0x00\n        /* \"#utility.yul\":6145:6151   */\n      dup3\n        /* \"#utility.yul\":6141:6155   */\n      add\n        /* \"#utility.yul\":6134:6163   */\n      mstore\n        /* \"#utility.yul\":6017:6170   */\n      pop\n      jump\t// out\n        /* \"#utility.yul\":6176:6576   */\n    tag_201:\n        /* \"#utility.yul\":6336:6339   */\n      0x00\n        /* \"#utility.yul\":6357:6441   */\n      tag_295\n        /* \"#utility.yul\":6439:6440   */\n      0x03\n        /* \"#utility.yul\":6434:6437   */\n      dup4\n        /* \"#utility.yul\":6357:6441   */\n      tag_199\n      jump\t// in\n    tag_295:\n        /* \"#utility.yul\":6350:6441   */\n      swap2\n      pop\n        /* \"#utility.yul\":6450:6543   */\n      tag_296\n        /* \"#utility.yul\":6539:6542   */\n      dup3\n        /* \"#utility.yul\":6450:6543   */\n      tag_200\n      jump\t// in\n    tag_296:\n        /* \"#utility.yul\":6568:6569   */\n      0x03\n        /* \"#utility.yul\":6563:6566   */\n      dup3\n        /* \"#utility.yul\":6559:6570   */\n      add\n        /* \"#utility.yul\":6552:6570   */\n      swap1\n      pop\n        /* \"#utility.yul\":6176:6576   */\n      swap2\n      swap1\n      pop\n      jump\t// out\n        /* \"#utility.yul\":6582:6963   */\n    tag_95:\n        /* \"#utility.yul\":6767:6770   */\n      0x00\n        /* \"#utility.yul\":6789:6937   */\n      tag_298\n        /* \"#utility.yul\":6933:6936   */\n      dup3\n        /* \"#utility.yul\":6789:6937   */\n      tag_201\n      jump\t// in\n    tag_298:\n        /* \"#utility.yul\":6782:6937   */\n      swap2\n      pop\n        /* \"#utility.yul\":6954:6957   */\n      dup2\n        /* \"#utility.yul\":6947:6957   */\n      swap1\n      pop\n        /* \"#utility.yul\":6582:6963   */\n      swap2\n      swap1\n      pop\n      jump\t// out\n        /* \"#utility.yul\":6969:7160   */\n    tag_102:\n        /* \"#utility.yul\":7009:7012   */\n      0x00\n        /* \"#utility.yul\":7028:7048   */\n      tag_300\n        /* \"#utility.yul\":7046:7047   */\n      dup3\n        /* \"#utility.yul\":7028:7048   */\n      tag_180\n      jump\t// in\n    tag_300:\n        /* \"#utility.yul\":7023:7048   */\n      swap2\n      pop\n        /* \"#utility.yul\":7062:7082   */\n      tag_301\n        /* \"#utility.yul\":7080:7081   */\n      dup4\n        /* \"#utility.yul\":7062:7082   */\n      tag_180\n      jump\t// in\n    tag_301:\n        /* \"#utility.yul\":7057:7082   */\n      swap3\n      pop\n        /* \"#utility.yul\":7105:7106   */\n      dup3\n        /* \"#utility.yul\":7102:7103   */\n      dup3\n        /* \"#utility.yul\":7098:7107   */\n      add\n        /* \"#utility.yul\":7091:7107   */\n      swap1\n      pop\n        /* \"#utility.yul\":7126:7129   */\n      dup1\n        /* \"#utility.yul\":7123:7124   */\n      dup3\n        /* \"#utility.yul\":7120:7130   */\n      gt\n        /* \"#utility.yul\":7117:7153   */\n      iszero\n      tag_302\n      jumpi\n        /* \"#utility.yul\":7133:7151   */\n      tag_303\n      tag_198\n      jump\t// in\n    tag_303:\n        /* \"#utility.yul\":7117:7153   */\n    tag_302:\n        /* \"#utility.yul\":6969:7160   */\n      swap3\n      swap2\n      pop\n      pop\n      jump\t// out\n        /* \"#utility.yul\":7166:7271   */\n    tag_202:\n        /* \"#utility.yul\":7202:7209   */\n      0x00\n        /* \"#utility.yul\":7242:7264   */\n      0xffffffffffffffffffff\n        /* \"#utility.yul\":7235:7240   */\n      dup3\n        /* \"#utility.yul\":7231:7265   */\n      and\n        /* \"#utility.yul\":7220:7265   */\n      swap1\n      pop\n        /* \"#utility.yul\":7166:7271   */\n      swap2\n      swap1\n      pop\n      jump\t// out\n        /* \"#utility.yul\":7277:7397   */\n    tag_203:\n        /* \"#utility.yul\":7349:7372   */\n      tag_306\n        /* \"#utility.yul\":7366:7371   */\n      dup2\n        /* \"#utility.yul\":7349:7372   */\n      tag_202\n      jump\t// in\n    tag_306:\n        /* \"#utility.yul\":7342:7347   */\n      dup2\n        /* \"#utility.yul\":7339:7373   */\n      eq\n        /* \"#utility.yul\":7329:7391   */\n      tag_307\n      jumpi\n        /* \"#utility.yul\":7387:7388   */\n      0x00\n        /* \"#utility.yul\":7384:7385   */\n      0x00\n        /* \"#utility.yul\":7377:7389   */\n      revert\n        /* \"#utility.yul\":7329:7391   */\n    tag_307:\n        /* \"#utility.yul\":7277:7397   */\n      pop\n      jump\t// out\n        /* \"#utility.yul\":7403:7544   */\n    tag_204:\n        /* \"#utility.yul\":7459:7464   */\n      0x00\n        /* \"#utility.yul\":7490:7496   */\n      dup2\n        /* \"#utility.yul\":7484:7497   */\n      mload\n        /* \"#utility.yul\":7475:7497   */\n      swap1\n      pop\n        /* \"#utility.yul\":7506:7538   */\n      tag_309\n        /* \"#utility.yul\":7532:7537   */\n      dup2\n        /* \"#utility.yul\":7506:7538   */\n      tag_203\n      jump\t// in\n    tag_309:\n        /* \"#utility.yul\":7403:7544   */\n      swap3\n      swap2\n      pop\n      pop\n      jump\t// out\n        /* \"#utility.yul\":7550:7626   */\n    tag_205:\n        /* \"#utility.yul\":7586:7593   */\n      0x00\n        /* \"#utility.yul\":7615:7620   */\n      dup2\n        /* \"#utility.yul\":7604:7620   */\n      swap1\n      pop\n        /* \"#utility.yul\":7550:7626   */\n      swap2\n      swap1\n      pop\n      jump\t// out\n        /* \"#utility.yul\":7632:7752   */\n    tag_206:\n        /* \"#utility.yul\":7704:7727   */\n      tag_312\n        /* \"#utility.yul\":7721:7726   */\n      dup2\n        /* \"#utility.yul\":7704:7727   */\n      tag_205\n      jump\t// in\n    tag_312:\n        /* \"#utility.yul\":7697:7702   */\n      dup2\n        /* \"#utility.yul\":7694:7728   */\n      eq\n        /* \"#utility.yul\":7684:7746   */\n      tag_313\n      jumpi\n        /* \"#utility.yul\":7742:7743   */\n      0x00\n        /* \"#utility.yul\":7739:7740   */\n      0x00\n        /* \"#utility.yul\":7732:7744   */\n      revert\n        /* \"#utility.yul\":7684:7746   */\n    tag_313:\n        /* \"#utility.yul\":7632:7752   */\n      pop\n      jump\t// out\n        /* \"#utility.yul\":7758:7899   */\n    tag_207:\n        /* \"#utility.yul\":7814:7819   */\n      0x00\n        /* \"#utility.yul\":7845:7851   */\n      dup2\n        /* \"#utility.yul\":7839:7852   */\n      mload\n        /* \"#utility.yul\":7830:7852   */\n      swap1\n      pop\n        /* \"#utility.yul\":7861:7893   */\n      tag_315\n        /* \"#utility.yul\":7887:7892   */\n      dup2\n        /* \"#utility.yul\":7861:7893   */\n      tag_206\n      jump\t// in\n    tag_315:\n        /* \"#utility.yul\":7758:7899   */\n      swap3\n      swap2\n      pop\n      pop\n      jump\t// out\n        /* \"#utility.yul\":7905:8048   */\n    tag_208:\n        /* \"#utility.yul\":7962:7967   */\n      0x00\n        /* \"#utility.yul\":7993:7999   */\n      dup2\n        /* \"#utility.yul\":7987:8000   */\n      mload\n        /* \"#utility.yul\":7978:8000   */\n      swap1\n      pop\n        /* \"#utility.yul\":8009:8042   */\n      tag_317\n        /* \"#utility.yul\":8036:8041   */\n      dup2\n        /* \"#utility.yul\":8009:8042   */\n      tag_181\n      jump\t// in\n    tag_317:\n        /* \"#utility.yul\":7905:8048   */\n      swap3\n      swap2\n      pop\n      pop\n      jump\t// out\n        /* \"#utility.yul\":8054:9025   */\n    tag_111:\n        /* \"#utility.yul\":8157:8163   */\n      0x00\n        /* \"#utility.yul\":8165:8171   */\n      0x00\n        /* \"#utility.yul\":8173:8179   */\n      0x00\n        /* \"#utility.yul\":8181:8187   */\n      0x00\n        /* \"#utility.yul\":8189:8195   */\n      0x00\n        /* \"#utility.yul\":8238:8241   */\n      0xa0\n        /* \"#utility.yul\":8226:8235   */\n      dup7\n        /* \"#utility.yul\":8217:8224   */\n      dup9\n        /* \"#utility.yul\":8213:8236   */\n      sub\n        /* \"#utility.yul\":8209:8242   */\n      slt\n        /* \"#utility.yul\":8206:8326   */\n      iszero\n      tag_319\n      jumpi\n        /* \"#utility.yul\":8245:8324   */\n      tag_320\n      tag_178\n      jump\t// in\n    tag_320:\n        /* \"#utility.yul\":8206:8326   */\n    tag_319:\n        /* \"#utility.yul\":8365:8366   */\n      0x00\n        /* \"#utility.yul\":8390:8453   */\n      tag_321\n        /* \"#utility.yul\":8445:8452   */\n      dup9\n        /* \"#utility.yul\":8436:8442   */\n      dup3\n        /* \"#utility.yul\":8425:8434   */\n      dup10\n        /* \"#utility.yul\":8421:8443   */\n      add\n        /* \"#utility.yul\":8390:8453   */\n      tag_204\n      jump\t// in\n    tag_321:\n        /* \"#utility.yul\":8380:8453   */\n      swap6\n      pop\n        /* \"#utility.yul\":8336:8463   */\n      pop\n        /* \"#utility.yul\":8502:8504   */\n      0x20\n        /* \"#utility.yul\":8528:8591   */\n      tag_322\n        /* \"#utility.yul\":8583:8590   */\n      dup9\n        /* \"#utility.yul\":8574:8580   */\n      dup3\n        /* \"#utility.yul\":8563:8572   */\n      dup10\n        /* \"#utility.yul\":8559:8581   */\n      add\n        /* \"#utility.yul\":8528:8591   */\n      tag_207\n      jump\t// in\n    tag_322:\n        /* \"#utility.yul\":8518:8591   */\n      swap5\n      pop\n        /* \"#utility.yul\":8473:8601   */\n      pop\n        /* \"#utility.yul\":8640:8642   */\n      0x40\n        /* \"#utility.yul\":8666:8730   */\n      tag_323\n        /* \"#utility.yul\":8722:8729   */\n      dup9\n        /* \"#utility.yul\":8713:8719   */\n      dup3\n        /* \"#utility.yul\":8702:8711   */\n      dup10\n        /* \"#utility.yul\":8698:8720   */\n      add\n        /* \"#utility.yul\":8666:8730   */\n      tag_208\n      jump\t// in\n    tag_323:\n        /* \"#utility.yul\":8656:8730   */\n      swap4\n      pop\n        /* \"#utility.yul\":8611:8740   */\n      pop\n        /* \"#utility.yul\":8779:8781   */\n      0x60\n        /* \"#utility.yul\":8805:8869   */\n      tag_324\n        /* \"#utility.yul\":8861:8868   */\n      dup9\n        /* \"#utility.yul\":8852:8858   */\n      dup3\n        /* \"#utility.yul\":8841:8850   */\n      dup10\n        /* \"#utility.yul\":8837:8859   */\n      add\n        /* \"#utility.yul\":8805:8869   */\n      tag_208\n      jump\t// in\n    tag_324:\n        /* \"#utility.yul\":8795:8869   */\n      swap3\n      pop\n        /* \"#utility.yul\":8750:8879   */\n      pop\n        /* \"#utility.yul\":8918:8921   */\n      0x80\n        /* \"#utility.yul\":8945:9008   */\n      tag_325\n        /* \"#utility.yul\":9000:9007   */\n      dup9\n        /* \"#utility.yul\":8991:8997   */\n      dup3\n        /* \"#utility.yul\":8980:8989   */\n      dup10\n        /* \"#utility.yul\":8976:8998   */\n      add\n        /* \"#utility.yul\":8945:9008   */\n      tag_204\n      jump\t// in\n    tag_325:\n        /* \"#utility.yul\":8935:9008   */\n      swap2\n      pop\n        /* \"#utility.yul\":8889:9018   */\n      pop\n        /* \"#utility.yul\":8054:9025   */\n      swap3\n      swap6\n      pop\n      swap3\n      swap6\n      swap1\n      swap4\n      pop\n      jump\t// out\n        /* \"#utility.yul\":9031:9441   */\n    tag_113:\n        /* \"#utility.yul\":9071:9078   */\n      0x00\n        /* \"#utility.yul\":9094:9114   */\n      tag_327\n        /* \"#utility.yul\":9112:9113   */\n      dup3\n        /* \"#utility.yul\":9094:9114   */\n      tag_180\n      jump\t// in\n    tag_327:\n        /* \"#utility.yul\":9089:9114   */\n      swap2\n      pop\n        /* \"#utility.yul\":9128:9148   */\n      tag_328\n        /* \"#utility.yul\":9146:9147   */\n      dup4\n        /* \"#utility.yul\":9128:9148   */\n      tag_180\n      jump\t// in\n    tag_328:\n        /* \"#utility.yul\":9123:9148   */\n      swap3\n      pop\n        /* \"#utility.yul\":9183:9184   */\n      dup3\n        /* \"#utility.yul\":9180:9181   */\n      dup3\n        /* \"#utility.yul\":9176:9185   */\n      mul\n        /* \"#utility.yul\":9205:9235   */\n      tag_329\n        /* \"#utility.yul\":9223:9234   */\n      dup2\n        /* \"#utility.yul\":9205:9235   */\n      tag_180\n      jump\t// in\n    tag_329:\n        /* \"#utility.yul\":9194:9235   */\n      swap2\n      pop\n        /* \"#utility.yul\":9384:9385   */\n      dup3\n        /* \"#utility.yul\":9375:9382   */\n      dup3\n        /* \"#utility.yul\":9371:9386   */\n      div\n        /* \"#utility.yul\":9368:9369   */\n      dup5\n        /* \"#utility.yul\":9365:9387   */\n      eq\n        /* \"#utility.yul\":9345:9346   */\n      dup4\n        /* \"#utility.yul\":9338:9347   */\n      iszero\n        /* \"#utility.yul\":9318:9401   */\n      or\n        /* \"#utility.yul\":9295:9434   */\n      tag_330\n      jumpi\n        /* \"#utility.yul\":9414:9432   */\n      tag_331\n      tag_198\n      jump\t// in\n    tag_331:\n        /* \"#utility.yul\":9295:9434   */\n    tag_330:\n        /* \"#utility.yul\":9079:9441   */\n      pop\n        /* \"#utility.yul\":9031:9441   */\n      swap3\n      swap2\n      pop\n      pop\n      jump\t// out\n        /* \"#utility.yul\":9447:9627   */\n    tag_209:\n        /* \"#utility.yul\":9495:9572   */\n      0x4e487b7100000000000000000000000000000000000000000000000000000000\n        /* \"#utility.yul\":9492:9493   */\n      0x00\n        /* \"#utility.yul\":9485:9573   */\n      mstore\n        /* \"#utility.yul\":9592:9596   */\n      0x12\n        /* \"#utility.yul\":9589:9590   */\n      0x04\n        /* \"#utility.yul\":9582:9597   */\n      mstore\n        /* \"#utility.yul\":9616:9620   */\n      0x24\n        /* \"#utility.yul\":9613:9614   */\n      0x00\n        /* \"#utility.yul\":9606:9621   */\n      revert\n        /* \"#utility.yul\":9633:9818   */\n    tag_115:\n        /* \"#utility.yul\":9673:9674   */\n      0x00\n        /* \"#utility.yul\":9690:9710   */\n      tag_334\n        /* \"#utility.yul\":9708:9709   */\n      dup3\n        /* \"#utility.yul\":9690:9710   */\n      tag_180\n      jump\t// in\n    tag_334:\n        /* \"#utility.yul\":9685:9710   */\n      swap2\n      pop\n        /* \"#utility.yul\":9724:9744   */\n      tag_335\n        /* \"#utility.yul\":9742:9743   */\n      dup4\n        /* \"#utility.yul\":9724:9744   */\n      tag_180\n      jump\t// in\n    tag_335:\n        /* \"#utility.yul\":9719:9744   */\n      swap3\n      pop\n        /* \"#utility.yul\":9763:9764   */\n      dup3\n        /* \"#utility.yul\":9753:9788   */\n      tag_336\n      jumpi\n        /* \"#utility.yul\":9768:9786   */\n      tag_337\n      tag_209\n      jump\t// in\n    tag_337:\n        /* \"#utility.yul\":9753:9788   */\n    tag_336:\n        /* \"#utility.yul\":9810:9811   */\n      dup3\n        /* \"#utility.yul\":9807:9808   */\n      dup3\n        /* \"#utility.yul\":9803:9812   */\n      div\n        /* \"#utility.yul\":9798:9812   */\n      swap1\n      pop\n        /* \"#utility.yul\":9633:9818   */\n      swap3\n      swap2\n      pop\n      pop\n      jump\t// out\n        /* \"#utility.yul\":9824:10156   */\n    tag_131:\n        /* \"#utility.yul\":9945:9949   */\n      0x00\n        /* \"#utility.yul\":9983:9985   */\n      0x40\n        /* \"#utility.yul\":9972:9981   */\n      dup3\n        /* \"#utility.yul\":9968:9986   */\n      add\n        /* \"#utility.yul\":9960:9986   */\n      swap1\n      pop\n        /* \"#utility.yul\":9996:10067   */\n      tag_339\n        /* \"#utility.yul\":10064:10065   */\n      0x00\n        /* \"#utility.yul\":10053:10062   */\n      dup4\n        /* \"#utility.yul\":10049:10066   */\n      add\n        /* \"#utility.yul\":10040:10046   */\n      dup6\n        /* \"#utility.yul\":9996:10067   */\n      tag_195\n      jump\t// in\n    tag_339:\n        /* \"#utility.yul\":10077:10149   */\n      tag_340\n        /* \"#utility.yul\":10145:10147   */\n      0x20\n        /* \"#utility.yul\":10134:10143   */\n      dup4\n        /* \"#utility.yul\":10130:10148   */\n      add\n        /* \"#utility.yul\":10121:10127   */\n      dup5\n        /* \"#utility.yul\":10077:10149   */\n      tag_187\n      jump\t// in\n    tag_340:\n        /* \"#utility.yul\":9824:10156   */\n      swap4\n      swap3\n      pop\n      pop\n      pop\n      jump\t// out\n        /* \"#utility.yul\":10162:10252   */\n    tag_210:\n        /* \"#utility.yul\":10196:10203   */\n      0x00\n        /* \"#utility.yul\":10239:10244   */\n      dup2\n        /* \"#utility.yul\":10232:10245   */\n      iszero\n        /* \"#utility.yul\":10225:10246   */\n      iszero\n        /* \"#utility.yul\":10214:10246   */\n      swap1\n      pop\n        /* \"#utility.yul\":10162:10252   */\n      swap2\n      swap1\n      pop\n      jump\t// out\n        /* \"#utility.yul\":10258:10374   */\n    tag_211:\n        /* \"#utility.yul\":10328:10349   */\n      tag_343\n        /* \"#utility.yul\":10343:10348   */\n      dup2\n        /* \"#utility.yul\":10328:10349   */\n      tag_210\n      jump\t// in\n    tag_343:\n        /* \"#utility.yul\":10321:10326   */\n      dup2\n        /* \"#utility.yul\":10318:10350   */\n      eq\n        /* \"#utility.yul\":10308:10368   */\n      tag_344\n      jumpi\n        /* \"#utility.yul\":10364:10365   */\n      0x00\n        /* \"#utility.yul\":10361:10362   */\n      0x00\n        /* \"#utility.yul\":10354:10366   */\n      revert\n        /* \"#utility.yul\":10308:10368   */\n    tag_344:\n        /* \"#utility.yul\":10258:10374   */\n      pop\n      jump\t// out\n        /* \"#utility.yul\":10380:10517   */\n    tag_212:\n        /* \"#utility.yul\":10434:10439   */\n      0x00\n        /* \"#utility.yul\":10465:10471   */\n      dup2\n        /* \"#utility.yul\":10459:10472   */\n      mload\n        /* \"#utility.yul\":10450:10472   */\n      swap1\n      pop\n        /* \"#utility.yul\":10481:10511   */\n      tag_346\n        /* \"#utility.yul\":10505:10510   */\n      dup2\n        /* \"#utility.yul\":10481:10511   */\n      tag_211\n      jump\t// in\n    tag_346:\n        /* \"#utility.yul\":10380:10517   */\n      swap3\n      swap2\n      pop\n      pop\n      jump\t// out\n        /* \"#utility.yul\":10523:10868   */\n    tag_135:\n        /* \"#utility.yul\":10590:10596   */\n      0x00\n        /* \"#utility.yul\":10639:10641   */\n      0x20\n        /* \"#utility.yul\":10627:10636   */\n      dup3\n        /* \"#utility.yul\":10618:10625   */\n      dup5\n        /* \"#utility.yul\":10614:10637   */\n      sub\n        /* \"#utility.yul\":10610:10642   */\n      slt\n        /* \"#utility.yul\":10607:10726   */\n      iszero\n      tag_348\n      jumpi\n        /* \"#utility.yul\":10645:10724   */\n      tag_349\n      tag_178\n      jump\t// in\n    tag_349:\n        /* \"#utility.yul\":10607:10726   */\n    tag_348:\n        /* \"#utility.yul\":10765:10766   */\n      0x00\n        /* \"#utility.yul\":10790:10851   */\n      tag_350\n        /* \"#utility.yul\":10843:10850   */\n      dup5\n        /* \"#utility.yul\":10834:10840   */\n      dup3\n        /* \"#utility.yul\":10823:10832   */\n      dup6\n        /* \"#utility.yul\":10819:10841   */\n      add\n        /* \"#utility.yul\":10790:10851   */\n      tag_212\n      jump\t// in\n    tag_350:\n        /* \"#utility.yul\":10780:10851   */\n      swap2\n      pop\n        /* \"#utility.yul\":10736:10861   */\n      pop\n        /* \"#utility.yul\":10523:10868   */\n      swap3\n      swap2\n      pop\n      pop\n      jump\t// out\n        /* \"#utility.yul\":10874:11028   */\n    tag_213:\n        /* \"#utility.yul\":11014:11020   */\n      0x5553444300000000000000000000000000000000000000000000000000000000\n        /* \"#utility.yul\":11010:11011   */\n      0x00\n        /* \"#utility.yul\":11002:11008   */\n      dup3\n        /* \"#utility.yul\":10998:11012   */\n      add\n        /* \"#utility.yul\":10991:11021   */\n      mstore\n        /* \"#utility.yul\":10874:11028   */\n      pop\n      jump\t// out\n        /* \"#utility.yul\":11034:11434   */\n    tag_214:\n        /* \"#utility.yul\":11194:11197   */\n      0x00\n        /* \"#utility.yul\":11215:11299   */\n      tag_353\n        /* \"#utility.yul\":11297:11298   */\n      0x04\n        /* \"#utility.yul\":11292:11295   */\n      dup4\n        /* \"#utility.yul\":11215:11299   */\n      tag_199\n      jump\t// in\n    tag_353:\n        /* \"#utility.yul\":11208:11299   */\n      swap2\n      pop\n        /* \"#utility.yul\":11308:11401   */\n      tag_354\n        /* \"#utility.yul\":11397:11400   */\n      dup3\n        /* \"#utility.yul\":11308:11401   */\n      tag_213\n      jump\t// in\n    tag_354:\n        /* \"#utility.yul\":11426:11427   */\n      0x04\n        /* \"#utility.yul\":11421:11424   */\n      dup3\n        /* \"#utility.yul\":11417:11428   */\n      add\n        /* \"#utility.yul\":11410:11428   */\n      swap1\n      pop\n        /* \"#utility.yul\":11034:11434   */\n      swap2\n      swap1\n      pop\n      jump\t// out\n        /* \"#utility.yul\":11440:11821   */\n    tag_137:\n        /* \"#utility.yul\":11625:11628   */\n      0x00\n        /* \"#utility.yul\":11647:11795   */\n      tag_356\n        /* \"#utility.yul\":11791:11794   */\n      dup3\n        /* \"#utility.yul\":11647:11795   */\n      tag_214\n      jump\t// in\n    tag_356:\n        /* \"#utility.yul\":11640:11795   */\n      swap2\n      pop\n        /* \"#utility.yul\":11812:11815   */\n      dup2\n        /* \"#utility.yul\":11805:11815   */\n      swap1\n      pop\n        /* \"#utility.yul\":11440:11821   */\n      swap2\n      swap1\n      pop\n      jump\t// out\n        /* \"#utility.yul\":11827:12269   */\n    tag_153:\n        /* \"#utility.yul\":11976:11980   */\n      0x00\n        /* \"#utility.yul\":12014:12016   */\n      0x60\n        /* \"#utility.yul\":12003:12012   */\n      dup3\n        /* \"#utility.yul\":11999:12017   */\n      add\n        /* \"#utility.yul\":11991:12017   */\n      swap1\n      pop\n        /* \"#utility.yul\":12027:12098   */\n      tag_358\n        /* \"#utility.yul\":12095:12096   */\n      0x00\n        /* \"#utility.yul\":12084:12093   */\n      dup4\n        /* \"#utility.yul\":12080:12097   */\n      add\n        /* \"#utility.yul\":12071:12077   */\n      dup7\n        /* \"#utility.yul\":12027:12098   */\n      tag_195\n      jump\t// in\n    tag_358:\n        /* \"#utility.yul\":12108:12180   */\n      tag_359\n        /* \"#utility.yul\":12176:12178   */\n      0x20\n        /* \"#utility.yul\":12165:12174   */\n      dup4\n        /* \"#utility.yul\":12161:12179   */\n      add\n        /* \"#utility.yul\":12152:12158   */\n      dup6\n        /* \"#utility.yul\":12108:12180   */\n      tag_195\n      jump\t// in\n    tag_359:\n        /* \"#utility.yul\":12190:12262   */\n      tag_360\n        /* \"#utility.yul\":12258:12260   */\n      0x40\n        /* \"#utility.yul\":12247:12256   */\n      dup4\n        /* \"#utility.yul\":12243:12261   */\n      add\n        /* \"#utility.yul\":12234:12240   */\n      dup5\n        /* \"#utility.yul\":12190:12262   */\n      tag_187\n      jump\t// in\n    tag_360:\n        /* \"#utility.yul\":11827:12269   */\n      swap5\n      swap4\n      pop\n      pop\n      pop\n      pop\n      jump\t// out\n        /* \"#utility.yul\":12275:12422   */\n    tag_215:\n        /* \"#utility.yul\":12376:12387   */\n      0x00\n        /* \"#utility.yul\":12413:12416   */\n      dup2\n        /* \"#utility.yul\":12398:12416   */\n      swap1\n      pop\n        /* \"#utility.yul\":12275:12422   */\n      swap3\n      swap2\n      pop\n      pop\n      jump\t// out\n        /* \"#utility.yul\":12428:12542   */\n    tag_216:\n      pop\n      jump\t// out\n        /* \"#utility.yul\":12548:12946   */\n    tag_217:\n        /* \"#utility.yul\":12707:12710   */\n      0x00\n        /* \"#utility.yul\":12728:12811   */\n      tag_364\n        /* \"#utility.yul\":12809:12810   */\n      0x00\n        /* \"#utility.yul\":12804:12807   */\n      dup4\n        /* \"#utility.yul\":12728:12811   */\n      tag_215\n      jump\t// in\n    tag_364:\n        /* \"#utility.yul\":12721:12811   */\n      swap2\n      pop\n        /* \"#utility.yul\":12820:12913   */\n      tag_365\n        /* \"#utility.yul\":12909:12912   */\n      dup3\n        /* \"#utility.yul\":12820:12913   */\n      tag_216\n      jump\t// in\n    tag_365:\n        /* \"#utility.yul\":12938:12939   */\n      0x00\n        /* \"#utility.yul\":12933:12936   */\n      dup3\n        /* \"#utility.yul\":12929:12940   */\n      add\n        /* \"#utility.yul\":12922:12940   */\n      swap1\n      pop\n        /* \"#utility.yul\":12548:12946   */\n      swap2\n      swap1\n      pop\n      jump\t// out\n        /* \"#utility.yul\":12952:13331   */\n    tag_161:\n        /* \"#utility.yul\":13136:13139   */\n      0x00\n        /* \"#utility.yul\":13158:13305   */\n      tag_367\n        /* \"#utility.yul\":13301:13304   */\n      dup3\n        /* \"#utility.yul\":13158:13305   */\n      tag_217\n      jump\t// in\n    tag_367:\n        /* \"#utility.yul\":13151:13305   */\n      swap2\n      pop\n        /* \"#utility.yul\":13322:13325   */\n      dup2\n        /* \"#utility.yul\":13315:13325   */\n      swap1\n      pop\n        /* \"#utility.yul\":12952:13331   */\n      swap2\n      swap1\n      pop\n      jump\t// out\n        /* \"#utility.yul\":13337:13435   */\n    tag_218:\n        /* \"#utility.yul\":13388:13394   */\n      0x00\n        /* \"#utility.yul\":13422:13427   */\n      dup2\n        /* \"#utility.yul\":13416:13428   */\n      mload\n        /* \"#utility.yul\":13406:13428   */\n      swap1\n      pop\n        /* \"#utility.yul\":13337:13435   */\n      swap2\n      swap1\n      pop\n      jump\t// out\n        /* \"#utility.yul\":13441:13609   */\n    tag_219:\n        /* \"#utility.yul\":13524:13535   */\n      0x00\n        /* \"#utility.yul\":13558:13564   */\n      dup3\n        /* \"#utility.yul\":13553:13556   */\n      dup3\n        /* \"#utility.yul\":13546:13565   */\n      mstore\n        /* \"#utility.yul\":13598:13602   */\n      0x20\n        /* \"#utility.yul\":13593:13596   */\n      dup3\n        /* \"#utility.yul\":13589:13603   */\n      add\n        /* \"#utility.yul\":13574:13603   */\n      swap1\n      pop\n        /* \"#utility.yul\":13441:13609   */\n      swap3\n      swap2\n      pop\n      pop\n      jump\t// out\n        /* \"#utility.yul\":13615:13754   */\n    tag_220:\n        /* \"#utility.yul\":13704:13710   */\n      dup3\n        /* \"#utility.yul\":13699:13702   */\n      dup2\n        /* \"#utility.yul\":13694:13697   */\n      dup4\n        /* \"#utility.yul\":13688:13711   */\n      mcopy\n        /* \"#utility.yul\":13745:13746   */\n      0x00\n        /* \"#utility.yul\":13736:13742   */\n      dup4\n        /* \"#utility.yul\":13731:13734   */\n      dup4\n        /* \"#utility.yul\":13727:13743   */\n      add\n        /* \"#utility.yul\":13720:13747   */\n      mstore\n        /* \"#utility.yul\":13615:13754   */\n      pop\n      pop\n      pop\n      jump\t// out\n        /* \"#utility.yul\":13760:13862   */\n    tag_221:\n        /* \"#utility.yul\":13801:13807   */\n      0x00\n        /* \"#utility.yul\":13852:13854   */\n      0x1f\n        /* \"#utility.yul\":13848:13855   */\n      not\n        /* \"#utility.yul\":13843:13845   */\n      0x1f\n        /* \"#utility.yul\":13836:13841   */\n      dup4\n        /* \"#utility.yul\":13832:13846   */\n      add\n        /* \"#utility.yul\":13828:13856   */\n      and\n        /* \"#utility.yul\":13818:13856   */\n      swap1\n      pop\n        /* \"#utility.yul\":13760:13862   */\n      swap2\n      swap1\n      pop\n      jump\t// out\n        /* \"#utility.yul\":13868:14241   */\n    tag_222:\n        /* \"#utility.yul\":13954:13957   */\n      0x00\n        /* \"#utility.yul\":13982:14020   */\n      tag_373\n        /* \"#utility.yul\":14014:14019   */\n      dup3\n        /* \"#utility.yul\":13982:14020   */\n      tag_218\n      jump\t// in\n    tag_373:\n        /* \"#utility.yul\":14036:14106   */\n      tag_374\n        /* \"#utility.yul\":14099:14105   */\n      dup2\n        /* \"#utility.yul\":14094:14097   */\n      dup6\n        /* \"#utility.yul\":14036:14106   */\n      tag_219\n      jump\t// in\n    tag_374:\n        /* \"#utility.yul\":14029:14106   */\n      swap4\n      pop\n        /* \"#utility.yul\":14115:14180   */\n      tag_375\n        /* \"#utility.yul\":14173:14179   */\n      dup2\n        /* \"#utility.yul\":14168:14171   */\n      dup6\n        /* \"#utility.yul\":14161:14165   */\n      0x20\n        /* \"#utility.yul\":14154:14159   */\n      dup7\n        /* \"#utility.yul\":14150:14166   */\n      add\n        /* \"#utility.yul\":14115:14180   */\n      tag_220\n      jump\t// in\n    tag_375:\n        /* \"#utility.yul\":14205:14234   */\n      tag_376\n        /* \"#utility.yul\":14227:14233   */\n      dup2\n        /* \"#utility.yul\":14205:14234   */\n      tag_221\n      jump\t// in\n    tag_376:\n        /* \"#utility.yul\":14200:14203   */\n      dup5\n        /* \"#utility.yul\":14196:14235   */\n      add\n        /* \"#utility.yul\":14189:14235   */\n      swap2\n      pop\n        /* \"#utility.yul\":13958:14241   */\n      pop\n        /* \"#utility.yul\":13868:14241   */\n      swap3\n      swap2\n      pop\n      pop\n      jump\t// out\n        /* \"#utility.yul\":14247:14556   */\n    tag_167:\n        /* \"#utility.yul\":14358:14362   */\n      0x00\n        /* \"#utility.yul\":14396:14398   */\n      0x20\n        /* \"#utility.yul\":14385:14394   */\n      dup3\n        /* \"#utility.yul\":14381:14399   */\n      add\n        /* \"#utility.yul\":14373:14399   */\n      swap1\n      pop\n        /* \"#utility.yul\":14445:14454   */\n      dup2\n        /* \"#utility.yul\":14439:14443   */\n      dup2\n        /* \"#utility.yul\":14435:14455   */\n      sub\n        /* \"#utility.yul\":14431:14432   */\n      0x00\n        /* \"#utility.yul\":14420:14429   */\n      dup4\n        /* \"#utility.yul\":14416:14433   */\n      add\n        /* \"#utility.yul\":14409:14456   */\n      mstore\n        /* \"#utility.yul\":14473:14549   */\n      tag_378\n        /* \"#utility.yul\":14544:14548   */\n      dup2\n        /* \"#utility.yul\":14535:14541   */\n      dup5\n        /* \"#utility.yul\":14473:14549   */\n      tag_222\n      jump\t// in\n    tag_378:\n        /* \"#utility.yul\":14465:14549   */\n      swap1\n      pop\n        /* \"#utility.yul\":14247:14556   */\n      swap3\n      swap2\n      pop\n      pop\n      jump\t// out\n\n    auxdata: 0xa26469706673582212209d4194c95aa032a80dde5a161fb808f754609672b58ae09db50a0ffff7eeed3464736f6c634300081b0033\n}\n",
				"bytecode": {
					"linkReferences": {},
					"object": "60c060405234801561000f575f5ffd5b50604051611ab5380380611ab583398181016040528101906100319190610333565b335f73ffffffffffffffffffffffffffffffffffffffff168173ffffffffffffffffffffffffffffffffffffffff16036100a2575f6040517f1e4fbdf70000000000000000000000000000000000000000000000000000000081526004016100999190610392565b60405180910390fd5b6100b1816101e160201b60201c565b505f73ffffffffffffffffffffffffffffffffffffffff168373ffffffffffffffffffffffffffffffffffffffff16148061011757505f73ffffffffffffffffffffffffffffffffffffffff168273ffffffffffffffffffffffffffffffffffffffff16145b1561014e576040517fe6c4247b00000000000000000000000000000000000000000000000000000000815260040160405180910390fd5b8260015f6101000a81548173ffffffffffffffffffffffffffffffffffffffff021916908373ffffffffffffffffffffffffffffffffffffffff1602179055508173ffffffffffffffffffffffffffffffffffffffff1660a08173ffffffffffffffffffffffffffffffffffffffff16815250506305f5e100816101d291906103d8565b60808181525050505050610419565b5f5f5f9054906101000a900473ffffffffffffffffffffffffffffffffffffffff169050815f5f6101000a81548173ffffffffffffffffffffffffffffffffffffffff021916908373ffffffffffffffffffffffffffffffffffffffff1602179055508173ffffffffffffffffffffffffffffffffffffffff168173ffffffffffffffffffffffffffffffffffffffff167f8be0079c531659141344cd1fd0a4f28419497f9722a3daafe3b4186f6b6457e060405160405180910390a35050565b5f5ffd5b5f73ffffffffffffffffffffffffffffffffffffffff82169050919050565b5f6102cf826102a6565b9050919050565b6102df816102c5565b81146102e9575f5ffd5b50565b5f815190506102fa816102d6565b92915050565b5f819050919050565b61031281610300565b811461031c575f5ffd5b50565b5f8151905061032d81610309565b92915050565b5f5f5f6060848603121561034a576103496102a2565b5b5f610357868287016102ec565b9350506020610368868287016102ec565b92505060406103798682870161031f565b9150509250925092565b61038c816102c5565b82525050565b5f6020820190506103a55f830184610383565b92915050565b7f4e487b71000000000000000000000000000000000000000000000000000000005f52601160045260245ffd5b5f6103e282610300565b91506103ed83610300565b92508282026103fb81610300565b91508282048414831517610412576104116103ab565b5b5092915050565b60805160a05161166661044f5f395f81816107e1015281816109940152610c3401525f81816105a401526107bd01526116665ff3fe6080604052600436106100dc575f3560e01c806389a302711161007e578063c84aae1711610058578063c84aae1714610271578063eae6754a146102ad578063f2fde38b146102d7578063f688bcfb146102ff576100dc565b806389a30271146101f55780638da5cb5b1461021f5780639b90040514610249576100dc565b80636a7bec4f116100ba5780636a7bec4f1461014f578063715018a61461018b578063741bef1a146101a1578063893b7e95146101cb576100dc565b80631edc8f03146100e057806327e235e314610108578063439370b114610145575b5f5ffd5b3480156100eb575f5ffd5b5061010660048036038101906101019190610f86565b610327565b005b348015610113575f5ffd5b5061012e6004803603810190610129919061100b565b61052f565b60405161013c929190611045565b60405180910390f35b61014d61054f565b005b34801561015a575f5ffd5b5061017560048036038101906101709190610f86565b6106c6565b604051610182919061106c565b60405180910390f35b348015610196575f5ffd5b5061019f610783565b005b3480156101ac575f5ffd5b506101b5610796565b6040516101c291906110e0565b60405180910390f35b3480156101d6575f5ffd5b506101df6107bb565b6040516101ec919061106c565b60405180910390f35b348015610200575f5ffd5b506102096107df565b6040516102169190611119565b60405180910390f35b34801561022a575f5ffd5b50610233610803565b6040516102409190611141565b60405180910390f35b348015610254575f5ffd5b5061026f600480360381019061026a9190610f86565b61082a565b005b34801561027c575f5ffd5b506102976004803603810190610292919061100b565b610aae565b6040516102a49190611196565b60405180910390f35b3480156102b8575f5ffd5b506102c1610b18565b6040516102ce919061106c565b60405180910390f35b3480156102e2575f5ffd5b506102fd60048036038101906102f8919061100b565b610b1e565b005b34801561030a575f5ffd5b5061032560048036038101906103209190610f86565b610ba2565b005b60035f9054906101000a900460ff161561036d576040517f37ed32e800000000000000000000000000000000000000000000000000000000815260040160405180910390fd5b600160035f6101000a81548160ff021916908315150217905550805f81036103c1576040517f2c5211c600000000000000000000000000000000000000000000000000000000815260040160405180910390fd5b5f60045f3373ffffffffffffffffffffffffffffffffffffffff1673ffffffffffffffffffffffffffffffffffffffff1681526020019081526020015f205f015490508083111561043e576040517ff4d678b800000000000000000000000000000000000000000000000000000000815260040160405180910390fd5b828161044a91906111dc565b60045f3373ffffffffffffffffffffffffffffffffffffffff1673ffffffffffffffffffffffffffffffffffffffff1681526020019081526020015f205f01819055508260025f82825461049e91906111dc565b925050819055506104af3384610d36565b6040516104bb90611263565b60405180910390203373ffffffffffffffffffffffffffffffffffffffff167f323cefffcafc4dae937c4a852e3866ecde9e8c1d723e1187230b982201040fb685604051610509919061106c565b60405180910390a350505f60035f6101000a81548160ff02191690831515021790555050565b6004602052805f5260405f205f91509050805f0154908060010154905082565b345f8103610589576040517f2c5211c600000000000000000000000000000000000000000000000000000000815260040160405180910390fd5b5f6105a03460025461059b9190611277565b6106c6565b90507f00000000000000000000000000000000000000000000000000000000000000008111156105fc576040517f448f3ca800000000000000000000000000000000000000000000000000000000815260040160405180910390fd5b3460025f82825401925050819055503460045f3373ffffffffffffffffffffffffffffffffffffffff1673ffffffffffffffffffffffffffffffffffffffff1681526020019081526020015f205f015f8282546106599190611277565b9250508190555060405161066c90611263565b60405180910390203373ffffffffffffffffffffffffffffffffffffffff167f2d4b597935f3cd67fb2eebf1db4debc934cee5c7baa7153f980fdbeb2e74084e346040516106ba919061106c565b60405180910390a35050565b5f5f60015f9054906101000a900473ffffffffffffffffffffffffffffffffffffffff1673ffffffffffffffffffffffffffffffffffffffff1663feaf968c6040518163ffffffff1660e01b815260040160a060405180830381865afa158015610732573d5f5f3e3d5ffd5b505050506040513d601f19601f820116820180604052508101906107569190611330565b505050915050670de0b6b3a7640000838261077191906113a7565b61077b9190611415565b915050919050565b61078b610de8565b6107945f610e6f565b565b60015f9054906101000a900473ffffffffffffffffffffffffffffffffffffffff1681565b7f000000000000000000000000000000000000000000000000000000000000000081565b7f000000000000000000000000000000000000000000000000000000000000000081565b5f5f5f9054906101000a900473ffffffffffffffffffffffffffffffffffffffff16905090565b60035f9054906101000a900460ff1615610870576040517f37ed32e800000000000000000000000000000000000000000000000000000000815260040160405180910390fd5b600160035f6101000a81548160ff021916908315150217905550805f81036108c4576040517f2c5211c600000000000000000000000000000000000000000000000000000000815260040160405180910390fd5b5f60045f3373ffffffffffffffffffffffffffffffffffffffff1673ffffffffffffffffffffffffffffffffffffffff1681526020019081526020015f2060010154905080831115610942576040517ff4d678b800000000000000000000000000000000000000000000000000000000815260040160405180910390fd5b828161094e91906111dc565b60045f3373ffffffffffffffffffffffffffffffffffffffff1673ffffffffffffffffffffffffffffffffffffffff1681526020019081526020015f20600101819055507f000000000000000000000000000000000000000000000000000000000000000073ffffffffffffffffffffffffffffffffffffffff1663a9059cbb33856040518363ffffffff1660e01b81526004016109ed929190611445565b6020604051808303815f875af1158015610a09573d5f5f3e3d5ffd5b505050506040513d601f19601f82011682018060405250810190610a2d91906114a1565b50604051610a3a90611516565b60405180910390203373ffffffffffffffffffffffffffffffffffffffff167f323cefffcafc4dae937c4a852e3866ecde9e8c1d723e1187230b982201040fb685604051610a88919061106c565b60405180910390a350505f60035f6101000a81548160ff02191690831515021790555050565b610ab6610f37565b60045f8373ffffffffffffffffffffffffffffffffffffffff1673ffffffffffffffffffffffffffffffffffffffff1681526020019081526020015f206040518060400160405290815f82015481526020016001820154815250509050919050565b60025481565b610b26610de8565b5f73ffffffffffffffffffffffffffffffffffffffff168173ffffffffffffffffffffffffffffffffffffffff1603610b96575f6040517f1e4fbdf7000000000000000000000000000000000000000000000000000000008152600401610b8d9190611141565b60405180910390fd5b610b9f81610e6f565b50565b805f8103610bdc576040517f2c5211c600000000000000000000000000000000000000000000000000000000815260040160405180910390fd5b8160045f3373ffffffffffffffffffffffffffffffffffffffff1673ffffffffffffffffffffffffffffffffffffffff1681526020019081526020015f206001015f828254610c2b9190611277565b925050819055507f000000000000000000000000000000000000000000000000000000000000000073ffffffffffffffffffffffffffffffffffffffff166323b872dd3330856040518463ffffffff1660e01b8152600401610c8f9392919061152a565b6020604051808303815f875af1158015610cab573d5f5f3e3d5ffd5b505050506040513d601f19601f82011682018060405250810190610ccf91906114a1565b50604051610cdc90611516565b60405180910390203373ffffffffffffffffffffffffffffffffffffffff167f2d4b597935f3cd67fb2eebf1db4debc934cee5c7baa7153f980fdbeb2e74084e84604051610d2a919061106c565b60405180910390a35050565b5f5f8373ffffffffffffffffffffffffffffffffffffffff1683604051610d5c9061158c565b5f6040518083038185875af1925050503d805f8114610d96576040519150601f19603f3d011682016040523d82523d5f602084013e610d9b565b606091505b509150915081610de257806040517f49ba945b000000000000000000000000000000000000000000000000000000008152600401610dd99190611610565b60405180910390fd5b50505050565b610df0610f30565b73ffffffffffffffffffffffffffffffffffffffff16610e0e610803565b73ffffffffffffffffffffffffffffffffffffffff1614610e6d57610e31610f30565b6040517f118cdaa7000000000000000000000000000000000000000000000000000000008152600401610e649190611141565b60405180910390fd5b565b5f5f5f9054906101000a900473ffffffffffffffffffffffffffffffffffffffff169050815f5f6101000a81548173ffffffffffffffffffffffffffffffffffffffff021916908373ffffffffffffffffffffffffffffffffffffffff1602179055508173ffffffffffffffffffffffffffffffffffffffff168173ffffffffffffffffffffffffffffffffffffffff167f8be0079c531659141344cd1fd0a4f28419497f9722a3daafe3b4186f6b6457e060405160405180910390a35050565b5f33905090565b60405180604001604052805f81526020015f81525090565b5f5ffd5b5f819050919050565b610f6581610f53565b8114610f6f575f5ffd5b50565b5f81359050610f8081610f5c565b92915050565b5f60208284031215610f9b57610f9a610f4f565b5b5f610fa884828501610f72565b91505092915050565b5f73ffffffffffffffffffffffffffffffffffffffff82169050919050565b5f610fda82610fb1565b9050919050565b610fea81610fd0565b8114610ff4575f5ffd5b50565b5f8135905061100581610fe1565b92915050565b5f602082840312156110205761101f610f4f565b5b5f61102d84828501610ff7565b91505092915050565b61103f81610f53565b82525050565b5f6040820190506110585f830185611036565b6110656020830184611036565b9392505050565b5f60208201905061107f5f830184611036565b92915050565b5f819050919050565b5f6110a86110a361109e84610fb1565b611085565b610fb1565b9050919050565b5f6110b98261108e565b9050919050565b5f6110ca826110af565b9050919050565b6110da816110c0565b82525050565b5f6020820190506110f35f8301846110d1565b92915050565b5f611103826110af565b9050919050565b611113816110f9565b82525050565b5f60208201905061112c5f83018461110a565b92915050565b61113b81610fd0565b82525050565b5f6020820190506111545f830184611132565b92915050565b61116381610f53565b82525050565b604082015f82015161117d5f85018261115a565b506020820151611190602085018261115a565b50505050565b5f6040820190506111a95f830184611169565b92915050565b7f4e487b71000000000000000000000000000000000000000000000000000000005f52601160045260245ffd5b5f6111e682610f53565b91506111f183610f53565b9250828203905081811115611209576112086111af565b5b92915050565b5f81905092915050565b7f45544800000000000000000000000000000000000000000000000000000000005f82015250565b5f61124d60038361120f565b915061125882611219565b600382019050919050565b5f61126d82611241565b9150819050919050565b5f61128182610f53565b915061128c83610f53565b92508282019050808211156112a4576112a36111af565b5b92915050565b5f69ffffffffffffffffffff82169050919050565b6112c8816112aa565b81146112d2575f5ffd5b50565b5f815190506112e3816112bf565b92915050565b5f819050919050565b6112fb816112e9565b8114611305575f5ffd5b50565b5f81519050611316816112f2565b92915050565b5f8151905061132a81610f5c565b92915050565b5f5f5f5f5f60a0868803121561134957611348610f4f565b5b5f611356888289016112d5565b955050602061136788828901611308565b94505060406113788882890161131c565b93505060606113898882890161131c565b925050608061139a888289016112d5565b9150509295509295909350565b5f6113b182610f53565b91506113bc83610f53565b92508282026113ca81610f53565b915082820484148315176113e1576113e06111af565b5b5092915050565b7f4e487b71000000000000000000000000000000000000000000000000000000005f52601260045260245ffd5b5f61141f82610f53565b915061142a83610f53565b92508261143a576114396113e8565b5b828204905092915050565b5f6040820190506114585f830185611132565b6114656020830184611036565b9392505050565b5f8115159050919050565b6114808161146c565b811461148a575f5ffd5b50565b5f8151905061149b81611477565b92915050565b5f602082840312156114b6576114b5610f4f565b5b5f6114c38482850161148d565b91505092915050565b7f55534443000000000000000000000000000000000000000000000000000000005f82015250565b5f61150060048361120f565b915061150b826114cc565b600482019050919050565b5f611520826114f4565b9150819050919050565b5f60608201905061153d5f830186611132565b61154a6020830185611132565b6115576040830184611036565b949350505050565b5f81905092915050565b50565b5f6115775f8361155f565b915061158282611569565b5f82019050919050565b5f6115968261156c565b9150819050919050565b5f81519050919050565b5f82825260208201905092915050565b8281835e5f83830152505050565b5f601f19601f8301169050919050565b5f6115e2826115a0565b6115ec81856115aa565b93506115fc8185602086016115ba565b611605816115c8565b840191505092915050565b5f6020820190508181035f83015261162881846115d8565b90509291505056fea26469706673582212209d4194c95aa032a80dde5a161fb808f754609672b58ae09db50a0ffff7eeed3464736f6c634300081b0033",
					"opcodes": "PUSH1 0xC0 PUSH1 0x40 MSTORE CALLVALUE DUP1 ISZERO PUSH2 0xF JUMPI PUSH0 PUSH0 REVERT JUMPDEST POP PUSH1 0x40 MLOAD PUSH2 0x1AB5 CODESIZE SUB DUP1 PUSH2 0x1AB5 DUP4 CODECOPY DUP2 DUP2 ADD PUSH1 0x40 MSTORE DUP2 ADD SWAP1 PUSH2 0x31 SWAP2 SWAP1 PUSH2 0x333 JUMP JUMPDEST CALLER PUSH0 PUSH20 0xFFFFFFFFFFFFFFFFFFFFFFFFFFFFFFFFFFFFFFFF AND DUP2 PUSH20 0xFFFFFFFFFFFFFFFFFFFFFFFFFFFFFFFFFFFFFFFF AND SUB PUSH2 0xA2 JUMPI PUSH0 PUSH1 0x40 MLOAD PUSH32 0x1E4FBDF700000000000000000000000000000000000000000000000000000000 DUP2 MSTORE PUSH1 0x4 ADD PUSH2 0x99 SWAP2 SWAP1 PUSH2 0x392 JUMP JUMPDEST PUSH1 0x40 MLOAD DUP1 SWAP2 SUB SWAP1 REVERT JUMPDEST PUSH2 0xB1 DUP2 PUSH2 0x1E1 PUSH1 0x20 SHL PUSH1 0x20 SHR JUMP JUMPDEST POP PUSH0 PUSH20 0xFFFFFFFFFFFFFFFFFFFFFFFFFFFFFFFFFFFFFFFF AND DUP4 PUSH20 0xFFFFFFFFFFFFFFFFFFFFFFFFFFFFFFFFFFFFFFFF AND EQ DUP1 PUSH2 0x117 JUMPI POP PUSH0 PUSH20 0xFFFFFFFFFFFFFFFFFFFFFFFFFFFFFFFFFFFFFFFF AND DUP3 PUSH20 0xFFFFFFFFFFFFFFFFFFFFFFFFFFFFFFFFFFFFFFFF AND EQ JUMPDEST ISZERO PUSH2 0x14E JUMPI PUSH1 0x40 MLOAD PUSH32 0xE6C4247B00000000000000000000000000000000000000000000000000000000 DUP2 MSTORE PUSH1 0x4 ADD PUSH1 0x40 MLOAD DUP1 SWAP2 SUB SWAP1 REVERT JUMPDEST DUP3 PUSH1 0x1 PUSH0 PUSH2 0x100 EXP DUP2 SLOAD DUP2 PUSH20 0xFFFFFFFFFFFFFFFFFFFFFFFFFFFFFFFFFFFFFFFF MUL NOT AND SWAP1 DUP4 PUSH20 0xFFFFFFFFFFFFFFFFFFFFFFFFFFFFFFFFFFFFFFFF AND MUL OR SWAP1 SSTORE POP DUP2 PUSH20 0xFFFFFFFFFFFFFFFFFFFFFFFFFFFFFFFFFFFFFFFF AND PUSH1 0xA0 DUP2 PUSH20 0xFFFFFFFFFFFFFFFFFFFFFFFFFFFFFFFFFFFFFFFF AND DUP2 MSTORE POP POP PUSH4 0x5F5E100 DUP2 PUSH2 0x1D2 SWAP2 SWAP1 PUSH2 0x3D8 JUMP JUMPDEST PUSH1 0x80 DUP2 DUP2 MSTORE POP POP POP POP POP PUSH2 0x419 JUMP JUMPDEST PUSH0 PUSH0 PUSH0 SWAP1 SLOAD SWAP1 PUSH2 0x100 EXP SWAP1 DIV PUSH20 0xFFFFFFFFFFFFFFFFFFFFFFFFFFFFFFFFFFFFFFFF AND SWAP1 POP DUP2 PUSH0 PUSH0 PUSH2 0x100 EXP DUP2 SLOAD DUP2 PUSH20 0xFFFFFFFFFFFFFFFFFFFFFFFFFFFFFFFFFFFFFFFF MUL NOT AND SWAP1 DUP4 PUSH20 0xFFFFFFFFFFFFFFFFFFFFFFFFFFFFFFFFFFFFFFFF AND MUL OR SWAP1 SSTORE POP DUP2 PUSH20 0xFFFFFFFFFFFFFFFFFFFFFFFFFFFFFFFFFFFFFFFF AND DUP2 PUSH20 0xFFFFFFFFFFFFFFFFFFFFFFFFFFFFFFFFFFFFFFFF AND PUSH32 0x8BE0079C531659141344CD1FD0A4F28419497F9722A3DAAFE3B4186F6B6457E0 PUSH1 0x40 MLOAD PUSH1 0x40 MLOAD DUP1 SWAP2 SUB SWAP1 LOG3 POP POP JUMP JUMPDEST PUSH0 PUSH0 REVERT JUMPDEST PUSH0 PUSH20 0xFFFFFFFFFFFFFFFFFFFFFFFFFFFFFFFFFFFFFFFF DUP3 AND SWAP1 POP SWAP2 SWAP1 POP JUMP JUMPDEST PUSH0 PUSH2 0x2CF DUP3 PUSH2 0x2A6 JUMP JUMPDEST SWAP1 POP SWAP2 SWAP1 POP JUMP JUMPDEST PUSH2 0x2DF DUP2 PUSH2 0x2C5 JUMP JUMPDEST DUP2 EQ PUSH2 0x2E9 JUMPI PUSH0 PUSH0 REVERT JUMPDEST POP JUMP JUMPDEST PUSH0 DUP2 MLOAD SWAP1 POP PUSH2 0x2FA DUP2 PUSH2 0x2D6 JUMP JUMPDEST SWAP3 SWAP2 POP POP JUMP JUMPDEST PUSH0 DUP2 SWAP1 POP SWAP2 SWAP1 POP JUMP JUMPDEST PUSH2 0x312 DUP2 PUSH2 0x300 JUMP JUMPDEST DUP2 EQ PUSH2 0x31C JUMPI PUSH0 PUSH0 REVERT JUMPDEST POP JUMP JUMPDEST PUSH0 DUP2 MLOAD SWAP1 POP PUSH2 0x32D DUP2 PUSH2 0x309 JUMP JUMPDEST SWAP3 SWAP2 POP POP JUMP JUMPDEST PUSH0 PUSH0 PUSH0 PUSH1 0x60 DUP5 DUP7 SUB SLT ISZERO PUSH2 0x34A JUMPI PUSH2 0x349 PUSH2 0x2A2 JUMP JUMPDEST JUMPDEST PUSH0 PUSH2 0x357 DUP7 DUP3 DUP8 ADD PUSH2 0x2EC JUMP JUMPDEST SWAP4 POP POP PUSH1 0x20 PUSH2 0x368 DUP7 DUP3 DUP8 ADD PUSH2 0x2EC JUMP JUMPDEST SWAP3 POP POP PUSH1 0x40 PUSH2 0x379 DUP7 DUP3 DUP8 ADD PUSH2 0x31F JUMP JUMPDEST SWAP2 POP POP SWAP3 POP SWAP3 POP SWAP3 JUMP JUMPDEST PUSH2 0x38C DUP2 PUSH2 0x2C5 JUMP JUMPDEST DUP3 MSTORE POP POP JUMP JUMPDEST PUSH0 PUSH1 0x20 DUP3 ADD SWAP1 POP PUSH2 0x3A5 PUSH0 DUP4 ADD DUP5 PUSH2 0x383 JUMP JUMPDEST SWAP3 SWAP2 POP POP JUMP JUMPDEST PUSH32 0x4E487B7100000000000000000000000000000000000000000000000000000000 PUSH0 MSTORE PUSH1 0x11 PUSH1 0x4 MSTORE PUSH1 0x24 PUSH0 REVERT JUMPDEST PUSH0 PUSH2 0x3E2 DUP3 PUSH2 0x300 JUMP JUMPDEST SWAP2 POP PUSH2 0x3ED DUP4 PUSH2 0x300 JUMP JUMPDEST SWAP3 POP DUP3 DUP3 MUL PUSH2 0x3FB DUP2 PUSH2 0x300 JUMP JUMPDEST SWAP2 POP DUP3 DUP3 DIV DUP5 EQ DUP4 ISZERO OR PUSH2 0x412 JUMPI PUSH2 0x411 PUSH2 0x3AB JUMP JUMPDEST JUMPDEST POP SWAP3 SWAP2 POP POP JUMP JUMPDEST PUSH1 0x80 MLOAD PUSH1 0xA0 MLOAD PUSH2 0x1666 PUSH2 0x44F PUSH0 CODECOPY PUSH0 DUP2 DUP2 PUSH2 0x7E1 ADD MSTORE DUP2 DUP2 PUSH2 0x994 ADD MSTORE PUSH2 0xC34 ADD MSTORE PUSH0 DUP2 DUP2 PUSH2 0x5A4 ADD MSTORE PUSH2 0x7BD ADD MSTORE PUSH2 0x1666 PUSH0 RETURN INVALID PUSH1 0x80 PUSH1 0x40 MSTORE PUSH1 0x4 CALLDATASIZE LT PUSH2 0xDC JUMPI PUSH0 CALLDATALOAD PUSH1 0xE0 SHR DUP1 PUSH4 0x89A30271 GT PUSH2 0x7E JUMPI DUP1 PUSH4 0xC84AAE17 GT PUSH2 0x58 JUMPI DUP1 PUSH4 0xC84AAE17 EQ PUSH2 0x271 JUMPI DUP1 PUSH4 0xEAE6754A EQ PUSH2 0x2AD JUMPI DUP1 PUSH4 0xF2FDE38B EQ PUSH2 0x2D7 JUMPI DUP1 PUSH4 0xF688BCFB EQ PUSH2 0x2FF JUMPI PUSH2 0xDC JUMP JUMPDEST DUP1 PUSH4 0x89A30271 EQ PUSH2 0x1F5 JUMPI DUP1 PUSH4 0x8DA5CB5B EQ PUSH2 0x21F JUMPI DUP1 PUSH4 0x9B900405 EQ PUSH2 0x249 JUMPI PUSH2 0xDC JUMP JUMPDEST DUP1 PUSH4 0x6A7BEC4F GT PUSH2 0xBA JUMPI DUP1 PUSH4 0x6A7BEC4F EQ PUSH2 0x14F JUMPI DUP1 PUSH4 0x715018A6 EQ PUSH2 0x18B JUMPI DUP1 PUSH4 0x741BEF1A EQ PUSH2 0x1A1 JUMPI DUP1 PUSH4 0x893B7E95 EQ PUSH2 0x1CB JUMPI PUSH2 0xDC JUMP JUMPDEST DUP1 PUSH4 0x1EDC8F03 EQ PUSH2 0xE0 JUMPI DUP1 PUSH4 0x27E235E3 EQ PUSH2 0x108 JUMPI DUP1 PUSH4 0x439370B1 EQ PUSH2 0x145 JUMPI JUMPDEST PUSH0 PUSH0 REVERT JUMPDEST CALLVALUE DUP1 ISZERO PUSH2 0xEB JUMPI PUSH0 PUSH0 REVERT JUMPDEST POP PUSH2 0x106 PUSH1 0x4 DUP1 CALLDATASIZE SUB DUP2 ADD SWAP1 PUSH2 0x101 SWAP2 SWAP1 PUSH2 0xF86 JUMP JUMPDEST PUSH2 0x327 JUMP JUMPDEST STOP JUMPDEST CALLVALUE DUP1 ISZERO PUSH2 0x113 JUMPI PUSH0 PUSH0 REVERT JUMPDEST POP PUSH2 0x12E PUSH1 0x4 DUP1 CALLDATASIZE SUB DUP2 ADD SWAP1 PUSH2 0x129 SWAP2 SWAP1 PUSH2 0x100B JUMP JUMPDEST PUSH2 0x52F JUMP JUMPDEST PUSH1 0x40 MLOAD PUSH2 0x13C SWAP3 SWAP2 SWAP1 PUSH2 0x1045 JUMP JUMPDEST PUSH1 0x40 MLOAD DUP1 SWAP2 SUB SWAP1 RETURN JUMPDEST PUSH2 0x14D PUSH2 0x54F JUMP JUMPDEST STOP JUMPDEST CALLVALUE DUP1 ISZERO PUSH2 0x15A JUMPI PUSH0 PUSH0 REVERT JUMPDEST POP PUSH2 0x175 PUSH1 0x4 DUP1 CALLDATASIZE SUB DUP2 ADD SWAP1 PUSH2 0x170 SWAP2 SWAP1 PUSH2 0xF86 JUMP JUMPDEST PUSH2 0x6C6 JUMP JUMPDEST PUSH1 0x40 MLOAD PUSH2 0x182 SWAP2 SWAP1 PUSH2 0x106C JUMP JUMPDEST PUSH1 0x40 MLOAD DUP1 SWAP2 SUB SWAP1 RETURN JUMPDEST CALLVALUE DUP1 ISZERO PUSH2 0x196 JUMPI PUSH0 PUSH0 REVERT JUMPDEST POP PUSH2 0x19F PUSH2 0x783 JUMP JUMPDEST STOP JUMPDEST CALLVALUE DUP1 ISZERO PUSH2 0x1AC JUMPI PUSH0 PUSH0 REVERT JUMPDEST POP PUSH2 0x1B5 PUSH2 0x796 JUMP JUMPDEST PUSH1 0x40 MLOAD PUSH2 0x1C2 SWAP2 SWAP1 PUSH2 0x10E0 JUMP JUMPDEST PUSH1 0x40 MLOAD DUP1 SWAP2 SUB SWAP1 RETURN JUMPDEST CALLVALUE DUP1 ISZERO PUSH2 0x1D6 JUMPI PUSH0 PUSH0 REVERT JUMPDEST POP PUSH2 0x1DF PUSH2 0x7BB JUMP JUMPDEST PUSH1 0x40 MLOAD PUSH2 0x1EC SWAP2 SWAP1 PUSH2 0x106C JUMP JUMPDEST PUSH1 0x40 MLOAD DUP1 SWAP2 SUB SWAP1 RETURN JUMPDEST CALLVALUE DUP1 ISZERO PUSH2 0x200 JUMPI PUSH0 PUSH0 REVERT JUMPDEST POP PUSH2 0x209 PUSH2 0x7DF JUMP JUMPDEST PUSH1 0x40 MLOAD PUSH2 0x216 SWAP2 SWAP1 PUSH2 0x1119 JUMP JUMPDEST PUSH1 0x40 MLOAD DUP1 SWAP2 SUB SWAP1 RETURN JUMPDEST CALLVALUE DUP1 ISZERO PUSH2 0x22A JUMPI PUSH0 PUSH0 REVERT JUMPDEST POP PUSH2 0x233 PUSH2 0x803 JUMP JUMPDEST PUSH1 0x40 MLOAD PUSH2 0x240 SWAP2 SWAP1 PUSH2 0x1141 JUMP JUMPDEST PUSH1 0x40 MLOAD DUP1 SWAP2 SUB SWAP1 RETURN JUMPDEST CALLVALUE DUP1 ISZERO PUSH2 0x254 JUMPI PUSH0 PUSH0 REVERT JUMPDEST POP PUSH2 0x26F PUSH1 0x4 DUP1 CALLDATASIZE SUB DUP2 ADD SWAP1 PUSH2 0x26A SWAP2 SWAP1 PUSH2 0xF86 JUMP JUMPDEST PUSH2 0x82A JUMP JUMPDEST STOP JUMPDEST CALLVALUE DUP1 ISZERO PUSH2 0x27C JUMPI PUSH0 PUSH0 REVERT JUMPDEST POP PUSH2 0x297 PUSH1 0x4 DUP1 CALLDATASIZE SUB DUP2 ADD SWAP1 PUSH2 0x292 SWAP2 SWAP1 PUSH2 0x100B JUMP JUMPDEST PUSH2 0xAAE JUMP JUMPDEST PUSH1 0x40 MLOAD PUSH2 0x2A4 SWAP2 SWAP1 PUSH2 0x1196 JUMP JUMPDEST PUSH1 0x40 MLOAD DUP1 SWAP2 SUB SWAP1 RETURN JUMPDEST CALLVALUE DUP1 ISZERO PUSH2 0x2B8 JUMPI PUSH0 PUSH0 REVERT JUMPDEST POP PUSH2 0x2C1 PUSH2 0xB18 JUMP JUMPDEST PUSH1 0x40 MLOAD PUSH2 0x2CE SWAP2 SWAP1 PUSH2 0x106C JUMP JUMPDEST PUSH1 0x40 MLOAD DUP1 SWAP2 SUB SWAP1 RETURN JUMPDEST CALLVALUE DUP1 ISZERO PUSH2 0x2E2 JUMPI PUSH0 PUSH0 REVERT JUMPDEST POP PUSH2 0x2FD PUSH1 0x4 DUP1 CALLDATASIZE SUB DUP2 ADD SWAP1 PUSH2 0x2F8 SWAP2 SWAP1 PUSH2 0x100B JUMP JUMPDEST PUSH2 0xB1E JUMP JUMPDEST STOP JUMPDEST CALLVALUE DUP1 ISZERO PUSH2 0x30A JUMPI PUSH0 PUSH0 REVERT JUMPDEST POP PUSH2 0x325 PUSH1 0x4 DUP1 CALLDATASIZE SUB DUP2 ADD SWAP1 PUSH2 0x320 SWAP2 SWAP1 PUSH2 0xF86 JUMP JUMPDEST PUSH2 0xBA2 JUMP JUMPDEST STOP JUMPDEST PUSH1 0x3 PUSH0 SWAP1 SLOAD SWAP1 PUSH2 0x100 EXP SWAP1 DIV PUSH1 0xFF AND ISZERO PUSH2 0x36D JUMPI PUSH1 0x40 MLOAD PUSH32 0x37ED32E800000000000000000000000000000000000000000000000000000000 DUP2 MSTORE PUSH1 0x4 ADD PUSH1 0x40 MLOAD DUP1 SWAP2 SUB SWAP1 REVERT JUMPDEST PUSH1 0x1 PUSH1 0x3 PUSH0 PUSH2 0x100 EXP DUP2 SLOAD DUP2 PUSH1 0xFF MUL NOT AND SWAP1 DUP4 ISZERO ISZERO MUL OR SWAP1 SSTORE POP DUP1 PUSH0 DUP2 SUB PUSH2 0x3C1 JUMPI PUSH1 0x40 MLOAD PUSH32 0x2C5211C600000000000000000000000000000000000000000000000000000000 DUP2 MSTORE PUSH1 0x4 ADD PUSH1 0x40 MLOAD DUP1 SWAP2 SUB SWAP1 REVERT JUMPDEST PUSH0 PUSH1 0x4 PUSH0 CALLER PUSH20 0xFFFFFFFFFFFFFFFFFFFFFFFFFFFFFFFFFFFFFFFF AND PUSH20 0xFFFFFFFFFFFFFFFFFFFFFFFFFFFFFFFFFFFFFFFF AND DUP2 MSTORE PUSH1 0x20 ADD SWAP1 DUP2 MSTORE PUSH1 0x20 ADD PUSH0 KECCAK256 PUSH0 ADD SLOAD SWAP1 POP DUP1 DUP4 GT ISZERO PUSH2 0x43E JUMPI PUSH1 0x40 MLOAD PUSH32 0xF4D678B800000000000000000000000000000000000000000000000000000000 DUP2 MSTORE PUSH1 0x4 ADD PUSH1 0x40 MLOAD DUP1 SWAP2 SUB SWAP1 REVERT JUMPDEST DUP3 DUP2 PUSH2 0x44A SWAP2 SWAP1 PUSH2 0x11DC JUMP JUMPDEST PUSH1 0x4 PUSH0 CALLER PUSH20 0xFFFFFFFFFFFFFFFFFFFFFFFFFFFFFFFFFFFFFFFF AND PUSH20 0xFFFFFFFFFFFFFFFFFFFFFFFFFFFFFFFFFFFFFFFF AND DUP2 MSTORE PUSH1 0x20 ADD SWAP1 DUP2 MSTORE PUSH1 0x20 ADD PUSH0 KECCAK256 PUSH0 ADD DUP2 SWAP1 SSTORE POP DUP3 PUSH1 0x2 PUSH0 DUP3 DUP3 SLOAD PUSH2 0x49E SWAP2 SWAP1 PUSH2 0x11DC JUMP JUMPDEST SWAP3 POP POP DUP2 SWAP1 SSTORE POP PUSH2 0x4AF CALLER DUP5 PUSH2 0xD36 JUMP JUMPDEST PUSH1 0x40 MLOAD PUSH2 0x4BB SWAP1 PUSH2 0x1263 JUMP JUMPDEST PUSH1 0x40 MLOAD DUP1 SWAP2 SUB SWAP1 KECCAK256 CALLER PUSH20 0xFFFFFFFFFFFFFFFFFFFFFFFFFFFFFFFFFFFFFFFF AND PUSH32 0x323CEFFFCAFC4DAE937C4A852E3866ECDE9E8C1D723E1187230B982201040FB6 DUP6 PUSH1 0x40 MLOAD PUSH2 0x509 SWAP2 SWAP1 PUSH2 0x106C JUMP JUMPDEST PUSH1 0x40 MLOAD DUP1 SWAP2 SUB SWAP1 LOG3 POP POP PUSH0 PUSH1 0x3 PUSH0 PUSH2 0x100 EXP DUP2 SLOAD DUP2 PUSH1 0xFF MUL NOT AND SWAP1 DUP4 ISZERO ISZERO MUL OR SWAP1 SSTORE POP POP JUMP JUMPDEST PUSH1 0x4 PUSH1 0x20 MSTORE DUP1 PUSH0 MSTORE PUSH1 0x40 PUSH0 KECCAK256 PUSH0 SWAP2 POP SWAP1 POP DUP1 PUSH0 ADD SLOAD SWAP1 DUP1 PUSH1 0x1 ADD SLOAD SWAP1 POP DUP3 JUMP JUMPDEST CALLVALUE PUSH0 DUP2 SUB PUSH2 0x589 JUMPI PUSH1 0x40 MLOAD PUSH32 0x2C5211C600000000000000000000000000000000000000000000000000000000 DUP2 MSTORE PUSH1 0x4 ADD PUSH1 0x40 MLOAD DUP1 SWAP2 SUB SWAP1 REVERT JUMPDEST PUSH0 PUSH2 0x5A0 CALLVALUE PUSH1 0x2 SLOAD PUSH2 0x59B SWAP2 SWAP1 PUSH2 0x1277 JUMP JUMPDEST PUSH2 0x6C6 JUMP JUMPDEST SWAP1 POP PUSH32 0x0 DUP2 GT ISZERO PUSH2 0x5FC JUMPI PUSH1 0x40 MLOAD PUSH32 0x448F3CA800000000000000000000000000000000000000000000000000000000 DUP2 MSTORE PUSH1 0x4 ADD PUSH1 0x40 MLOAD DUP1 SWAP2 SUB SWAP1 REVERT JUMPDEST CALLVALUE PUSH1 0x2 PUSH0 DUP3 DUP3 SLOAD ADD SWAP3 POP POP DUP2 SWAP1 SSTORE POP CALLVALUE PUSH1 0x4 PUSH0 CALLER PUSH20 0xFFFFFFFFFFFFFFFFFFFFFFFFFFFFFFFFFFFFFFFF AND PUSH20 0xFFFFFFFFFFFFFFFFFFFFFFFFFFFFFFFFFFFFFFFF AND DUP2 MSTORE PUSH1 0x20 ADD SWAP1 DUP2 MSTORE PUSH1 0x20 ADD PUSH0 KECCAK256 PUSH0 ADD PUSH0 DUP3 DUP3 SLOAD PUSH2 0x659 SWAP2 SWAP1 PUSH2 0x1277 JUMP JUMPDEST SWAP3 POP POP DUP2 SWAP1 SSTORE POP PUSH1 0x40 MLOAD PUSH2 0x66C SWAP1 PUSH2 0x1263 JUMP JUMPDEST PUSH1 0x40 MLOAD DUP1 SWAP2 SUB SWAP1 KECCAK256 CALLER PUSH20 0xFFFFFFFFFFFFFFFFFFFFFFFFFFFFFFFFFFFFFFFF AND PUSH32 0x2D4B597935F3CD67FB2EEBF1DB4DEBC934CEE5C7BAA7153F980FDBEB2E74084E CALLVALUE PUSH1 0x40 MLOAD PUSH2 0x6BA SWAP2 SWAP1 PUSH2 0x106C JUMP JUMPDEST PUSH1 0x40 MLOAD DUP1 SWAP2 SUB SWAP1 LOG3 POP POP JUMP JUMPDEST PUSH0 PUSH0 PUSH1 0x1 PUSH0 SWAP1 SLOAD SWAP1 PUSH2 0x100 EXP SWAP1 DIV PUSH20 0xFFFFFFFFFFFFFFFFFFFFFFFFFFFFFFFFFFFFFFFF AND PUSH20 0xFFFFFFFFFFFFFFFFFFFFFFFFFFFFFFFFFFFFFFFF AND PUSH4 0xFEAF968C PUSH1 0x40 MLOAD DUP2 PUSH4 0xFFFFFFFF AND PUSH1 0xE0 SHL DUP2 MSTORE PUSH1 0x4 ADD PUSH1 0xA0 PUSH1 0x40 MLOAD DUP1 DUP4 SUB DUP2 DUP7 GAS STATICCALL ISZERO DUP1 ISZERO PUSH2 0x732 JUMPI RETURNDATASIZE PUSH0 PUSH0 RETURNDATACOPY RETURNDATASIZE PUSH0 REVERT JUMPDEST POP POP POP POP PUSH1 0x40 MLOAD RETURNDATASIZE PUSH1 0x1F NOT PUSH1 0x1F DUP3 ADD AND DUP3 ADD DUP1 PUSH1 0x40 MSTORE POP DUP2 ADD SWAP1 PUSH2 0x756 SWAP2 SWAP1 PUSH2 0x1330 JUMP JUMPDEST POP POP POP SWAP2 POP POP PUSH8 0xDE0B6B3A7640000 DUP4 DUP3 PUSH2 0x771 SWAP2 SWAP1 PUSH2 0x13A7 JUMP JUMPDEST PUSH2 0x77B SWAP2 SWAP1 PUSH2 0x1415 JUMP JUMPDEST SWAP2 POP POP SWAP2 SWAP1 POP JUMP JUMPDEST PUSH2 0x78B PUSH2 0xDE8 JUMP JUMPDEST PUSH2 0x794 PUSH0 PUSH2 0xE6F JUMP JUMPDEST JUMP JUMPDEST PUSH1 0x1 PUSH0 SWAP1 SLOAD SWAP1 PUSH2 0x100 EXP SWAP1 DIV PUSH20 0xFFFFFFFFFFFFFFFFFFFFFFFFFFFFFFFFFFFFFFFF AND DUP2 JUMP JUMPDEST PUSH32 0x0 DUP2 JUMP JUMPDEST PUSH32 0x0 DUP2 JUMP JUMPDEST PUSH0 PUSH0 PUSH0 SWAP1 SLOAD SWAP1 PUSH2 0x100 EXP SWAP1 DIV PUSH20 0xFFFFFFFFFFFFFFFFFFFFFFFFFFFFFFFFFFFFFFFF AND SWAP1 POP SWAP1 JUMP JUMPDEST PUSH1 0x3 PUSH0 SWAP1 SLOAD SWAP1 PUSH2 0x100 EXP SWAP1 DIV PUSH1 0xFF AND ISZERO PUSH2 0x870 JUMPI PUSH1 0x40 MLOAD PUSH32 0x37ED32E800000000000000000000000000000000000000000000000000000000 DUP2 MSTORE PUSH1 0x4 ADD PUSH1 0x40 MLOAD DUP1 SWAP2 SUB SWAP1 REVERT JUMPDEST PUSH1 0x1 PUSH1 0x3 PUSH0 PUSH2 0x100 EXP DUP2 SLOAD DUP2 PUSH1 0xFF MUL NOT AND SWAP1 DUP4 ISZERO ISZERO MUL OR SWAP1 SSTORE POP DUP1 PUSH0 DUP2 SUB PUSH2 0x8C4 JUMPI PUSH1 0x40 MLOAD PUSH32 0x2C5211C600000000000000000000000000000000000000000000000000000000 DUP2 MSTORE PUSH1 0x4 ADD PUSH1 0x40 MLOAD DUP1 SWAP2 SUB SWAP1 REVERT JUMPDEST PUSH0 PUSH1 0x4 PUSH0 CALLER PUSH20 0xFFFFFFFFFFFFFFFFFFFFFFFFFFFFFFFFFFFFFFFF AND PUSH20 0xFFFFFFFFFFFFFFFFFFFFFFFFFFFFFFFFFFFFFFFF AND DUP2 MSTORE PUSH1 0x20 ADD SWAP1 DUP2 MSTORE PUSH1 0x20 ADD PUSH0 KECCAK256 PUSH1 0x1 ADD SLOAD SWAP1 POP DUP1 DUP4 GT ISZERO PUSH2 0x942 JUMPI PUSH1 0x40 MLOAD PUSH32 0xF4D678B800000000000000000000000000000000000000000000000000000000 DUP2 MSTORE PUSH1 0x4 ADD PUSH1 0x40 MLOAD DUP1 SWAP2 SUB SWAP1 REVERT JUMPDEST DUP3 DUP2 PUSH2 0x94E SWAP2 SWAP1 PUSH2 0x11DC JUMP JUMPDEST PUSH1 0x4 PUSH0 CALLER PUSH20 0xFFFFFFFFFFFFFFFFFFFFFFFFFFFFFFFFFFFFFFFF AND PUSH20 0xFFFFFFFFFFFFFFFFFFFFFFFFFFFFFFFFFFFFFFFF AND DUP2 MSTORE PUSH1 0x20 ADD SWAP1 DUP2 MSTORE PUSH1 0x20 ADD PUSH0 KECCAK256 PUSH1 0x1 ADD DUP2 SWAP1 SSTORE POP PUSH32 0x0 PUSH20 0xFFFFFFFFFFFFFFFFFFFFFFFFFFFFFFFFFFFFFFFF AND PUSH4 0xA9059CBB CALLER DUP6 PUSH1 0x40 MLOAD DUP4 PUSH4 0xFFFFFFFF AND PUSH1 0xE0 SHL DUP2 MSTORE PUSH1 0x4 ADD PUSH2 0x9ED SWAP3 SWAP2 SWAP1 PUSH2 0x1445 JUMP JUMPDEST PUSH1 0x20 PUSH1 0x40 MLOAD DUP1 DUP4 SUB DUP2 PUSH0 DUP8 GAS CALL ISZERO DUP1 ISZERO PUSH2 0xA09 JUMPI RETURNDATASIZE PUSH0 PUSH0 RETURNDATACOPY RETURNDATASIZE PUSH0 REVERT JUMPDEST POP POP POP POP PUSH1 0x40 MLOAD RETURNDATASIZE PUSH1 0x1F NOT PUSH1 0x1F DUP3 ADD AND DUP3 ADD DUP1 PUSH1 0x40 MSTORE POP DUP2 ADD SWAP1 PUSH2 0xA2D SWAP2 SWAP1 PUSH2 0x14A1 JUMP JUMPDEST POP PUSH1 0x40 MLOAD PUSH2 0xA3A SWAP1 PUSH2 0x1516 JUMP JUMPDEST PUSH1 0x40 MLOAD DUP1 SWAP2 SUB SWAP1 KECCAK256 CALLER PUSH20 0xFFFFFFFFFFFFFFFFFFFFFFFFFFFFFFFFFFFFFFFF AND PUSH32 0x323CEFFFCAFC4DAE937C4A852E3866ECDE9E8C1D723E1187230B982201040FB6 DUP6 PUSH1 0x40 MLOAD PUSH2 0xA88 SWAP2 SWAP1 PUSH2 0x106C JUMP JUMPDEST PUSH1 0x40 MLOAD DUP1 SWAP2 SUB SWAP1 LOG3 POP POP PUSH0 PUSH1 0x3 PUSH0 PUSH2 0x100 EXP DUP2 SLOAD DUP2 PUSH1 0xFF MUL NOT AND SWAP1 DUP4 ISZERO ISZERO MUL OR SWAP1 SSTORE POP POP JUMP JUMPDEST PUSH2 0xAB6 PUSH2 0xF37 JUMP JUMPDEST PUSH1 0x4 PUSH0 DUP4 PUSH20 0xFFFFFFFFFFFFFFFFFFFFFFFFFFFFFFFFFFFFFFFF AND PUSH20 0xFFFFFFFFFFFFFFFFFFFFFFFFFFFFFFFFFFFFFFFF AND DUP2 MSTORE PUSH1 0x20 ADD SWAP1 DUP2 MSTORE PUSH1 0x20 ADD PUSH0 KECCAK256 PUSH1 0x40 MLOAD DUP1 PUSH1 0x40 ADD PUSH1 0x40 MSTORE SWAP1 DUP2 PUSH0 DUP3 ADD SLOAD DUP2 MSTORE PUSH1 0x20 ADD PUSH1 0x1 DUP3 ADD SLOAD DUP2 MSTORE POP POP SWAP1 POP SWAP2 SWAP1 POP JUMP JUMPDEST PUSH1 0x2 SLOAD DUP2 JUMP JUMPDEST PUSH2 0xB26 PUSH2 0xDE8 JUMP JUMPDEST PUSH0 PUSH20 0xFFFFFFFFFFFFFFFFFFFFFFFFFFFFFFFFFFFFFFFF AND DUP2 PUSH20 0xFFFFFFFFFFFFFFFFFFFFFFFFFFFFFFFFFFFFFFFF AND SUB PUSH2 0xB96 JUMPI PUSH0 PUSH1 0x40 MLOAD PUSH32 0x1E4FBDF700000000000000000000000000000000000000000000000000000000 DUP2 MSTORE PUSH1 0x4 ADD PUSH2 0xB8D SWAP2 SWAP1 PUSH2 0x1141 JUMP JUMPDEST PUSH1 0x40 MLOAD DUP1 SWAP2 SUB SWAP1 REVERT JUMPDEST PUSH2 0xB9F DUP2 PUSH2 0xE6F JUMP JUMPDEST POP JUMP JUMPDEST DUP1 PUSH0 DUP2 SUB PUSH2 0xBDC JUMPI PUSH1 0x40 MLOAD PUSH32 0x2C5211C600000000000000000000000000000000000000000000000000000000 DUP2 MSTORE PUSH1 0x4 ADD PUSH1 0x40 MLOAD DUP1 SWAP2 SUB SWAP1 REVERT JUMPDEST DUP2 PUSH1 0x4 PUSH0 CALLER PUSH20 0xFFFFFFFFFFFFFFFFFFFFFFFFFFFFFFFFFFFFFFFF AND PUSH20 0xFFFFFFFFFFFFFFFFFFFFFFFFFFFFFFFFFFFFFFFF AND DUP2 MSTORE PUSH1 0x20 ADD SWAP1 DUP2 MSTORE PUSH1 0x20 ADD PUSH0 KECCAK256 PUSH1 0x1 ADD PUSH0 DUP3 DUP3 SLOAD PUSH2 0xC2B SWAP2 SWAP1 PUSH2 0x1277 JUMP JUMPDEST SWAP3 POP POP DUP2 SWAP1 SSTORE POP PUSH32 0x0 PUSH20 0xFFFFFFFFFFFFFFFFFFFFFFFFFFFFFFFFFFFFFFFF AND PUSH4 0x23B872DD CALLER ADDRESS DUP6 PUSH1 0x40 MLOAD DUP5 PUSH4 0xFFFFFFFF AND PUSH1 0xE0 SHL DUP2 MSTORE PUSH1 0x4 ADD PUSH2 0xC8F SWAP4 SWAP3 SWAP2 SWAP1 PUSH2 0x152A JUMP JUMPDEST PUSH1 0x20 PUSH1 0x40 MLOAD DUP1 DUP4 SUB DUP2 PUSH0 DUP8 GAS CALL ISZERO DUP1 ISZERO PUSH2 0xCAB JUMPI RETURNDATASIZE PUSH0 PUSH0 RETURNDATACOPY RETURNDATASIZE PUSH0 REVERT JUMPDEST POP POP POP POP PUSH1 0x40 MLOAD RETURNDATASIZE PUSH1 0x1F NOT PUSH1 0x1F DUP3 ADD AND DUP3 ADD DUP1 PUSH1 0x40 MSTORE POP DUP2 ADD SWAP1 PUSH2 0xCCF SWAP2 SWAP1 PUSH2 0x14A1 JUMP JUMPDEST POP PUSH1 0x40 MLOAD PUSH2 0xCDC SWAP1 PUSH2 0x1516 JUMP JUMPDEST PUSH1 0x40 MLOAD DUP1 SWAP2 SUB SWAP1 KECCAK256 CALLER PUSH20 0xFFFFFFFFFFFFFFFFFFFFFFFFFFFFFFFFFFFFFFFF AND PUSH32 0x2D4B597935F3CD67FB2EEBF1DB4DEBC934CEE5C7BAA7153F980FDBEB2E74084E DUP5 PUSH1 0x40 MLOAD PUSH2 0xD2A SWAP2 SWAP1 PUSH2 0x106C JUMP JUMPDEST PUSH1 0x40 MLOAD DUP1 SWAP2 SUB SWAP1 LOG3 POP POP JUMP JUMPDEST PUSH0 PUSH0 DUP4 PUSH20 0xFFFFFFFFFFFFFFFFFFFFFFFFFFFFFFFFFFFFFFFF AND DUP4 PUSH1 0x40 MLOAD PUSH2 0xD5C SWAP1 PUSH2 0x158C JUMP JUMPDEST PUSH0 PUSH1 0x40 MLOAD DUP1 DUP4 SUB DUP2 DUP6 DUP8 GAS CALL SWAP3 POP POP POP RETURNDATASIZE DUP1 PUSH0 DUP2 EQ PUSH2 0xD96 JUMPI PUSH1 0x40 MLOAD SWAP2 POP PUSH1 0x1F NOT PUSH1 0x3F RETURNDATASIZE ADD AND DUP3 ADD PUSH1 0x40 MSTORE RETURNDATASIZE DUP3 MSTORE RETURNDATASIZE PUSH0 PUSH1 0x20 DUP5 ADD RETURNDATACOPY PUSH2 0xD9B JUMP JUMPDEST PUSH1 0x60 SWAP2 POP JUMPDEST POP SWAP2 POP SWAP2 POP DUP2 PUSH2 0xDE2 JUMPI DUP1 PUSH1 0x40 MLOAD PUSH32 0x49BA945B00000000000000000000000000000000000000000000000000000000 DUP2 MSTORE PUSH1 0x4 ADD PUSH2 0xDD9 SWAP2 SWAP1 PUSH2 0x1610 JUMP JUMPDEST PUSH1 0x40 MLOAD DUP1 SWAP2 SUB SWAP1 REVERT JUMPDEST POP POP POP POP JUMP JUMPDEST PUSH2 0xDF0 PUSH2 0xF30 JUMP JUMPDEST PUSH20 0xFFFFFFFFFFFFFFFFFFFFFFFFFFFFFFFFFFFFFFFF AND PUSH2 0xE0E PUSH2 0x803 JUMP JUMPDEST PUSH20 0xFFFFFFFFFFFFFFFFFFFFFFFFFFFFFFFFFFFFFFFF AND EQ PUSH2 0xE6D JUMPI PUSH2 0xE31 PUSH2 0xF30 JUMP JUMPDEST PUSH1 0x40 MLOAD PUSH32 0x118CDAA700000000000000000000000000000000000000000000000000000000 DUP2 MSTORE PUSH1 0x4 ADD PUSH2 0xE64 SWAP2 SWAP1 PUSH2 0x1141 JUMP JUMPDEST PUSH1 0x40 MLOAD DUP1 SWAP2 SUB SWAP1 REVERT JUMPDEST JUMP JUMPDEST PUSH0 PUSH0 PUSH0 SWAP1 SLOAD SWAP1 PUSH2 0x100 EXP SWAP1 DIV PUSH20 0xFFFFFFFFFFFFFFFFFFFFFFFFFFFFFFFFFFFFFFFF AND SWAP1 POP DUP2 PUSH0 PUSH0 PUSH2 0x100 EXP DUP2 SLOAD DUP2 PUSH20 0xFFFFFFFFFFFFFFFFFFFFFFFFFFFFFFFFFFFFFFFF MUL NOT AND SWAP1 DUP4 PUSH20 0xFFFFFFFFFFFFFFFFFFFFFFFFFFFFFFFFFFFFFFFF AND MUL OR SWAP1 SSTORE POP DUP2 PUSH20 0xFFFFFFFFFFFFFFFFFFFFFFFFFFFFFFFFFFFFFFFF AND DUP2 PUSH20 0xFFFFFFFFFFFFFFFFFFFFFFFFFFFFFFFFFFFFFFFF AND PUSH32 0x8BE0079C531659141344CD1FD0A4F28419497F9722A3DAAFE3B4186F6B6457E0 PUSH1 0x40 MLOAD PUSH1 0x40 MLOAD DUP1 SWAP2 SUB SWAP1 LOG3 POP POP JUMP JUMPDEST PUSH0 CALLER SWAP1 POP SWAP1 JUMP JUMPDEST PUSH1 0x40 MLOAD DUP1 PUSH1 0x40 ADD PUSH1 0x40 MSTORE DUP1 PUSH0 DUP2 MSTORE PUSH1 0x20 ADD PUSH0 DUP2 MSTORE POP SWAP1 JUMP JUMPDEST PUSH0 PUSH0 REVERT JUMPDEST PUSH0 DUP2 SWAP1 POP SWAP2 SWAP1 POP JUMP JUMPDEST PUSH2 0xF65 DUP2 PUSH2 0xF53 JUMP JUMPDEST DUP2 EQ PUSH2 0xF6F JUMPI PUSH0 PUSH0 REVERT JUMPDEST POP JUMP JUMPDEST PUSH0 DUP2 CALLDATALOAD SWAP1 POP PUSH2 0xF80 DUP2 PUSH2 0xF5C JUMP JUMPDEST SWAP3 SWAP2 POP POP JUMP JUMPDEST PUSH0 PUSH1 0x20 DUP3 DUP5 SUB SLT ISZERO PUSH2 0xF9B JUMPI PUSH2 0xF9A PUSH2 0xF4F JUMP JUMPDEST JUMPDEST PUSH0 PUSH2 0xFA8 DUP5 DUP3 DUP6 ADD PUSH2 0xF72 JUMP JUMPDEST SWAP2 POP POP SWAP3 SWAP2 POP POP JUMP JUMPDEST PUSH0 PUSH20 0xFFFFFFFFFFFFFFFFFFFFFFFFFFFFFFFFFFFFFFFF DUP3 AND SWAP1 POP SWAP2 SWAP1 POP JUMP JUMPDEST PUSH0 PUSH2 0xFDA DUP3 PUSH2 0xFB1 JUMP JUMPDEST SWAP1 POP SWAP2 SWAP1 POP JUMP JUMPDEST PUSH2 0xFEA DUP2 PUSH2 0xFD0 JUMP JUMPDEST DUP2 EQ PUSH2 0xFF4 JUMPI PUSH0 PUSH0 REVERT JUMPDEST POP JUMP JUMPDEST PUSH0 DUP2 CALLDATALOAD SWAP1 POP PUSH2 0x1005 DUP2 PUSH2 0xFE1 JUMP JUMPDEST SWAP3 SWAP2 POP POP JUMP JUMPDEST PUSH0 PUSH1 0x20 DUP3 DUP5 SUB SLT ISZERO PUSH2 0x1020 JUMPI PUSH2 0x101F PUSH2 0xF4F JUMP JUMPDEST JUMPDEST PUSH0 PUSH2 0x102D DUP5 DUP3 DUP6 ADD PUSH2 0xFF7 JUMP JUMPDEST SWAP2 POP POP SWAP3 SWAP2 POP POP JUMP JUMPDEST PUSH2 0x103F DUP2 PUSH2 0xF53 JUMP JUMPDEST DUP3 MSTORE POP POP JUMP JUMPDEST PUSH0 PUSH1 0x40 DUP3 ADD SWAP1 POP PUSH2 0x1058 PUSH0 DUP4 ADD DUP6 PUSH2 0x1036 JUMP JUMPDEST PUSH2 0x1065 PUSH1 0x20 DUP4 ADD DUP5 PUSH2 0x1036 JUMP JUMPDEST SWAP4 SWAP3 POP POP POP JUMP JUMPDEST PUSH0 PUSH1 0x20 DUP3 ADD SWAP1 POP PUSH2 0x107F PUSH0 DUP4 ADD DUP5 PUSH2 0x1036 JUMP JUMPDEST SWAP3 SWAP2 POP POP JUMP JUMPDEST PUSH0 DUP2 SWAP1 POP SWAP2 SWAP1 POP JUMP JUMPDEST PUSH0 PUSH2 0x10A8 PUSH2 0x10A3 PUSH2 0x109E DUP5 PUSH2 0xFB1 JUMP JUMPDEST PUSH2 0x1085 JUMP JUMPDEST PUSH2 0xFB1 JUMP JUMPDEST SWAP1 POP SWAP2 SWAP1 POP JUMP JUMPDEST PUSH0 PUSH2 0x10B9 DUP3 PUSH2 0x108E JUMP JUMPDEST SWAP1 POP SWAP2 SWAP1 POP JUMP JUMPDEST PUSH0 PUSH2 0x10CA DUP3 PUSH2 0x10AF JUMP JUMPDEST SWAP1 POP SWAP2 SWAP1 POP JUMP JUMPDEST PUSH2 0x10DA DUP2 PUSH2 0x10C0 JUMP JUMPDEST DUP3 MSTORE POP POP JUMP JUMPDEST PUSH0 PUSH1 0x20 DUP3 ADD SWAP1 POP PUSH2 0x10F3 PUSH0 DUP4 ADD DUP5 PUSH2 0x10D1 JUMP JUMPDEST SWAP3 SWAP2 POP POP JUMP JUMPDEST PUSH0 PUSH2 0x1103 DUP3 PUSH2 0x10AF JUMP JUMPDEST SWAP1 POP SWAP2 SWAP1 POP JUMP JUMPDEST PUSH2 0x1113 DUP2 PUSH2 0x10F9 JUMP JUMPDEST DUP3 MSTORE POP POP JUMP JUMPDEST PUSH0 PUSH1 0x20 DUP3 ADD SWAP1 POP PUSH2 0x112C PUSH0 DUP4 ADD DUP5 PUSH2 0x110A JUMP JUMPDEST SWAP3 SWAP2 POP POP JUMP JUMPDEST PUSH2 0x113B DUP2 PUSH2 0xFD0 JUMP JUMPDEST DUP3 MSTORE POP POP JUMP JUMPDEST PUSH0 PUSH1 0x20 DUP3 ADD SWAP1 POP PUSH2 0x1154 PUSH0 DUP4 ADD DUP5 PUSH2 0x1132 JUMP JUMPDEST SWAP3 SWAP2 POP POP JUMP JUMPDEST PUSH2 0x1163 DUP2 PUSH2 0xF53 JUMP JUMPDEST DUP3 MSTORE POP POP JUMP JUMPDEST PUSH1 0x40 DUP3 ADD PUSH0 DUP3 ADD MLOAD PUSH2 0x117D PUSH0 DUP6 ADD DUP3 PUSH2 0x115A JUMP JUMPDEST POP PUSH1 0x20 DUP3 ADD MLOAD PUSH2 0x1190 PUSH1 0x20 DUP6 ADD DUP3 PUSH2 0x115A JUMP JUMPDEST POP POP POP POP JUMP JUMPDEST PUSH0 PUSH1 0x40 DUP3 ADD SWAP1 POP PUSH2 0x11A9 PUSH0 DUP4 ADD DUP5 PUSH2 0x1169 JUMP JUMPDEST SWAP3 SWAP2 POP POP JUMP JUMPDEST PUSH32 0x4E487B7100000000000000000000000000000000000000000000000000000000 PUSH0 MSTORE PUSH1 0x11 PUSH1 0x4 MSTORE PUSH1 0x24 PUSH0 REVERT JUMPDEST PUSH0 PUSH2 0x11E6 DUP3 PUSH2 0xF53 JUMP JUMPDEST SWAP2 POP PUSH2 0x11F1 DUP4 PUSH2 0xF53 JUMP JUMPDEST SWAP3 POP DUP3 DUP3 SUB SWAP1 POP DUP2 DUP2 GT ISZERO PUSH2 0x1209 JUMPI PUSH2 0x1208 PUSH2 0x11AF JUMP JUMPDEST JUMPDEST SWAP3 SWAP2 POP POP JUMP JUMPDEST PUSH0 DUP2 SWAP1 POP SWAP3 SWAP2 POP POP JUMP JUMPDEST PUSH32 0x4554480000000000000000000000000000000000000000000000000000000000 PUSH0 DUP3 ADD MSTORE POP JUMP JUMPDEST PUSH0 PUSH2 0x124D PUSH1 0x3 DUP4 PUSH2 0x120F JUMP JUMPDEST SWAP2 POP PUSH2 0x1258 DUP3 PUSH2 0x1219 JUMP JUMPDEST PUSH1 0x3 DUP3 ADD SWAP1 POP SWAP2 SWAP1 POP JUMP JUMPDEST PUSH0 PUSH2 0x126D DUP3 PUSH2 0x1241 JUMP JUMPDEST SWAP2 POP DUP2 SWAP1 POP SWAP2 SWAP1 POP JUMP JUMPDEST PUSH0 PUSH2 0x1281 DUP3 PUSH2 0xF53 JUMP JUMPDEST SWAP2 POP PUSH2 0x128C DUP4 PUSH2 0xF53 JUMP JUMPDEST SWAP3 POP DUP3 DUP3 ADD SWAP1 POP DUP1 DUP3 GT ISZERO PUSH2 0x12A4 JUMPI PUSH2 0x12A3 PUSH2 0x11AF JUMP JUMPDEST JUMPDEST SWAP3 SWAP2 POP POP JUMP JUMPDEST PUSH0 PUSH10 0xFFFFFFFFFFFFFFFFFFFF DUP3 AND SWAP1 POP SWAP2 SWAP1 POP JUMP JUMPDEST PUSH2 0x12C8 DUP2 PUSH2 0x12AA JUMP JUMPDEST DUP2 EQ PUSH2 0x12D2 JUMPI PUSH0 PUSH0 REVERT JUMPDEST POP JUMP JUMPDEST PUSH0 DUP2 MLOAD SWAP1 POP PUSH2 0x12E3 DUP2 PUSH2 0x12BF JUMP JUMPDEST SWAP3 SWAP2 POP POP JUMP JUMPDEST PUSH0 DUP2 SWAP1 POP SWAP2 SWAP1 POP JUMP JUMPDEST PUSH2 0x12FB DUP2 PUSH2 0x12E9 JUMP JUMPDEST DUP2 EQ PUSH2 0x1305 JUMPI PUSH0 PUSH0 REVERT JUMPDEST POP JUMP JUMPDEST PUSH0 DUP2 MLOAD SWAP1 POP PUSH2 0x1316 DUP2 PUSH2 0x12F2 JUMP JUMPDEST SWAP3 SWAP2 POP POP JUMP JUMPDEST PUSH0 DUP2 MLOAD SWAP1 POP PUSH2 0x132A DUP2 PUSH2 0xF5C JUMP JUMPDEST SWAP3 SWAP2 POP POP JUMP JUMPDEST PUSH0 PUSH0 PUSH0 PUSH0 PUSH0 PUSH1 0xA0 DUP7 DUP9 SUB SLT ISZERO PUSH2 0x1349 JUMPI PUSH2 0x1348 PUSH2 0xF4F JUMP JUMPDEST JUMPDEST PUSH0 PUSH2 0x1356 DUP9 DUP3 DUP10 ADD PUSH2 0x12D5 JUMP JUMPDEST SWAP6 POP POP PUSH1 0x20 PUSH2 0x1367 DUP9 DUP3 DUP10 ADD PUSH2 0x1308 JUMP JUMPDEST SWAP5 POP POP PUSH1 0x40 PUSH2 0x1378 DUP9 DUP3 DUP10 ADD PUSH2 0x131C JUMP JUMPDEST SWAP4 POP POP PUSH1 0x60 PUSH2 0x1389 DUP9 DUP3 DUP10 ADD PUSH2 0x131C JUMP JUMPDEST SWAP3 POP POP PUSH1 0x80 PUSH2 0x139A DUP9 DUP3 DUP10 ADD PUSH2 0x12D5 JUMP JUMPDEST SWAP2 POP POP SWAP3 SWAP6 POP SWAP3 SWAP6 SWAP1 SWAP4 POP JUMP JUMPDEST PUSH0 PUSH2 0x13B1 DUP3 PUSH2 0xF53 JUMP JUMPDEST SWAP2 POP PUSH2 0x13BC DUP4 PUSH2 0xF53 JUMP JUMPDEST SWAP3 POP DUP3 DUP3 MUL PUSH2 0x13CA DUP2 PUSH2 0xF53 JUMP JUMPDEST SWAP2 POP DUP3 DUP3 DIV DUP5 EQ DUP4 ISZERO OR PUSH2 0x13E1 JUMPI PUSH2 0x13E0 PUSH2 0x11AF JUMP JUMPDEST JUMPDEST POP SWAP3 SWAP2 POP POP JUMP JUMPDEST PUSH32 0x4E487B7100000000000000000000000000000000000000000000000000000000 PUSH0 MSTORE PUSH1 0x12 PUSH1 0x4 MSTORE PUSH1 0x24 PUSH0 REVERT JUMPDEST PUSH0 PUSH2 0x141F DUP3 PUSH2 0xF53 JUMP JUMPDEST SWAP2 POP PUSH2 0x142A DUP4 PUSH2 0xF53 JUMP JUMPDEST SWAP3 POP DUP3 PUSH2 0x143A JUMPI PUSH2 0x1439 PUSH2 0x13E8 JUMP JUMPDEST JUMPDEST DUP3 DUP3 DIV SWAP1 POP SWAP3 SWAP2 POP POP JUMP JUMPDEST PUSH0 PUSH1 0x40 DUP3 ADD SWAP1 POP PUSH2 0x1458 PUSH0 DUP4 ADD DUP6 PUSH2 0x1132 JUMP JUMPDEST PUSH2 0x1465 PUSH1 0x20 DUP4 ADD DUP5 PUSH2 0x1036 JUMP JUMPDEST SWAP4 SWAP3 POP POP POP JUMP JUMPDEST PUSH0 DUP2 ISZERO ISZERO SWAP1 POP SWAP2 SWAP1 POP JUMP JUMPDEST PUSH2 0x1480 DUP2 PUSH2 0x146C JUMP JUMPDEST DUP2 EQ PUSH2 0x148A JUMPI PUSH0 PUSH0 REVERT JUMPDEST POP JUMP JUMPDEST PUSH0 DUP2 MLOAD SWAP1 POP PUSH2 0x149B DUP2 PUSH2 0x1477 JUMP JUMPDEST SWAP3 SWAP2 POP POP JUMP JUMPDEST PUSH0 PUSH1 0x20 DUP3 DUP5 SUB SLT ISZERO PUSH2 0x14B6 JUMPI PUSH2 0x14B5 PUSH2 0xF4F JUMP JUMPDEST JUMPDEST PUSH0 PUSH2 0x14C3 DUP5 DUP3 DUP6 ADD PUSH2 0x148D JUMP JUMPDEST SWAP2 POP POP SWAP3 SWAP2 POP POP JUMP JUMPDEST PUSH32 0x5553444300000000000000000000000000000000000000000000000000000000 PUSH0 DUP3 ADD MSTORE POP JUMP JUMPDEST PUSH0 PUSH2 0x1500 PUSH1 0x4 DUP4 PUSH2 0x120F JUMP JUMPDEST SWAP2 POP PUSH2 0x150B DUP3 PUSH2 0x14CC JUMP JUMPDEST PUSH1 0x4 DUP3 ADD SWAP1 POP SWAP2 SWAP1 POP JUMP JUMPDEST PUSH0 PUSH2 0x1520 DUP3 PUSH2 0x14F4 JUMP JUMPDEST SWAP2 POP DUP2 SWAP1 POP SWAP2 SWAP1 POP JUMP JUMPDEST PUSH0 PUSH1 0x60 DUP3 ADD SWAP1 POP PUSH2 0x153D PUSH0 DUP4 ADD DUP7 PUSH2 0x1132 JUMP JUMPDEST PUSH2 0x154A PUSH1 0x20 DUP4 ADD DUP6 PUSH2 0x1132 JUMP JUMPDEST PUSH2 0x1557 PUSH1 0x40 DUP4 ADD DUP5 PUSH2 0x1036 JUMP JUMPDEST SWAP5 SWAP4 POP POP POP POP JUMP JUMPDEST PUSH0 DUP2 SWAP1 POP SWAP3 SWAP2 POP POP JUMP JUMPDEST POP JUMP JUMPDEST PUSH0 PUSH2 0x1577 PUSH0 DUP4 PUSH2 0x155F JUMP JUMPDEST SWAP2 POP PUSH2 0x1582 DUP3 PUSH2 0x1569 JUMP JUMPDEST PUSH0 DUP3 ADD SWAP1 POP SWAP2 SWAP1 POP JUMP JUMPDEST PUSH0 PUSH2 0x1596 DUP3 PUSH2 0x156C JUMP JUMPDEST SWAP2 POP DUP2 SWAP1 POP SWAP2 SWAP1 POP JUMP JUMPDEST PUSH0 DUP2 MLOAD SWAP1 POP SWAP2 SWAP1 POP JUMP JUMPDEST PUSH0 DUP3 DUP3 MSTORE PUSH1 0x20 DUP3 ADD SWAP1 POP SWAP3 SWAP2 POP POP JUMP JUMPDEST DUP3 DUP2 DUP4 MCOPY PUSH0 DUP4 DUP4 ADD MSTORE POP POP POP JUMP JUMPDEST PUSH0 PUSH1 0x1F NOT PUSH1 0x1F DUP4 ADD AND SWAP1 POP SWAP2 SWAP1 POP JUMP JUMPDEST PUSH0 PUSH2 0x15E2 DUP3 PUSH2 0x15A0 JUMP JUMPDEST PUSH2 0x15EC DUP2 DUP6 PUSH2 0x15AA JUMP JUMPDEST SWAP4 POP PUSH2 0x15FC DUP2 DUP6 PUSH1 0x20 DUP7 ADD PUSH2 0x15BA JUMP JUMPDEST PUSH2 0x1605 DUP2 PUSH2 0x15C8 JUMP JUMPDEST DUP5 ADD SWAP2 POP POP SWAP3 SWAP2 POP POP JUMP JUMPDEST PUSH0 PUSH1 0x20 DUP3 ADD SWAP1 POP DUP2 DUP2 SUB PUSH0 DUP4 ADD MSTORE PUSH2 0x1628 DUP2 DUP5 PUSH2 0x15D8 JUMP JUMPDEST SWAP1 POP SWAP3 SWAP2 POP POP JUMP INVALID LOG2 PUSH5 0x6970667358 0x22 SLT KECCAK256 SWAP14 COINBASE SWAP5 0xC9 GAS LOG0 ORIGIN 0xA8 0xD 0xDE GAS AND 0x1F 0xB8 ADDMOD 0xF7 SLOAD PUSH1 0x96 PUSH19 0xB58AE09DB50A0FFFF7EEED3464736F6C634300 ADDMOD SHL STOP CALLER "
				},
				"gasEstimates": {
					"creation": {
						"codeDepositCost": "1146800",
						"executionCost": "infinite",
						"totalCost": "infinite"
					},
					"external": {
						"BANK_CAP_USD()": "infinite",
						"USDC()": "infinite",
						"balances(address)": "infinite",
						"depositEth()": "infinite",
						"depositUSDC(uint256)": "infinite",
						"getBalances(address)": "infinite",
						"getEthValueInUSD(uint256)": "infinite",
						"owner()": "2559",
						"priceFeed()": "infinite",
						"renounceOwnership()": "infinite",
						"totalEthDeposited()": "2469",
						"transferOwnership(address)": "infinite",
						"withdrawalEth(uint256)": "infinite",
						"withdrawalUSDC(uint256)": "infinite"
					},
					"internal": {
						"_transferEth(address payable,uint256)": "infinite"
					}
				},
				"methodIdentifiers": {
					"BANK_CAP_USD()": "893b7e95",
					"USDC()": "89a30271",
					"balances(address)": "27e235e3",
					"depositEth()": "439370b1",
					"depositUSDC(uint256)": "f688bcfb",
					"getBalances(address)": "c84aae17",
					"getEthValueInUSD(uint256)": "6a7bec4f",
					"owner()": "8da5cb5b",
					"priceFeed()": "741bef1a",
					"renounceOwnership()": "715018a6",
					"totalEthDeposited()": "eae6754a",
					"transferOwnership(address)": "f2fde38b",
					"withdrawalEth(uint256)": "1edc8f03",
					"withdrawalUSDC(uint256)": "9b900405"
				}
			},
			"storageLayout": {
				"storage": [
					{
						"astId": 54,
						"contract": "src/KipuBankV2.sol:KipuBankV2",
						"label": "_owner",
						"offset": 0,
						"slot": "0",
						"type": "t_address"
					},
					{
						"astId": 315,
						"contract": "src/KipuBankV2.sol:KipuBankV2",
						"label": "priceFeed",
						"offset": 0,
						"slot": "1",
						"type": "t_contract(AggregatorV3Interface)45"
					},
					{
						"astId": 321,
						"contract": "src/KipuBankV2.sol:KipuBankV2",
						"label": "totalEthDeposited",
						"offset": 0,
						"slot": "2",
						"type": "t_uint256"
					},
					{
						"astId": 324,
						"contract": "src/KipuBankV2.sol:KipuBankV2",
						"label": "locked",
						"offset": 0,
						"slot": "3",
						"type": "t_bool"
					},
					{
						"astId": 335,
						"contract": "src/KipuBankV2.sol:KipuBankV2",
						"label": "balances",
						"offset": 0,
						"slot": "4",
						"type": "t_mapping(t_address,t_struct(Balances)329_storage)"
					}
				],
				"types": {
					"t_address": {
						"encoding": "inplace",
						"label": "address",
						"numberOfBytes": "20"
					},
					"t_bool": {
						"encoding": "inplace",
						"label": "bool",
						"numberOfBytes": "1"
					},
					"t_contract(AggregatorV3Interface)45": {
						"encoding": "inplace",
						"label": "contract AggregatorV3Interface",
						"numberOfBytes": "20"
					},
					"t_mapping(t_address,t_struct(Balances)329_storage)": {
						"encoding": "mapping",
						"key": "t_address",
						"label": "mapping(address => struct KipuBankV2.Balances)",
						"numberOfBytes": "32",
						"value": "t_struct(Balances)329_storage"
					},
					"t_struct(Balances)329_storage": {
						"encoding": "inplace",
						"label": "struct KipuBankV2.Balances",
						"members": [
							{
								"astId": 326,
								"contract": "src/KipuBankV2.sol:KipuBankV2",
								"label": "eth",
								"offset": 0,
								"slot": "0",
								"type": "t_uint256"
							},
							{
								"astId": 328,
								"contract": "src/KipuBankV2.sol:KipuBankV2",
								"label": "usdc",
								"offset": 0,
								"slot": "1",
								"type": "t_uint256"
							}
						],
						"numberOfBytes": "64"
					},
					"t_uint256": {
						"encoding": "inplace",
						"label": "uint256",
						"numberOfBytes": "32"
					}
				}
			},
			"userdoc": {
				"errors": {
					"BankCapExceeded()": [
						{
							"notice": "Error thrown when the total deposits would exceed the bank's global cap."
						}
					],
					"InsufficientBalance()": [
						{
							"notice": "Error thrown when a user tries to withdraw more than their balance."
						}
					],
					"InvalidAmount()": [
						{
							"notice": "Error thrown when the provided amount is invalid (e.g., 0)."
						}
					],
					"ReentrantCall()": [
						{
							"notice": "Error for reentrancy guard, thrown when a reentrant call is detected."
						}
					],
					"WithdrawalFailed(bytes)": [
						{
							"notice": "Error thrown when a withdrawal transfer fails."
						}
					]
				},
				"kind": "user",
				"methods": {
					"BANK_CAP_USD()": {
						"notice": "The global deposit cap for the entire bank."
					},
					"balances(address)": {
						"notice": "Mapping from address to user balance."
					},
					"constructor": {
						"notice": "Initializes the contract."
					},
					"depositEth()": {
						"notice": "Deposits ETH into the user's balance."
					},
					"getBalances(address)": {
						"notice": "Gets the balances of a specific user."
					},
					"getEthValueInUSD(uint256)": {
						"notice": "Converts an amount of ETH (in wei) to its equivalent value in USD."
					},
					"totalEthDeposited()": {
						"notice": "The total amount of ETH currently deposited in the contract."
					},
					"withdrawalEth(uint256)": {
						"notice": "Withdraws ETH from the user's balance."
					}
				},
				"notice": "A simple banking contract where users can deposit and withdraw ETH.",
				"version": 1
			}
		}
	}
}